{
  "contractName": "Authority",
  "abi": [
    {
      "inputs": [],
      "stateMutability": "nonpayable",
      "type": "constructor"
    },
    {
      "inputs": [
        {
          "internalType": "address",
          "name": "addrs",
          "type": "address"
        }
      ],
      "name": "addAdmin",
      "outputs": [],
      "stateMutability": "nonpayable",
      "type": "function"
    },
    {
      "inputs": [
        {
          "internalType": "address",
          "name": "addrs",
          "type": "address"
        }
      ],
      "name": "removeAdmin",
      "outputs": [],
      "stateMutability": "nonpayable",
      "type": "function"
    }
  ],
  "bytecode": "0x608060405234801561001057600080fd5b50600080546001600160a01b0319163390811782558152600160208190526040909120805460ff191690911790556101b48061004d6000396000f3fe608060405234801561001057600080fd5b50600436106100365760003560e01c80631785f53c1461003b5780637048027514610050575b600080fd5b61004e61004936600461014e565b610063565b005b61004e61005e36600461014e565b6100d8565b6000546001600160a01b031633146100b75760405162461bcd60e51b8152602060048201526012602482015271e99d9ee59088e7baa6e68ba5e69c89e8808560701b60448201526064015b60405180910390fd5b6001600160a01b03166000908152600160205260409020805460ff19169055565b6000546001600160a01b031633146101275760405162461bcd60e51b8152602060048201526012602482015271e99d9ee59088e7baa6e68ba5e69c89e8808560701b60448201526064016100ae565b6001600160a01b03166000908152600160208190526040909120805460ff19169091179055565b60006020828403121561016057600080fd5b81356001600160a01b038116811461017757600080fd5b939250505056fea2646970667358221220fd6bce0654294df3317a40766cdde2e60324ad864fe00a949c9e554dcb599cfb64736f6c63430008120033",
  "immutableReferences": {},
  "source": "// SPDX-License-Identifier: GPL-3.0 \r\npragma solidity ^0.8.18;  \r\n\r\ncontract Authority {\r\n    address private OWNER;\r\n    mapping(address => bool) private ADMIN;\r\n\r\n    constructor() {\r\n        OWNER = msg.sender;\r\n        ADMIN[OWNER] = true; \r\n    }\r\n\r\n    modifier isOwner() {\r\n        require(msg.sender == OWNER, unicode\"非合约拥有者\");\r\n        _;\r\n    }\r\n    modifier isAdmin() {\r\n        require(ADMIN[msg.sender] == true, unicode\"无管理员权限\");\r\n        _;\r\n    } \r\n    function adminer() internal view returns (bool) {\r\n        return ADMIN[msg.sender];\r\n    }\r\n    function addAdmin(address addrs) public isOwner {\r\n        ADMIN[addrs] = true;\r\n    } \r\n    function removeAdmin(address addrs) public isOwner { \r\n        ADMIN[addrs] = false;\r\n    }\r\n} ",
  "sourcePath": "d:\\ARK\\Desktop\\EquipShareSystem\\truffle\\contracts\\authority.sol",
  "compiler": {
    "name": "solc",
    "version": "0.8.18+commit.87f61d96.Emscripten.clang"
  },
  "schemaVersion": "3.4.14",
  "updatedAt": "2023-06-04T02:20:12.688Z",
  "devdoc": {
    "kind": "dev",
    "methods": {},
    "version": 1
  },
  "userdoc": {
    "kind": "user",
    "methods": {},
    "version": 1
  }
}