{
  "contractName": "EquipShare",
  "abi": [
    {
      "anonymous": false,
      "inputs": [
        {
          "indexed": true,
          "internalType": "address",
          "name": "owner",
          "type": "address"
        },
        {
          "indexed": true,
          "internalType": "address",
          "name": "spender",
          "type": "address"
        },
        {
          "indexed": false,
          "internalType": "uint256",
          "name": "value",
          "type": "uint256"
        }
      ],
      "name": "Approval",
      "type": "event"
    },
    {
      "anonymous": false,
      "inputs": [
        {
          "indexed": true,
          "internalType": "address",
          "name": "from",
          "type": "address"
        },
        {
          "indexed": true,
          "internalType": "address",
          "name": "to",
          "type": "address"
        },
        {
          "indexed": false,
          "internalType": "uint256",
          "name": "value",
          "type": "uint256"
        }
      ],
      "name": "Transfer",
      "type": "event"
    },
    {
      "anonymous": false,
      "inputs": [
        {
          "indexed": false,
          "internalType": "string",
          "name": "tips",
          "type": "string"
        },
        {
          "indexed": false,
          "internalType": "uint256",
          "name": "equipmentId",
          "type": "uint256"
        }
      ],
      "name": "eventAddEquipment",
      "type": "event"
    },
    {
      "anonymous": false,
      "inputs": [
        {
          "indexed": false,
          "internalType": "string",
          "name": "tips",
          "type": "string"
        },
        {
          "indexed": false,
          "internalType": "uint256",
          "name": "userId",
          "type": "uint256"
        }
      ],
      "name": "eventAddUser",
      "type": "event"
    },
    {
      "anonymous": false,
      "inputs": [
        {
          "indexed": false,
          "internalType": "string",
          "name": "tips",
          "type": "string"
        },
        {
          "indexed": false,
          "internalType": "uint256",
          "name": "leaseId",
          "type": "uint256"
        }
      ],
      "name": "eventApproveLease",
      "type": "event"
    },
    {
      "anonymous": false,
      "inputs": [
        {
          "indexed": false,
          "internalType": "string",
          "name": "tips",
          "type": "string"
        },
        {
          "indexed": false,
          "internalType": "uint256",
          "name": "leaseId",
          "type": "uint256"
        }
      ],
      "name": "eventCancelLease",
      "type": "event"
    },
    {
      "anonymous": false,
      "inputs": [
        {
          "indexed": false,
          "internalType": "string",
          "name": "tips",
          "type": "string"
        },
        {
          "indexed": false,
          "internalType": "uint256",
          "name": "leaseId",
          "type": "uint256"
        }
      ],
      "name": "eventCompleteLease",
      "type": "event"
    },
    {
      "anonymous": false,
      "inputs": [
        {
          "indexed": false,
          "internalType": "string",
          "name": "tips",
          "type": "string"
        },
        {
          "indexed": false,
          "internalType": "uint256",
          "name": "leaseId",
          "type": "uint256"
        }
      ],
      "name": "eventCreateLease",
      "type": "event"
    },
    {
      "anonymous": false,
      "inputs": [
        {
          "indexed": false,
          "internalType": "string",
          "name": "tips",
          "type": "string"
        },
        {
          "indexed": false,
          "internalType": "uint256",
          "name": "equipmentId",
          "type": "uint256"
        }
      ],
      "name": "eventFreezeEquipment",
      "type": "event"
    },
    {
      "anonymous": false,
      "inputs": [
        {
          "indexed": false,
          "internalType": "string",
          "name": "tips",
          "type": "string"
        },
        {
          "indexed": false,
          "internalType": "uint256",
          "name": "equipmentId",
          "type": "uint256"
        }
      ],
      "name": "eventMaintainEquipment",
      "type": "event"
    },
    {
      "anonymous": false,
      "inputs": [
        {
          "indexed": false,
          "internalType": "string",
          "name": "tips",
          "type": "string"
        },
        {
          "indexed": false,
          "internalType": "uint256",
          "name": "leaseId",
          "type": "uint256"
        }
      ],
      "name": "eventProposeLease",
      "type": "event"
    },
    {
      "anonymous": false,
      "inputs": [
        {
          "indexed": false,
          "internalType": "string",
          "name": "tips",
          "type": "string"
        },
        {
          "indexed": false,
          "internalType": "uint256",
          "name": "leaseId",
          "type": "uint256"
        }
      ],
      "name": "eventRejectLease",
      "type": "event"
    },
    {
      "anonymous": false,
      "inputs": [
        {
          "indexed": false,
          "internalType": "string",
          "name": "tips",
          "type": "string"
        },
        {
          "indexed": false,
          "internalType": "uint256",
          "name": "equipmentId",
          "type": "uint256"
        }
      ],
      "name": "eventRentEquipment",
      "type": "event"
    },
    {
      "anonymous": false,
      "inputs": [
        {
          "indexed": false,
          "internalType": "string",
          "name": "tips",
          "type": "string"
        },
        {
          "indexed": false,
          "internalType": "uint256",
          "name": "equipmentId",
          "type": "uint256"
        }
      ],
      "name": "eventReturnEquipment",
      "type": "event"
    },
    {
      "anonymous": false,
      "inputs": [
        {
          "indexed": false,
          "internalType": "string",
          "name": "tips",
          "type": "string"
        },
        {
          "indexed": false,
          "internalType": "uint256",
          "name": "equipmentId",
          "type": "uint256"
        }
      ],
      "name": "eventUnFreezeEquipment",
      "type": "event"
    },
    {
      "anonymous": false,
      "inputs": [
        {
          "indexed": false,
          "internalType": "string",
          "name": "tips",
          "type": "string"
        },
        {
          "indexed": false,
          "internalType": "uint256",
          "name": "equipmentId",
          "type": "uint256"
        }
      ],
      "name": "eventUnMaintainEquipment",
      "type": "event"
    },
    {
      "anonymous": false,
      "inputs": [
        {
          "indexed": false,
          "internalType": "string",
          "name": "tips",
          "type": "string"
        },
        {
          "indexed": false,
          "internalType": "uint256",
          "name": "equipmentId",
          "type": "uint256"
        }
      ],
      "name": "eventUpdateEquipment",
      "type": "event"
    },
    {
      "anonymous": false,
      "inputs": [
        {
          "indexed": false,
          "internalType": "string",
          "name": "tips",
          "type": "string"
        },
        {
          "indexed": false,
          "internalType": "uint256",
          "name": "userId",
          "type": "uint256"
        }
      ],
      "name": "eventUpdateUser",
      "type": "event"
    },
    {
      "inputs": [
        {
          "internalType": "address",
          "name": "addrs",
          "type": "address"
        }
      ],
      "name": "addAdmin",
      "outputs": [],
      "stateMutability": "nonpayable",
      "type": "function"
    },
    {
      "inputs": [
        {
          "internalType": "address",
          "name": "addres",
          "type": "address"
        },
        {
          "internalType": "string",
          "name": "name",
          "type": "string"
        },
        {
          "internalType": "string",
          "name": "category",
          "type": "string"
        },
        {
          "internalType": "string",
          "name": "descLink",
          "type": "string"
        },
        {
          "internalType": "string",
          "name": "imagesLink",
          "type": "string"
        },
        {
          "internalType": "uint256",
          "name": "deposit",
          "type": "uint256"
        },
        {
          "internalType": "uint256",
          "name": "unitPrice",
          "type": "uint256"
        }
      ],
      "name": "addEquipment",
      "outputs": [],
      "stateMutability": "nonpayable",
      "type": "function"
    },
    {
      "inputs": [
        {
          "internalType": "string",
          "name": "name",
          "type": "string"
        },
        {
          "internalType": "string",
          "name": "category",
          "type": "string"
        },
        {
          "internalType": "string",
          "name": "descLink",
          "type": "string"
        },
        {
          "internalType": "string",
          "name": "imagesLink",
          "type": "string"
        },
        {
          "internalType": "uint256",
          "name": "deposit",
          "type": "uint256"
        },
        {
          "internalType": "uint256",
          "name": "unitPrice",
          "type": "uint256"
        }
      ],
      "name": "addEquipment",
      "outputs": [],
      "stateMutability": "nonpayable",
      "type": "function"
    },
    {
      "inputs": [
        {
          "internalType": "address",
          "name": "addrs",
          "type": "address"
        },
        {
          "internalType": "string",
          "name": "name",
          "type": "string"
        },
        {
          "internalType": "string",
          "name": "avatar",
          "type": "string"
        },
        {
          "internalType": "string",
          "name": "email",
          "type": "string"
        },
        {
          "internalType": "string",
          "name": "tellphone",
          "type": "string"
        },
        {
          "internalType": "string",
          "name": "organization",
          "type": "string"
        }
      ],
      "name": "addUser",
      "outputs": [],
      "stateMutability": "nonpayable",
      "type": "function"
    },
    {
      "inputs": [
        {
          "internalType": "string",
          "name": "name",
          "type": "string"
        },
        {
          "internalType": "string",
          "name": "avatar",
          "type": "string"
        },
        {
          "internalType": "string",
          "name": "email",
          "type": "string"
        },
        {
          "internalType": "string",
          "name": "tellphone",
          "type": "string"
        },
        {
          "internalType": "string",
          "name": "organization",
          "type": "string"
        }
      ],
      "name": "addUser",
      "outputs": [],
      "stateMutability": "nonpayable",
      "type": "function"
    },
    {
      "inputs": [
        {
          "internalType": "address",
          "name": "account",
          "type": "address"
        }
      ],
      "name": "balanceOf",
      "outputs": [
        {
          "internalType": "uint256",
          "name": "",
          "type": "uint256"
        }
      ],
      "stateMutability": "view",
      "type": "function",
      "constant": true
    },
    {
      "inputs": [
        {
          "internalType": "uint256",
          "name": "leaseId",
          "type": "uint256"
        }
      ],
      "name": "deleteLeasePactOwned",
      "outputs": [],
      "stateMutability": "view",
      "type": "function",
      "constant": true
    },
    {
      "inputs": [
        {
          "internalType": "uint256",
          "name": "leaseId",
          "type": "uint256"
        }
      ],
      "name": "deleteLeasePactRented",
      "outputs": [],
      "stateMutability": "view",
      "type": "function",
      "constant": true
    },
    {
      "inputs": [
        {
          "internalType": "uint256",
          "name": "equipmentId",
          "type": "uint256"
        }
      ],
      "name": "endMaintainEquipment",
      "outputs": [],
      "stateMutability": "nonpayable",
      "type": "function"
    },
    {
      "inputs": [
        {
          "internalType": "uint256",
          "name": "equipmentId",
          "type": "uint256"
        },
        {
          "internalType": "uint256",
          "name": "startTime",
          "type": "uint256"
        }
      ],
      "name": "freezeEquipment",
      "outputs": [],
      "stateMutability": "nonpayable",
      "type": "function"
    },
    {
      "inputs": [
        {
          "internalType": "uint256",
          "name": "equipmentId",
          "type": "uint256"
        }
      ],
      "name": "freezeEquipment",
      "outputs": [],
      "stateMutability": "nonpayable",
      "type": "function"
    },
    {
      "inputs": [
        {
          "internalType": "uint256",
          "name": "equipmentId",
          "type": "uint256"
        }
      ],
      "name": "getEquipment",
      "outputs": [
        {
          "components": [
            {
              "internalType": "uint256",
              "name": "id",
              "type": "uint256"
            },
            {
              "internalType": "address",
              "name": "owner",
              "type": "address"
            },
            {
              "internalType": "uint256",
              "name": "createdTime",
              "type": "uint256"
            },
            {
              "internalType": "bool",
              "name": "isFrozen",
              "type": "bool"
            },
            {
              "internalType": "string",
              "name": "name",
              "type": "string"
            },
            {
              "internalType": "string",
              "name": "category",
              "type": "string"
            },
            {
              "internalType": "string",
              "name": "descLink",
              "type": "string"
            },
            {
              "internalType": "string",
              "name": "imagesLink",
              "type": "string"
            },
            {
              "internalType": "uint256",
              "name": "unitPrice",
              "type": "uint256"
            },
            {
              "internalType": "uint256",
              "name": "deposit",
              "type": "uint256"
            },
            {
              "components": [
                {
                  "internalType": "uint256",
                  "name": "lent",
                  "type": "uint256"
                },
                {
                  "internalType": "uint256",
                  "name": "maintain",
                  "type": "uint256"
                },
                {
                  "internalType": "uint256",
                  "name": "frozen",
                  "type": "uint256"
                }
              ],
              "internalType": "struct UseCnt",
              "name": "useCnt",
              "type": "tuple"
            },
            {
              "components": [
                {
                  "internalType": "uint256",
                  "name": "id",
                  "type": "uint256"
                },
                {
                  "internalType": "uint256",
                  "name": "startTime",
                  "type": "uint256"
                },
                {
                  "internalType": "uint256",
                  "name": "endTime",
                  "type": "uint256"
                },
                {
                  "internalType": "address",
                  "name": "occupier",
                  "type": "address"
                },
                {
                  "internalType": "enum OccupyType",
                  "name": "occupyType",
                  "type": "uint8"
                }
              ],
              "internalType": "struct OccupyPeriod[]",
              "name": "occupyPeriod",
              "type": "tuple[]"
            }
          ],
          "internalType": "struct Equipment",
          "name": "",
          "type": "tuple"
        }
      ],
      "stateMutability": "view",
      "type": "function",
      "constant": true
    },
    {
      "inputs": [],
      "name": "getEquipmentAll",
      "outputs": [
        {
          "components": [
            {
              "internalType": "uint256",
              "name": "id",
              "type": "uint256"
            },
            {
              "internalType": "address",
              "name": "owner",
              "type": "address"
            },
            {
              "internalType": "uint256",
              "name": "createdTime",
              "type": "uint256"
            },
            {
              "internalType": "bool",
              "name": "isFrozen",
              "type": "bool"
            },
            {
              "internalType": "string",
              "name": "name",
              "type": "string"
            },
            {
              "internalType": "string",
              "name": "category",
              "type": "string"
            },
            {
              "internalType": "string",
              "name": "descLink",
              "type": "string"
            },
            {
              "internalType": "string",
              "name": "imagesLink",
              "type": "string"
            },
            {
              "internalType": "uint256",
              "name": "unitPrice",
              "type": "uint256"
            },
            {
              "internalType": "uint256",
              "name": "deposit",
              "type": "uint256"
            },
            {
              "components": [
                {
                  "internalType": "uint256",
                  "name": "lent",
                  "type": "uint256"
                },
                {
                  "internalType": "uint256",
                  "name": "maintain",
                  "type": "uint256"
                },
                {
                  "internalType": "uint256",
                  "name": "frozen",
                  "type": "uint256"
                }
              ],
              "internalType": "struct UseCnt",
              "name": "useCnt",
              "type": "tuple"
            },
            {
              "components": [
                {
                  "internalType": "uint256",
                  "name": "id",
                  "type": "uint256"
                },
                {
                  "internalType": "uint256",
                  "name": "startTime",
                  "type": "uint256"
                },
                {
                  "internalType": "uint256",
                  "name": "endTime",
                  "type": "uint256"
                },
                {
                  "internalType": "address",
                  "name": "occupier",
                  "type": "address"
                },
                {
                  "internalType": "enum OccupyType",
                  "name": "occupyType",
                  "type": "uint8"
                }
              ],
              "internalType": "struct OccupyPeriod[]",
              "name": "occupyPeriod",
              "type": "tuple[]"
            }
          ],
          "internalType": "struct Equipment[]",
          "name": "",
          "type": "tuple[]"
        }
      ],
      "stateMutability": "view",
      "type": "function",
      "constant": true
    },
    {
      "inputs": [
        {
          "internalType": "address",
          "name": "addr",
          "type": "address"
        }
      ],
      "name": "getEquipmentOwned",
      "outputs": [
        {
          "components": [
            {
              "internalType": "uint256",
              "name": "id",
              "type": "uint256"
            },
            {
              "internalType": "address",
              "name": "owner",
              "type": "address"
            },
            {
              "internalType": "uint256",
              "name": "createdTime",
              "type": "uint256"
            },
            {
              "internalType": "bool",
              "name": "isFrozen",
              "type": "bool"
            },
            {
              "internalType": "string",
              "name": "name",
              "type": "string"
            },
            {
              "internalType": "string",
              "name": "category",
              "type": "string"
            },
            {
              "internalType": "string",
              "name": "descLink",
              "type": "string"
            },
            {
              "internalType": "string",
              "name": "imagesLink",
              "type": "string"
            },
            {
              "internalType": "uint256",
              "name": "unitPrice",
              "type": "uint256"
            },
            {
              "internalType": "uint256",
              "name": "deposit",
              "type": "uint256"
            },
            {
              "components": [
                {
                  "internalType": "uint256",
                  "name": "lent",
                  "type": "uint256"
                },
                {
                  "internalType": "uint256",
                  "name": "maintain",
                  "type": "uint256"
                },
                {
                  "internalType": "uint256",
                  "name": "frozen",
                  "type": "uint256"
                }
              ],
              "internalType": "struct UseCnt",
              "name": "useCnt",
              "type": "tuple"
            },
            {
              "components": [
                {
                  "internalType": "uint256",
                  "name": "id",
                  "type": "uint256"
                },
                {
                  "internalType": "uint256",
                  "name": "startTime",
                  "type": "uint256"
                },
                {
                  "internalType": "uint256",
                  "name": "endTime",
                  "type": "uint256"
                },
                {
                  "internalType": "address",
                  "name": "occupier",
                  "type": "address"
                },
                {
                  "internalType": "enum OccupyType",
                  "name": "occupyType",
                  "type": "uint8"
                }
              ],
              "internalType": "struct OccupyPeriod[]",
              "name": "occupyPeriod",
              "type": "tuple[]"
            }
          ],
          "internalType": "struct Equipment[]",
          "name": "",
          "type": "tuple[]"
        }
      ],
      "stateMutability": "view",
      "type": "function",
      "constant": true
    },
    {
      "inputs": [
        {
          "internalType": "address",
          "name": "addr",
          "type": "address"
        }
      ],
      "name": "getEquipmentRented",
      "outputs": [
        {
          "components": [
            {
              "internalType": "uint256",
              "name": "id",
              "type": "uint256"
            },
            {
              "internalType": "address",
              "name": "owner",
              "type": "address"
            },
            {
              "internalType": "uint256",
              "name": "createdTime",
              "type": "uint256"
            },
            {
              "internalType": "bool",
              "name": "isFrozen",
              "type": "bool"
            },
            {
              "internalType": "string",
              "name": "name",
              "type": "string"
            },
            {
              "internalType": "string",
              "name": "category",
              "type": "string"
            },
            {
              "internalType": "string",
              "name": "descLink",
              "type": "string"
            },
            {
              "internalType": "string",
              "name": "imagesLink",
              "type": "string"
            },
            {
              "internalType": "uint256",
              "name": "unitPrice",
              "type": "uint256"
            },
            {
              "internalType": "uint256",
              "name": "deposit",
              "type": "uint256"
            },
            {
              "components": [
                {
                  "internalType": "uint256",
                  "name": "lent",
                  "type": "uint256"
                },
                {
                  "internalType": "uint256",
                  "name": "maintain",
                  "type": "uint256"
                },
                {
                  "internalType": "uint256",
                  "name": "frozen",
                  "type": "uint256"
                }
              ],
              "internalType": "struct UseCnt",
              "name": "useCnt",
              "type": "tuple"
            },
            {
              "components": [
                {
                  "internalType": "uint256",
                  "name": "id",
                  "type": "uint256"
                },
                {
                  "internalType": "uint256",
                  "name": "startTime",
                  "type": "uint256"
                },
                {
                  "internalType": "uint256",
                  "name": "endTime",
                  "type": "uint256"
                },
                {
                  "internalType": "address",
                  "name": "occupier",
                  "type": "address"
                },
                {
                  "internalType": "enum OccupyType",
                  "name": "occupyType",
                  "type": "uint8"
                }
              ],
              "internalType": "struct OccupyPeriod[]",
              "name": "occupyPeriod",
              "type": "tuple[]"
            }
          ],
          "internalType": "struct Equipment[]",
          "name": "",
          "type": "tuple[]"
        }
      ],
      "stateMutability": "view",
      "type": "function",
      "constant": true
    },
    {
      "inputs": [
        {
          "internalType": "uint256",
          "name": "leaseId",
          "type": "uint256"
        }
      ],
      "name": "getLeasePact",
      "outputs": [
        {
          "components": [
            {
              "internalType": "uint256",
              "name": "id",
              "type": "uint256"
            },
            {
              "internalType": "uint256",
              "name": "equipmentId",
              "type": "uint256"
            },
            {
              "internalType": "string",
              "name": "equipmentName",
              "type": "string"
            },
            {
              "internalType": "string",
              "name": "renterName",
              "type": "string"
            },
            {
              "internalType": "address",
              "name": "owner",
              "type": "address"
            },
            {
              "internalType": "address",
              "name": "renter",
              "type": "address"
            },
            {
              "components": [
                {
                  "internalType": "uint256",
                  "name": "unitPrice",
                  "type": "uint256"
                },
                {
                  "internalType": "uint256",
                  "name": "totalPrice",
                  "type": "uint256"
                },
                {
                  "internalType": "uint256",
                  "name": "deposit",
                  "type": "uint256"
                },
                {
                  "internalType": "bool",
                  "name": "isPaid",
                  "type": "bool"
                }
              ],
              "internalType": "struct Price",
              "name": "price",
              "type": "tuple"
            },
            {
              "components": [
                {
                  "internalType": "uint256",
                  "name": "startTime",
                  "type": "uint256"
                },
                {
                  "internalType": "uint256",
                  "name": "endTime",
                  "type": "uint256"
                },
                {
                  "internalType": "uint256",
                  "name": "userid",
                  "type": "uint256"
                },
                {
                  "internalType": "enum OccupyType",
                  "name": "occupyType",
                  "type": "uint8"
                }
              ],
              "internalType": "struct Period",
              "name": "period",
              "type": "tuple"
            },
            {
              "components": [
                {
                  "internalType": "uint256",
                  "name": "CREATED",
                  "type": "uint256"
                },
                {
                  "internalType": "uint256",
                  "name": "CANCELED",
                  "type": "uint256"
                },
                {
                  "internalType": "uint256",
                  "name": "APPROVED",
                  "type": "uint256"
                },
                {
                  "internalType": "uint256",
                  "name": "REJECTED",
                  "type": "uint256"
                },
                {
                  "internalType": "uint256",
                  "name": "RETURNED",
                  "type": "uint256"
                },
                {
                  "internalType": "uint256",
                  "name": "COMPLETED",
                  "type": "uint256"
                }
              ],
              "internalType": "struct StepsStatus",
              "name": "steps",
              "type": "tuple"
            }
          ],
          "internalType": "struct LeasePact",
          "name": "",
          "type": "tuple"
        }
      ],
      "stateMutability": "view",
      "type": "function",
      "constant": true
    },
    {
      "inputs": [],
      "name": "getLeasePactAll",
      "outputs": [
        {
          "components": [
            {
              "internalType": "uint256",
              "name": "id",
              "type": "uint256"
            },
            {
              "internalType": "uint256",
              "name": "equipmentId",
              "type": "uint256"
            },
            {
              "internalType": "string",
              "name": "equipmentName",
              "type": "string"
            },
            {
              "internalType": "string",
              "name": "renterName",
              "type": "string"
            },
            {
              "internalType": "address",
              "name": "owner",
              "type": "address"
            },
            {
              "internalType": "address",
              "name": "renter",
              "type": "address"
            },
            {
              "components": [
                {
                  "internalType": "uint256",
                  "name": "unitPrice",
                  "type": "uint256"
                },
                {
                  "internalType": "uint256",
                  "name": "totalPrice",
                  "type": "uint256"
                },
                {
                  "internalType": "uint256",
                  "name": "deposit",
                  "type": "uint256"
                },
                {
                  "internalType": "bool",
                  "name": "isPaid",
                  "type": "bool"
                }
              ],
              "internalType": "struct Price",
              "name": "price",
              "type": "tuple"
            },
            {
              "components": [
                {
                  "internalType": "uint256",
                  "name": "startTime",
                  "type": "uint256"
                },
                {
                  "internalType": "uint256",
                  "name": "endTime",
                  "type": "uint256"
                },
                {
                  "internalType": "uint256",
                  "name": "userid",
                  "type": "uint256"
                },
                {
                  "internalType": "enum OccupyType",
                  "name": "occupyType",
                  "type": "uint8"
                }
              ],
              "internalType": "struct Period",
              "name": "period",
              "type": "tuple"
            },
            {
              "components": [
                {
                  "internalType": "uint256",
                  "name": "CREATED",
                  "type": "uint256"
                },
                {
                  "internalType": "uint256",
                  "name": "CANCELED",
                  "type": "uint256"
                },
                {
                  "internalType": "uint256",
                  "name": "APPROVED",
                  "type": "uint256"
                },
                {
                  "internalType": "uint256",
                  "name": "REJECTED",
                  "type": "uint256"
                },
                {
                  "internalType": "uint256",
                  "name": "RETURNED",
                  "type": "uint256"
                },
                {
                  "internalType": "uint256",
                  "name": "COMPLETED",
                  "type": "uint256"
                }
              ],
              "internalType": "struct StepsStatus",
              "name": "steps",
              "type": "tuple"
            }
          ],
          "internalType": "struct LeasePact[]",
          "name": "",
          "type": "tuple[]"
        }
      ],
      "stateMutability": "view",
      "type": "function",
      "constant": true
    },
    {
      "inputs": [
        {
          "internalType": "address",
          "name": "addr",
          "type": "address"
        }
      ],
      "name": "getLeasePactOwned",
      "outputs": [
        {
          "components": [
            {
              "internalType": "uint256",
              "name": "id",
              "type": "uint256"
            },
            {
              "internalType": "uint256",
              "name": "equipmentId",
              "type": "uint256"
            },
            {
              "internalType": "string",
              "name": "equipmentName",
              "type": "string"
            },
            {
              "internalType": "string",
              "name": "renterName",
              "type": "string"
            },
            {
              "internalType": "address",
              "name": "owner",
              "type": "address"
            },
            {
              "internalType": "address",
              "name": "renter",
              "type": "address"
            },
            {
              "components": [
                {
                  "internalType": "uint256",
                  "name": "unitPrice",
                  "type": "uint256"
                },
                {
                  "internalType": "uint256",
                  "name": "totalPrice",
                  "type": "uint256"
                },
                {
                  "internalType": "uint256",
                  "name": "deposit",
                  "type": "uint256"
                },
                {
                  "internalType": "bool",
                  "name": "isPaid",
                  "type": "bool"
                }
              ],
              "internalType": "struct Price",
              "name": "price",
              "type": "tuple"
            },
            {
              "components": [
                {
                  "internalType": "uint256",
                  "name": "startTime",
                  "type": "uint256"
                },
                {
                  "internalType": "uint256",
                  "name": "endTime",
                  "type": "uint256"
                },
                {
                  "internalType": "uint256",
                  "name": "userid",
                  "type": "uint256"
                },
                {
                  "internalType": "enum OccupyType",
                  "name": "occupyType",
                  "type": "uint8"
                }
              ],
              "internalType": "struct Period",
              "name": "period",
              "type": "tuple"
            },
            {
              "components": [
                {
                  "internalType": "uint256",
                  "name": "CREATED",
                  "type": "uint256"
                },
                {
                  "internalType": "uint256",
                  "name": "CANCELED",
                  "type": "uint256"
                },
                {
                  "internalType": "uint256",
                  "name": "APPROVED",
                  "type": "uint256"
                },
                {
                  "internalType": "uint256",
                  "name": "REJECTED",
                  "type": "uint256"
                },
                {
                  "internalType": "uint256",
                  "name": "RETURNED",
                  "type": "uint256"
                },
                {
                  "internalType": "uint256",
                  "name": "COMPLETED",
                  "type": "uint256"
                }
              ],
              "internalType": "struct StepsStatus",
              "name": "steps",
              "type": "tuple"
            }
          ],
          "internalType": "struct LeasePact[]",
          "name": "",
          "type": "tuple[]"
        }
      ],
      "stateMutability": "view",
      "type": "function",
      "constant": true
    },
    {
      "inputs": [
        {
          "internalType": "address",
          "name": "addr",
          "type": "address"
        }
      ],
      "name": "getLeasePactRented",
      "outputs": [
        {
          "components": [
            {
              "internalType": "uint256",
              "name": "id",
              "type": "uint256"
            },
            {
              "internalType": "uint256",
              "name": "equipmentId",
              "type": "uint256"
            },
            {
              "internalType": "string",
              "name": "equipmentName",
              "type": "string"
            },
            {
              "internalType": "string",
              "name": "renterName",
              "type": "string"
            },
            {
              "internalType": "address",
              "name": "owner",
              "type": "address"
            },
            {
              "internalType": "address",
              "name": "renter",
              "type": "address"
            },
            {
              "components": [
                {
                  "internalType": "uint256",
                  "name": "unitPrice",
                  "type": "uint256"
                },
                {
                  "internalType": "uint256",
                  "name": "totalPrice",
                  "type": "uint256"
                },
                {
                  "internalType": "uint256",
                  "name": "deposit",
                  "type": "uint256"
                },
                {
                  "internalType": "bool",
                  "name": "isPaid",
                  "type": "bool"
                }
              ],
              "internalType": "struct Price",
              "name": "price",
              "type": "tuple"
            },
            {
              "components": [
                {
                  "internalType": "uint256",
                  "name": "startTime",
                  "type": "uint256"
                },
                {
                  "internalType": "uint256",
                  "name": "endTime",
                  "type": "uint256"
                },
                {
                  "internalType": "uint256",
                  "name": "userid",
                  "type": "uint256"
                },
                {
                  "internalType": "enum OccupyType",
                  "name": "occupyType",
                  "type": "uint8"
                }
              ],
              "internalType": "struct Period",
              "name": "period",
              "type": "tuple"
            },
            {
              "components": [
                {
                  "internalType": "uint256",
                  "name": "CREATED",
                  "type": "uint256"
                },
                {
                  "internalType": "uint256",
                  "name": "CANCELED",
                  "type": "uint256"
                },
                {
                  "internalType": "uint256",
                  "name": "APPROVED",
                  "type": "uint256"
                },
                {
                  "internalType": "uint256",
                  "name": "REJECTED",
                  "type": "uint256"
                },
                {
                  "internalType": "uint256",
                  "name": "RETURNED",
                  "type": "uint256"
                },
                {
                  "internalType": "uint256",
                  "name": "COMPLETED",
                  "type": "uint256"
                }
              ],
              "internalType": "struct StepsStatus",
              "name": "steps",
              "type": "tuple"
            }
          ],
          "internalType": "struct LeasePact[]",
          "name": "",
          "type": "tuple[]"
        }
      ],
      "stateMutability": "view",
      "type": "function",
      "constant": true
    },
    {
      "inputs": [
        {
          "internalType": "address",
          "name": "addrs",
          "type": "address"
        }
      ],
      "name": "getUser",
      "outputs": [
        {
          "components": [
            {
              "internalType": "uint256",
              "name": "id",
              "type": "uint256"
            },
            {
              "internalType": "address",
              "name": "addres",
              "type": "address"
            },
            {
              "internalType": "uint256",
              "name": "createTime",
              "type": "uint256"
            },
            {
              "internalType": "string",
              "name": "name",
              "type": "string"
            },
            {
              "internalType": "string",
              "name": "avatar",
              "type": "string"
            },
            {
              "internalType": "string",
              "name": "email",
              "type": "string"
            },
            {
              "internalType": "string",
              "name": "tellphone",
              "type": "string"
            },
            {
              "internalType": "string",
              "name": "organization",
              "type": "string"
            },
            {
              "internalType": "uint256",
              "name": "rating",
              "type": "uint256"
            },
            {
              "internalType": "uint256[]",
              "name": "permission",
              "type": "uint256[]"
            }
          ],
          "internalType": "struct User",
          "name": "",
          "type": "tuple"
        }
      ],
      "stateMutability": "view",
      "type": "function",
      "constant": true
    },
    {
      "inputs": [],
      "name": "getUserAll",
      "outputs": [
        {
          "components": [
            {
              "internalType": "uint256",
              "name": "id",
              "type": "uint256"
            },
            {
              "internalType": "address",
              "name": "addres",
              "type": "address"
            },
            {
              "internalType": "uint256",
              "name": "createTime",
              "type": "uint256"
            },
            {
              "internalType": "string",
              "name": "name",
              "type": "string"
            },
            {
              "internalType": "string",
              "name": "avatar",
              "type": "string"
            },
            {
              "internalType": "string",
              "name": "email",
              "type": "string"
            },
            {
              "internalType": "string",
              "name": "tellphone",
              "type": "string"
            },
            {
              "internalType": "string",
              "name": "organization",
              "type": "string"
            },
            {
              "internalType": "uint256",
              "name": "rating",
              "type": "uint256"
            },
            {
              "internalType": "uint256[]",
              "name": "permission",
              "type": "uint256[]"
            }
          ],
          "internalType": "struct User[]",
          "name": "_users",
          "type": "tuple[]"
        }
      ],
      "stateMutability": "view",
      "type": "function",
      "constant": true
    },
    {
      "inputs": [
        {
          "internalType": "uint256",
          "name": "startIndex",
          "type": "uint256"
        },
        {
          "internalType": "uint256",
          "name": "length",
          "type": "uint256"
        }
      ],
      "name": "getUserBatch",
      "outputs": [
        {
          "components": [
            {
              "internalType": "uint256",
              "name": "id",
              "type": "uint256"
            },
            {
              "internalType": "address",
              "name": "addres",
              "type": "address"
            },
            {
              "internalType": "uint256",
              "name": "createTime",
              "type": "uint256"
            },
            {
              "internalType": "string",
              "name": "name",
              "type": "string"
            },
            {
              "internalType": "string",
              "name": "avatar",
              "type": "string"
            },
            {
              "internalType": "string",
              "name": "email",
              "type": "string"
            },
            {
              "internalType": "string",
              "name": "tellphone",
              "type": "string"
            },
            {
              "internalType": "string",
              "name": "organization",
              "type": "string"
            },
            {
              "internalType": "uint256",
              "name": "rating",
              "type": "uint256"
            },
            {
              "internalType": "uint256[]",
              "name": "permission",
              "type": "uint256[]"
            }
          ],
          "internalType": "struct User[]",
          "name": "_users",
          "type": "tuple[]"
        }
      ],
      "stateMutability": "view",
      "type": "function",
      "constant": true
    },
    {
      "inputs": [
        {
          "internalType": "uint256",
          "name": "usrid",
          "type": "uint256"
        }
      ],
      "name": "getUserByID",
      "outputs": [
        {
          "components": [
            {
              "internalType": "uint256",
              "name": "id",
              "type": "uint256"
            },
            {
              "internalType": "address",
              "name": "addres",
              "type": "address"
            },
            {
              "internalType": "uint256",
              "name": "createTime",
              "type": "uint256"
            },
            {
              "internalType": "string",
              "name": "name",
              "type": "string"
            },
            {
              "internalType": "string",
              "name": "avatar",
              "type": "string"
            },
            {
              "internalType": "string",
              "name": "email",
              "type": "string"
            },
            {
              "internalType": "string",
              "name": "tellphone",
              "type": "string"
            },
            {
              "internalType": "string",
              "name": "organization",
              "type": "string"
            },
            {
              "internalType": "uint256",
              "name": "rating",
              "type": "uint256"
            },
            {
              "internalType": "uint256[]",
              "name": "permission",
              "type": "uint256[]"
            }
          ],
          "internalType": "struct User",
          "name": "",
          "type": "tuple"
        }
      ],
      "stateMutability": "view",
      "type": "function",
      "constant": true
    },
    {
      "inputs": [
        {
          "internalType": "address",
          "name": "",
          "type": "address"
        }
      ],
      "name": "haveGotEth",
      "outputs": [
        {
          "internalType": "bool",
          "name": "",
          "type": "bool"
        }
      ],
      "stateMutability": "view",
      "type": "function",
      "constant": true
    },
    {
      "inputs": [
        {
          "internalType": "uint256",
          "name": "equipmentId",
          "type": "uint256"
        }
      ],
      "name": "maintainEquipment",
      "outputs": [],
      "stateMutability": "nonpayable",
      "type": "function"
    },
    {
      "inputs": [
        {
          "internalType": "uint256",
          "name": "equipmentId",
          "type": "uint256"
        },
        {
          "internalType": "uint256",
          "name": "startTime",
          "type": "uint256"
        },
        {
          "internalType": "uint256",
          "name": "endTime",
          "type": "uint256"
        }
      ],
      "name": "maintainEquipment",
      "outputs": [],
      "stateMutability": "nonpayable",
      "type": "function"
    },
    {
      "inputs": [
        {
          "internalType": "address",
          "name": "addrs",
          "type": "address"
        }
      ],
      "name": "removeAdmin",
      "outputs": [],
      "stateMutability": "nonpayable",
      "type": "function"
    },
    {
      "inputs": [
        {
          "internalType": "uint256",
          "name": "equipmentId",
          "type": "uint256"
        }
      ],
      "name": "removeEquipment",
      "outputs": [],
      "stateMutability": "nonpayable",
      "type": "function"
    },
    {
      "inputs": [
        {
          "internalType": "uint256",
          "name": "equipmentId",
          "type": "uint256"
        },
        {
          "internalType": "uint256",
          "name": "startTime",
          "type": "uint256"
        },
        {
          "internalType": "uint256",
          "name": "endTime",
          "type": "uint256"
        }
      ],
      "name": "requireEquipAvailable",
      "outputs": [
        {
          "internalType": "int256",
          "name": "",
          "type": "int256"
        }
      ],
      "stateMutability": "view",
      "type": "function",
      "constant": true
    },
    {
      "inputs": [],
      "name": "token",
      "outputs": [
        {
          "internalType": "uint256",
          "name": "id",
          "type": "uint256"
        },
        {
          "internalType": "string",
          "name": "name",
          "type": "string"
        },
        {
          "internalType": "string",
          "name": "symbol",
          "type": "string"
        },
        {
          "internalType": "uint256",
          "name": "decimals",
          "type": "uint256"
        },
        {
          "internalType": "uint256",
          "name": "totalSupply",
          "type": "uint256"
        }
      ],
      "stateMutability": "view",
      "type": "function",
      "constant": true
    },
    {
      "inputs": [
        {
          "internalType": "address",
          "name": "to",
          "type": "address"
        },
        {
          "internalType": "uint256",
          "name": "amount",
          "type": "uint256"
        }
      ],
      "name": "transfer",
      "outputs": [
        {
          "internalType": "bool",
          "name": "",
          "type": "bool"
        }
      ],
      "stateMutability": "nonpayable",
      "type": "function"
    },
    {
      "inputs": [
        {
          "internalType": "uint256",
          "name": "equipmentId",
          "type": "uint256"
        }
      ],
      "name": "unfreezeEquipment",
      "outputs": [],
      "stateMutability": "nonpayable",
      "type": "function"
    },
    {
      "inputs": [
        {
          "internalType": "uint256",
          "name": "equipmentId",
          "type": "uint256"
        },
        {
          "internalType": "string",
          "name": "name",
          "type": "string"
        },
        {
          "internalType": "string",
          "name": "category",
          "type": "string"
        },
        {
          "internalType": "string",
          "name": "descLink",
          "type": "string"
        },
        {
          "internalType": "string",
          "name": "imagesLink",
          "type": "string"
        },
        {
          "internalType": "uint256",
          "name": "deposit",
          "type": "uint256"
        },
        {
          "internalType": "uint256",
          "name": "unitPrice",
          "type": "uint256"
        }
      ],
      "name": "updateEquipment",
      "outputs": [],
      "stateMutability": "nonpayable",
      "type": "function"
    },
    {
      "inputs": [
        {
          "internalType": "string",
          "name": "name",
          "type": "string"
        },
        {
          "internalType": "string",
          "name": "avatar",
          "type": "string"
        },
        {
          "internalType": "string",
          "name": "email",
          "type": "string"
        },
        {
          "internalType": "string",
          "name": "tellphone",
          "type": "string"
        },
        {
          "internalType": "string",
          "name": "organization",
          "type": "string"
        }
      ],
      "name": "updateUser",
      "outputs": [],
      "stateMutability": "nonpayable",
      "type": "function"
    },
    {
      "inputs": [
        {
          "internalType": "address",
          "name": "addrs",
          "type": "address"
        },
        {
          "internalType": "string",
          "name": "name",
          "type": "string"
        },
        {
          "internalType": "string",
          "name": "avatar",
          "type": "string"
        },
        {
          "internalType": "string",
          "name": "email",
          "type": "string"
        },
        {
          "internalType": "string",
          "name": "tellphone",
          "type": "string"
        },
        {
          "internalType": "string",
          "name": "organization",
          "type": "string"
        }
      ],
      "name": "updateUser",
      "outputs": [],
      "stateMutability": "nonpayable",
      "type": "function"
    },
    {
      "inputs": [
        {
          "internalType": "uint256",
          "name": "equipmentId",
          "type": "uint256"
        },
        {
          "internalType": "uint256",
          "name": "startTime",
          "type": "uint256"
        },
        {
          "internalType": "uint256",
          "name": "endTime",
          "type": "uint256"
        }
      ],
      "name": "reserveEquipment",
      "outputs": [],
      "stateMutability": "nonpayable",
      "type": "function"
    },
    {
      "inputs": [
        {
          "internalType": "uint256",
          "name": "leaseId",
          "type": "uint256"
        }
      ],
      "name": "reserveCancel",
      "outputs": [],
      "stateMutability": "nonpayable",
      "type": "function"
    },
    {
      "inputs": [
        {
          "internalType": "uint256",
          "name": "leaseId",
          "type": "uint256"
        }
      ],
      "name": "reserveApprove",
      "outputs": [],
      "stateMutability": "nonpayable",
      "type": "function"
    },
    {
      "inputs": [
        {
          "internalType": "uint256",
          "name": "leaseId",
          "type": "uint256"
        }
      ],
      "name": "reserveReject",
      "outputs": [],
      "stateMutability": "nonpayable",
      "type": "function"
    },
    {
      "inputs": [
        {
          "internalType": "uint256",
          "name": "leaseId",
          "type": "uint256"
        }
      ],
      "name": "reservePopose",
      "outputs": [],
      "stateMutability": "nonpayable",
      "type": "function"
    },
    {
      "inputs": [
        {
          "internalType": "uint256",
          "name": "leaseId",
          "type": "uint256"
        }
      ],
      "name": "reserveComplete",
      "outputs": [],
      "stateMutability": "nonpayable",
      "type": "function"
    }
  ],
  "bytecode": "0x6080604052612710600d5562014ff0601355621ede58601455621ede59601c553480156200002c57600080fd5b50600080546001600160a01b031916339081178255815260016020818152604092839020805460ff191690921790915581518083019092526009825268e8999ae68b9fe5b88160b81b908201526003906200008890826200017d565b50604080518082019091526003815262efbfa560e81b6020820152600490620000b290826200017d565b50612710600555620186a060068190553360009081526007602052604090205562000249565b634e487b7160e01b600052604160045260246000fd5b600181811c908216806200010357607f821691505b6020821081036200012457634e487b7160e01b600052602260045260246000fd5b50919050565b601f8211156200017857600081815260208120601f850160051c81016020861015620001535750805b601f850160051c820191505b8181101562000174578281556001016200015f565b5050505b505050565b81516001600160401b03811115620001995762000199620000d8565b620001b181620001aa8454620000ee565b846200012a565b602080601f831160018114620001e95760008415620001d05750858301515b600019600386901b1c1916600185901b17855562000174565b600085815260208120601f198616915b828110156200021a57888601518255948401946001909101908401620001f9565b5085821015620002395787850151600019600388901b60f8161c191681555b5050505050600190811b01905550565b615e8280620002596000396000f3fe608060405234801561001057600080fd5b50600436106102535760003560e01c8063889d6f2a11610146578063bcad91d0116100c3578063e08ab94011610087578063e08ab9401461056d578063e142e6ae14610580578063e97c75a214610593578063f00bd3d3146105a6578063f8966c4f146105b9578063fc0c546a146105cc57600080fd5b8063bcad91d014610524578063bd5c47301461052c578063bfcecc511461053f578063da61776d14610552578063db76e5d41461056557600080fd5b8063a2fb993f1161010a578063a2fb993f146104d0578063a9059cbb146104e3578063ab5ac52b146104f6578063b3349aab14610509578063b37a3d821461051157600080fd5b8063889d6f2a146104575780638dac3c4b146104775780638dc9a8c21461049757806390701e24146104aa57806393f0b012146104bd57600080fd5b806342cdca6e116101d4578063704802751161019857806370480275146103d557806370a08231146103e857806375a1b5421461041157806381dd2fa01461042457806386f83e8e1461044457600080fd5b806342cdca6e146103695780635aae2cc61461037c57806362aee4ee1461038f5780636d3b5f18146103a25780636f77926b146103c257600080fd5b8063254157531161021b57806325415753146102cf5780632bbd5924146103025780632bd7d688146103235780633737a7bc146103435780633c952fc71461035657600080fd5b806308643487146102585780630d506293146102815780631785f53c146102965780631869f316146102a95780631a702aa0146102bc575b600080fd5b61026b610266366004615163565b6105e5565b6040516102789190615361565b60405180910390f35b61029461028f3660046153c3565b610669565b005b6102946102a4366004615163565b6106e5565b6102946102b73660046153c3565b61075a565b6102946102ca36600461547f565b6107c1565b6102f26102dd366004615163565b60096020526000908152604090205460ff1681565b6040519015158152602001610278565b610315610310366004615560565b61084e565b604051908152602001610278565b61033661033136600461558c565b610f2f565b60405161027891906156bc565b610294610351366004615560565b610ff9565b610294610364366004615560565b61104e565b61026b610377366004615163565b6110c0565b61029461038a3660046153c3565b61113c565b61029461039d366004615711565b611164565b6103b56103b03660046153c3565b6111cd565b60405161027891906157e2565b6103b56103d0366004615163565b6115dc565b6102946103e3366004615163565b6116c1565b6103156103f6366004615163565b6001600160a01b031660009081526007602052604090205490565b61029461041f3660046153c3565b611737565b6104376104323660046153c3565b611798565b60405161027891906157f5565b610294610452366004615808565b611b5a565b61046a610465366004615163565b611c2e565b604051610278919061598e565b61048a6104853660046153c3565b611cac565b60405161027891906159e3565b6102946104a53660046153c3565b611f30565b6102946104b836600461558c565b612271565b6102946104cb3660046159f6565b61228b565b6102946104de3660046153c3565b61229a565b6102f26104f1366004615ab5565b61257e565b6102946105043660046153c3565b612678565b61046a61269b565b61029461051f366004615adf565b6126f9565b61026b61270e565b61046a61053a366004615163565b612767565b61029461054d366004615adf565b6127e3565b6102946105603660046153c3565b6127f1565b61033661280b565b61029461057b3660046153c3565b612896565b61029461058e3660046153c3565b6128d4565b6102946105a13660046153c3565b612959565b6102946105b436600461547f565b6129c5565b6102946105c73660046153c3565b612a47565b6105d4612c12565b604051610278959493929190615bb1565b606061066360106000846001600160a01b03166001600160a01b0316815260200190815260200160002080548060200260200160405190810160405280929190818152602001828054801561065957602002820191906000526020600020905b815481526020019060010190808311610645575b5050505050612d43565b92915050565b610682814261067b8162015180615c07565b6002612e05565b6040805181815260129181019190915271e6ada3e59ca8e7bbb4e4bfaee8aebee5a48760701b6060820152602081018290527fc61de813928be656a9f684ad4be76b148eb74630d92a4fef360a2e90365bbd17906080015b60405180910390a150565b6000546001600160a01b031633146107395760405162461bcd60e51b8152602060048201526012602482015271e99d9ee59088e7baa6e68ba5e69c89e8808560701b60448201526064015b60405180910390fd5b6001600160a01b03166000908152600160205260409020805460ff19169055565b61076581600361336c565b6040805181815260129181019190915271e8aebee5a487e8a7a3e999a4e586bbe7bb9360701b6060820152602081018290527f0d19d6567393ffa30740300b9d0be4881f25e8418d621a82317e779b3c967b41906080016106da565b3360009081526001602052604090205460ff166108385760405162461bcd60e51b815260206004820152602f60248201527fe69d83e99990e4b88de8b6b32c20e697a0e6b395e4b8bae4bb96e4babae59cb060448201526ee59d80e5889be5bbbae794a8e688b760881b6064820152608401610730565b610846868686868686613777565b505050505050565b600061085984613956565b6000848152600e602090815260408083208151610180810183528154815260018201546001600160a01b031693810193909352600281015491830191909152600381015460ff16151560608301526004810180546080840191906108bc90615c1a565b80601f01602080910402602001604051908101604052809291908181526020018280546108e890615c1a565b80156109355780601f1061090a57610100808354040283529160200191610935565b820191906000526020600020905b81548152906001019060200180831161091857829003601f168201915b5050505050815260200160058201805461094e90615c1a565b80601f016020809104026020016040519081016040528092919081815260200182805461097a90615c1a565b80156109c75780601f1061099c576101008083540402835291602001916109c7565b820191906000526020600020905b8154815290600101906020018083116109aa57829003601f168201915b505050505081526020016006820180546109e090615c1a565b80601f0160208091040260200160405190810160405280929190818152602001828054610a0c90615c1a565b8015610a595780601f10610a2e57610100808354040283529160200191610a59565b820191906000526020600020905b815481529060010190602001808311610a3c57829003601f168201915b50505050508152602001600782018054610a7290615c1a565b80601f0160208091040260200160405190810160405280929190818152602001828054610a9e90615c1a565b8015610aeb5780601f10610ac057610100808354040283529160200191610aeb565b820191906000526020600020905b815481529060010190602001808311610ace57829003601f168201915b505050505081526020016008820154815260200160098201548152602001600a820160405180606001604052908160008201548152602001600182015481526020016002820154815250508152602001600d8201805480602002602001604051908101604052809291908181526020016000905b82821015610bf85760008481526020908190206040805160a08101825260048602909201805483526001810154938301939093526002830154908201526003808301546001600160a01b03811660608401529192916080840191600160a01b90910460ff1690811115610bd457610bd46151c4565b6003811115610be557610be56151c4565b8152505081526020019060010190610b5f565b5050505081525050905083831015610c5c5760405162461bcd60e51b815260206004820152602160248201527fe5bc80e5a78be697b6e997b4e99c80e697a9e4ba8ee7bb93e69d9fe697b6e9976044820152602d60fa1b6064820152608401610730565b6101608101518051600003610c7657600092505050610f28565b80600081518110610c8957610c89615c4e565b602002602001015160200151841015610ca757600092505050610f28565b848160018351610cb79190615c64565b81518110610cc757610cc7615c4e565b6020026020010151604001511015610ce357519150610f289050565b60005b60018251610cf49190615c64565b811015610d8a57600086838381518110610d1057610d10615c4e565b602002602001015160400151109050600083836001610d2f9190615c07565b81518110610d3f57610d3f615c4e565b60200260200101516020015187109050818015610d595750805b15610d7557610d69836001615c07565b95505050505050610f28565b50508080610d8290615c77565b915050610ce6565b50600381600081518110610da057610da0615c4e565b6020026020010151608001516003811115610dbd57610dbd6151c4565b03610e295760405162461bcd60e51b815260206004820152603660248201527fe8afa5e8aebee5a487e5a484e4ba8ee586bbe7bb93e78ab6e68081efbc8ce8af604482015275b7e88194e7b3bbe7aea1e79086e59198e8a7a3e586bb60501b6064820152608401610730565b600281600081518110610e3e57610e3e615c4e565b6020026020010151608001516003811115610e5b57610e5b6151c4565b03610ec75760405162461bcd60e51b815260206004820152603660248201527fe8afa5e8aebee5a487e5a484e4ba8ee7bbb4e4bfaee78ab6e68081efbc8ce8af6044820152755bf440ca73d9ddf4575f72d243f34640f34e44f25d5d60511b6064820152608401610730565b60405162461bcd60e51b815260206004820152603060248201527fe8afa5e8aebee5a487e59ca8e68c87e5ae9ae697b6e6aeb5e5b7b2e8a2abe58d60448201526f5073ca5477de4674cecf73d4dd74cbd960811b6064820152608401610730565b9392505050565b60608167ffffffffffffffff811115610f4a57610f4a6153dc565b604051908082528060200260200182016040528015610f8357816020015b610f70614f65565b815260200190600190039081610f685790505b509050825b600c54811015610ff257610fc2600c8281548110610fa857610fa8615c4e565b6000918252602090912001546001600160a01b03166115dc565b828281518110610fd457610fd4615c4e565b60200260200101819052508080610fea90615c77565b915050610f88565b5092915050565b61100483838361084e565b506000611010336115dc565b9050600061101d85611798565b9050600061102d838387876139b6565b905061104581608001518260c001516040015161257e565b50505050505050565b61105b8383836002612e05565b6040805181815260129181019190915271e6ada3e59ca8e7bbb4e4bfaee8aebee5a48760701b6060820152602081018490527fc61de813928be656a9f684ad4be76b148eb74630d92a4fef360a2e90365bbd17906080015b60405180910390a1505050565b6060610663600f6000846001600160a01b03166001600160a01b031681526020019081526020016000208054806020026020016040519081016040528092919081815260200182805480156106595760200282019190600052602060002090815481526020019060010190808311610645575050505050612d43565b600061114782613de4565b905061115f81608001518260c0015160400151614020565b505050565b3360009081526001602081905260409091205460ff161515146111be5760405162461bcd60e51b81526020600482015260126024820152710e697a0e7aea1e79086e59198e69d83e999960741b6044820152606401610730565b611045878787878787876140b9565b6111d5614f65565b6000828152600a60209081526040808320546001600160a01b03168352600b90915281205490036112485760405162461bcd60e51b815260206004820152601a60248201527fe8afb7e8be93e585a5e69c89e69588e79a84e794a8e688b749440000000000006044820152606401610730565b6000828152600a60209081526040808320546001600160a01b039081168452600b835292819020815161014081018352815481526001820154909416928401929092526002820154908301526003810180546060840191906112a990615c1a565b80601f01602080910402602001604051908101604052809291908181526020018280546112d590615c1a565b80156113225780601f106112f757610100808354040283529160200191611322565b820191906000526020600020905b81548152906001019060200180831161130557829003601f168201915b5050505050815260200160048201805461133b90615c1a565b80601f016020809104026020016040519081016040528092919081815260200182805461136790615c1a565b80156113b45780601f10611389576101008083540402835291602001916113b4565b820191906000526020600020905b81548152906001019060200180831161139757829003601f168201915b505050505081526020016005820180546113cd90615c1a565b80601f01602080910402602001604051908101604052809291908181526020018280546113f990615c1a565b80156114465780601f1061141b57610100808354040283529160200191611446565b820191906000526020600020905b81548152906001019060200180831161142957829003601f168201915b5050505050815260200160068201805461145f90615c1a565b80601f016020809104026020016040519081016040528092919081815260200182805461148b90615c1a565b80156114d85780601f106114ad576101008083540402835291602001916114d8565b820191906000526020600020905b8154815290600101906020018083116114bb57829003601f168201915b505050505081526020016007820180546114f190615c1a565b80601f016020809104026020016040519081016040528092919081815260200182805461151d90615c1a565b801561156a5780601f1061153f5761010080835404028352916020019161156a565b820191906000526020600020905b81548152906001019060200180831161154d57829003601f168201915b5050505050815260200160088201548152602001600982018054806020026020016040519081016040528092919081815260200182805480156115cc57602002820191906000526020600020905b8154815260200190600101908083116115b8575b5050505050815250509050919050565b6115e4614f65565b6001600160a01b0382166000908152600b602052604081205490036116675760405162461bcd60e51b815260206004820152603360248201527fe8afa5e4bba5e5a4aae59d8ae59cb0e59d80e79a84e794a8e688b7e4b8bae7a9604482015272baefbc8ce8afb7e5889be5bbbae794a8e688b760681b6064820152608401610730565b6001600160a01b038083166000908152600b6020908152604091829020825161014081018452815481526001820154909416918401919091526002810154918301919091526003810180546060840191906112a990615c1a565b6000546001600160a01b031633146117105760405162461bcd60e51b8152602060048201526012602482015271e99d9ee59088e7baa6e68ba5e69c89e8808560701b6044820152606401610730565b6001600160a01b03166000908152600160208190526040909120805460ff19169091179055565b61174281600261336c565b60408051818152600c918101919091526b72d74673444873ddda725fd760a11b6060820152602081018290527fc75a39ce594d07b358d77d5639b50f5989551bd62799a7852ce9e48c6443e5ec906080016106da565b6117a0614fc1565b6117a982613956565b6000828152600e60209081526040918290208251610180810184528154815260018201546001600160a01b031692810192909252600281015492820192909252600382015460ff161515606082015260048201805491929160808401919061181090615c1a565b80601f016020809104026020016040519081016040528092919081815260200182805461183c90615c1a565b80156118895780601f1061185e57610100808354040283529160200191611889565b820191906000526020600020905b81548152906001019060200180831161186c57829003601f168201915b505050505081526020016005820180546118a290615c1a565b80601f01602080910402602001604051908101604052809291908181526020018280546118ce90615c1a565b801561191b5780601f106118f05761010080835404028352916020019161191b565b820191906000526020600020905b8154815290600101906020018083116118fe57829003601f168201915b5050505050815260200160068201805461193490615c1a565b80601f016020809104026020016040519081016040528092919081815260200182805461196090615c1a565b80156119ad5780601f10611982576101008083540402835291602001916119ad565b820191906000526020600020905b81548152906001019060200180831161199057829003601f168201915b505050505081526020016007820180546119c690615c1a565b80601f01602080910402602001604051908101604052809291908181526020018280546119f290615c1a565b8015611a3f5780601f10611a1457610100808354040283529160200191611a3f565b820191906000526020600020905b815481529060010190602001808311611a2257829003601f168201915b505050505081526020016008820154815260200160098201548152602001600a820160405180606001604052908160008201548152602001600182015481526020016002820154815250508152602001600d8201805480602002602001604051908101604052809291908181526020016000905b82821015611b4c5760008481526020908190206040805160a08101825260048602909201805483526001810154938301939093526002830154908201526003808301546001600160a01b03811660608401529192916080840191600160a01b90910460ff1690811115611b2857611b286151c4565b6003811115611b3957611b396151c4565b8152505081526020019060010190611ab3565b505050915250909392505050565b611b6387613956565b6000878152600e6020526040902060018101546001600160a01b03163314611bdd5760405162461bcd60e51b815260206004820152602760248201527fe99d9ee8aebee5a487e68c81e69c89e4babaefbc8ce697a0e6b395e4bfaee694604482015266b9e4bfa1e681af60c81b6064820152608401610730565b60048101611beb8882615cd6565b5060058101611bfa8782615cd6565b5060068101611c098682615cd6565b5060078101611c188582615cd6565b5060098101929092556008909101555050505050565b606061066360176000846001600160a01b03166001600160a01b03168152602001908152602001600020805480602002602001604051908101604052809291908181526020018280548015611ca257602002820191906000526020600020905b815481526020019060010190808311611c8e575b505050505061420f565b611cb461504f565b611cbd826142c5565b600060156000848152602001908152602001600020604051806101200160405290816000820154815260200160018201548152602001600282018054611d0290615c1a565b80601f0160208091040260200160405190810160405280929190818152602001828054611d2e90615c1a565b8015611d7b5780601f10611d5057610100808354040283529160200191611d7b565b820191906000526020600020905b815481529060010190602001808311611d5e57829003601f168201915b50505050508152602001600382018054611d9490615c1a565b80601f0160208091040260200160405190810160405280929190818152602001828054611dc090615c1a565b8015611e0d5780601f10611de257610100808354040283529160200191611e0d565b820191906000526020600020905b815481529060010190602001808311611df057829003601f168201915b505050918352505060048201546001600160a01b03908116602080840191909152600584015490911660408084019190915280516080808201835260068601548252600786015482850152600886015482840152600986015460ff90811615156060848101919091528087019390935283518083018552600a880180548252600b89015496820196909652600c88015494810194909452600d870154919095019492939291840191166002811115611ec757611ec76151c4565b6002811115611ed857611ed86151c4565b90525081526040805160c081018252600e8401548152600f840154602082810191909152601085015492820192909252601184015460608201526012840154608082015260139093015460a084015201529392505050565b600060156000838152602001908152602001600020604051806101200160405290816000820154815260200160018201548152602001600282018054611f7590615c1a565b80601f0160208091040260200160405190810160405280929190818152602001828054611fa190615c1a565b8015611fee5780601f10611fc357610100808354040283529160200191611fee565b820191906000526020600020905b815481529060010190602001808311611fd157829003601f168201915b5050505050815260200160038201805461200790615c1a565b80601f016020809104026020016040519081016040528092919081815260200182805461203390615c1a565b80156120805780601f1061205557610100808354040283529160200191612080565b820191906000526020600020905b81548152906001019060200180831161206357829003601f168201915b505050918352505060048201546001600160a01b03908116602080840191909152600584015490911660408084019190915280516080808201835260068601548252600786015482850152600886015482840152600986015460ff90811615156060848101919091528087019390935283518083018552600a880180548252600b89015496820196909652600c88015494810194909452600d87015491909501949293929184019116600281111561213a5761213a6151c4565b600281111561214b5761214b6151c4565b815250508152602001600e82016040518060c001604052908160008201548152602001600182015481526020016002820154815260200160038201548152602001600482015481526020016005820154815250508152505090508060a001516001600160a01b0316336001600160a01b0316146122145760405162461bcd60e51b815260206004820152602160248201527fe99d9ee8aebee5a487e7a79fe794a8e4babaefbc8ce697a0e6b395e588a0e9996044820152602960fa1b6064820152608401610730565b80610100015160a0015160000361226d5760405162461bcd60e51b815260206004820152601e60248201527fe59088e5908ce69caae5ae8ce68890efbc8ce697a0e6b395e588a0e999a400006044820152606401610730565b5050565b61226d8282612284816312cc0300615c07565b6003612e05565b610846338787878787876140b9565b6000601560008381526020019081526020016000206040518061012001604052908160008201548152602001600182015481526020016002820180546122df90615c1a565b80601f016020809104026020016040519081016040528092919081815260200182805461230b90615c1a565b80156123585780601f1061232d57610100808354040283529160200191612358565b820191906000526020600020905b81548152906001019060200180831161233b57829003601f168201915b5050505050815260200160038201805461237190615c1a565b80601f016020809104026020016040519081016040528092919081815260200182805461239d90615c1a565b80156123ea5780601f106123bf576101008083540402835291602001916123ea565b820191906000526020600020905b8154815290600101906020018083116123cd57829003601f168201915b505050918352505060048201546001600160a01b03908116602080840191909152600584015490911660408084019190915280516080808201835260068601548252600786015482850152600886015482840152600986015460ff90811615156060848101919091528087019390935283518083018552600a880180548252600b89015496820196909652600c88015494810194909452600d8701549190950194929392918401911660028111156124a4576124a46151c4565b60028111156124b5576124b56151c4565b815250508152602001600e82016040518060c0016040529081600082015481526020016001820154815260200160028201548152602001600382015481526020016004820154815260200160058201548152505081525050905080608001516001600160a01b0316336001600160a01b0316146122145760405162461bcd60e51b815260206004820152602160248201527fe99d9ee8aebee5a487e68c81e69c89e4babaefbc8ce697a0e6b395e588a0e9996044820152602960fa1b6064820152608401610730565b336000908152600760205260408120548211156125dd5760405162461bcd60e51b815260206004820152601860248201527fe682a8e79a84e8b4a6e58fb7e4bd99e9a29de4b88de8b6b300000000000000006044820152606401610730565b33600090815260076020526040812080548492906125fc908490615c64565b90915550506001600160a01b03831660009081526007602052604081208054849290612629908490615c07565b90915550506040518281526001600160a01b0384169033907fddf252ad1be2c89b69c2b068fc378daa952ba7f163c4a11628f55a4df523b3ef906020015b60405180910390a350600192915050565b600061268382614322565b905061115f8160a001518260c001516040015161257e565b60606126f46018805480602002602001604051908101604052809291908181526020018280548015611ca25760200282019190600052602060002090815481526020019060010190808311611c8e57505050505061420f565b905090565b612707338686868686613777565b5050505050565b60606126f460128054806020026020016040519081016040528092919081815260200182805480156106595760200282019190600052602060002090815481526020019060010190808311610645575050505050612d43565b606061066360166000846001600160a01b03166001600160a01b03168152602001908152602001600020805480602002602001604051908101604052809291908181526020018280548015611ca25760200282019190600052602060002090815481526020019060010190808311611c8e57505050505061420f565b612707338686868686614554565b60006127fc8261469a565b905061226d8160200151614862565b60606128263360009081526001602052604090205460ff1690565b6128875760405162461bcd60e51b815260206004820152602c60248201527fe69d83e99990e4b88de8b6b32c20e697a0e6b395e88eb7e58f96e68980e69c8960448201526be794a8e688b7e4bfa1e681af60a01b6064820152608401610730565b600c546126f490600090610f2f565b60006128a182614943565b90506128b98160a001518260c0015160200151614020565b5060208082015160e0830151805192015161226d9290614b75565b60006128df82614bfe565b60c08101516040015160e082015160200151919250906000906129029042615c64565b9050600a8360c00151604001518261291a9190615d96565b6129249190615dad565b61292e9083615c64565b91506000821161293f576000612941565b815b91506127078360a001518460c001516040015161257e565b61296c8142612284816312cc0300615c07565b60408051818152600f918101919091526ee5b7b2e586bbe7bb93e8aebee5a48760881b6060820152602081018290527f91712bb43158cec3e423c7324d4cbb41da429d5dd6e3d490a74cceff80cc3c05906080016106da565b3360009081526001602052604090205460ff16612a395760405162461bcd60e51b815260206004820152602c60248201527fe69d83e99990e4b88de8b6b32c20e697a0e6b395e4bfaee694b9e585b6e4bb9660448201526be794a8e688b7e4bfa1e681af60a01b6064820152608401610730565b610846868686868686614554565b612a5081613956565b6000818152600e6020526040902060018101546001600160a01b03163314612aca5760405162461bcd60e51b815260206004820152602760248201527fe99d9ee8aebee5a487e68c81e69c89e4babaefbc8ce697a0e6b395e588a0e999604482015266a4e8aebee5a48760c81b6064820152608401610730565b600d81015415612b315760405162461bcd60e51b815260206004820152602c60248201527fe8aebee5a487e587bae7a79f2fe7bbb4e4bfae2fe586bbe7bb93e4b8adefbc8c60448201526b392e237963ebf962283a666960a21b6064820152608401610730565b336000908152600f602052604090819020905163f3c0d27560e01b815260048101919091526024810183905273__LibArray______________________________9063f3c0d2759060440160006040518083038186803b158015612b9457600080fd5b505af4158015612ba8573d6000803e3d6000fd5b505060405163f3c0d27560e01b8152601260048201526024810185905273__LibArray______________________________925063f3c0d275915060440160006040518083038186803b158015612bfe57600080fd5b505af4158015610846573d6000803e3d6000fd5b6002805460038054919291612c2690615c1a565b80601f0160208091040260200160405190810160405280929190818152602001828054612c5290615c1a565b8015612c9f5780601f10612c7457610100808354040283529160200191612c9f565b820191906000526020600020905b815481529060010190602001808311612c8257829003601f168201915b505050505090806002018054612cb490615c1a565b80601f0160208091040260200160405190810160405280929190818152602001828054612ce090615c1a565b8015612d2d5780601f10612d0257610100808354040283529160200191612d2d565b820191906000526020600020905b815481529060010190602001808311612d1057829003601f168201915b5050505050908060030154908060040154905085565b6060815167ffffffffffffffff811115612d5f57612d5f6153dc565b604051908082528060200260200182016040528015612d9857816020015b612d85614fc1565b815260200190600190039081612d7d5790505b50905060005b8251811015612dff576000838281518110612dbb57612dbb615c4e565b60200260200101519050612dce81611798565b838381518110612de057612de0615c4e565b6020026020010181905250508080612df790615c77565b915050612d9e565b50919050565b612e0e84613956565b336000908152601160209081526040808320878452909152812090826003811115612e3b57612e3b6151c4565b6003811115612e4c57612e4c6151c4565b815260200190815260200160002054600014612ebf5760405162461bcd60e51b815260206004820152602c60248201527fe8afb7e58bbfe9878de5a48de587bae7a79f2fe7bbb4e4bfae2fe586bbe7bb9360448201526be5bd93e5898de8aebee5a48760a01b6064820152608401610730565b6002816003811115612ed357612ed36151c4565b03612f50576000848152600e60205260409020600101546001600160a01b03163314612f4b5760405162461bcd60e51b815260206004820152602160248201527fe4bb85e8aebee5a487e68c81e69c89e4babae58fafe7bbb4e4bfaee8aebee5a46044820152608760f81b6064820152608401610730565b612fd2565b6003816003811115612f6457612f646151c4565b03612fd2573360009081526001602052604090205460ff16612fd25760405162461bcd60e51b815260206004820152602160248201527fe4bb85e8aebee5a487e7aea1e79086e59198e58fafe586bbe7bb93e8aebee5a46044820152608760f81b6064820152608401610730565b6000848152600e6020526040812090600d820190612ff187878761084e565b60148054919250829190600061300683615c77565b90915550506014543360009081526011602090815260408083208c845290915281209087600381111561303b5761303b6151c4565b600381111561304c5761304c6151c4565b81526020019081526020016000208190555060006040518060a001604052806014548152602001898152602001888152602001336001600160a01b031681526020018760038111156130a0576130a06151c4565b90528454600181810187556000878152602090819020845160049094020192835583015190820155604082015160028201556060820151600380830180546001600160a01b039093166001600160a01b0319841681178255608086015195965086959391926001600160a81b03199092161790600160a01b90849081111561312a5761312a6151c4565b0217905550839150505b845461314290600190615c64565b8110156132235784818154811061315b5761315b615c4e565b9060005260206000209060040201858260016131779190615c07565b8154811061318757613187615c4e565b60009182526020909120825460049092020190815560018083015490820155600280830154908201556003808301805482840180546001600160a01b031981166001600160a01b039093169283178255925460ff600160a01b91829004169491936001600160a81b03191690921791908490811115613208576132086151c4565b0217905550905050808061321b90615c77565b915050613134565b508084838154811061323757613237615c4e565b60009182526020918290208351600490920201908155908201516001820155604082015160028201556060820151600380830180546001600160a01b039093166001600160a01b031984168117825560808601519391926001600160a81b03199092161790600160a01b9084908111156132b3576132b36151c4565b0217905550600191506132c39050565b8660038111156132d5576132d56151c4565b036132f657600a850180549060006132ec83615c77565b9190505550613361565b600286600381111561330a5761330a6151c4565b0361332157600b850180549060006132ec83615c77565b6003866003811115613335576133356151c4565b0361336157600c8501805490600061334c83615c77565b909155505060038501805460ff191660011790555b505050505050505050565b61337582613956565b3360009081526011602090815260408083208584529091528120818360038111156133a2576133a26151c4565b60038111156133b3576133b36151c4565b815260208082019290925260409081016000908120543382526011845282822087835290935290812091925090818460038111156133f3576133f36151c4565b6003811115613404576134046151c4565b815260200190815260200160002081905550806000036134755760405162461bcd60e51b815260206004820152602660248201527fe69caae9a284e7baa62fe7bbb4e4bfae2fe586bbe7bb93efbc8ce697a0e99c806044820152653a29e8fa666960d21b6064820152608401610730565b6002826003811115613489576134896151c4565b03613506576000838152600e60205260409020600101546001600160a01b031633146135015760405162461bcd60e51b815260206004820152602160248201527fe4bb85e8aebee5a487e68c81e69c89e4babae58fafe5ae8ce68890e7bbb4e4bf6044820152605760f91b6064820152608401610730565b613588565b600382600381111561351a5761351a6151c4565b03613588573360009081526001602052604090205460ff166135885760405162461bcd60e51b815260206004820152602160248201527fe4bb85e8aebee5a487e7aea1e79086e59198e58fafe8a7a3e586bbe8aebee5a46044820152608760f81b6064820152608401610730565b6000838152600e6020526040812090600d8201905b815481101561084657838282815481106135b9576135b9615c4e565b9060005260206000209060040201600001540361376557805b82546135e090600190615c64565b8110156136bf57826135f3826001615c07565b8154811061360357613603615c4e565b906000526020600020906004020183828154811061362357613623615c4e565b60009182526020909120825460049092020190815560018083015490820155600280830154908201556003808301805482840180546001600160a01b031981166001600160a01b039093169283178255925460ff600160a01b91829004169491936001600160a81b031916909217919084908111156136a4576136a46151c4565b021790555090505080806136b790615c77565b9150506135d2565b5060038282815481106136d4576136d4615c4e565b906000526020600020906004020160030160149054906101000a900460ff166003811115613704576137046151c4565b036137165760038301805460ff191690555b8180548061372657613726615dcf565b60008281526020812060046000199093019283020181815560018101829055600281019190915560030180546001600160a81b03191690559055610846565b8061376f81615c77565b91505061359d565b6001600160a01b0386166000908152600b6020526040902054156137fc5760405162461bcd60e51b815260206004820152603660248201527fe8afa5e4bba5e5a4aae59d8ae59cb0e59d80e5b7b2e5ad98e59ca8e794a8e68860448201527505bf7de467457dbf2c5dff4c3c6f2d246f35bddf2c5560551b6064820152608401610730565b600d805490600061380c83615c77565b9091555050600d80546000908152600a6020908152604080832080546001600160a01b038c166001600160a01b03199182168117909255600c805460018181019092557fdf6966c971051c3d54ec59162606531493a51404a002842f56009d7e5cf4a8c7018054831684179055828652600b90945291909320918201805490911690921790915590548155426002820155600381016138ab8782615cd6565b50600481016138ba8682615cd6565b50600581016138c98582615cd6565b50600681016138d88482615cd6565b50600781016138e78382615cd6565b507f31288da5d3e9d68198b1b94ae2537ec67d1d0a344320131f5227a08fea969b04600d5460405161394591906040808252600f908201526ee5b7b2e6b7bbe58aa0e794a8e688b760881b6060820152602081019190915260800190565b60405180910390a150505050505050565b6000818152600e602052604081205490036139b35760405162461bcd60e51b815260206004820152601a60248201527fe8afb7e8be93e585a5e69c89e69588e79a84e8aebee5a48749440000000000006044820152606401610730565b50565b6139be61504f565b601c80549060006139ce83615c77565b9091555050601c80546018805460018181019092557fb13d2d76d1f4b7be834882e410b3e3a8afaf69f83600ae24db354391d2378d2e0182905533600081815260166020908152604080832080548087018255908452828420019590955589810180516001600160a01b039081168452601783528684208854815480890183559186528486209091015596548084526015909252949091209081558851928101929092559151600482018054919094166001600160a01b03199182161790935560058101805490931690911790915560808501516002820190613ab19082615cd6565b5060608601516003820190613ac69082615cd6565b5061012085015160088201556101008501516006820155610e10613aea8585615c64565b866101000151613afa9190615d96565b613b049190615dad565b6007820155600a8101849055600b810183905542600e820155601c546040517f3b053ad98a557ecda536a08edc3b0b945f9e8b5028a9b19f5e45680f2bce81fd91613b7a916040808252600f908201526e396decb96226f96eeeb96422396423608a1b6060820152602081019190915260800190565b60405180910390a180604051806101200160405290816000820154815260200160018201548152602001600282018054613bb390615c1a565b80601f0160208091040260200160405190810160405280929190818152602001828054613bdf90615c1a565b8015613c2c5780601f10613c0157610100808354040283529160200191613c2c565b820191906000526020600020905b815481529060010190602001808311613c0f57829003601f168201915b50505050508152602001600382018054613c4590615c1a565b80601f0160208091040260200160405190810160405280929190818152602001828054613c7190615c1a565b8015613cbe5780601f10613c9357610100808354040283529160200191613cbe565b820191906000526020600020905b815481529060010190602001808311613ca157829003601f168201915b505050918352505060048201546001600160a01b03908116602080840191909152600584015490911660408084019190915280516080808201835260068601548252600786015482850152600886015482840152600986015460ff90811615156060848101919091528087019390935283518083018552600a880180548252600b89015496820196909652600c88015494810194909452600d870154919095019492939291840191166002811115613d7857613d786151c4565b6002811115613d8957613d896151c4565b90525081526040805160c081018252600e8401548152600f840154602080830191909152601085015492820192909252601184015460608201526012840154608082015260139093015460a084015201529695505050505050565b613dec61504f565b613df5826142c5565b600082815260156020526040902060058101546001600160a01b03163314613e695760405162461bcd60e51b815260206004820152602160248201527fe99d9ee7a79fe8b581e4babaefbc8ce6b2a1e69c89e58f96e6b688e69d83e9996044820152600960fc1b6064820152608401610730565b600e810154600003613ec95760405162461bcd60e51b8152602060048201526024808201527fe697a0e69588e79a84e7a79fe8b581e59088e5908cefbc8ce697a0e6b395e58f60448201526312dcd6d160e31b6064820152608401610730565b601081015415613f275760405162461bcd60e51b8152602060048201526024808201527fe7a79fe8b581e794b3e8afb7e5b7b2e9809ae8bf87efbc8ce697a0e6b395e58f60448201526312dcd6d160e31b6064820152608401610730565b601181015415613f855760405162461bcd60e51b8152602060048201526024808201527fe7a79fe8b581e794b3e8afb7e5b7b2e68b92e7bb9defbc8ce697a0e6b395e58f60448201526312dcd6d160e31b6064820152608401610730565b42600f8201556040517fa30b81acd7ed0623bdd70b853a9e9758ec399c41886b0b1e6cec4113efd4e7d390613fe79085906040808252600f908201526e396decb963e5b9ada2396422396423608a1b6060820152602081019190915260800190565b60405180910390a180604051806101200160405290816000820154815260200160018201548152602001600282018054611d0290615c1a565b6001600160a01b03821660009081526007602052604081208054839190839061404a908490615c64565b90915550506001600160a01b03831660009081526007602052604081208054849290614077908490615c07565b909155505060405182815233906001600160a01b038516907fddf252ad1be2c89b69c2b068fc378daa952ba7f163c4a11628f55a4df523b3ef90602001612667565b601380549060006140c983615c77565b90915550506001600160a01b0387166000818152600f6020908152604080832060138054825460018181018555938752858720015554601280548084019091557fbb8a6a4669ba250d26cd7a459eca9d215f8307e33aebe50379bc5a3617ec344401819055808552600e909352922090815590810180546001600160a01b031916909217909155426002820155600481016141648882615cd6565b50600581016141738782615cd6565b50600681016141828682615cd6565b50600781016141918582615cd6565b5060098101839055600881018290556013546040517f48de5ee750dcbeddea3134837e8d0af178257cd8a90a37bd400f6c6e3713a243916141fd916040808252600f908201526ee5b7b2e6b7bbe58aa0e8aebee5a48760881b6060820152602081019190915260800190565b60405180910390a15050505050505050565b6060815167ffffffffffffffff81111561422b5761422b6153dc565b60405190808252806020026020018201604052801561426457816020015b61425161504f565b8152602001906001900390816142495790505b50905060005b8251811015612dff5761429583828151811061428857614288615c4e565b6020026020010151611cac565b8282815181106142a7576142a7615c4e565b602002602001018190525080806142bd90615c77565b91505061426a565b60008181526015602052604081205490036139b35760405162461bcd60e51b815260206004820152601a60248201527fe8afb7e8be93e585a5e69c89e69588e79a84e4baa4e6989349440000000000006044820152606401610730565b61432a61504f565b614333826142c5565b601a8054600181019091557f057c384a7d1c54f3a1b2e5e67b2617b8224fdfd1ea7234eea573a6ff665ff63e01829055600082815260156020526040902060048101546001600160a01b031633146143cd5760405162461bcd60e51b815260206004820152601e60248201527fe99d9ee59088e7baa6e4b8bbe4babaefbc8ce697a0e6b395e68b92e7bb9d00006044820152606401610730565b600e8101546000036144255760405162461bcd60e51b815260206004820152602d6024820152600080516020615e2d83398151915260448201526c2579a2e4b9eee7796422396423609a1b6064820152608401610730565b60108101541561448d5760405162461bcd60e51b815260206004820152602d60248201527fe6ada4e7a79fe8b581e59088e5908ce5b7b2e9809ae8bf87efbc8ce697a0e6b360448201526c2579a2e4b9eee7796422396423609a1b6064820152608401610730565b6011810154156144f55760405162461bcd60e51b815260206004820152602d60248201527fe6ada4e7a79fe8b581e59088e5908ce5b7b2e68b92e7bb9defbc8ce8afb7e58b60448201526cbfe9878de5a48de68b92e7bb9d60981b6064820152608401610730565b42601182015560408051818152600f918101919091526ee59088e5908ce5b7b2e68b92e7bb9d60881b6060820152602081018490527f5909a798e5a0757a7abeda4054d82acd72c1a50609a6233b5f5e514e750f86a390608001613fe7565b6001600160a01b0386166000908152600b602052604081205490036145da5760405162461bcd60e51b815260206004820152603660248201527fe8afa5e4bba5e5a4aae59d8ae59cb0e59d80e69caae5889be5bbbae5b9b3e58f60448201527558745a5373445bf7de467457dbf2c2c472c44df2dddd60511b6064820152608401610730565b6001600160a01b0386166000908152600b60205260409020600381016146008782615cd6565b506004810161460f8682615cd6565b506005810161461e8582615cd6565b506006810161462d8482615cd6565b506007810161463c8382615cd6565b507f8c3600b5fd0168e13678b5101b7076382150bca83b9b3803d2fa29518591a84f600d5460405161394591906040808252600f908201526ee5b7b2e4bfaee694b9e794a8e688b760881b6060820152602081019190915260800190565b6146a261504f565b6146ab826142c5565b600082815260156020526040902060058101546001600160a01b0316331461471f5760405162461bcd60e51b815260206004820152602160248201527fe697a0e6b395e5bd92e8bf98efbc8ce99d9ee8aebee5a487e7a79fe8b581e8806044820152608560f81b6064820152608401610730565b600e8101546000036147775760405162461bcd60e51b815260206004820152602d6024820152600080516020615e2d83398151915260448201526c95e58f91e8b5b7e7bb93e69d9f60981b6064820152608401610730565b60108101546000036147e15760405162461bcd60e51b815260206004820152602d60248201527fe6ada4e7a79fe8b581e59088e5908ce69caae9809ae8bf87efbc8ce697a0e6b360448201526c95e58f91e8b5b7e7bb93e69d9f60981b6064820152608401610730565b6013810154156148035760405162461bcd60e51b815260040161073090615de5565b42601282015560408051818152600f918101919091526e0e59088e5908ce5be85e5ae8ce6889608c1b6060820152602081018490527f1f14526ddd67e6268764bbad05e9e2c5ab3ab842567ddb8db3bb0ad6751e4b3b90608001613fe7565b61486d81600161336c565b3360009081526010602052604090819020905163f3c0d27560e01b815260048101919091526024810182905273__LibArray______________________________9063f3c0d2759060440160006040518083038186803b1580156148d057600080fd5b505af41580156148e4573d6000803e3d6000fd5b505050507f81018ec03d734d80c5d83a19f8f55c74dda767070b930a6fde241f1762525e86816040516106da91906040808252600f908201526ee5b7b2e5bd92e8bf98e8aebee5a48760881b6060820152602081019190915260800190565b61494b61504f565b614954826142c5565b60198054600181019091557f944998273e477b495144fb8794c914197f3ccb46be2900f4698fd0ef743c969501829055600082815260156020526040902060048101546001600160a01b031633146149ee5760405162461bcd60e51b815260206004820152601e60248201527fe99d9ee59088e7baa6e4b8bbe4babaefbc8ce697a0e6b395e5908ce6848f00006044820152606401610730565b600e810154600003614a465760405162461bcd60e51b815260206004820152602d6024820152600080516020615e2d83398151915260448201526c257a6026ba2fe1f96422396423609a1b6064820152608401610730565b601081015415614aae5760405162461bcd60e51b815260206004820152602d60248201527fe6ada4e7a79fe8b581e59088e5908ce5b7b2e9809ae8bf87efbc8ce8afb7e58b60448201526cbfe9878de5a48de9809ae8bf8760981b6064820152608401610730565b601181015415614b165760405162461bcd60e51b815260206004820152602d60248201527fe6ada4e7a79fe8b581e59088e5908ce5b7b2e68b92e7bb9defbc8ce697a0e6b360448201526c257a6026ba2fe1f96422396423609a1b6064820152608401610730565b42601082015560408051818152600f918101919091526ee59088e5908ce5b7b2e9809ae8bf8760881b6060820152602081018490527fb41ab994283aa50642f802b623fd6d05fffc9aec8b1bd9239904e9ecf22c9f5e90608001613fe7565b614b828383836001612e05565b3360009081526010602090815260408083208054600181018255908452928290209092018590558151828152600f928101929092526ee5b7b2e587bae7a79fe8aebee5a48760881b606083015281018490527fe07bf1f6eaac6e2d99a879d33fb62aea3a64d2a4cb0e7a9c71f75d5812199522906080016110b3565b614c0661504f565b614c0f826142c5565b601b8054600181019091557f3ad8aa4f87544323a9d1e5dd902f40c356527a7955687113db5f9a85ad579dc101829055600082815260156020526040902060048101546001600160a01b03163314614cb95760405162461bcd60e51b815260206004820152602760248201527fe99d9ee8aebee5a487e68c81e69c89e4babaefbc8ce697a0e6b395e5ae8ce6886044820152664874d546734a5b60c91b6064820152608401610730565b600b810154421015614d055760405162461bcd60e51b8152602060048201526015602482015274e7a79fe8b581e697b6e997b4e69caae588b0e69c9f60581b6044820152606401610730565b600e810154600003614d5d5760405162461bcd60e51b815260206004820152602d6024820152600080516020615e2d83398151915260448201526c25796ba339a224396422396423609a1b6064820152608401610730565b6010810154600003614dd05760405162461bcd60e51b815260206004820152603660248201527fe6ada4e7a79fe8b581e59088e5908ce8bf98e69caae5aea1e6a0b8e9809ae8bf60448201527521fbef2339a5e839ace5796ba339a22439642239642360521b6064820152608401610730565b601381015415614df25760405162461bcd60e51b815260040161073090615de5565b4260138201556004808201546001600160a01b031660009081526017602052604090819020905163f3c0d27560e01b8152918201526024810184905273__LibArray______________________________9063f3c0d2759060440160006040518083038186803b158015614e6557600080fd5b505af4158015614e79573d6000803e3d6000fd5b50505060058201546001600160a01b031660009081526016602052604090819020905163f3c0d27560e01b815273__LibArray______________________________925063f3c0d27591614eda918790600401918252602082015260400190565b60006040518083038186803b158015614ef257600080fd5b505af4158015614f06573d6000803e3d6000fd5b505050507f63440b92d7e7d449e507be5abfc9f9cdfff236ba2de82dc481f75d7fa655a95683604051613fe791906040808252600f908201526e0e59088e5908ce5b7b2e5ae8ce6889608c1b6060820152602081019190915260800190565b6040518061014001604052806000815260200160006001600160a01b0316815260200160008152602001606081526020016060815260200160608152602001606081526020016060815260200160008152602001606081525090565b6040518061018001604052806000815260200160006001600160a01b031681526020016000815260200160001515815260200160608152602001606081526020016060815260200160608152602001600081526020016000815260200161504260405180606001604052806000815260200160008152602001600081525090565b8152602001606081525090565b6040518061012001604052806000815260200160008152602001606081526020016060815260200160006001600160a01b0316815260200160006001600160a01b031681526020016150c460405180608001604052806000815260200160008152602001600081526020016000151581525090565b81526020016150d1615114565b815260200161510f6040518060c001604052806000815260200160008152602001600081526020016000815260200160008152602001600081525090565b905290565b60405180608001604052806000815260200160008152602001600081526020016000600281111561510f5761510f6151c4565b80356001600160a01b038116811461515e57600080fd5b919050565b60006020828403121561517557600080fd5b610f2882615147565b6000815180845260005b818110156151a457602081850181015186830182015201615188565b506000602082860101526020601f19601f83011685010191505092915050565b634e487b7160e01b600052602160045260246000fd5b600081518084526020808501945080840160005b8381101561524d578151805188528381015184890152604080820151908901526060808201516001600160a01b0316908901526080908101519060048210615238576152386151c4565b88015260a090960195908201906001016151ee565b509495945050505050565b60006101c082518452602083015161527b60208601826001600160a01b03169052565b50604083015160408501526060830151615299606086018215159052565b5060808301518160808601526152b18286018261517e565b91505060a083015184820360a08601526152cb828261517e565b91505060c083015184820360c08601526152e5828261517e565b91505060e083015184820360e08601526152ff828261517e565b610100858101519087015261012080860151908701526101408086015180518289015260208101516101608901526040810151610180890152919350915050506101608301518482036101a086015261535882826151da565b95945050505050565b6000602080830181845280855180835260408601915060408160051b870101925083870160005b828110156153b657603f198886030184526153a4858351615258565b94509285019290850190600101615388565b5092979650505050505050565b6000602082840312156153d557600080fd5b5035919050565b634e487b7160e01b600052604160045260246000fd5b600082601f83011261540357600080fd5b813567ffffffffffffffff8082111561541e5761541e6153dc565b604051601f8301601f19908116603f01168101908282118183101715615446576154466153dc565b8160405283815286602085880101111561545f57600080fd5b836020870160208301376000602085830101528094505050505092915050565b60008060008060008060c0878903121561549857600080fd5b6154a187615147565b9550602087013567ffffffffffffffff808211156154be57600080fd5b6154ca8a838b016153f2565b965060408901359150808211156154e057600080fd5b6154ec8a838b016153f2565b9550606089013591508082111561550257600080fd5b61550e8a838b016153f2565b9450608089013591508082111561552457600080fd5b6155308a838b016153f2565b935060a089013591508082111561554657600080fd5b5061555389828a016153f2565b9150509295509295509295565b60008060006060848603121561557557600080fd5b505081359360208301359350604090920135919050565b6000806040838503121561559f57600080fd5b50508035926020909101359150565b600081518084526020808501945080840160005b8381101561524d578151875295820195908201906001016155c2565b600061014082518452602083015161560160208601826001600160a01b03169052565b506040830151604085015260608301518160608601526156238286018261517e565b9150506080830151848203608086015261563d828261517e565b91505060a083015184820360a0860152615657828261517e565b91505060c083015184820360c0860152615671828261517e565b91505060e083015184820360e086015261568b828261517e565b91505061010080840151818601525061012080840151858303828701526156b283826155ae565b9695505050505050565b6000602080830181845280855180835260408601915060408160051b870101925083870160005b828110156153b657603f198886030184526156ff8583516155de565b945092850192908501906001016156e3565b600080600080600080600060e0888a03121561572c57600080fd5b61573588615147565b9650602088013567ffffffffffffffff8082111561575257600080fd5b61575e8b838c016153f2565b975060408a013591508082111561577457600080fd5b6157808b838c016153f2565b965060608a013591508082111561579657600080fd5b6157a28b838c016153f2565b955060808a01359150808211156157b857600080fd5b506157c58a828b016153f2565b93505060a0880135915060c0880135905092959891949750929550565b602081526000610f2860208301846155de565b602081526000610f286020830184615258565b600080600080600080600060e0888a03121561582357600080fd5b87359650602088013567ffffffffffffffff8082111561575257600080fd5b80518252602081015160208301526040810151604083015260608101516003811061586f5761586f6151c4565b806060840152505050565b6000610280825184526020830151602085015260408301518160408601526158a48286018261517e565b915050606083015184820360608601526158be828261517e565b91505060808301516158db60808601826001600160a01b03169052565b5060a08301516158f660a08601826001600160a01b03169052565b5060c083015161592c60c08601828051825260208101516020830152604081015160408301526060810151151560608301525050565b5060e0830151615940610140860182615842565b5061010083015180516101c086015260208101516101e086015260408101516102008601526060810151610220860152608081015161024086015260a0810151610260860152509392505050565b6000602080830181845280855180835260408601915060408160051b870101925083870160005b828110156153b657603f198886030184526159d185835161587a565b945092850192908501906001016159b5565b602081526000610f28602083018461587a565b60008060008060008060c08789031215615a0f57600080fd5b863567ffffffffffffffff80821115615a2757600080fd5b615a338a838b016153f2565b97506020890135915080821115615a4957600080fd5b615a558a838b016153f2565b96506040890135915080821115615a6b57600080fd5b615a778a838b016153f2565b95506060890135915080821115615a8d57600080fd5b50615a9a89828a016153f2565b9350506080870135915060a087013590509295509295509295565b60008060408385031215615ac857600080fd5b615ad183615147565b946020939093013593505050565b600080600080600060a08688031215615af757600080fd5b853567ffffffffffffffff80821115615b0f57600080fd5b615b1b89838a016153f2565b96506020880135915080821115615b3157600080fd5b615b3d89838a016153f2565b95506040880135915080821115615b5357600080fd5b615b5f89838a016153f2565b94506060880135915080821115615b7557600080fd5b615b8189838a016153f2565b93506080880135915080821115615b9757600080fd5b50615ba4888289016153f2565b9150509295509295909350565b85815260a060208201526000615bca60a083018761517e565b8281036040840152615bdc818761517e565b60608401959095525050608001529392505050565b634e487b7160e01b600052601160045260246000fd5b8082018082111561066357610663615bf1565b600181811c90821680615c2e57607f821691505b602082108103612dff57634e487b7160e01b600052602260045260246000fd5b634e487b7160e01b600052603260045260246000fd5b8181038181111561066357610663615bf1565b600060018201615c8957615c89615bf1565b5060010190565b601f82111561115f57600081815260208120601f850160051c81016020861015615cb75750805b601f850160051c820191505b8181101561084657828155600101615cc3565b815167ffffffffffffffff811115615cf057615cf06153dc565b615d0481615cfe8454615c1a565b84615c90565b602080601f831160018114615d395760008415615d215750858301515b600019600386901b1c1916600185901b178555610846565b600085815260208120601f198616915b82811015615d6857888601518255948401946001909101908401615d49565b5085821015615d865787850151600019600388901b60f8161c191681555b5050505050600190811b01905550565b808202811582820484141761066357610663615bf1565b600082615dca57634e487b7160e01b600052601260045260246000fd5b500490565b634e487b7160e01b600052603160045260246000fd5b60208082526027908201527fe5bd92e8bf98e99499e8afafefbc8ce6ada4e7a79fe8b581e59088e5908ce5b76040820152660b2e5ae8ce688960cc1b60608201526080019056fee6ada4e4b8bae697a0e69588e7a79fe8b581e59088e5908cefbc8ce697a0e6b3a2646970667358221220ff156a397c5a9c9a5925f131aacf4395196e0a9bcc1d6d20315b4280fd56d0bb64736f6c63430008120033",
  "immutableReferences": {},
  "source": "// SPDX-License-Identifier: GPL-3.0\r\npragma solidity ^0.8.18;  \r\n\r\nimport { Authority } from \"./authority.sol\"; \r\nimport { TokenContract } from \"./token.sol\"; \r\nimport { UserContract, User } from \"./user.sol\";\r\nimport { LeaseContract, LeasePact } from \"./lease.sol\";\r\nimport { EquipContract, Equipment } from \"./equipment.sol\";\r\n \r\n \r\ncontract EquipShare is Authority, TokenContract, UserContract, EquipContract, LeaseContract {\r\n \r\n    function reserveEquipment(uint equipmentId, uint startTime, uint endTime) public {\r\n        // \r\n        requireEquipAvailable(equipmentId, startTime, endTime); \r\n\r\n        // \r\n        User memory user = UserContract.getUser(msg.sender);\r\n        Equipment memory equipment = EquipContract.getEquipment(equipmentId);\r\n        LeasePact memory lease = LeaseContract.leasePactCreate(user, equipment, startTime, endTime);\r\n\r\n        // \r\n        TokenContract.transfer(lease.owner, lease.price.deposit);\r\n    }\r\n\r\n    function reserveCancel(uint leaseId) public {\r\n        // \r\n        LeasePact memory lease = LeaseContract.leasePactCancel(leaseId);\r\n\r\n        // \r\n        TokenContract.transferFrom(lease.owner, lease.price.deposit);\r\n    }\r\n \r\n    function reserveApprove(uint leaseId) public {\r\n        // \r\n        LeasePact memory lease = LeaseContract.leasePactApprove(leaseId);\r\n\r\n        // \r\n        TokenContract.transferFrom(lease.renter, lease.price.totalPrice);\r\n\r\n        // \r\n        EquipContract.rentEquipment(lease.equipmentId, lease.period.startTime, lease.period.endTime);\r\n    }\r\n\r\n    function reserveReject(uint leaseId) public {\r\n        // \r\n        LeasePact memory lease = LeaseContract.leasePactReject(leaseId);\r\n\r\n        // \r\n        TokenContract.transfer(lease.renter, lease.price.deposit);\r\n    }\r\n\r\n\r\n    function reservePopose(uint leaseId) public {\r\n        // \r\n        LeasePact memory lease = LeaseContract.leasePactProposeEnd(leaseId);\r\n\r\n        // \r\n        EquipContract.returnEquipment(lease.equipmentId);\r\n \r\n    }\r\n\r\n    // \r\n    function reserveComplete(uint leaseId) public {\r\n        // \r\n        LeasePact memory lease = LeaseContract.leasePactComplete(leaseId);\r\n    \r\n        //  \r\n        uint refund  = lease.price.deposit;\r\n        uint overdue = block.timestamp - lease.period.endTime ;\r\n        refund -= overdue * lease.price.deposit / 10;\r\n        refund  = refund > 0 ? refund : 0; \r\n        \r\n        // \r\n        TokenContract.transfer(lease.renter, lease.price.deposit); \r\n    }\r\n  \r\n}\r\n\r\n ",
  "sourcePath": "d:\\ARK\\Desktop\\EquipShareSystem\\truffle\\contracts\\main.sol",
  "compiler": {
    "name": "solc",
    "version": "0.8.18+commit.87f61d96.Emscripten.clang"
  },
  "schemaVersion": "3.4.14",
  "updatedAt": "2023-06-04T02:20:15.615Z",
  "networkType": "ethereum",
  "devdoc": {
    "kind": "dev",
    "methods": {},
    "version": 1
  },
  "userdoc": {
    "kind": "user",
    "methods": {},
    "version": 1
  }
}