{
  "contractName": "EquipContract",
  "abi": [
    {
      "anonymous": false,
      "inputs": [
        {
          "indexed": false,
          "internalType": "string",
          "name": "tips",
          "type": "string"
        },
        {
          "indexed": false,
          "internalType": "uint256",
          "name": "equipmentId",
          "type": "uint256"
        }
      ],
      "name": "eventAddEquipment",
      "type": "event"
    },
    {
      "anonymous": false,
      "inputs": [
        {
          "indexed": false,
          "internalType": "string",
          "name": "tips",
          "type": "string"
        },
        {
          "indexed": false,
          "internalType": "uint256",
          "name": "equipmentId",
          "type": "uint256"
        }
      ],
      "name": "eventFreezeEquipment",
      "type": "event"
    },
    {
      "anonymous": false,
      "inputs": [
        {
          "indexed": false,
          "internalType": "string",
          "name": "tips",
          "type": "string"
        },
        {
          "indexed": false,
          "internalType": "uint256",
          "name": "equipmentId",
          "type": "uint256"
        }
      ],
      "name": "eventMaintainEquipment",
      "type": "event"
    },
    {
      "anonymous": false,
      "inputs": [
        {
          "indexed": false,
          "internalType": "string",
          "name": "tips",
          "type": "string"
        },
        {
          "indexed": false,
          "internalType": "uint256",
          "name": "equipmentId",
          "type": "uint256"
        }
      ],
      "name": "eventRentEquipment",
      "type": "event"
    },
    {
      "anonymous": false,
      "inputs": [
        {
          "indexed": false,
          "internalType": "string",
          "name": "tips",
          "type": "string"
        },
        {
          "indexed": false,
          "internalType": "uint256",
          "name": "equipmentId",
          "type": "uint256"
        }
      ],
      "name": "eventReturnEquipment",
      "type": "event"
    },
    {
      "anonymous": false,
      "inputs": [
        {
          "indexed": false,
          "internalType": "string",
          "name": "tips",
          "type": "string"
        },
        {
          "indexed": false,
          "internalType": "uint256",
          "name": "equipmentId",
          "type": "uint256"
        }
      ],
      "name": "eventUnFreezeEquipment",
      "type": "event"
    },
    {
      "anonymous": false,
      "inputs": [
        {
          "indexed": false,
          "internalType": "string",
          "name": "tips",
          "type": "string"
        },
        {
          "indexed": false,
          "internalType": "uint256",
          "name": "equipmentId",
          "type": "uint256"
        }
      ],
      "name": "eventUnMaintainEquipment",
      "type": "event"
    },
    {
      "anonymous": false,
      "inputs": [
        {
          "indexed": false,
          "internalType": "string",
          "name": "tips",
          "type": "string"
        },
        {
          "indexed": false,
          "internalType": "uint256",
          "name": "equipmentId",
          "type": "uint256"
        }
      ],
      "name": "eventUpdateEquipment",
      "type": "event"
    },
    {
      "inputs": [
        {
          "internalType": "address",
          "name": "addrs",
          "type": "address"
        }
      ],
      "name": "addAdmin",
      "outputs": [],
      "stateMutability": "nonpayable",
      "type": "function"
    },
    {
      "inputs": [
        {
          "internalType": "address",
          "name": "addrs",
          "type": "address"
        }
      ],
      "name": "removeAdmin",
      "outputs": [],
      "stateMutability": "nonpayable",
      "type": "function"
    },
    {
      "inputs": [
        {
          "internalType": "uint256",
          "name": "equipmentId",
          "type": "uint256"
        }
      ],
      "name": "getEquipment",
      "outputs": [
        {
          "components": [
            {
              "internalType": "uint256",
              "name": "id",
              "type": "uint256"
            },
            {
              "internalType": "address",
              "name": "owner",
              "type": "address"
            },
            {
              "internalType": "uint256",
              "name": "createdTime",
              "type": "uint256"
            },
            {
              "internalType": "bool",
              "name": "isFrozen",
              "type": "bool"
            },
            {
              "internalType": "string",
              "name": "name",
              "type": "string"
            },
            {
              "internalType": "string",
              "name": "category",
              "type": "string"
            },
            {
              "internalType": "string",
              "name": "descLink",
              "type": "string"
            },
            {
              "internalType": "string",
              "name": "imagesLink",
              "type": "string"
            },
            {
              "internalType": "uint256",
              "name": "unitPrice",
              "type": "uint256"
            },
            {
              "internalType": "uint256",
              "name": "deposit",
              "type": "uint256"
            },
            {
              "components": [
                {
                  "internalType": "uint256",
                  "name": "lent",
                  "type": "uint256"
                },
                {
                  "internalType": "uint256",
                  "name": "maintain",
                  "type": "uint256"
                },
                {
                  "internalType": "uint256",
                  "name": "frozen",
                  "type": "uint256"
                }
              ],
              "internalType": "struct UseCnt",
              "name": "useCnt",
              "type": "tuple"
            },
            {
              "components": [
                {
                  "internalType": "uint256",
                  "name": "id",
                  "type": "uint256"
                },
                {
                  "internalType": "uint256",
                  "name": "startTime",
                  "type": "uint256"
                },
                {
                  "internalType": "uint256",
                  "name": "endTime",
                  "type": "uint256"
                },
                {
                  "internalType": "address",
                  "name": "occupier",
                  "type": "address"
                },
                {
                  "internalType": "enum OccupyType",
                  "name": "occupyType",
                  "type": "uint8"
                }
              ],
              "internalType": "struct OccupyPeriod[]",
              "name": "occupyPeriod",
              "type": "tuple[]"
            }
          ],
          "internalType": "struct Equipment",
          "name": "",
          "type": "tuple"
        }
      ],
      "stateMutability": "view",
      "type": "function"
    },
    {
      "inputs": [
        {
          "internalType": "address",
          "name": "addr",
          "type": "address"
        }
      ],
      "name": "getEquipmentOwned",
      "outputs": [
        {
          "components": [
            {
              "internalType": "uint256",
              "name": "id",
              "type": "uint256"
            },
            {
              "internalType": "address",
              "name": "owner",
              "type": "address"
            },
            {
              "internalType": "uint256",
              "name": "createdTime",
              "type": "uint256"
            },
            {
              "internalType": "bool",
              "name": "isFrozen",
              "type": "bool"
            },
            {
              "internalType": "string",
              "name": "name",
              "type": "string"
            },
            {
              "internalType": "string",
              "name": "category",
              "type": "string"
            },
            {
              "internalType": "string",
              "name": "descLink",
              "type": "string"
            },
            {
              "internalType": "string",
              "name": "imagesLink",
              "type": "string"
            },
            {
              "internalType": "uint256",
              "name": "unitPrice",
              "type": "uint256"
            },
            {
              "internalType": "uint256",
              "name": "deposit",
              "type": "uint256"
            },
            {
              "components": [
                {
                  "internalType": "uint256",
                  "name": "lent",
                  "type": "uint256"
                },
                {
                  "internalType": "uint256",
                  "name": "maintain",
                  "type": "uint256"
                },
                {
                  "internalType": "uint256",
                  "name": "frozen",
                  "type": "uint256"
                }
              ],
              "internalType": "struct UseCnt",
              "name": "useCnt",
              "type": "tuple"
            },
            {
              "components": [
                {
                  "internalType": "uint256",
                  "name": "id",
                  "type": "uint256"
                },
                {
                  "internalType": "uint256",
                  "name": "startTime",
                  "type": "uint256"
                },
                {
                  "internalType": "uint256",
                  "name": "endTime",
                  "type": "uint256"
                },
                {
                  "internalType": "address",
                  "name": "occupier",
                  "type": "address"
                },
                {
                  "internalType": "enum OccupyType",
                  "name": "occupyType",
                  "type": "uint8"
                }
              ],
              "internalType": "struct OccupyPeriod[]",
              "name": "occupyPeriod",
              "type": "tuple[]"
            }
          ],
          "internalType": "struct Equipment[]",
          "name": "",
          "type": "tuple[]"
        }
      ],
      "stateMutability": "view",
      "type": "function"
    },
    {
      "inputs": [
        {
          "internalType": "address",
          "name": "addr",
          "type": "address"
        }
      ],
      "name": "getEquipmentRented",
      "outputs": [
        {
          "components": [
            {
              "internalType": "uint256",
              "name": "id",
              "type": "uint256"
            },
            {
              "internalType": "address",
              "name": "owner",
              "type": "address"
            },
            {
              "internalType": "uint256",
              "name": "createdTime",
              "type": "uint256"
            },
            {
              "internalType": "bool",
              "name": "isFrozen",
              "type": "bool"
            },
            {
              "internalType": "string",
              "name": "name",
              "type": "string"
            },
            {
              "internalType": "string",
              "name": "category",
              "type": "string"
            },
            {
              "internalType": "string",
              "name": "descLink",
              "type": "string"
            },
            {
              "internalType": "string",
              "name": "imagesLink",
              "type": "string"
            },
            {
              "internalType": "uint256",
              "name": "unitPrice",
              "type": "uint256"
            },
            {
              "internalType": "uint256",
              "name": "deposit",
              "type": "uint256"
            },
            {
              "components": [
                {
                  "internalType": "uint256",
                  "name": "lent",
                  "type": "uint256"
                },
                {
                  "internalType": "uint256",
                  "name": "maintain",
                  "type": "uint256"
                },
                {
                  "internalType": "uint256",
                  "name": "frozen",
                  "type": "uint256"
                }
              ],
              "internalType": "struct UseCnt",
              "name": "useCnt",
              "type": "tuple"
            },
            {
              "components": [
                {
                  "internalType": "uint256",
                  "name": "id",
                  "type": "uint256"
                },
                {
                  "internalType": "uint256",
                  "name": "startTime",
                  "type": "uint256"
                },
                {
                  "internalType": "uint256",
                  "name": "endTime",
                  "type": "uint256"
                },
                {
                  "internalType": "address",
                  "name": "occupier",
                  "type": "address"
                },
                {
                  "internalType": "enum OccupyType",
                  "name": "occupyType",
                  "type": "uint8"
                }
              ],
              "internalType": "struct OccupyPeriod[]",
              "name": "occupyPeriod",
              "type": "tuple[]"
            }
          ],
          "internalType": "struct Equipment[]",
          "name": "",
          "type": "tuple[]"
        }
      ],
      "stateMutability": "view",
      "type": "function"
    },
    {
      "inputs": [],
      "name": "getEquipmentAll",
      "outputs": [
        {
          "components": [
            {
              "internalType": "uint256",
              "name": "id",
              "type": "uint256"
            },
            {
              "internalType": "address",
              "name": "owner",
              "type": "address"
            },
            {
              "internalType": "uint256",
              "name": "createdTime",
              "type": "uint256"
            },
            {
              "internalType": "bool",
              "name": "isFrozen",
              "type": "bool"
            },
            {
              "internalType": "string",
              "name": "name",
              "type": "string"
            },
            {
              "internalType": "string",
              "name": "category",
              "type": "string"
            },
            {
              "internalType": "string",
              "name": "descLink",
              "type": "string"
            },
            {
              "internalType": "string",
              "name": "imagesLink",
              "type": "string"
            },
            {
              "internalType": "uint256",
              "name": "unitPrice",
              "type": "uint256"
            },
            {
              "internalType": "uint256",
              "name": "deposit",
              "type": "uint256"
            },
            {
              "components": [
                {
                  "internalType": "uint256",
                  "name": "lent",
                  "type": "uint256"
                },
                {
                  "internalType": "uint256",
                  "name": "maintain",
                  "type": "uint256"
                },
                {
                  "internalType": "uint256",
                  "name": "frozen",
                  "type": "uint256"
                }
              ],
              "internalType": "struct UseCnt",
              "name": "useCnt",
              "type": "tuple"
            },
            {
              "components": [
                {
                  "internalType": "uint256",
                  "name": "id",
                  "type": "uint256"
                },
                {
                  "internalType": "uint256",
                  "name": "startTime",
                  "type": "uint256"
                },
                {
                  "internalType": "uint256",
                  "name": "endTime",
                  "type": "uint256"
                },
                {
                  "internalType": "address",
                  "name": "occupier",
                  "type": "address"
                },
                {
                  "internalType": "enum OccupyType",
                  "name": "occupyType",
                  "type": "uint8"
                }
              ],
              "internalType": "struct OccupyPeriod[]",
              "name": "occupyPeriod",
              "type": "tuple[]"
            }
          ],
          "internalType": "struct Equipment[]",
          "name": "",
          "type": "tuple[]"
        }
      ],
      "stateMutability": "view",
      "type": "function"
    },
    {
      "inputs": [
        {
          "internalType": "uint256",
          "name": "equipmentId",
          "type": "uint256"
        },
        {
          "internalType": "uint256",
          "name": "startTime",
          "type": "uint256"
        },
        {
          "internalType": "uint256",
          "name": "endTime",
          "type": "uint256"
        }
      ],
      "name": "requireEquipAvailable",
      "outputs": [
        {
          "internalType": "int256",
          "name": "",
          "type": "int256"
        }
      ],
      "stateMutability": "view",
      "type": "function"
    },
    {
      "inputs": [
        {
          "internalType": "uint256",
          "name": "equipmentId",
          "type": "uint256"
        }
      ],
      "name": "maintainEquipment",
      "outputs": [],
      "stateMutability": "nonpayable",
      "type": "function"
    },
    {
      "inputs": [
        {
          "internalType": "uint256",
          "name": "equipmentId",
          "type": "uint256"
        },
        {
          "internalType": "uint256",
          "name": "startTime",
          "type": "uint256"
        },
        {
          "internalType": "uint256",
          "name": "endTime",
          "type": "uint256"
        }
      ],
      "name": "maintainEquipment",
      "outputs": [],
      "stateMutability": "nonpayable",
      "type": "function"
    },
    {
      "inputs": [
        {
          "internalType": "uint256",
          "name": "equipmentId",
          "type": "uint256"
        }
      ],
      "name": "endMaintainEquipment",
      "outputs": [],
      "stateMutability": "nonpayable",
      "type": "function"
    },
    {
      "inputs": [
        {
          "internalType": "uint256",
          "name": "equipmentId",
          "type": "uint256"
        },
        {
          "internalType": "uint256",
          "name": "startTime",
          "type": "uint256"
        }
      ],
      "name": "freezeEquipment",
      "outputs": [],
      "stateMutability": "nonpayable",
      "type": "function"
    },
    {
      "inputs": [
        {
          "internalType": "uint256",
          "name": "equipmentId",
          "type": "uint256"
        }
      ],
      "name": "freezeEquipment",
      "outputs": [],
      "stateMutability": "nonpayable",
      "type": "function"
    },
    {
      "inputs": [
        {
          "internalType": "uint256",
          "name": "equipmentId",
          "type": "uint256"
        }
      ],
      "name": "unfreezeEquipment",
      "outputs": [],
      "stateMutability": "nonpayable",
      "type": "function"
    },
    {
      "inputs": [
        {
          "internalType": "address",
          "name": "addres",
          "type": "address"
        },
        {
          "internalType": "string",
          "name": "name",
          "type": "string"
        },
        {
          "internalType": "string",
          "name": "category",
          "type": "string"
        },
        {
          "internalType": "string",
          "name": "descLink",
          "type": "string"
        },
        {
          "internalType": "string",
          "name": "imagesLink",
          "type": "string"
        },
        {
          "internalType": "uint256",
          "name": "deposit",
          "type": "uint256"
        },
        {
          "internalType": "uint256",
          "name": "unitPrice",
          "type": "uint256"
        }
      ],
      "name": "addEquipment",
      "outputs": [],
      "stateMutability": "nonpayable",
      "type": "function"
    },
    {
      "inputs": [
        {
          "internalType": "string",
          "name": "name",
          "type": "string"
        },
        {
          "internalType": "string",
          "name": "category",
          "type": "string"
        },
        {
          "internalType": "string",
          "name": "descLink",
          "type": "string"
        },
        {
          "internalType": "string",
          "name": "imagesLink",
          "type": "string"
        },
        {
          "internalType": "uint256",
          "name": "deposit",
          "type": "uint256"
        },
        {
          "internalType": "uint256",
          "name": "unitPrice",
          "type": "uint256"
        }
      ],
      "name": "addEquipment",
      "outputs": [],
      "stateMutability": "nonpayable",
      "type": "function"
    },
    {
      "inputs": [
        {
          "internalType": "uint256",
          "name": "equipmentId",
          "type": "uint256"
        }
      ],
      "name": "removeEquipment",
      "outputs": [],
      "stateMutability": "nonpayable",
      "type": "function"
    },
    {
      "inputs": [
        {
          "internalType": "uint256",
          "name": "equipmentId",
          "type": "uint256"
        },
        {
          "internalType": "string",
          "name": "name",
          "type": "string"
        },
        {
          "internalType": "string",
          "name": "category",
          "type": "string"
        },
        {
          "internalType": "string",
          "name": "descLink",
          "type": "string"
        },
        {
          "internalType": "string",
          "name": "imagesLink",
          "type": "string"
        },
        {
          "internalType": "uint256",
          "name": "deposit",
          "type": "uint256"
        },
        {
          "internalType": "uint256",
          "name": "unitPrice",
          "type": "uint256"
        }
      ],
      "name": "updateEquipment",
      "outputs": [],
      "stateMutability": "nonpayable",
      "type": "function"
    }
  ],
  "bytecode": "0x608060405262014ff0600755621ede5860085534801561001e57600080fd5b50600080546001600160a01b0319163390811782558152600160208190526040909120805460ff191690911790556128aa8061005b6000396000f3fe608060405234801561001057600080fd5b506004361061010b5760003560e01c806370480275116100a257806390701e241161007157806390701e241461022757806393f0b0121461023a578063bcad91d01461024d578063e97c75a214610255578063f8966c4f1461026857600080fd5b806370480275146101ce57806375a1b542146101e157806381dd2fa0146101f457806386f83e8e1461021457600080fd5b80632bbd5924116100de5780632bbd5924146101745780633c952fc71461019557806342cdca6e146101a857806362aee4ee146101bb57600080fd5b806308643487146101105780630d506293146101395780631785f53c1461014e5780631869f31614610161575b600080fd5b61012361011e36600461215e565b61027b565b604051610130919061236b565b60405180910390f35b61014c6101473660046123cd565b6102ff565b005b61014c61015c36600461215e565b61037b565b61014c61016f3660046123cd565b6103f0565b6101876101823660046123e6565b610457565b604051908152602001610130565b61014c6101a33660046123e6565b610b37565b6101236101b636600461215e565b610ba4565b61014c6101c93660046124b5565b610c20565b61014c6101dc36600461215e565b610c92565b61014c6101ef3660046123cd565b610d08565b6102076102023660046123cd565b610d69565b6040516101309190612586565b61014c610222366004612599565b611127565b61014c6102353660046125d3565b6111fb565b61014c6102483660046125f5565b611219565b610123611230565b61014c6102633660046123cd565b61128e565b61014c6102763660046123cd565b6112fa565b60606102f960046000846001600160a01b03166001600160a01b031681526020019081526020016000208054806020026020016040519081016040528092919081815260200182805480156102ef57602002820191906000526020600020905b8154815260200190600101908083116102db575b50505050506114c5565b92915050565b610318814261031181620151806126ca565b6002611587565b6040805181815260129181019190915271e6ada3e59ca8e7bbb4e4bfaee8aebee5a48760701b6060820152602081018290527fc61de813928be656a9f684ad4be76b148eb74630d92a4fef360a2e90365bbd17906080015b60405180910390a150565b6000546001600160a01b031633146103cf5760405162461bcd60e51b8152602060048201526012602482015271e99d9ee59088e7baa6e68ba5e69c89e8808560701b60448201526064015b60405180910390fd5b6001600160a01b03166000908152600160205260409020805460ff19169055565b6103fb816003611aee565b6040805181815260129181019190915271e8aebee5a487e8a7a3e999a4e586bbe7bb9360701b6060820152602081018290527f0d19d6567393ffa30740300b9d0be4881f25e8418d621a82317e779b3c967b4190608001610370565b600061046284611ef9565b60008481526002602081815260408084208151610180810183528154815260018201546001600160a01b0316938101939093529283015490820152600382015460ff16151560608201526004820180549192916080840191906104c4906126dd565b80601f01602080910402602001604051908101604052809291908181526020018280546104f0906126dd565b801561053d5780601f106105125761010080835404028352916020019161053d565b820191906000526020600020905b81548152906001019060200180831161052057829003601f168201915b50505050508152602001600582018054610556906126dd565b80601f0160208091040260200160405190810160405280929190818152602001828054610582906126dd565b80156105cf5780601f106105a4576101008083540402835291602001916105cf565b820191906000526020600020905b8154815290600101906020018083116105b257829003601f168201915b505050505081526020016006820180546105e8906126dd565b80601f0160208091040260200160405190810160405280929190818152602001828054610614906126dd565b80156106615780601f1061063657610100808354040283529160200191610661565b820191906000526020600020905b81548152906001019060200180831161064457829003601f168201915b5050505050815260200160078201805461067a906126dd565b80601f01602080910402602001604051908101604052809291908181526020018280546106a6906126dd565b80156106f35780601f106106c8576101008083540402835291602001916106f3565b820191906000526020600020905b8154815290600101906020018083116106d657829003601f168201915b505050505081526020016008820154815260200160098201548152602001600a820160405180606001604052908160008201548152602001600182015481526020016002820154815250508152602001600d8201805480602002602001604051908101604052809291908181526020016000905b828210156108005760008481526020908190206040805160a08101825260048602909201805483526001810154938301939093526002830154908201526003808301546001600160a01b03811660608401529192916080840191600160a01b90910460ff16908111156107dc576107dc6121bf565b60038111156107ed576107ed6121bf565b8152505081526020019060010190610767565b50505050815250509050838310156108645760405162461bcd60e51b815260206004820152602160248201527fe5bc80e5a78be697b6e997b4e99c80e697a9e4ba8ee7bb93e69d9fe697b6e9976044820152602d60fa1b60648201526084016103c6565b610160810151805160000361087e57600092505050610b30565b8060008151811061089157610891612711565b6020026020010151602001518410156108af57600092505050610b30565b8481600183516108bf9190612727565b815181106108cf576108cf612711565b60200260200101516040015110156108eb57519150610b309050565b60005b600182516108fc9190612727565b8110156109925760008683838151811061091857610918612711565b60200260200101516040015110905060008383600161093791906126ca565b8151811061094757610947612711565b602002602001015160200151871090508180156109615750805b1561097d576109718360016126ca565b95505050505050610b30565b5050808061098a9061273a565b9150506108ee565b506003816000815181106109a8576109a8612711565b60200260200101516080015160038111156109c5576109c56121bf565b03610a315760405162461bcd60e51b815260206004820152603660248201527fe8afa5e8aebee5a487e5a484e4ba8ee586bbe7bb93e78ab6e68081efbc8ce8af604482015275b7e88194e7b3bbe7aea1e79086e59198e8a7a3e586bb60501b60648201526084016103c6565b600281600081518110610a4657610a46612711565b6020026020010151608001516003811115610a6357610a636121bf565b03610acf5760405162461bcd60e51b815260206004820152603660248201527fe8afa5e8aebee5a487e5a484e4ba8ee7bbb4e4bfaee78ab6e68081efbc8ce8af6044820152755bf440ca73d9ddf4575f72d243f34640f34e44f25d5d60511b60648201526084016103c6565b60405162461bcd60e51b815260206004820152603060248201527fe8afa5e8aebee5a487e59ca8e68c87e5ae9ae697b6e6aeb5e5b7b2e8a2abe58d60448201526f5073ca5477de4674cecf73d4dd74cbd960811b60648201526084016103c6565b9392505050565b610b448383836002611587565b6040805181815260128183015271e6ada3e59ca8e7bbb4e4bfaee8aebee5a48760701b60608201526020810185905290517fc61de813928be656a9f684ad4be76b148eb74630d92a4fef360a2e90365bbd179181900360800190a1505050565b60606102f960036000846001600160a01b03166001600160a01b031681526020019081526020016000208054806020026020016040519081016040528092919081815260200182805480156102ef57602002820191906000526020600020908154815260200190600101908083116102db5750505050506114c5565b3360009081526001602081905260409091205460ff16151514610c7a5760405162461bcd60e51b81526020600482015260126024820152710e697a0e7aea1e79086e59198e69d83e999960741b60448201526064016103c6565b610c8987878787878787611f59565b50505050505050565b6000546001600160a01b03163314610ce15760405162461bcd60e51b8152602060048201526012602482015271e99d9ee59088e7baa6e68ba5e69c89e8808560701b60448201526064016103c6565b6001600160a01b03166000908152600160208190526040909120805460ff19169091179055565b610d13816002611aee565b60408051818152600c918101919091526b72d74673444873ddda725fd760a11b6060820152602081018290527fc75a39ce594d07b358d77d5639b50f5989551bd62799a7852ce9e48c6443e5ec90608001610370565b610d716120b4565b610d7a82611ef9565b6000828152600260208181526040928390208351610180810185528154815260018201546001600160a01b0316928101929092529182015492810192909252600381015460ff1615156060830152600481018054608084019190610ddd906126dd565b80601f0160208091040260200160405190810160405280929190818152602001828054610e09906126dd565b8015610e565780601f10610e2b57610100808354040283529160200191610e56565b820191906000526020600020905b815481529060010190602001808311610e3957829003601f168201915b50505050508152602001600582018054610e6f906126dd565b80601f0160208091040260200160405190810160405280929190818152602001828054610e9b906126dd565b8015610ee85780601f10610ebd57610100808354040283529160200191610ee8565b820191906000526020600020905b815481529060010190602001808311610ecb57829003601f168201915b50505050508152602001600682018054610f01906126dd565b80601f0160208091040260200160405190810160405280929190818152602001828054610f2d906126dd565b8015610f7a5780601f10610f4f57610100808354040283529160200191610f7a565b820191906000526020600020905b815481529060010190602001808311610f5d57829003601f168201915b50505050508152602001600782018054610f93906126dd565b80601f0160208091040260200160405190810160405280929190818152602001828054610fbf906126dd565b801561100c5780601f10610fe15761010080835404028352916020019161100c565b820191906000526020600020905b815481529060010190602001808311610fef57829003601f168201915b505050505081526020016008820154815260200160098201548152602001600a820160405180606001604052908160008201548152602001600182015481526020016002820154815250508152602001600d8201805480602002602001604051908101604052809291908181526020016000905b828210156111195760008481526020908190206040805160a08101825260048602909201805483526001810154938301939093526002830154908201526003808301546001600160a01b03811660608401529192916080840191600160a01b90910460ff16908111156110f5576110f56121bf565b6003811115611106576111066121bf565b8152505081526020019060010190611080565b505050915250909392505050565b61113087611ef9565b600087815260026020526040902060018101546001600160a01b031633146111aa5760405162461bcd60e51b815260206004820152602760248201527fe99d9ee8aebee5a487e68c81e69c89e4babaefbc8ce697a0e6b395e4bfaee694604482015266b9e4bfa1e681af60c81b60648201526084016103c6565b600481016111b8888261279e565b50600581016111c7878261279e565b50600681016111d6868261279e565b50600781016111e5858261279e565b5060098101929092556008909101555050505050565b611215828261120e816312cc03006126ca565b6003611587565b5050565b61122833878787878787611f59565b505050505050565b606061128960068054806020026020016040519081016040528092919081815260200182805480156102ef57602002820191906000526020600020908154815260200190600101908083116102db5750505050506114c5565b905090565b6112a1814261120e816312cc03006126ca565b60408051818152600f918101919091526ee5b7b2e586bbe7bb93e8aebee5a48760881b6060820152602081018290527f91712bb43158cec3e423c7324d4cbb41da429d5dd6e3d490a74cceff80cc3c0590608001610370565b61130381611ef9565b600081815260026020526040902060018101546001600160a01b0316331461137d5760405162461bcd60e51b815260206004820152602760248201527fe99d9ee8aebee5a487e68c81e69c89e4babaefbc8ce697a0e6b395e588a0e999604482015266a4e8aebee5a48760c81b60648201526084016103c6565b600d810154156113e45760405162461bcd60e51b815260206004820152602c60248201527fe8aebee5a487e587bae7a79f2fe7bbb4e4bfae2fe586bbe7bb93e4b8adefbc8c60448201526b392e237963ebf962283a666960a21b60648201526084016103c6565b3360009081526003602052604090819020905163f3c0d27560e01b815260048101919091526024810183905273__LibArray______________________________9063f3c0d2759060440160006040518083038186803b15801561144757600080fd5b505af415801561145b573d6000803e3d6000fd5b505060405163f3c0d27560e01b8152600660048201526024810185905273__LibArray______________________________925063f3c0d275915060440160006040518083038186803b1580156114b157600080fd5b505af4158015611228573d6000803e3d6000fd5b6060815167ffffffffffffffff8111156114e1576114e1612412565b60405190808252806020026020018201604052801561151a57816020015b6115076120b4565b8152602001906001900390816114ff5790505b50905060005b825181101561158157600083828151811061153d5761153d612711565b6020026020010151905061155081610d69565b83838151811061156257611562612711565b60200260200101819052505080806115799061273a565b915050611520565b50919050565b61159084611ef9565b3360009081526005602090815260408083208784529091528120908260038111156115bd576115bd6121bf565b60038111156115ce576115ce6121bf565b8152602001908152602001600020546000146116415760405162461bcd60e51b815260206004820152602c60248201527fe8afb7e58bbfe9878de5a48de587bae7a79f2fe7bbb4e4bfae2fe586bbe7bb9360448201526be5bd93e5898de8aebee5a48760a01b60648201526084016103c6565b6002816003811115611655576116556121bf565b036116d2576000848152600260205260409020600101546001600160a01b031633146116cd5760405162461bcd60e51b815260206004820152602160248201527fe4bb85e8aebee5a487e68c81e69c89e4babae58fafe7bbb4e4bfaee8aebee5a46044820152608760f81b60648201526084016103c6565b611754565b60038160038111156116e6576116e66121bf565b03611754573360009081526001602052604090205460ff166117545760405162461bcd60e51b815260206004820152602160248201527fe4bb85e8aebee5a487e7aea1e79086e59198e58fafe586bbe7bb93e8aebee5a46044820152608760f81b60648201526084016103c6565b600084815260026020526040812090600d820190611773878787610457565b6008805491925082919060006117888361273a565b90915550506008543360009081526005602090815260408083208c84529091528120908760038111156117bd576117bd6121bf565b60038111156117ce576117ce6121bf565b81526020019081526020016000208190555060006040518060a001604052806008548152602001898152602001888152602001336001600160a01b03168152602001876003811115611822576118226121bf565b90528454600181810187556000878152602090819020845160049094020192835583015190820155604082015160028201556060820151600380830180546001600160a01b039093166001600160a01b0319841681178255608086015195965086959391926001600160a81b03199092161790600160a01b9084908111156118ac576118ac6121bf565b0217905550839150505b84546118c490600190612727565b8110156119a5578481815481106118dd576118dd612711565b9060005260206000209060040201858260016118f991906126ca565b8154811061190957611909612711565b60009182526020909120825460049092020190815560018083015490820155600280830154908201556003808301805482840180546001600160a01b031981166001600160a01b039093169283178255925460ff600160a01b91829004169491936001600160a81b0319169092179190849081111561198a5761198a6121bf565b0217905550905050808061199d9061273a565b9150506118b6565b50808483815481106119b9576119b9612711565b60009182526020918290208351600490920201908155908201516001820155604082015160028201556060820151600380830180546001600160a01b039093166001600160a01b031984168117825560808601519391926001600160a81b03199092161790600160a01b908490811115611a3557611a356121bf565b021790555060019150611a459050565b866003811115611a5757611a576121bf565b03611a7857600a85018054906000611a6e8361273a565b9190505550611ae3565b6002866003811115611a8c57611a8c6121bf565b03611aa357600b85018054906000611a6e8361273a565b6003866003811115611ab757611ab76121bf565b03611ae357600c85018054906000611ace8361273a565b909155505060038501805460ff191660011790555b505050505050505050565b611af782611ef9565b336000908152600560209081526040808320858452909152812081836003811115611b2457611b246121bf565b6003811115611b3557611b356121bf565b81526020808201929092526040908101600090812054338252600584528282208783529093529081209192509081846003811115611b7557611b756121bf565b6003811115611b8657611b866121bf565b81526020019081526020016000208190555080600003611bf75760405162461bcd60e51b815260206004820152602660248201527fe69caae9a284e7baa62fe7bbb4e4bfae2fe586bbe7bb93efbc8ce697a0e99c806044820152653a29e8fa666960d21b60648201526084016103c6565b6002826003811115611c0b57611c0b6121bf565b03611c88576000838152600260205260409020600101546001600160a01b03163314611c835760405162461bcd60e51b815260206004820152602160248201527fe4bb85e8aebee5a487e68c81e69c89e4babae58fafe5ae8ce68890e7bbb4e4bf6044820152605760f91b60648201526084016103c6565b611d0a565b6003826003811115611c9c57611c9c6121bf565b03611d0a573360009081526001602052604090205460ff16611d0a5760405162461bcd60e51b815260206004820152602160248201527fe4bb85e8aebee5a487e7aea1e79086e59198e58fafe8a7a3e586bbe8aebee5a46044820152608760f81b60648201526084016103c6565b600083815260026020526040812090600d8201905b81548110156112285783828281548110611d3b57611d3b612711565b90600052602060002090600402016000015403611ee757805b8254611d6290600190612727565b811015611e415782611d758260016126ca565b81548110611d8557611d85612711565b9060005260206000209060040201838281548110611da557611da5612711565b60009182526020909120825460049092020190815560018083015490820155600280830154908201556003808301805482840180546001600160a01b031981166001600160a01b039093169283178255925460ff600160a01b91829004169491936001600160a81b03191690921791908490811115611e2657611e266121bf565b02179055509050508080611e399061273a565b915050611d54565b506003828281548110611e5657611e56612711565b906000526020600020906004020160030160149054906101000a900460ff166003811115611e8657611e866121bf565b03611e985760038301805460ff191690555b81805480611ea857611ea861285e565b60008281526020812060046000199093019283020181815560018101829055600281019190915560030180546001600160a81b03191690559055611228565b80611ef18161273a565b915050611d1f565b6000818152600260205260408120549003611f565760405162461bcd60e51b815260206004820152601a60248201527fe8afb7e8be93e585a5e69c89e69588e79a84e8aebee5a487494400000000000060448201526064016103c6565b50565b60078054906000611f698361273a565b90915550506001600160a01b038716600081815260036020908152604080832060078054825460018181018555938752858720015554600680548084019091557ff652222313e28459528d920b65115c16c04f3efc82aaedc97be59f3f377c0d3f018190558085526002938490529190932090815591820180546001600160a01b031916909317909255429181019190915560048101612009888261279e565b5060058101612018878261279e565b5060068101612027868261279e565b5060078101612036858261279e565b5060098101839055600881018290556007546040517f48de5ee750dcbeddea3134837e8d0af178257cd8a90a37bd400f6c6e3713a243916120a2916040808252600f908201526ee5b7b2e6b7bbe58aa0e8aebee5a48760881b6060820152602081019190915260800190565b60405180910390a15050505050505050565b6040518061018001604052806000815260200160006001600160a01b031681526020016000815260200160001515815260200160608152602001606081526020016060815260200160608152602001600081526020016000815260200161213560405180606001604052806000815260200160008152602001600081525090565b8152602001606081525090565b80356001600160a01b038116811461215957600080fd5b919050565b60006020828403121561217057600080fd5b610b3082612142565b6000815180845260005b8181101561219f57602081850181015186830182015201612183565b506000602082860101526020601f19601f83011685010191505092915050565b634e487b7160e01b600052602160045260246000fd5b60008151808452602080850194508084016000805b848110156122565782518051895284810151858a0152604080820151908a01526060808201516001600160a01b0316908a015260809081015190600480831061224057634e487b7160e01b855260218152602485fd5b5089015260a090970196918301916001016121ea565b50959695505050505050565b60006101c082518452602083015161228560208601826001600160a01b03169052565b506040830151604085015260608301516122a3606086018215159052565b5060808301518160808601526122bb82860182612179565b91505060a083015184820360a08601526122d58282612179565b91505060c083015184820360c08601526122ef8282612179565b91505060e083015184820360e08601526123098282612179565b610100858101519087015261012080860151908701526101408086015180518289015260208101516101608901526040810151610180890152919350915050506101608301518482036101a086015261236282826121d5565b95945050505050565b6000602080830181845280855180835260408601915060408160051b870101925083870160005b828110156123c057603f198886030184526123ae858351612262565b94509285019290850190600101612392565b5092979650505050505050565b6000602082840312156123df57600080fd5b5035919050565b6000806000606084860312156123fb57600080fd5b505081359360208301359350604090920135919050565b634e487b7160e01b600052604160045260246000fd5b600082601f83011261243957600080fd5b813567ffffffffffffffff8082111561245457612454612412565b604051601f8301601f19908116603f0116810190828211818310171561247c5761247c612412565b8160405283815286602085880101111561249557600080fd5b836020870160208301376000602085830101528094505050505092915050565b600080600080600080600060e0888a0312156124d057600080fd5b6124d988612142565b9650602088013567ffffffffffffffff808211156124f657600080fd5b6125028b838c01612428565b975060408a013591508082111561251857600080fd5b6125248b838c01612428565b965060608a013591508082111561253a57600080fd5b6125468b838c01612428565b955060808a013591508082111561255c57600080fd5b506125698a828b01612428565b93505060a0880135915060c0880135905092959891949750929550565b602081526000610b306020830184612262565b600080600080600080600060e0888a0312156125b457600080fd5b87359650602088013567ffffffffffffffff808211156124f657600080fd5b600080604083850312156125e657600080fd5b50508035926020909101359150565b60008060008060008060c0878903121561260e57600080fd5b863567ffffffffffffffff8082111561262657600080fd5b6126328a838b01612428565b9750602089013591508082111561264857600080fd5b6126548a838b01612428565b9650604089013591508082111561266a57600080fd5b6126768a838b01612428565b9550606089013591508082111561268c57600080fd5b5061269989828a01612428565b9350506080870135915060a087013590509295509295509295565b634e487b7160e01b600052601160045260246000fd5b808201808211156102f9576102f96126b4565b600181811c908216806126f157607f821691505b60208210810361158157634e487b7160e01b600052602260045260246000fd5b634e487b7160e01b600052603260045260246000fd5b818103818111156102f9576102f96126b4565b60006001820161274c5761274c6126b4565b5060010190565b601f82111561279957600081815260208120601f850160051c8101602086101561277a5750805b601f850160051c820191505b8181101561122857828155600101612786565b505050565b815167ffffffffffffffff8111156127b8576127b8612412565b6127cc816127c684546126dd565b84612753565b602080601f83116001811461280157600084156127e95750858301515b600019600386901b1c1916600185901b178555611228565b600085815260208120601f198616915b8281101561283057888601518255948401946001909101908401612811565b508582101561284e5787850151600019600388901b60f8161c191681555b5050505050600190811b01905550565b634e487b7160e01b600052603160045260246000fdfea2646970667358221220471134cca7ecc1265a1002963a259100e10475729e21615eca49d3e14040001f64736f6c63430008120033",
  "immutableReferences": {},
  "source": "// SPDX-License-Identifier: GPL-3.0\r\npragma solidity ^0.8.18; \r\n \r\nimport { User } from \"./user.sol\"; \r\nimport { LibArray } from \"./library.sol\"; \r\nimport { Authority } from \"./authority.sol\"; \r\n\r\n\r\nenum OccupyType {\r\n    OPEN,     // \r\n    LENT,     // \r\n    MAINTAIN, // \r\n    FROZEN\r\n}\r\n\r\nstruct OccupyPeriod {\r\n    uint id;\r\n    uint startTime;\r\n    uint endTime;\r\n    address occupier;\r\n    OccupyType occupyType;\r\n} \r\n\r\nstruct UseCnt {\r\n    uint lent;      //   \r\n    uint maintain;  // \r\n    uint frozen;    // \r\n}\r\n\r\nstruct  Equipment {\r\n\r\n    // \r\n    uint    id;             // (+)\r\n    address owner;          // \r\n    uint createdTime;       //  \r\n    bool isFrozen;\r\n    \r\n\r\n    // \r\n    string   name;          //  \r\n    string   category;      // \r\n    string   descLink;      // \r\n    string   imagesLink;    // \r\n    uint     unitPrice;     // /\r\n    uint     deposit;       // \r\n\r\n    UseCnt useCnt; \r\n    OccupyPeriod[] occupyPeriod; \r\n}\r\n\r\n\r\ncontract EquipContract is Authority {\r\n    using LibArray for uint[]; \r\n\r\n    mapping (uint => Equipment) private equipments;\r\n    mapping (address => uint[]) private ownedEquipLst;    \r\n    mapping (address => uint[]) private rentedEquipLst; \r\n    mapping (address => mapping (uint => mapping (OccupyType => uint))) private userEquipType; \r\n\r\n    uint[] private equipIdLst;\r\n    uint   private equipId = 86000;\r\n    uint   private occupyPeriodId = 2023000;\r\n\r\n    event eventAddEquipment(string tips, uint equipmentId);\r\n    event eventUpdateEquipment(string tips, uint equipmentId);\r\n    event eventRentEquipment(string tips, uint equipmentId);\r\n    event eventReturnEquipment(string tips, uint equipmentId);\r\n    event eventMaintainEquipment(string tips, uint equipmentId);\r\n    event eventUnMaintainEquipment(string tips, uint equipmentId);\r\n    event eventFreezeEquipment(string tips, uint equipmentId);\r\n    event eventUnFreezeEquipment(string tips, uint equipmentId);\r\n\r\n    function requireEquipmentIdExist(uint id) private view { \r\n        require(equipments[id].id != 0, unicode\"ID\"); \r\n    } \r\n \r\n    // \r\n    function getEquipment(uint equipmentId) public view returns (Equipment memory) {\r\n        requireEquipmentIdExist(equipmentId);\r\n        return equipments[equipmentId];\r\n    }\r\n    function __getEquipments(uint[] memory lst) private view returns (Equipment[] memory equipts) { \r\n        equipts = new Equipment[](lst.length);\r\n        for (uint i = 0; i < lst.length; i++) {\r\n            uint eqid = lst[i]; \r\n            equipts[i] = getEquipment(eqid);\r\n        }\r\n    }\r\n    function getEquipmentOwned(address addr) public view returns (Equipment[] memory) {\r\n        return __getEquipments(ownedEquipLst[addr]);\r\n    }\r\n    function getEquipmentRented(address addr) public view returns (Equipment[] memory) {  \r\n        return __getEquipments(rentedEquipLst[addr]);\r\n    }\r\n    function getEquipmentAll() public view returns (Equipment[] memory) {\r\n        return __getEquipments(equipIdLst);\r\n    }\r\n \r\n    //  occupyPeriod[] \r\n    function requireEquipAvailable(uint equipmentId, uint startTime, uint endTime) public view returns (int) {\r\n        requireEquipmentIdExist(equipmentId);\r\n        Equipment memory equipment = equipments[equipmentId];\r\n        require(endTime >= startTime, unicode\"\");\r\n        OccupyPeriod[] memory occupyPeriod =  equipment.occupyPeriod;\r\n\r\n        // \r\n        // [period0, period1, period2, ...]\r\n        //  period  startTime~endTime \r\n        if (occupyPeriod.length == 0) {\r\n            return 0;\r\n        }\r\n        else if (endTime<occupyPeriod[0].startTime) {\r\n            return 0;\r\n        }\r\n        else if (occupyPeriod[occupyPeriod.length-1].endTime < startTime) {\r\n            return int(occupyPeriod.length);\r\n        }\r\n\r\n        for (uint i = 0; i<occupyPeriod.length-1; i++) {\r\n            bool canStart = occupyPeriod[i].endTime < startTime;\r\n            bool canEnd   = endTime < occupyPeriod[i+1].startTime;\r\n            if (canStart && canEnd) {\r\n                return int(i+1); //  period[]  i+1 \r\n            } \r\n        }  \r\n        // \r\n        if (occupyPeriod[0].occupyType == OccupyType.FROZEN) {\r\n            require(false, unicode\"\");\r\n        }\r\n        else if (occupyPeriod[0].occupyType == OccupyType.MAINTAIN) {\r\n            require(false, unicode\"\");\r\n        }\r\n        require(false, unicode\"\");\r\n        return -1; // \r\n    }\r\n\r\n    //  occupyPeriod[] \r\n    function __occupyEquipment(uint equipmentId, uint startTime, uint endTime, OccupyType occupyType) private {\r\n        requireEquipmentIdExist(equipmentId);\r\n        require(userEquipType[msg.sender][equipmentId][occupyType] == 0, unicode\"//\");\r\n        if (occupyType == OccupyType.MAINTAIN) {\r\n            require(msg.sender == equipments[equipmentId].owner, unicode\"\");\r\n        } else if (occupyType == OccupyType.FROZEN) {\r\n            require(adminer(), unicode\"\");\r\n        }\r\n\r\n        Equipment storage equipment = equipments[equipmentId];\r\n        OccupyPeriod[] storage occupyPeriod = equipment.occupyPeriod; \r\n\r\n        int sparePeriodIndex = requireEquipAvailable(equipmentId, startTime, endTime);\r\n        uint spareIndex = uint(sparePeriodIndex);\r\n\r\n        occupyPeriodId++;\r\n        userEquipType[msg.sender][equipmentId][occupyType] = occupyPeriodId;\r\n        OccupyPeriod memory newPeriod = OccupyPeriod(occupyPeriodId, startTime, endTime, msg.sender, occupyType);\r\n        //  occupyPeriod[]  for \r\n        occupyPeriod.push(newPeriod); \r\n        //  occupyPeriod[]  sparePeriodIndex \r\n        //  sparePeriodIndex  period sparePeriodIndex \r\n        for (uint i = spareIndex; i < occupyPeriod.length-1; i++) {\r\n            occupyPeriod[i+1] = occupyPeriod[i]; \r\n        }\r\n        // \r\n        occupyPeriod[spareIndex] = newPeriod; \r\n        \r\n        // \r\n        if (occupyType == OccupyType.LENT) {\r\n            equipment.useCnt.lent++;\r\n        } else if (occupyType == OccupyType.MAINTAIN) {\r\n            equipment.useCnt.maintain++;\r\n        } else if (occupyType == OccupyType.FROZEN) {\r\n            equipment.useCnt.frozen++;\r\n            equipment.isFrozen = true;\r\n        } \r\n\r\n    }\r\n\r\n    //  occupyPeriod[] \r\n    function __unoccupyEquipment(uint equipmentId, OccupyType occupyType) private \r\n    {\r\n        requireEquipmentIdExist(equipmentId);\r\n        uint _occupyPeriodId = userEquipType[msg.sender][equipmentId][occupyType];\r\n        userEquipType[msg.sender][equipmentId][occupyType] = 0;\r\n        require(_occupyPeriodId != 0, unicode\"//\");\r\n\r\n        if (occupyType == OccupyType.MAINTAIN) {\r\n            require(msg.sender == equipments[equipmentId].owner, unicode\"\");\r\n        } else if (occupyType == OccupyType.FROZEN) {\r\n            require(adminer(), unicode\"\");\r\n        }\r\n\r\n        Equipment storage equipment = equipments[equipmentId];\r\n        OccupyPeriod[] storage occupyPeriod = equipment.occupyPeriod; \r\n        \r\n        for (uint i = 0; i < occupyPeriod.length; i++) {\r\n            if (occupyPeriod[i].id == _occupyPeriodId) {\r\n                for (uint j = i; j < occupyPeriod.length-1; j++) {\r\n                    occupyPeriod[j] = occupyPeriod[j+1];\r\n                } \r\n                if (occupyPeriod[i].occupyType == OccupyType.FROZEN) {\r\n                    equipment.isFrozen = false;\r\n                } \r\n                occupyPeriod.pop();\r\n                break;\r\n            }\r\n        } \r\n    }\r\n\r\n    function rentEquipment(uint equipmentId, uint startTime, uint endTime) internal {\r\n        __occupyEquipment(equipmentId, startTime, endTime, OccupyType.LENT);\r\n\r\n        rentedEquipLst[msg.sender].push(equipmentId); // \r\n        emit eventRentEquipment(unicode\"\", equipmentId);\r\n    }\r\n\r\n    function returnEquipment(uint equipmentId) internal {\r\n        __unoccupyEquipment(equipmentId, OccupyType.LENT); \r\n\r\n        rentedEquipLst[msg.sender].removeByValue(equipmentId);\r\n        emit eventReturnEquipment(unicode\"\", equipmentId);\r\n\r\n    }\r\n    // \r\n    function maintainEquipment(uint equipmentId) public {\r\n        __occupyEquipment(equipmentId, block.timestamp, block.timestamp + 24*60*60, OccupyType.MAINTAIN); \r\n        emit eventMaintainEquipment(unicode\"\", equipmentId);\r\n\r\n    }\r\n    function maintainEquipment(uint equipmentId, uint startTime, uint endTime) public {\r\n        __occupyEquipment(equipmentId, startTime, endTime, OccupyType.MAINTAIN); \r\n        emit eventMaintainEquipment(unicode\"\", equipmentId);\r\n    }\r\n\r\n    function endMaintainEquipment(uint equipmentId) public { \r\n        __unoccupyEquipment(equipmentId, OccupyType.MAINTAIN); \r\n        emit eventUnMaintainEquipment(unicode\"\", equipmentId);\r\n    }\r\n    // \r\n    function freezeEquipment(uint equipmentId) public {\r\n        // \r\n        __occupyEquipment(equipmentId, block.timestamp, block.timestamp + 10*365*24*60*60, OccupyType.FROZEN); \r\n        emit eventFreezeEquipment(unicode\"\", equipmentId);\r\n\r\n    }\r\n    function freezeEquipment(uint equipmentId, uint startTime) public { \r\n        __occupyEquipment(equipmentId, startTime, startTime+10*365*24*60*60, OccupyType.FROZEN); \r\n    }\r\n    function unfreezeEquipment(uint equipmentId) public {\r\n        __unoccupyEquipment(equipmentId, OccupyType.FROZEN); \r\n        emit eventUnFreezeEquipment(unicode\"\", equipmentId);\r\n\r\n    }\r\n \r\n    // \r\n    function __addEquipment (\r\n        address addr,\r\n        string  memory name,  \r\n        string  memory category,  \r\n        string  memory descLink,  \r\n        string  memory imagesLink,  \r\n        uint deposit,\r\n        uint unitPrice\r\n        ) private {\r\n\r\n        equipId++;\r\n        ownedEquipLst[addr].push(equipId);\r\n\r\n        equipIdLst.push(equipId); // ID\r\n\r\n        Equipment storage newEquipment = equipments[equipId];\r\n\r\n        newEquipment.id          = equipId;\r\n        newEquipment.owner       = addr;   \r\n        newEquipment.createdTime = block.timestamp; \r\n \r\n        newEquipment.name        = name;\r\n        newEquipment.category    = category; \r\n        newEquipment.descLink    = descLink; \r\n        newEquipment.imagesLink  = imagesLink; \r\n        newEquipment.deposit     = deposit; \r\n        newEquipment.unitPrice   = unitPrice;     \r\n        emit eventAddEquipment(unicode\"\", equipId);\r\n    }\r\n    function addEquipment (\r\n        string  memory name,  \r\n        string  memory category,  \r\n        string  memory descLink,  \r\n        string  memory imagesLink,  \r\n        uint deposit,\r\n        uint unitPrice\r\n    ) public { \r\n        __addEquipment(msg.sender, name, category, descLink, imagesLink, deposit, unitPrice);\r\n    }\r\n    function addEquipment (\r\n        address addres,\r\n        string  memory name,  \r\n        string  memory category,  \r\n        string  memory descLink,  \r\n        string  memory imagesLink,  \r\n        uint deposit,\r\n        uint unitPrice\r\n    ) public isAdmin {\r\n        __addEquipment(addres, name, category, descLink, imagesLink, deposit, unitPrice);\r\n    }\r\n    \r\n    // \r\n    function removeEquipment(uint equipmentId) public {\r\n        requireEquipmentIdExist(equipmentId);\r\n        Equipment storage equipment = equipments[equipmentId];\r\n        require(equipment.owner == msg.sender, unicode\"\");  \r\n        require(equipment.occupyPeriod.length==0, unicode\"//\");\r\n\r\n        // ID\r\n        ownedEquipLst[msg.sender].removeByValue(equipmentId); \r\n        equipIdLst.removeByValue(equipmentId);\r\n    }\r\n\r\n\r\n\r\n\r\n    // \r\n    function updateEquipment( \r\n        uint equipmentId,\r\n        string  memory name,  \r\n        string  memory category,  \r\n        string  memory descLink,  \r\n        string  memory imagesLink,  \r\n        uint deposit,\r\n        uint unitPrice \r\n    ) public {\r\n        requireEquipmentIdExist(equipmentId); \r\n        Equipment storage equipment = equipments[equipmentId];\r\n        require(msg.sender==equipment.owner, unicode\"\");\r\n        equipment.name       = name;\r\n        equipment.category   = category; \r\n        equipment.descLink   = descLink; \r\n        equipment.imagesLink = imagesLink; \r\n        equipment.deposit    = deposit; \r\n        equipment.unitPrice  = unitPrice;\r\n    } \r\n\r\n\r\n}\r\n\r\n\r\n\r\n\r\n ",
  "sourcePath": "d:\\ARK\\Desktop\\EquipShareSystem\\truffle\\contracts\\equipment.sol",
  "compiler": {
    "name": "solc",
    "version": "0.8.18+commit.87f61d96.Emscripten.clang"
  },
  "schemaVersion": "3.4.14",
  "updatedAt": "2023-06-04T02:20:12.701Z",
  "devdoc": {
    "kind": "dev",
    "methods": {},
    "version": 1
  },
  "userdoc": {
    "kind": "user",
    "methods": {},
    "version": 1
  }
}