{
  "contractName": "LeaseContract",
  "abi": [
    {
      "anonymous": false,
      "inputs": [
        {
          "indexed": false,
          "internalType": "string",
          "name": "tips",
          "type": "string"
        },
        {
          "indexed": false,
          "internalType": "uint256",
          "name": "leaseId",
          "type": "uint256"
        }
      ],
      "name": "eventApproveLease",
      "type": "event"
    },
    {
      "anonymous": false,
      "inputs": [
        {
          "indexed": false,
          "internalType": "string",
          "name": "tips",
          "type": "string"
        },
        {
          "indexed": false,
          "internalType": "uint256",
          "name": "leaseId",
          "type": "uint256"
        }
      ],
      "name": "eventCancelLease",
      "type": "event"
    },
    {
      "anonymous": false,
      "inputs": [
        {
          "indexed": false,
          "internalType": "string",
          "name": "tips",
          "type": "string"
        },
        {
          "indexed": false,
          "internalType": "uint256",
          "name": "leaseId",
          "type": "uint256"
        }
      ],
      "name": "eventCompleteLease",
      "type": "event"
    },
    {
      "anonymous": false,
      "inputs": [
        {
          "indexed": false,
          "internalType": "string",
          "name": "tips",
          "type": "string"
        },
        {
          "indexed": false,
          "internalType": "uint256",
          "name": "leaseId",
          "type": "uint256"
        }
      ],
      "name": "eventCreateLease",
      "type": "event"
    },
    {
      "anonymous": false,
      "inputs": [
        {
          "indexed": false,
          "internalType": "string",
          "name": "tips",
          "type": "string"
        },
        {
          "indexed": false,
          "internalType": "uint256",
          "name": "leaseId",
          "type": "uint256"
        }
      ],
      "name": "eventProposeLease",
      "type": "event"
    },
    {
      "anonymous": false,
      "inputs": [
        {
          "indexed": false,
          "internalType": "string",
          "name": "tips",
          "type": "string"
        },
        {
          "indexed": false,
          "internalType": "uint256",
          "name": "leaseId",
          "type": "uint256"
        }
      ],
      "name": "eventRejectLease",
      "type": "event"
    },
    {
      "inputs": [
        {
          "internalType": "uint256",
          "name": "leaseId",
          "type": "uint256"
        }
      ],
      "name": "getLeasePact",
      "outputs": [
        {
          "components": [
            {
              "internalType": "uint256",
              "name": "id",
              "type": "uint256"
            },
            {
              "internalType": "uint256",
              "name": "equipmentId",
              "type": "uint256"
            },
            {
              "internalType": "string",
              "name": "equipmentName",
              "type": "string"
            },
            {
              "internalType": "string",
              "name": "renterName",
              "type": "string"
            },
            {
              "internalType": "address",
              "name": "owner",
              "type": "address"
            },
            {
              "internalType": "address",
              "name": "renter",
              "type": "address"
            },
            {
              "components": [
                {
                  "internalType": "uint256",
                  "name": "unitPrice",
                  "type": "uint256"
                },
                {
                  "internalType": "uint256",
                  "name": "totalPrice",
                  "type": "uint256"
                },
                {
                  "internalType": "uint256",
                  "name": "deposit",
                  "type": "uint256"
                },
                {
                  "internalType": "bool",
                  "name": "isPaid",
                  "type": "bool"
                }
              ],
              "internalType": "struct Price",
              "name": "price",
              "type": "tuple"
            },
            {
              "components": [
                {
                  "internalType": "uint256",
                  "name": "startTime",
                  "type": "uint256"
                },
                {
                  "internalType": "uint256",
                  "name": "endTime",
                  "type": "uint256"
                },
                {
                  "internalType": "uint256",
                  "name": "userid",
                  "type": "uint256"
                },
                {
                  "internalType": "enum OccupyType",
                  "name": "occupyType",
                  "type": "uint8"
                }
              ],
              "internalType": "struct Period",
              "name": "period",
              "type": "tuple"
            },
            {
              "components": [
                {
                  "internalType": "uint256",
                  "name": "CREATED",
                  "type": "uint256"
                },
                {
                  "internalType": "uint256",
                  "name": "CANCELED",
                  "type": "uint256"
                },
                {
                  "internalType": "uint256",
                  "name": "APPROVED",
                  "type": "uint256"
                },
                {
                  "internalType": "uint256",
                  "name": "REJECTED",
                  "type": "uint256"
                },
                {
                  "internalType": "uint256",
                  "name": "RETURNED",
                  "type": "uint256"
                },
                {
                  "internalType": "uint256",
                  "name": "COMPLETED",
                  "type": "uint256"
                }
              ],
              "internalType": "struct StepsStatus",
              "name": "steps",
              "type": "tuple"
            }
          ],
          "internalType": "struct LeasePact",
          "name": "",
          "type": "tuple"
        }
      ],
      "stateMutability": "view",
      "type": "function"
    },
    {
      "inputs": [
        {
          "internalType": "address",
          "name": "addr",
          "type": "address"
        }
      ],
      "name": "getLeasePactOwned",
      "outputs": [
        {
          "components": [
            {
              "internalType": "uint256",
              "name": "id",
              "type": "uint256"
            },
            {
              "internalType": "uint256",
              "name": "equipmentId",
              "type": "uint256"
            },
            {
              "internalType": "string",
              "name": "equipmentName",
              "type": "string"
            },
            {
              "internalType": "string",
              "name": "renterName",
              "type": "string"
            },
            {
              "internalType": "address",
              "name": "owner",
              "type": "address"
            },
            {
              "internalType": "address",
              "name": "renter",
              "type": "address"
            },
            {
              "components": [
                {
                  "internalType": "uint256",
                  "name": "unitPrice",
                  "type": "uint256"
                },
                {
                  "internalType": "uint256",
                  "name": "totalPrice",
                  "type": "uint256"
                },
                {
                  "internalType": "uint256",
                  "name": "deposit",
                  "type": "uint256"
                },
                {
                  "internalType": "bool",
                  "name": "isPaid",
                  "type": "bool"
                }
              ],
              "internalType": "struct Price",
              "name": "price",
              "type": "tuple"
            },
            {
              "components": [
                {
                  "internalType": "uint256",
                  "name": "startTime",
                  "type": "uint256"
                },
                {
                  "internalType": "uint256",
                  "name": "endTime",
                  "type": "uint256"
                },
                {
                  "internalType": "uint256",
                  "name": "userid",
                  "type": "uint256"
                },
                {
                  "internalType": "enum OccupyType",
                  "name": "occupyType",
                  "type": "uint8"
                }
              ],
              "internalType": "struct Period",
              "name": "period",
              "type": "tuple"
            },
            {
              "components": [
                {
                  "internalType": "uint256",
                  "name": "CREATED",
                  "type": "uint256"
                },
                {
                  "internalType": "uint256",
                  "name": "CANCELED",
                  "type": "uint256"
                },
                {
                  "internalType": "uint256",
                  "name": "APPROVED",
                  "type": "uint256"
                },
                {
                  "internalType": "uint256",
                  "name": "REJECTED",
                  "type": "uint256"
                },
                {
                  "internalType": "uint256",
                  "name": "RETURNED",
                  "type": "uint256"
                },
                {
                  "internalType": "uint256",
                  "name": "COMPLETED",
                  "type": "uint256"
                }
              ],
              "internalType": "struct StepsStatus",
              "name": "steps",
              "type": "tuple"
            }
          ],
          "internalType": "struct LeasePact[]",
          "name": "",
          "type": "tuple[]"
        }
      ],
      "stateMutability": "view",
      "type": "function"
    },
    {
      "inputs": [
        {
          "internalType": "address",
          "name": "addr",
          "type": "address"
        }
      ],
      "name": "getLeasePactRented",
      "outputs": [
        {
          "components": [
            {
              "internalType": "uint256",
              "name": "id",
              "type": "uint256"
            },
            {
              "internalType": "uint256",
              "name": "equipmentId",
              "type": "uint256"
            },
            {
              "internalType": "string",
              "name": "equipmentName",
              "type": "string"
            },
            {
              "internalType": "string",
              "name": "renterName",
              "type": "string"
            },
            {
              "internalType": "address",
              "name": "owner",
              "type": "address"
            },
            {
              "internalType": "address",
              "name": "renter",
              "type": "address"
            },
            {
              "components": [
                {
                  "internalType": "uint256",
                  "name": "unitPrice",
                  "type": "uint256"
                },
                {
                  "internalType": "uint256",
                  "name": "totalPrice",
                  "type": "uint256"
                },
                {
                  "internalType": "uint256",
                  "name": "deposit",
                  "type": "uint256"
                },
                {
                  "internalType": "bool",
                  "name": "isPaid",
                  "type": "bool"
                }
              ],
              "internalType": "struct Price",
              "name": "price",
              "type": "tuple"
            },
            {
              "components": [
                {
                  "internalType": "uint256",
                  "name": "startTime",
                  "type": "uint256"
                },
                {
                  "internalType": "uint256",
                  "name": "endTime",
                  "type": "uint256"
                },
                {
                  "internalType": "uint256",
                  "name": "userid",
                  "type": "uint256"
                },
                {
                  "internalType": "enum OccupyType",
                  "name": "occupyType",
                  "type": "uint8"
                }
              ],
              "internalType": "struct Period",
              "name": "period",
              "type": "tuple"
            },
            {
              "components": [
                {
                  "internalType": "uint256",
                  "name": "CREATED",
                  "type": "uint256"
                },
                {
                  "internalType": "uint256",
                  "name": "CANCELED",
                  "type": "uint256"
                },
                {
                  "internalType": "uint256",
                  "name": "APPROVED",
                  "type": "uint256"
                },
                {
                  "internalType": "uint256",
                  "name": "REJECTED",
                  "type": "uint256"
                },
                {
                  "internalType": "uint256",
                  "name": "RETURNED",
                  "type": "uint256"
                },
                {
                  "internalType": "uint256",
                  "name": "COMPLETED",
                  "type": "uint256"
                }
              ],
              "internalType": "struct StepsStatus",
              "name": "steps",
              "type": "tuple"
            }
          ],
          "internalType": "struct LeasePact[]",
          "name": "",
          "type": "tuple[]"
        }
      ],
      "stateMutability": "view",
      "type": "function"
    },
    {
      "inputs": [],
      "name": "getLeasePactAll",
      "outputs": [
        {
          "components": [
            {
              "internalType": "uint256",
              "name": "id",
              "type": "uint256"
            },
            {
              "internalType": "uint256",
              "name": "equipmentId",
              "type": "uint256"
            },
            {
              "internalType": "string",
              "name": "equipmentName",
              "type": "string"
            },
            {
              "internalType": "string",
              "name": "renterName",
              "type": "string"
            },
            {
              "internalType": "address",
              "name": "owner",
              "type": "address"
            },
            {
              "internalType": "address",
              "name": "renter",
              "type": "address"
            },
            {
              "components": [
                {
                  "internalType": "uint256",
                  "name": "unitPrice",
                  "type": "uint256"
                },
                {
                  "internalType": "uint256",
                  "name": "totalPrice",
                  "type": "uint256"
                },
                {
                  "internalType": "uint256",
                  "name": "deposit",
                  "type": "uint256"
                },
                {
                  "internalType": "bool",
                  "name": "isPaid",
                  "type": "bool"
                }
              ],
              "internalType": "struct Price",
              "name": "price",
              "type": "tuple"
            },
            {
              "components": [
                {
                  "internalType": "uint256",
                  "name": "startTime",
                  "type": "uint256"
                },
                {
                  "internalType": "uint256",
                  "name": "endTime",
                  "type": "uint256"
                },
                {
                  "internalType": "uint256",
                  "name": "userid",
                  "type": "uint256"
                },
                {
                  "internalType": "enum OccupyType",
                  "name": "occupyType",
                  "type": "uint8"
                }
              ],
              "internalType": "struct Period",
              "name": "period",
              "type": "tuple"
            },
            {
              "components": [
                {
                  "internalType": "uint256",
                  "name": "CREATED",
                  "type": "uint256"
                },
                {
                  "internalType": "uint256",
                  "name": "CANCELED",
                  "type": "uint256"
                },
                {
                  "internalType": "uint256",
                  "name": "APPROVED",
                  "type": "uint256"
                },
                {
                  "internalType": "uint256",
                  "name": "REJECTED",
                  "type": "uint256"
                },
                {
                  "internalType": "uint256",
                  "name": "RETURNED",
                  "type": "uint256"
                },
                {
                  "internalType": "uint256",
                  "name": "COMPLETED",
                  "type": "uint256"
                }
              ],
              "internalType": "struct StepsStatus",
              "name": "steps",
              "type": "tuple"
            }
          ],
          "internalType": "struct LeasePact[]",
          "name": "",
          "type": "tuple[]"
        }
      ],
      "stateMutability": "view",
      "type": "function"
    },
    {
      "inputs": [
        {
          "internalType": "uint256",
          "name": "leaseId",
          "type": "uint256"
        }
      ],
      "name": "deleteLeasePactOwned",
      "outputs": [],
      "stateMutability": "view",
      "type": "function"
    },
    {
      "inputs": [
        {
          "internalType": "uint256",
          "name": "leaseId",
          "type": "uint256"
        }
      ],
      "name": "deleteLeasePactRented",
      "outputs": [],
      "stateMutability": "view",
      "type": "function"
    }
  ],
  "bytecode": "0x6080604052621ede5960075534801561001757600080fd5b50611025806100276000396000f3fe608060405234801561001057600080fd5b50600436106100625760003560e01c8063889d6f2a146100675780638dac3c4b146100905780638dc9a8c2146100b0578063a2fb993f146100c5578063b3349aab146100d8578063bd5c4730146100e0575b600080fd5b61007a610075366004610cf4565b6100f3565b6040516100879190610eda565b60405180910390f35b6100a361009e366004610f3c565b610177565b6040516100879190610f55565b6100c36100be366004610f3c565b6103f2565b005b6100c36100d3366004610f3c565b61072f565b61007a610a0a565b61007a6100ee366004610cf4565b610a68565b606061017160026000846001600160a01b03166001600160a01b0316815260200190815260200160002080548060200260200160405190810160405280929190818152602001828054801561016757602002820191906000526020600020905b815481526020019060010190808311610153575b5050505050610ae0565b92915050565b61017f610bfc565b61018882610b9c565b6000828152602081815260408083208151610120810183528154815260018201549381019390935260028101805491928401916101c490610f68565b80601f01602080910402602001604051908101604052809291908181526020018280546101f090610f68565b801561023d5780601f106102125761010080835404028352916020019161023d565b820191906000526020600020905b81548152906001019060200180831161022057829003601f168201915b5050505050815260200160038201805461025690610f68565b80601f016020809104026020016040519081016040528092919081815260200182805461028290610f68565b80156102cf5780601f106102a4576101008083540402835291602001916102cf565b820191906000526020600020905b8154815290600101906020018083116102b257829003601f168201915b505050918352505060048201546001600160a01b03908116602080840191909152600584015490911660408084019190915280516080808201835260068601548252600786015482850152600886015482840152600986015460ff90811615156060848101919091528087019390935283518083018552600a880180548252600b89015496820196909652600c88015494810194909452600d87015491909501949293929184019116600281111561038957610389610d6a565b600281111561039a5761039a610d6a565b90525081526040805160c081018252600e8401548152600f840154602082810191909152601085015492820192909252601184015460608201526012840154608082015260139093015460a084015201529392505050565b60008181526020818152604080832081516101208101835281548152600182015493810193909352600281018054919284019161042e90610f68565b80601f016020809104026020016040519081016040528092919081815260200182805461045a90610f68565b80156104a75780601f1061047c576101008083540402835291602001916104a7565b820191906000526020600020905b81548152906001019060200180831161048a57829003601f168201915b505050505081526020016003820180546104c090610f68565b80601f01602080910402602001604051908101604052809291908181526020018280546104ec90610f68565b80156105395780601f1061050e57610100808354040283529160200191610539565b820191906000526020600020905b81548152906001019060200180831161051c57829003601f168201915b505050918352505060048201546001600160a01b03908116602080840191909152600584015490911660408084019190915280516080808201835260068601548252600786015482850152600886015482840152600986015460ff90811615156060848101919091528087019390935283518083018552600a880180548252600b89015496820196909652600c88015494810194909452600d8701549190950194929392918401911660028111156105f3576105f3610d6a565b600281111561060457610604610d6a565b815250508152602001600e82016040518060c001604052908160008201548152602001600182015481526020016002820154815260200160038201548152602001600482015481526020016005820154815250508152505090508060a001516001600160a01b0316336001600160a01b0316146106d25760405162461bcd60e51b815260206004820152602160248201527fe99d9ee8aebee5a487e7a79fe794a8e4babaefbc8ce697a0e6b395e588a0e9996044820152602960fa1b60648201526084015b60405180910390fd5b80610100015160a0015160000361072b5760405162461bcd60e51b815260206004820152601e60248201527fe59088e5908ce69caae5ae8ce68890efbc8ce697a0e6b395e588a0e999a4000060448201526064016106c9565b5050565b60008181526020818152604080832081516101208101835281548152600182015493810193909352600281018054919284019161076b90610f68565b80601f016020809104026020016040519081016040528092919081815260200182805461079790610f68565b80156107e45780601f106107b9576101008083540402835291602001916107e4565b820191906000526020600020905b8154815290600101906020018083116107c757829003601f168201915b505050505081526020016003820180546107fd90610f68565b80601f016020809104026020016040519081016040528092919081815260200182805461082990610f68565b80156108765780601f1061084b57610100808354040283529160200191610876565b820191906000526020600020905b81548152906001019060200180831161085957829003601f168201915b505050918352505060048201546001600160a01b03908116602080840191909152600584015490911660408084019190915280516080808201835260068601548252600786015482850152600886015482840152600986015460ff90811615156060848101919091528087019390935283518083018552600a880180548252600b89015496820196909652600c88015494810194909452600d87015491909501949293929184019116600281111561093057610930610d6a565b600281111561094157610941610d6a565b815250508152602001600e82016040518060c0016040529081600082015481526020016001820154815260200160028201548152602001600382015481526020016004820154815260200160058201548152505081525050905080608001516001600160a01b0316336001600160a01b0316146106d25760405162461bcd60e51b815260206004820152602160248201527fe99d9ee8aebee5a487e68c81e69c89e4babaefbc8ce697a0e6b395e588a0e9996044820152602960fa1b60648201526084016106c9565b6060610a6360038054806020026020016040519081016040528092919081815260200182805480156101675760200282019190600052602060002090815481526020019060010190808311610153575050505050610ae0565b905090565b606061017160016000846001600160a01b03166001600160a01b0316815260200190815260200160002080548060200260200160405190810160405280929190818152602001828054801561016757602002820191906000526020600020908154815260200190600101908083116101535750505050505b6060815167ffffffffffffffff811115610afc57610afc610f9c565b604051908082528060200260200182016040528015610b3557816020015b610b22610bfc565b815260200190600190039081610b1a5790505b50905060005b8251811015610b9657610b66838281518110610b5957610b59610fb2565b6020026020010151610177565b828281518110610b7857610b78610fb2565b60200260200101819052508080610b8e90610fc8565b915050610b3b565b50919050565b6000818152602081905260408120549003610bf95760405162461bcd60e51b815260206004820152601a60248201527fe8afb7e8be93e585a5e69c89e69588e79a84e4baa4e69893494400000000000060448201526064016106c9565b50565b6040518061012001604052806000815260200160008152602001606081526020016060815260200160006001600160a01b0316815260200160006001600160a01b03168152602001610c7160405180608001604052806000815260200160008152602001600081526020016000151581525090565b8152602001610c7e610cc1565b8152602001610cbc6040518060c001604052806000815260200160008152602001600081526020016000815260200160008152602001600081525090565b905290565b604051806080016040528060008152602001600081526020016000815260200160006002811115610cbc57610cbc610d6a565b600060208284031215610d0657600080fd5b81356001600160a01b0381168114610d1d57600080fd5b9392505050565b6000815180845260005b81811015610d4a57602081850181015186830182015201610d2e565b506000602082860101526020601f19601f83011685010191505092915050565b634e487b7160e01b600052602160045260246000fd5b805182526020810151602083015260408101516040830152606081015160038110610dbb57634e487b7160e01b600052602160045260246000fd5b806060840152505050565b600061028082518452602083015160208501526040830151816040860152610df082860182610d24565b91505060608301518482036060860152610e0a8282610d24565b9150506080830151610e2760808601826001600160a01b03169052565b5060a0830151610e4260a08601826001600160a01b03169052565b5060c0830151610e7860c08601828051825260208101516020830152604081015160408301526060810151151560608301525050565b5060e0830151610e8c610140860182610d80565b5061010083015180516101c086015260208101516101e086015260408101516102008601526060810151610220860152608081015161024086015260a0810151610260860152509392505050565b6000602080830181845280855180835260408601915060408160051b870101925083870160005b82811015610f2f57603f19888603018452610f1d858351610dc6565b94509285019290850190600101610f01565b5092979650505050505050565b600060208284031215610f4e57600080fd5b5035919050565b602081526000610d1d6020830184610dc6565b600181811c90821680610f7c57607f821691505b602082108103610b9657634e487b7160e01b600052602260045260246000fd5b634e487b7160e01b600052604160045260246000fd5b634e487b7160e01b600052603260045260246000fd5b600060018201610fe857634e487b7160e01b600052601160045260246000fd5b506001019056fea264697066735822122097377816c75e54643d61294f658306299c538c027d5bee17ac9919dcc05ba74d64736f6c63430008120033",
  "immutableReferences": {},
  "source": "// SPDX-License-Identifier: GPL-3.0\r\npragma solidity ^0.8.18;  \r\n  \r\nimport { User } from \"./user.sol\"; \r\nimport { Equipment } from \"./equipment.sol\";\r\nimport { LibArray } from \"./library.sol\";  \r\n\r\n\r\n \r\n// \r\nenum OccupyType {\r\n    OPEN,   // \r\n    LENT,   // \r\n    MAINTAIN// \r\n}\r\n\r\nstruct Period {\r\n    uint startTime;\r\n    uint endTime;\r\n    uint userid;\r\n    OccupyType occupyType;\r\n} \r\n\r\n\r\nstruct Price {\r\n    uint unitPrice;     // \r\n    uint totalPrice;    // \r\n    uint deposit;       // \r\n    bool isPaid;\r\n}\r\n\r\nstruct StepsStatus { \r\n    uint CREATED;      // \r\n    uint CANCELED;     // \r\n    uint APPROVED;     // \r\n    uint REJECTED;     // \r\n    uint RETURNED;     // \r\n    uint COMPLETED;    // \r\n}\r\n\r\nstruct LeasePact {\r\n\r\n    //  \r\n    // status  CREATED  \r\n    uint id;            // \r\n    uint equipmentId;   // \r\n    string equipmentName;\r\n    string renterName;\r\n    address owner;      // \r\n    address renter;     // \r\n\r\n    Price  price;   \r\n    Period period;\r\n    StepsStatus steps; \r\n\r\n    //  \r\n    // ID\r\n    // \r\n    // steps  APPROVED \r\n\r\n    //  \r\n    // steps  REJECTED   \r\n\r\n    //  \r\n    // steps  COMPLETED \r\n}\r\n\r\ncontract LeaseContract {\r\n    using LibArray for uint[]; \r\n    \r\n    mapping (uint => LeasePact) private LEASES;\r\n\r\n    mapping (address => uint[]) private RENT_LEASE; // \r\n    mapping (address => uint[]) private OWN_LEASE;  // \r\n\r\n    uint[] private LEASE_CREATED_LST;\r\n    uint[] private LEASE_APPROVED_LST;\r\n    uint[] private LEASE_REJECTED_LST;\r\n    uint[] private LEASE_COMPLETED_LST; \r\n    uint   private LEASEID = 2023001;\r\n  \r\n    event eventCreateLease(string tips, uint leaseId);\r\n    event eventCancelLease(string tips, uint leaseId);\r\n    event eventApproveLease(string tips, uint leaseId);\r\n    event eventRejectLease(string tips, uint leaseId);\r\n    event eventProposeLease(string tips, uint leaseId);\r\n    event eventCompleteLease(string tips, uint leaseId);\r\n  \r\n    function requireLeaseIdExist(uint leaseId) private view { \r\n        require(LEASES[leaseId].id != 0, unicode\"ID\"); \r\n    } \r\n\r\n\r\n    // \r\n    function getLeasePact(uint leaseId) public view returns (LeasePact memory) {\r\n        requireLeaseIdExist(leaseId);\r\n        LeasePact memory lease = LEASES[leaseId];\r\n        return lease;\r\n    }\r\n\r\n    function __getLeasePacts(uint[] memory leaseIdLst) private view returns (LeasePact[] memory leases) { \r\n        leases = new LeasePact[](leaseIdLst.length);\r\n        for (uint i = 0; i < leaseIdLst.length; i++) {\r\n            leases[i] = getLeasePact(leaseIdLst[i]);\r\n        }\r\n    }\r\n\r\n    function getLeasePactOwned(address addr) public view returns (LeasePact[] memory) {\r\n        return __getLeasePacts(OWN_LEASE[addr]); \r\n    }\r\n\r\n    function getLeasePactRented(address addr) public view returns (LeasePact[] memory) {\r\n        return __getLeasePacts(RENT_LEASE[addr]); \r\n    } \r\n\r\n    function getLeasePactAll() public view returns (LeasePact[] memory) { \r\n        return __getLeasePacts(LEASE_CREATED_LST);\r\n    }\r\n\r\n\r\n    // \r\n    function leasePactCreate( \r\n        User memory user,\r\n        Equipment memory equipment, \r\n        uint startTime,\r\n        uint endTime\r\n        ) internal returns (LeasePact memory) {  \r\n\r\n        LEASEID++; \r\n        LEASE_CREATED_LST.push(LEASEID);\r\n        // \r\n        RENT_LEASE[msg.sender].push(LEASEID);\r\n        OWN_LEASE[equipment.owner].push(LEASEID);\r\n\r\n        // \r\n        LeasePact storage newLease = LEASES[LEASEID];\r\n        newLease.id          = LEASEID;\r\n        newLease.equipmentId = equipment.id;\r\n        newLease.owner       = equipment.owner;\r\n        newLease.renter      = msg.sender;\r\n\r\n        newLease.equipmentName = equipment.name;\r\n        newLease.renterName    = user.name;\r\n\r\n        newLease.price.deposit    = equipment.deposit;\r\n        newLease.price.unitPrice  = equipment.unitPrice;\r\n  \r\n        newLease.price.totalPrice = equipment.unitPrice * (endTime-startTime) / 3600;\r\n    \r\n        newLease.period.startTime = startTime;\r\n        newLease.period.endTime   = endTime;\r\n        \r\n        newLease.steps.CREATED = block.timestamp;\r\n \r\n        //  \r\n        emit eventCreateLease(unicode\"\", LEASEID);\r\n        return newLease;\r\n    }\r\n\r\n\r\n    // \r\n    function leasePactCancel(uint leaseId) internal returns (LeasePact memory) {\r\n        requireLeaseIdExist(leaseId);\r\n        LeasePact storage lease = LEASES[leaseId];\r\n\r\n        require(msg.sender == lease.renter, unicode\"\");\r\n        require(lease.steps.CREATED   != 0, unicode\"\");\r\n        require(lease.steps.APPROVED  == 0, unicode\"\");\r\n        require(lease.steps.REJECTED  == 0, unicode\"\");\r\n        lease.steps.CANCELED = block.timestamp;\r\n        emit eventCancelLease(unicode\"\", leaseId);\r\n        return lease;\r\n    }\r\n \r\n    // \r\n    function leasePactApprove(uint leaseId) internal returns (LeasePact memory) {\r\n        requireLeaseIdExist(leaseId);\r\n\r\n        LEASE_APPROVED_LST.push(leaseId);\r\n        LeasePact storage lease = LEASES[leaseId];\r\n        require(msg.sender == lease.owner, unicode\"\");\r\n        require(lease.steps.CREATED   != 0, unicode\"\");\r\n        require(lease.steps.APPROVED  == 0, unicode\"\");\r\n        require(lease.steps.REJECTED  == 0, unicode\"\");\r\n\r\n        lease.steps.APPROVED = block.timestamp;\r\n        emit eventApproveLease(unicode\"\", leaseId);\r\n        return lease;\r\n    }\r\n\r\n    // \r\n    function leasePactReject(uint leaseId) internal returns (LeasePact memory) {\r\n        requireLeaseIdExist(leaseId);\r\n\r\n        LEASE_REJECTED_LST.push(leaseId);\r\n        LeasePact storage lease = LEASES[leaseId];\r\n        require(msg.sender == lease.owner, unicode\"\");\r\n\r\n        require(lease.steps.CREATED   != 0, unicode\"\");\r\n        require(lease.steps.APPROVED  == 0, unicode\"\");\r\n        require(lease.steps.REJECTED  == 0, unicode\"\");\r\n\r\n        lease.steps.REJECTED = block.timestamp;\r\n        emit eventRejectLease(unicode\"\", leaseId);\r\n        return lease;\r\n    }\r\n\r\n    // \r\n    function leasePactProposeEnd(uint leaseId) internal returns (LeasePact memory) {\r\n        requireLeaseIdExist(leaseId);\r\n\r\n        LeasePact storage lease = LEASES[leaseId];\r\n\r\n        require(msg.sender == lease.renter, unicode\"\");\r\n        //require(lease.price.isPaid, unicode\"\");\r\n\r\n        require(lease.steps.CREATED   != 0, unicode\"\");\r\n        require(lease.steps.APPROVED  != 0, unicode\"\");\r\n        require(lease.steps.COMPLETED == 0, unicode\"\"); \r\n        lease.steps.RETURNED = block.timestamp;\r\n        emit eventProposeLease(unicode\"\", leaseId);\r\n        return lease;\r\n    }\r\n\r\n    // \r\n    function leasePactComplete(uint leaseId) internal returns (LeasePact memory) {\r\n        requireLeaseIdExist(leaseId);\r\n\r\n        LEASE_COMPLETED_LST.push(leaseId);\r\n        LeasePact storage lease = LEASES[leaseId];\r\n\r\n        require(lease.owner == msg.sender, unicode\"\");\r\n        require(lease.period.endTime <= block.timestamp, unicode\"\");\r\n\r\n        require(lease.steps.CREATED   != 0, unicode\"\"); \r\n        require(lease.steps.APPROVED  != 0, unicode\"\");\r\n        require(lease.steps.COMPLETED == 0, unicode\"\");\r\n   \r\n        lease.steps.COMPLETED = block.timestamp; \r\n\r\n        OWN_LEASE[lease.owner].removeByValue(leaseId);\r\n        RENT_LEASE[lease.renter].removeByValue(leaseId);\r\n        emit eventCompleteLease(unicode\"\", leaseId);\r\n        return lease;\r\n    }\r\n\r\n    function deleteLeasePactOwned(uint leaseId) public view {\r\n        LeasePact memory lease = LEASES[leaseId];\r\n        require(msg.sender == lease.owner, unicode\"\");\r\n        require(lease.steps.COMPLETED != 0, unicode\"\");\r\n    }\r\n    \r\n    function deleteLeasePactRented(uint leaseId) public view {\r\n        LeasePact memory lease = LEASES[leaseId];\r\n        require(msg.sender == lease.renter, unicode\"\");\r\n        require(lease.steps.COMPLETED != 0, unicode\"\");\r\n    }\r\n  \r\n}\r\n ",
  "sourcePath": "d:\\ARK\\Desktop\\EquipShareSystem\\truffle\\contracts\\lease.sol",
  "compiler": {
    "name": "solc",
    "version": "0.8.18+commit.87f61d96.Emscripten.clang"
  },
  "schemaVersion": "3.4.14",
  "updatedAt": "2023-06-04T02:20:12.723Z",
  "devdoc": {
    "kind": "dev",
    "methods": {},
    "version": 1
  },
  "userdoc": {
    "kind": "user",
    "methods": {},
    "version": 1
  }
}