{
  "contractName": "TokenContract",
  "abi": [
    {
      "inputs": [],
      "stateMutability": "nonpayable",
      "type": "constructor"
    },
    {
      "anonymous": false,
      "inputs": [
        {
          "indexed": true,
          "internalType": "address",
          "name": "owner",
          "type": "address"
        },
        {
          "indexed": true,
          "internalType": "address",
          "name": "spender",
          "type": "address"
        },
        {
          "indexed": false,
          "internalType": "uint256",
          "name": "value",
          "type": "uint256"
        }
      ],
      "name": "Approval",
      "type": "event"
    },
    {
      "anonymous": false,
      "inputs": [
        {
          "indexed": true,
          "internalType": "address",
          "name": "from",
          "type": "address"
        },
        {
          "indexed": true,
          "internalType": "address",
          "name": "to",
          "type": "address"
        },
        {
          "indexed": false,
          "internalType": "uint256",
          "name": "value",
          "type": "uint256"
        }
      ],
      "name": "Transfer",
      "type": "event"
    },
    {
      "inputs": [
        {
          "internalType": "address",
          "name": "",
          "type": "address"
        }
      ],
      "name": "haveGotEth",
      "outputs": [
        {
          "internalType": "bool",
          "name": "",
          "type": "bool"
        }
      ],
      "stateMutability": "view",
      "type": "function"
    },
    {
      "inputs": [],
      "name": "token",
      "outputs": [
        {
          "internalType": "uint256",
          "name": "id",
          "type": "uint256"
        },
        {
          "internalType": "string",
          "name": "name",
          "type": "string"
        },
        {
          "internalType": "string",
          "name": "symbol",
          "type": "string"
        },
        {
          "internalType": "uint256",
          "name": "decimals",
          "type": "uint256"
        },
        {
          "internalType": "uint256",
          "name": "totalSupply",
          "type": "uint256"
        }
      ],
      "stateMutability": "view",
      "type": "function"
    },
    {
      "inputs": [
        {
          "internalType": "address",
          "name": "account",
          "type": "address"
        }
      ],
      "name": "balanceOf",
      "outputs": [
        {
          "internalType": "uint256",
          "name": "",
          "type": "uint256"
        }
      ],
      "stateMutability": "view",
      "type": "function"
    },
    {
      "inputs": [
        {
          "internalType": "address",
          "name": "to",
          "type": "address"
        },
        {
          "internalType": "uint256",
          "name": "amount",
          "type": "uint256"
        }
      ],
      "name": "transfer",
      "outputs": [
        {
          "internalType": "bool",
          "name": "",
          "type": "bool"
        }
      ],
      "stateMutability": "nonpayable",
      "type": "function"
    }
  ],
  "bytecode": "0x608060405234801561001057600080fd5b50604080518082019091526009815268e8999ae68b9fe5b88160b81b602082015260019061003e908261012a565b50604080518082019091526003815262efbfa560e81b6020820152600290610066908261012a565b50612710600355620186a06004819055336000908152600560205260409020556101e9565b634e487b7160e01b600052604160045260246000fd5b600181811c908216806100b557607f821691505b6020821081036100d557634e487b7160e01b600052602260045260246000fd5b50919050565b601f82111561012557600081815260208120601f850160051c810160208610156101025750805b601f850160051c820191505b818110156101215782815560010161010e565b5050505b505050565b81516001600160401b038111156101435761014361008b565b6101578161015184546100a1565b846100db565b602080601f83116001811461018c57600084156101745750858301515b600019600386901b1c1916600185901b178555610121565b600085815260208120601f198616915b828110156101bb5788860151825594840194600190910190840161019c565b50858210156101d95787850151600019600388901b60f8161c191681555b5050505050600190811b01905550565b6104b5806101f86000396000f3fe608060405234801561001057600080fd5b506004361061004c5760003560e01c8063254157531461005157806370a0823114610089578063a9059cbb146100c0578063fc0c546a146100d3575b600080fd5b61007461005f366004610337565b60076020526000908152604090205460ff1681565b60405190151581526020015b60405180910390f35b6100b2610097366004610337565b6001600160a01b031660009081526005602052604090205490565b604051908152602001610080565b6100746100ce366004610359565b6100ec565b6100db6101ea565b6040516100809594939291906103c9565b3360009081526005602052604081205482111561014f5760405162461bcd60e51b815260206004820152601860248201527fe682a8e79a84e8b4a6e58fb7e4bd99e9a29de4b88de8b6b30000000000000000604482015260640160405180910390fd5b336000908152600560205260408120805484929061016e90849061041f565b90915550506001600160a01b0383166000908152600560205260408120805484929061019b908490610432565b90915550506040518281526001600160a01b0384169033907fddf252ad1be2c89b69c2b068fc378daa952ba7f163c4a11628f55a4df523b3ef9060200160405180910390a35060015b92915050565b60008054600180549192916101fe90610445565b80601f016020809104026020016040519081016040528092919081815260200182805461022a90610445565b80156102775780601f1061024c57610100808354040283529160200191610277565b820191906000526020600020905b81548152906001019060200180831161025a57829003601f168201915b50505050509080600201805461028c90610445565b80601f01602080910402602001604051908101604052809291908181526020018280546102b890610445565b80156103055780601f106102da57610100808354040283529160200191610305565b820191906000526020600020905b8154815290600101906020018083116102e857829003601f168201915b5050505050908060030154908060040154905085565b80356001600160a01b038116811461033257600080fd5b919050565b60006020828403121561034957600080fd5b6103528261031b565b9392505050565b6000806040838503121561036c57600080fd5b6103758361031b565b946020939093013593505050565b6000815180845260005b818110156103a95760208185018101518683018201520161038d565b506000602082860101526020601f19601f83011685010191505092915050565b85815260a0602082015260006103e260a0830187610383565b82810360408401526103f48187610383565b60608401959095525050608001529392505050565b634e487b7160e01b600052601160045260246000fd5b818103818111156101e4576101e4610409565b808201808211156101e4576101e4610409565b600181811c9082168061045957607f821691505b60208210810361047957634e487b7160e01b600052602260045260246000fd5b5091905056fea2646970667358221220ec9c0698ce89761c8e8201a137d32e2862f3f0fdcf61ad0a45efb7175889e54e64736f6c63430008120033",
  "immutableReferences": {},
  "source": "// SPDX-License-Identifier: GPL-3.0\r\npragma solidity ^0.8.18;\r\n  \r\n\r\ncontract TokenContract {\r\n\r\n    //\r\n    struct Token {\r\n        uint    id;             //ID\r\n        string  name;           //\r\n        string  symbol;         //\r\n        uint    decimals;       //\r\n        uint    totalSupply;    //\r\n        mapping(address => uint) balanceOf;    //\r\n        mapping(address => mapping(address => uint)) allowance;\r\n    }\r\n\r\n    Token public token;\r\n    mapping(address => bool) public haveGotEth;\r\n\r\n    constructor() { \r\n        token.name      = unicode\"\";\r\n        token.symbol    = unicode\"\";\r\n        token.decimals  = 10000;\r\n        token.totalSupply = 1_00000;\r\n        token.balanceOf[msg.sender] = 1_00000;\r\n    }\r\n\r\n    event Transfer(address indexed from, address indexed to, uint256 value);\r\n \r\n    event Approval(address indexed owner, address indexed spender, uint256 value);\r\n\r\n\r\n    function balanceOf(address account) public view returns (uint256) {\r\n        return token.balanceOf[account];\r\n    }\r\n\r\n    function allowance(address owner, address spender) internal view returns (uint256) {\r\n\r\n    }\r\n\r\n    function approve(address to, uint amount) internal returns (bool) {\r\n        token.allowance[msg.sender][to] = amount;\r\n        emit Approval(msg.sender, to, amount);\r\n        return true;\r\n    }\r\n\r\n    function transfer(address to, uint256 amount) public returns (bool) {\r\n        require(token.balanceOf[msg.sender] >= amount, unicode\"\");\r\n        token.balanceOf[msg.sender] -= amount;\r\n        token.balanceOf[to] += amount;\r\n        emit Transfer(msg.sender, to, amount);\r\n        return true;\r\n    }\r\n\r\n    function transferFrom(address from, uint256 amount\r\n    ) internal returns (bool) {\r\n        // require(token.allowance[from][msg.sender] >= amount, unicode\"\");\r\n        // require(token.balanceOf[from] >= amount, unicode\"\");\r\n        // token.allowance[from][msg.sender] -= amount; \r\n        token.balanceOf[from] -= amount;\r\n        token.balanceOf[from] += amount;\r\n        emit Transfer(from, msg.sender, amount);\r\n        return true;\r\n    }\r\n}",
  "sourcePath": "d:\\ARK\\Desktop\\EquipShareSystem\\truffle\\contracts\\token.sol",
  "compiler": {
    "name": "solc",
    "version": "0.8.18+commit.87f61d96.Emscripten.clang"
  },
  "schemaVersion": "3.4.14",
  "updatedAt": "2023-06-04T02:20:12.765Z",
  "devdoc": {
    "kind": "dev",
    "methods": {},
    "version": 1
  },
  "userdoc": {
    "kind": "user",
    "methods": {},
    "version": 1
  }
}