{
  "contractName": "UserContract",
  "abi": [
    {
      "anonymous": false,
      "inputs": [
        {
          "indexed": false,
          "internalType": "string",
          "name": "tips",
          "type": "string"
        },
        {
          "indexed": false,
          "internalType": "uint256",
          "name": "userId",
          "type": "uint256"
        }
      ],
      "name": "eventAddUser",
      "type": "event"
    },
    {
      "anonymous": false,
      "inputs": [
        {
          "indexed": false,
          "internalType": "string",
          "name": "tips",
          "type": "string"
        },
        {
          "indexed": false,
          "internalType": "uint256",
          "name": "userId",
          "type": "uint256"
        }
      ],
      "name": "eventUpdateUser",
      "type": "event"
    },
    {
      "inputs": [
        {
          "internalType": "address",
          "name": "addrs",
          "type": "address"
        }
      ],
      "name": "addAdmin",
      "outputs": [],
      "stateMutability": "nonpayable",
      "type": "function"
    },
    {
      "inputs": [
        {
          "internalType": "address",
          "name": "addrs",
          "type": "address"
        }
      ],
      "name": "removeAdmin",
      "outputs": [],
      "stateMutability": "nonpayable",
      "type": "function"
    },
    {
      "inputs": [
        {
          "internalType": "uint256",
          "name": "usrid",
          "type": "uint256"
        }
      ],
      "name": "getUserByID",
      "outputs": [
        {
          "components": [
            {
              "internalType": "uint256",
              "name": "id",
              "type": "uint256"
            },
            {
              "internalType": "address",
              "name": "addres",
              "type": "address"
            },
            {
              "internalType": "uint256",
              "name": "createTime",
              "type": "uint256"
            },
            {
              "internalType": "string",
              "name": "name",
              "type": "string"
            },
            {
              "internalType": "string",
              "name": "avatar",
              "type": "string"
            },
            {
              "internalType": "string",
              "name": "email",
              "type": "string"
            },
            {
              "internalType": "string",
              "name": "tellphone",
              "type": "string"
            },
            {
              "internalType": "string",
              "name": "organization",
              "type": "string"
            },
            {
              "internalType": "uint256",
              "name": "rating",
              "type": "uint256"
            },
            {
              "internalType": "uint256[]",
              "name": "permission",
              "type": "uint256[]"
            }
          ],
          "internalType": "struct User",
          "name": "",
          "type": "tuple"
        }
      ],
      "stateMutability": "view",
      "type": "function"
    },
    {
      "inputs": [
        {
          "internalType": "address",
          "name": "addrs",
          "type": "address"
        }
      ],
      "name": "getUser",
      "outputs": [
        {
          "components": [
            {
              "internalType": "uint256",
              "name": "id",
              "type": "uint256"
            },
            {
              "internalType": "address",
              "name": "addres",
              "type": "address"
            },
            {
              "internalType": "uint256",
              "name": "createTime",
              "type": "uint256"
            },
            {
              "internalType": "string",
              "name": "name",
              "type": "string"
            },
            {
              "internalType": "string",
              "name": "avatar",
              "type": "string"
            },
            {
              "internalType": "string",
              "name": "email",
              "type": "string"
            },
            {
              "internalType": "string",
              "name": "tellphone",
              "type": "string"
            },
            {
              "internalType": "string",
              "name": "organization",
              "type": "string"
            },
            {
              "internalType": "uint256",
              "name": "rating",
              "type": "uint256"
            },
            {
              "internalType": "uint256[]",
              "name": "permission",
              "type": "uint256[]"
            }
          ],
          "internalType": "struct User",
          "name": "",
          "type": "tuple"
        }
      ],
      "stateMutability": "view",
      "type": "function"
    },
    {
      "inputs": [
        {
          "internalType": "uint256",
          "name": "startIndex",
          "type": "uint256"
        },
        {
          "internalType": "uint256",
          "name": "length",
          "type": "uint256"
        }
      ],
      "name": "getUserBatch",
      "outputs": [
        {
          "components": [
            {
              "internalType": "uint256",
              "name": "id",
              "type": "uint256"
            },
            {
              "internalType": "address",
              "name": "addres",
              "type": "address"
            },
            {
              "internalType": "uint256",
              "name": "createTime",
              "type": "uint256"
            },
            {
              "internalType": "string",
              "name": "name",
              "type": "string"
            },
            {
              "internalType": "string",
              "name": "avatar",
              "type": "string"
            },
            {
              "internalType": "string",
              "name": "email",
              "type": "string"
            },
            {
              "internalType": "string",
              "name": "tellphone",
              "type": "string"
            },
            {
              "internalType": "string",
              "name": "organization",
              "type": "string"
            },
            {
              "internalType": "uint256",
              "name": "rating",
              "type": "uint256"
            },
            {
              "internalType": "uint256[]",
              "name": "permission",
              "type": "uint256[]"
            }
          ],
          "internalType": "struct User[]",
          "name": "_users",
          "type": "tuple[]"
        }
      ],
      "stateMutability": "view",
      "type": "function"
    },
    {
      "inputs": [],
      "name": "getUserAll",
      "outputs": [
        {
          "components": [
            {
              "internalType": "uint256",
              "name": "id",
              "type": "uint256"
            },
            {
              "internalType": "address",
              "name": "addres",
              "type": "address"
            },
            {
              "internalType": "uint256",
              "name": "createTime",
              "type": "uint256"
            },
            {
              "internalType": "string",
              "name": "name",
              "type": "string"
            },
            {
              "internalType": "string",
              "name": "avatar",
              "type": "string"
            },
            {
              "internalType": "string",
              "name": "email",
              "type": "string"
            },
            {
              "internalType": "string",
              "name": "tellphone",
              "type": "string"
            },
            {
              "internalType": "string",
              "name": "organization",
              "type": "string"
            },
            {
              "internalType": "uint256",
              "name": "rating",
              "type": "uint256"
            },
            {
              "internalType": "uint256[]",
              "name": "permission",
              "type": "uint256[]"
            }
          ],
          "internalType": "struct User[]",
          "name": "_users",
          "type": "tuple[]"
        }
      ],
      "stateMutability": "view",
      "type": "function"
    },
    {
      "inputs": [
        {
          "internalType": "address",
          "name": "addrs",
          "type": "address"
        },
        {
          "internalType": "string",
          "name": "name",
          "type": "string"
        },
        {
          "internalType": "string",
          "name": "avatar",
          "type": "string"
        },
        {
          "internalType": "string",
          "name": "email",
          "type": "string"
        },
        {
          "internalType": "string",
          "name": "tellphone",
          "type": "string"
        },
        {
          "internalType": "string",
          "name": "organization",
          "type": "string"
        }
      ],
      "name": "addUser",
      "outputs": [],
      "stateMutability": "nonpayable",
      "type": "function"
    },
    {
      "inputs": [
        {
          "internalType": "string",
          "name": "name",
          "type": "string"
        },
        {
          "internalType": "string",
          "name": "avatar",
          "type": "string"
        },
        {
          "internalType": "string",
          "name": "email",
          "type": "string"
        },
        {
          "internalType": "string",
          "name": "tellphone",
          "type": "string"
        },
        {
          "internalType": "string",
          "name": "organization",
          "type": "string"
        }
      ],
      "name": "addUser",
      "outputs": [],
      "stateMutability": "nonpayable",
      "type": "function"
    },
    {
      "inputs": [
        {
          "internalType": "string",
          "name": "name",
          "type": "string"
        },
        {
          "internalType": "string",
          "name": "avatar",
          "type": "string"
        },
        {
          "internalType": "string",
          "name": "email",
          "type": "string"
        },
        {
          "internalType": "string",
          "name": "tellphone",
          "type": "string"
        },
        {
          "internalType": "string",
          "name": "organization",
          "type": "string"
        }
      ],
      "name": "updateUser",
      "outputs": [],
      "stateMutability": "nonpayable",
      "type": "function"
    },
    {
      "inputs": [
        {
          "internalType": "address",
          "name": "addrs",
          "type": "address"
        },
        {
          "internalType": "string",
          "name": "name",
          "type": "string"
        },
        {
          "internalType": "string",
          "name": "avatar",
          "type": "string"
        },
        {
          "internalType": "string",
          "name": "email",
          "type": "string"
        },
        {
          "internalType": "string",
          "name": "tellphone",
          "type": "string"
        },
        {
          "internalType": "string",
          "name": "organization",
          "type": "string"
        }
      ],
      "name": "updateUser",
      "outputs": [],
      "stateMutability": "nonpayable",
      "type": "function"
    }
  ],
  "bytecode": "0x608060405261271060055534801561001657600080fd5b50600080546001600160a01b0319163390811782558152600160208190526040909120805460ff191690911790556113c1806100536000396000f3fe608060405234801561001057600080fd5b506004361061009e5760003560e01c806370480275116100665780637048027514610127578063b37a3d821461013a578063bfcecc511461014d578063db76e5d414610160578063f00bd3d31461016857600080fd5b80631785f53c146100a35780631a702aa0146100b85780632bd7d688146100cb5780636d3b5f18146100f45780636f77926b14610114575b600080fd5b6100b66100b1366004610d82565b61017b565b005b6100b66100c6366004610e47565b6101f0565b6100de6100d9366004610f28565b61027d565b6040516100eb91906110a9565b60405180910390f35b61010761010236600461110b565b610347565b6040516100eb9190611124565b610107610122366004610d82565b610758565b6100b6610135366004610d82565b61083b565b6100b6610148366004611137565b6108b1565b6100b661015b366004611137565b6108c6565b6100de6108d4565b6100b6610176366004610e47565b610964565b6000546001600160a01b031633146101cf5760405162461bcd60e51b8152602060048201526012602482015271e99d9ee59088e7baa6e68ba5e69c89e8808560701b60448201526064015b60405180910390fd5b6001600160a01b03166000908152600160205260409020805460ff19169055565b3360009081526001602052604090205460ff166102675760405162461bcd60e51b815260206004820152602f60248201527fe69d83e99990e4b88de8b6b32c20e697a0e6b395e4b8bae4bb96e4babae59cb060448201526ee59d80e5889be5bbbae794a8e688b760881b60648201526084016101c6565b6102758686868686866109e6565b505050505050565b60608167ffffffffffffffff81111561029857610298610da4565b6040519080825280602002602001820160405280156102d157816020015b6102be610d0a565b8152602001906001900390816102b65790505b509050825b60045481101561034057610310600482815481106102f6576102f6611209565b6000918252602090912001546001600160a01b0316610758565b82828151811061032257610322611209565b602002602001018190525080806103389061121f565b9150506102d6565b5092915050565b61034f610d0a565b6000828152600260209081526040808320546001600160a01b03168352600390915281205490036103c25760405162461bcd60e51b815260206004820152601a60248201527fe8afb7e8be93e585a5e69c89e69588e79a84e794a8e688b7494400000000000060448201526064016101c6565b6000828152600260208181526040808420546001600160a01b039081168552600380845294829020825161014081018452815481526001820154909216938201939093529282015490830152918201805491929160608401919061042590611246565b80601f016020809104026020016040519081016040528092919081815260200182805461045190611246565b801561049e5780601f106104735761010080835404028352916020019161049e565b820191906000526020600020905b81548152906001019060200180831161048157829003601f168201915b505050505081526020016004820180546104b790611246565b80601f01602080910402602001604051908101604052809291908181526020018280546104e390611246565b80156105305780601f1061050557610100808354040283529160200191610530565b820191906000526020600020905b81548152906001019060200180831161051357829003601f168201915b5050505050815260200160058201805461054990611246565b80601f016020809104026020016040519081016040528092919081815260200182805461057590611246565b80156105c25780601f10610597576101008083540402835291602001916105c2565b820191906000526020600020905b8154815290600101906020018083116105a557829003601f168201915b505050505081526020016006820180546105db90611246565b80601f016020809104026020016040519081016040528092919081815260200182805461060790611246565b80156106545780601f1061062957610100808354040283529160200191610654565b820191906000526020600020905b81548152906001019060200180831161063757829003601f168201915b5050505050815260200160078201805461066d90611246565b80601f016020809104026020016040519081016040528092919081815260200182805461069990611246565b80156106e65780601f106106bb576101008083540402835291602001916106e6565b820191906000526020600020905b8154815290600101906020018083116106c957829003601f168201915b50505050508152602001600882015481526020016009820180548060200260200160405190810160405280929190818152602001828054801561074857602002820191906000526020600020905b815481526020019060010190808311610734575b5050505050815250509050919050565b610760610d0a565b6001600160a01b03821660009081526003602052604081205490036107e35760405162461bcd60e51b815260206004820152603360248201527fe8afa5e4bba5e5a4aae59d8ae59cb0e59d80e79a84e794a8e688b7e4b8bae7a9604482015272baefbc8ce8afb7e5889be5bbbae794a8e688b760681b60648201526084016101c6565b6001600160a01b03808316600090815260036020818152604092839020835161014081018552815481526001820154909516918501919091526002810154928401929092528101805460608401919061042590611246565b6000546001600160a01b0316331461088a5760405162461bcd60e51b8152602060048201526012602482015271e99d9ee59088e7baa6e68ba5e69c89e8808560701b60448201526064016101c6565b6001600160a01b03166000908152600160208190526040909120805460ff19169091179055565b6108bf3386868686866109e6565b5050505050565b6108bf338686868686610bc2565b60606108ef3360009081526001602052604090205460ff1690565b6109505760405162461bcd60e51b815260206004820152602c60248201527fe69d83e99990e4b88de8b6b32c20e697a0e6b395e88eb7e58f96e68980e69c8960448201526be794a8e688b7e4bfa1e681af60a01b60648201526084016101c6565b60045461095f9060009061027d565b905090565b3360009081526001602052604090205460ff166109d85760405162461bcd60e51b815260206004820152602c60248201527fe69d83e99990e4b88de8b6b32c20e697a0e6b395e4bfaee694b9e585b6e4bb9660448201526be794a8e688b7e4bfa1e681af60a01b60648201526084016101c6565b610275868686868686610bc2565b6001600160a01b03861660009081526003602052604090205415610a6b5760405162461bcd60e51b815260206004820152603660248201527fe8afa5e4bba5e5a4aae59d8ae59cb0e59d80e5b7b2e5ad98e59ca8e794a8e68860448201527505bf7de467457dbf2c5dff4c3c6f2d246f35bddf2c5560551b60648201526084016101c6565b60058054906000610a7b8361121f565b909155505060058054600090815260026020818152604080842080546001600160a01b038d166001600160a01b031991821681179092556004805460018181019092557f8a35acfbc15ff81a39ae7d344fd709f28e8600b4aa8c65c6b64bfe7fe36bd19b01805483168417905582875260039485905292909520918201805490951617909355925482554290820155908101610b1787826112cb565b5060048101610b2686826112cb565b5060058101610b3585826112cb565b5060068101610b4484826112cb565b5060078101610b5383826112cb565b507f31288da5d3e9d68198b1b94ae2537ec67d1d0a344320131f5227a08fea969b04600554604051610bb191906040808252600f908201526ee5b7b2e6b7bbe58aa0e794a8e688b760881b6060820152602081019190915260800190565b60405180910390a150505050505050565b6001600160a01b0386166000908152600360205260408120549003610c485760405162461bcd60e51b815260206004820152603660248201527fe8afa5e4bba5e5a4aae59d8ae59cb0e59d80e69caae5889be5bbbae5b9b3e58f60448201527558745a5373445bf7de467457dbf2c2c472c44df2dddd60511b60648201526084016101c6565b6001600160a01b0386166000908152600360208190526040909120908101610c7087826112cb565b5060048101610c7f86826112cb565b5060058101610c8e85826112cb565b5060068101610c9d84826112cb565b5060078101610cac83826112cb565b507f8c3600b5fd0168e13678b5101b7076382150bca83b9b3803d2fa29518591a84f600554604051610bb191906040808252600f908201526ee5b7b2e4bfaee694b9e794a8e688b760881b6060820152602081019190915260800190565b6040518061014001604052806000815260200160006001600160a01b0316815260200160008152602001606081526020016060815260200160608152602001606081526020016060815260200160008152602001606081525090565b80356001600160a01b0381168114610d7d57600080fd5b919050565b600060208284031215610d9457600080fd5b610d9d82610d66565b9392505050565b634e487b7160e01b600052604160045260246000fd5b600082601f830112610dcb57600080fd5b813567ffffffffffffffff80821115610de657610de6610da4565b604051601f8301601f19908116603f01168101908282118183101715610e0e57610e0e610da4565b81604052838152866020858801011115610e2757600080fd5b836020870160208301376000602085830101528094505050505092915050565b60008060008060008060c08789031215610e6057600080fd5b610e6987610d66565b9550602087013567ffffffffffffffff80821115610e8657600080fd5b610e928a838b01610dba565b96506040890135915080821115610ea857600080fd5b610eb48a838b01610dba565b95506060890135915080821115610eca57600080fd5b610ed68a838b01610dba565b94506080890135915080821115610eec57600080fd5b610ef88a838b01610dba565b935060a0890135915080821115610f0e57600080fd5b50610f1b89828a01610dba565b9150509295509295509295565b60008060408385031215610f3b57600080fd5b50508035926020909101359150565b6000815180845260005b81811015610f7057602081850181015186830182015201610f54565b506000602082860101526020601f19601f83011685010191505092915050565b600081518084526020808501945080840160005b83811015610fc057815187529582019590820190600101610fa4565b509495945050505050565b6000610140825184526020830151610fee60208601826001600160a01b03169052565b5060408301516040850152606083015181606086015261101082860182610f4a565b9150506080830151848203608086015261102a8282610f4a565b91505060a083015184820360a08601526110448282610f4a565b91505060c083015184820360c086015261105e8282610f4a565b91505060e083015184820360e08601526110788282610f4a565b915050610100808401518186015250610120808401518583038287015261109f8382610f90565b9695505050505050565b6000602080830181845280855180835260408601915060408160051b870101925083870160005b828110156110fe57603f198886030184526110ec858351610fcb565b945092850192908501906001016110d0565b5092979650505050505050565b60006020828403121561111d57600080fd5b5035919050565b602081526000610d9d6020830184610fcb565b600080600080600060a0868803121561114f57600080fd5b853567ffffffffffffffff8082111561116757600080fd5b61117389838a01610dba565b9650602088013591508082111561118957600080fd5b61119589838a01610dba565b955060408801359150808211156111ab57600080fd5b6111b789838a01610dba565b945060608801359150808211156111cd57600080fd5b6111d989838a01610dba565b935060808801359150808211156111ef57600080fd5b506111fc88828901610dba565b9150509295509295909350565b634e487b7160e01b600052603260045260246000fd5b60006001820161123f57634e487b7160e01b600052601160045260246000fd5b5060010190565b600181811c9082168061125a57607f821691505b60208210810361127a57634e487b7160e01b600052602260045260246000fd5b50919050565b601f8211156112c657600081815260208120601f850160051c810160208610156112a75750805b601f850160051c820191505b81811015610275578281556001016112b3565b505050565b815167ffffffffffffffff8111156112e5576112e5610da4565b6112f9816112f38454611246565b84611280565b602080601f83116001811461132e57600084156113165750858301515b600019600386901b1c1916600185901b178555610275565b600085815260208120601f198616915b8281101561135d5788860151825594840194600190910190840161133e565b508582101561137b5787850151600019600388901b60f8161c191681555b5050505050600190811b0190555056fea2646970667358221220e983fb2138ed253552f2f13decb26a8c738d53b13d2e43e1e7402d475318058264736f6c63430008120033",
  "immutableReferences": {},
  "source": "// SPDX-License-Identifier: GPL-3.0\r\npragma solidity ^0.8.18; \r\nimport { Authority } from \"./authority.sol\"; \r\n\r\nstruct User {\r\n    // \r\n    uint    id;             // \r\n    address addres;         // \r\n    uint createTime;        // \r\n\r\n    // \r\n    string  name;           // \r\n    string  avatar;\r\n    string  email;\r\n    string  tellphone;\r\n    string  organization;\r\n\r\n    //  \r\n    uint    rating;          //  \r\n    uint[]  permission;      //  \r\n}\r\n\r\ncontract UserContract is Authority {\r\n   \r\n    mapping (uint => address) private userAddr;\r\n    mapping (address => User) private users; \r\n\r\n    address[] private userLst;  \r\n    uint   private userId = 10000; \r\n\r\n    event eventAddUser(string tips, uint userId);\r\n    event eventUpdateUser(string tips, uint userId);\r\n \r\n    // \r\n    function getUserByID(uint usrid) public view returns (User memory) {\r\n        require(users[userAddr[usrid]].id != 0, unicode\"ID\");  \r\n        return users[userAddr[usrid]];\r\n    }\r\n    function getUser(address addrs) public view returns (User memory) {\r\n        require(users[addrs].id != 0, unicode\"\");  \r\n        return users[addrs];\r\n    } \r\n    function getUserBatch(uint startIndex, uint length) public view returns (User[] memory _users) {\r\n        _users = new User[](length);\r\n        for(uint i=startIndex; i<userLst.length; i++) { \r\n            _users[i] = getUser(userLst[i]);\r\n        } \r\n    } \r\n    function getUserAll()  public view returns (User[] memory _users) {\r\n        require(adminer(), unicode\", \");\r\n        return getUserBatch(0, userLst.length); \r\n    } \r\n\r\n\r\n    //  \r\n    function __addUser (\r\n        address addrs,\r\n        string memory name, \r\n        string memory avatar,\r\n        string memory email,\r\n        string memory tellphone,\r\n        string memory organization\r\n    ) private {\r\n        require(users[addrs].id == 0, unicode\"\");\r\n\r\n        userId++; \r\n\r\n        userAddr[userId] = addrs;\r\n        userLst.push(addrs);\r\n\r\n        User storage newUser = users[addrs];\r\n        newUser.addres = addrs;\r\n        newUser.id     = userId;\r\n        newUser.createTime = block.timestamp; \r\n\r\n        newUser.name   = name;\r\n        newUser.avatar = avatar;\r\n        newUser.email     = email;\r\n        newUser.tellphone = tellphone;\r\n        newUser.organization = organization;\r\n        emit eventAddUser(unicode\"\", userId);\r\n    }\r\n    function addUser (\r\n        string memory name,\r\n        string memory avatar,\r\n        string memory email,\r\n        string memory tellphone,\r\n        string memory organization\r\n    ) public {\r\n        __addUser(msg.sender, name, avatar, email, tellphone, organization);\r\n    }\r\n    function addUser (\r\n        address addrs,\r\n        string memory name,\r\n        string memory avatar,\r\n        string memory email,\r\n        string memory tellphone,\r\n        string memory organization\r\n    ) public {  \r\n        require(adminer(), unicode\", \"); \r\n        __addUser(addrs, name, avatar, email, tellphone, organization);\r\n    }\r\n\r\n\r\n    //  \r\n    function __updateUser (\r\n        address addrs,\r\n        string memory name,\r\n        string memory avatar,\r\n        string memory email,\r\n        string memory tellphone,\r\n        string memory organization\r\n    ) private { \r\n        require(users[addrs].id != 0, unicode\"\");\r\n\r\n        User storage user = users[addrs];\r\n\r\n        user.name   = name;\r\n        user.avatar = avatar;\r\n        user.email     = email;\r\n        user.tellphone = tellphone;\r\n        user.organization = organization;\r\n        emit eventUpdateUser(unicode\"\", userId);\r\n    }\r\n    function updateUser ( \r\n        string memory name,\r\n        string memory avatar,\r\n        string memory email,\r\n        string memory tellphone,\r\n        string memory organization\r\n    ) public {\r\n        __updateUser(msg.sender, name, avatar, email, tellphone, organization);\r\n    }\r\n    function updateUser (\r\n        address addrs,\r\n        string memory name,\r\n        string memory avatar,\r\n        string memory email,\r\n        string memory tellphone,\r\n        string memory organization\r\n    ) public { \r\n        require(adminer(), unicode\", \");\r\n        __updateUser(addrs, name, avatar, email, tellphone, organization);\r\n    }\r\n \r\n\r\n}",
  "sourcePath": "d:\\ARK\\Desktop\\EquipShareSystem\\truffle\\contracts\\user.sol",
  "compiler": {
    "name": "solc",
    "version": "0.8.18+commit.87f61d96.Emscripten.clang"
  },
  "schemaVersion": "3.4.14",
  "updatedAt": "2023-06-04T02:20:12.777Z",
  "devdoc": {
    "kind": "dev",
    "methods": {},
    "version": 1
  },
  "userdoc": {
    "kind": "user",
    "methods": {},
    "version": 1
  }
}