{
	"data": {
		"bytecode": {
			"linkReferences": {
				"truffle/contracts/library.sol": {
					"LibArray": [
						{
							"length": 20,
							"start": 11704
						},
						{
							"length": 20,
							"start": 11808
						},
						{
							"length": 20,
							"start": 19453
						},
						{
							"length": 20,
							"start": 20882
						},
						{
							"length": 20,
							"start": 21002
						}
					]
				}
			},
			"object": "6080604052612710600d5562014ff0601355621ede58601455621ede59601c553480156200002c57600080fd5b50600080546001600160a01b031916339081178255815260016020818152604092839020805460ff191690921790915581518083019092526009825268e8999ae68b9fe5b88160b81b908201526003906200008890826200017d565b50604080518082019091526003815262efbfa560e81b6020820152600490620000b290826200017d565b50612710600555620186a060068190553360009081526007602052604090205562000249565b634e487b7160e01b600052604160045260246000fd5b600181811c908216806200010357607f821691505b6020821081036200012457634e487b7160e01b600052602260045260246000fd5b50919050565b601f8211156200017857600081815260208120601f850160051c81016020861015620001535750805b601f850160051c820191505b8181101562000174578281556001016200015f565b5050505b505050565b81516001600160401b03811115620001995762000199620000d8565b620001b181620001aa8454620000ee565b846200012a565b602080601f831160018114620001e95760008415620001d05750858301515b600019600386901b1c1916600185901b17855562000174565b600085815260208120601f198616915b828110156200021a57888601518255948401946001909101908401620001f9565b5085821015620002395787850151600019600388901b60f8161c191681555b5050505050600190811b01905550565b615f8b80620002596000396000f3fe608060405234801561001057600080fd5b50600436106102535760003560e01c8063889d6f2a11610146578063bcad91d0116100c3578063e08ab94011610087578063e08ab9401461056d578063e142e6ae14610580578063e97c75a214610593578063f00bd3d3146105a6578063f8966c4f146105b9578063fc0c546a146105cc57600080fd5b8063bcad91d014610524578063bd5c47301461052c578063bfcecc511461053f578063da61776d14610552578063db76e5d41461056557600080fd5b8063a2fb993f1161010a578063a2fb993f146104d0578063a9059cbb146104e3578063ab5ac52b146104f6578063b3349aab14610509578063b37a3d821461051157600080fd5b8063889d6f2a146104575780638dac3c4b146104775780638dc9a8c21461049757806390701e24146104aa57806393f0b012146104bd57600080fd5b806342cdca6e116101d4578063704802751161019857806370480275146103d557806370a08231146103e857806375a1b5421461041157806381dd2fa01461042457806386f83e8e1461044457600080fd5b806342cdca6e146103695780635aae2cc61461037c57806362aee4ee1461038f5780636d3b5f18146103a25780636f77926b146103c257600080fd5b8063254157531161021b57806325415753146102cf5780632bbd5924146103025780632bd7d688146103235780633737a7bc146103435780633c952fc71461035657600080fd5b806308643487146102585780630d506293146102815780631785f53c146102965780631869f316146102a95780631a702aa0146102bc575b600080fd5b61026b61026636600461526c565b6105e5565b604051610278919061546a565b60405180910390f35b61029461028f3660046154cc565b610669565b005b6102946102a436600461526c565b6106e5565b6102946102b73660046154cc565b61075a565b6102946102ca366004615588565b6107c1565b6102f26102dd36600461526c565b60096020526000908152604090205460ff1681565b6040519015158152602001610278565b610315610310366004615669565b61084e565b604051908152602001610278565b610336610331366004615695565b610f2f565b60405161027891906157c5565b610294610351366004615669565b610ff9565b610294610364366004615669565b61104e565b61026b61037736600461526c565b6110c0565b61029461038a3660046154cc565b61113c565b61029461039d36600461581a565b611164565b6103b56103b03660046154cc565b6111cd565b60405161027891906158eb565b6103b56103d036600461526c565b6115dc565b6102946103e336600461526c565b6116c1565b6103156103f636600461526c565b6001600160a01b031660009081526007602052604090205490565b61029461041f3660046154cc565b611737565b6104376104323660046154cc565b611798565b60405161027891906158fe565b610294610452366004615911565b611b5a565b61046a61046536600461526c565b611c2e565b6040516102789190615a97565b61048a6104853660046154cc565b611cac565b6040516102789190615aec565b6102946104a53660046154cc565b611f30565b6102946104b8366004615695565b612271565b6102946104cb366004615aff565b61228b565b6102946104de3660046154cc565b61229a565b6102f26104f1366004615bbe565b61257e565b6102946105043660046154cc565b612678565b61046a61269b565b61029461051f366004615be8565b6126f9565b61026b61270e565b61046a61053a36600461526c565b612767565b61029461054d366004615be8565b6127e3565b6102946105603660046154cc565b6127f1565b61033661280b565b61029461057b3660046154cc565b612896565b61029461058e3660046154cc565b6128d4565b6102946105a13660046154cc565b612959565b6102946105b4366004615588565b6129c5565b6102946105c73660046154cc565b612a47565b6105d4612c12565b604051610278959493929190615cba565b606061066360106000846001600160a01b03166001600160a01b0316815260200190815260200160002080548060200260200160405190810160405280929190818152602001828054801561065957602002820191906000526020600020905b815481526020019060010190808311610645575b5050505050612d43565b92915050565b610682814261067b8162015180615d10565b6002612e05565b6040805181815260129181019190915271e6ada3e59ca8e7bbb4e4bfaee8aebee5a48760701b6060820152602081018290527fc61de813928be656a9f684ad4be76b148eb74630d92a4fef360a2e90365bbd17906080015b60405180910390a150565b6000546001600160a01b031633146107395760405162461bcd60e51b8152602060048201526012602482015271e99d9ee59088e7baa6e68ba5e69c89e8808560701b60448201526064015b60405180910390fd5b6001600160a01b03166000908152600160205260409020805460ff19169055565b61076581600361336c565b6040805181815260129181019190915271e8aebee5a487e8a7a3e999a4e586bbe7bb9360701b6060820152602081018290527f0d19d6567393ffa30740300b9d0be4881f25e8418d621a82317e779b3c967b41906080016106da565b3360009081526001602052604090205460ff166108385760405162461bcd60e51b815260206004820152602f60248201527fe69d83e99990e4b88de8b6b32c20e697a0e6b395e4b8bae4bb96e4babae59cb060448201526ee59d80e5889be5bbbae794a8e688b760881b6064820152608401610730565b610846868686868686613777565b505050505050565b600061085984613956565b6000848152600e602090815260408083208151610180810183528154815260018201546001600160a01b031693810193909352600281015491830191909152600381015460ff16151560608301526004810180546080840191906108bc90615d23565b80601f01602080910402602001604051908101604052809291908181526020018280546108e890615d23565b80156109355780601f1061090a57610100808354040283529160200191610935565b820191906000526020600020905b81548152906001019060200180831161091857829003601f168201915b5050505050815260200160058201805461094e90615d23565b80601f016020809104026020016040519081016040528092919081815260200182805461097a90615d23565b80156109c75780601f1061099c576101008083540402835291602001916109c7565b820191906000526020600020905b8154815290600101906020018083116109aa57829003601f168201915b505050505081526020016006820180546109e090615d23565b80601f0160208091040260200160405190810160405280929190818152602001828054610a0c90615d23565b8015610a595780601f10610a2e57610100808354040283529160200191610a59565b820191906000526020600020905b815481529060010190602001808311610a3c57829003601f168201915b50505050508152602001600782018054610a7290615d23565b80601f0160208091040260200160405190810160405280929190818152602001828054610a9e90615d23565b8015610aeb5780601f10610ac057610100808354040283529160200191610aeb565b820191906000526020600020905b815481529060010190602001808311610ace57829003601f168201915b505050505081526020016008820154815260200160098201548152602001600a820160405180606001604052908160008201548152602001600182015481526020016002820154815250508152602001600d8201805480602002602001604051908101604052809291908181526020016000905b82821015610bf85760008481526020908190206040805160a08101825260048602909201805483526001810154938301939093526002830154908201526003808301546001600160a01b03811660608401529192916080840191600160a01b90910460ff1690811115610bd457610bd46152cd565b6003811115610be557610be56152cd565b8152505081526020019060010190610b5f565b5050505081525050905083831015610c5c5760405162461bcd60e51b815260206004820152602160248201527fe5bc80e5a78be697b6e997b4e99c80e697a9e4ba8ee7bb93e69d9fe697b6e9976044820152602d60fa1b6064820152608401610730565b6101608101518051600003610c7657600092505050610f28565b80600081518110610c8957610c89615d57565b602002602001015160200151841015610ca757600092505050610f28565b848160018351610cb79190615d6d565b81518110610cc757610cc7615d57565b6020026020010151604001511015610ce357519150610f289050565b60005b60018251610cf49190615d6d565b811015610d8a57600086838381518110610d1057610d10615d57565b602002602001015160400151109050600083836001610d2f9190615d10565b81518110610d3f57610d3f615d57565b60200260200101516020015187109050818015610d595750805b15610d7557610d69836001615d10565b95505050505050610f28565b50508080610d8290615d80565b915050610ce6565b50600381600081518110610da057610da0615d57565b6020026020010151608001516003811115610dbd57610dbd6152cd565b03610e295760405162461bcd60e51b815260206004820152603660248201527fe8afa5e8aebee5a487e5a484e4ba8ee586bbe7bb93e78ab6e68081efbc8ce8af604482015275b7e88194e7b3bbe7aea1e79086e59198e8a7a3e586bb60501b6064820152608401610730565b600281600081518110610e3e57610e3e615d57565b6020026020010151608001516003811115610e5b57610e5b6152cd565b03610ec75760405162461bcd60e51b815260206004820152603660248201527fe8afa5e8aebee5a487e5a484e4ba8ee7bbb4e4bfaee78ab6e68081efbc8ce8af6044820152755bf440ca73d9ddf4575f72d243f34640f34e44f25d5d60511b6064820152608401610730565b60405162461bcd60e51b815260206004820152603060248201527fe8afa5e8aebee5a487e59ca8e68c87e5ae9ae697b6e6aeb5e5b7b2e8a2abe58d60448201526f5073ca5477de4674cecf73d4dd74cbd960811b6064820152608401610730565b9392505050565b60608167ffffffffffffffff811115610f4a57610f4a6154e5565b604051908082528060200260200182016040528015610f8357816020015b610f7061506e565b815260200190600190039081610f685790505b509050825b600c54811015610ff257610fc2600c8281548110610fa857610fa8615d57565b6000918252602090912001546001600160a01b03166115dc565b828281518110610fd457610fd4615d57565b60200260200101819052508080610fea90615d80565b915050610f88565b5092915050565b61100483838361084e565b506000611010336115dc565b9050600061101d85611798565b9050600061102d838387876139b6565b905061104581608001518260c001516040015161257e565b50505050505050565b61105b8383836002612e05565b6040805181815260129181019190915271e6ada3e59ca8e7bbb4e4bfaee8aebee5a48760701b6060820152602081018490527fc61de813928be656a9f684ad4be76b148eb74630d92a4fef360a2e90365bbd17906080015b60405180910390a1505050565b6060610663600f6000846001600160a01b03166001600160a01b031681526020019081526020016000208054806020026020016040519081016040528092919081815260200182805480156106595760200282019190600052602060002090815481526020019060010190808311610645575050505050612d43565b600061114782613de4565b905061115f81608001518260c0015160400151614020565b505050565b3360009081526001602081905260409091205460ff161515146111be5760405162461bcd60e51b81526020600482015260126024820152710e697a0e7aea1e79086e59198e69d83e999960741b6044820152606401610730565b611045878787878787876141c2565b6111d561506e565b6000828152600a60209081526040808320546001600160a01b03168352600b90915281205490036112485760405162461bcd60e51b815260206004820152601a60248201527fe8afb7e8be93e585a5e69c89e69588e79a84e794a8e688b749440000000000006044820152606401610730565b6000828152600a60209081526040808320546001600160a01b039081168452600b835292819020815161014081018352815481526001820154909416928401929092526002820154908301526003810180546060840191906112a990615d23565b80601f01602080910402602001604051908101604052809291908181526020018280546112d590615d23565b80156113225780601f106112f757610100808354040283529160200191611322565b820191906000526020600020905b81548152906001019060200180831161130557829003601f168201915b5050505050815260200160048201805461133b90615d23565b80601f016020809104026020016040519081016040528092919081815260200182805461136790615d23565b80156113b45780601f10611389576101008083540402835291602001916113b4565b820191906000526020600020905b81548152906001019060200180831161139757829003601f168201915b505050505081526020016005820180546113cd90615d23565b80601f01602080910402602001604051908101604052809291908181526020018280546113f990615d23565b80156114465780601f1061141b57610100808354040283529160200191611446565b820191906000526020600020905b81548152906001019060200180831161142957829003601f168201915b5050505050815260200160068201805461145f90615d23565b80601f016020809104026020016040519081016040528092919081815260200182805461148b90615d23565b80156114d85780601f106114ad576101008083540402835291602001916114d8565b820191906000526020600020905b8154815290600101906020018083116114bb57829003601f168201915b505050505081526020016007820180546114f190615d23565b80601f016020809104026020016040519081016040528092919081815260200182805461151d90615d23565b801561156a5780601f1061153f5761010080835404028352916020019161156a565b820191906000526020600020905b81548152906001019060200180831161154d57829003601f168201915b5050505050815260200160088201548152602001600982018054806020026020016040519081016040528092919081815260200182805480156115cc57602002820191906000526020600020905b8154815260200190600101908083116115b8575b5050505050815250509050919050565b6115e461506e565b6001600160a01b0382166000908152600b602052604081205490036116675760405162461bcd60e51b815260206004820152603360248201527fe8afa5e4bba5e5a4aae59d8ae59cb0e59d80e79a84e794a8e688b7e4b8bae7a9604482015272baefbc8ce8afb7e5889be5bbbae794a8e688b760681b6064820152608401610730565b6001600160a01b038083166000908152600b6020908152604091829020825161014081018452815481526001820154909416918401919091526002810154918301919091526003810180546060840191906112a990615d23565b6000546001600160a01b031633146117105760405162461bcd60e51b8152602060048201526012602482015271e99d9ee59088e7baa6e68ba5e69c89e8808560701b6044820152606401610730565b6001600160a01b03166000908152600160208190526040909120805460ff19169091179055565b61174281600261336c565b60408051818152600c918101919091526b72d74673444873ddda725fd760a11b6060820152602081018290527fc75a39ce594d07b358d77d5639b50f5989551bd62799a7852ce9e48c6443e5ec906080016106da565b6117a06150ca565b6117a982613956565b6000828152600e60209081526040918290208251610180810184528154815260018201546001600160a01b031692810192909252600281015492820192909252600382015460ff161515606082015260048201805491929160808401919061181090615d23565b80601f016020809104026020016040519081016040528092919081815260200182805461183c90615d23565b80156118895780601f1061185e57610100808354040283529160200191611889565b820191906000526020600020905b81548152906001019060200180831161186c57829003601f168201915b505050505081526020016005820180546118a290615d23565b80601f01602080910402602001604051908101604052809291908181526020018280546118ce90615d23565b801561191b5780601f106118f05761010080835404028352916020019161191b565b820191906000526020600020905b8154815290600101906020018083116118fe57829003601f168201915b5050505050815260200160068201805461193490615d23565b80601f016020809104026020016040519081016040528092919081815260200182805461196090615d23565b80156119ad5780601f10611982576101008083540402835291602001916119ad565b820191906000526020600020905b81548152906001019060200180831161199057829003601f168201915b505050505081526020016007820180546119c690615d23565b80601f01602080910402602001604051908101604052809291908181526020018280546119f290615d23565b8015611a3f5780601f10611a1457610100808354040283529160200191611a3f565b820191906000526020600020905b815481529060010190602001808311611a2257829003601f168201915b505050505081526020016008820154815260200160098201548152602001600a820160405180606001604052908160008201548152602001600182015481526020016002820154815250508152602001600d8201805480602002602001604051908101604052809291908181526020016000905b82821015611b4c5760008481526020908190206040805160a08101825260048602909201805483526001810154938301939093526002830154908201526003808301546001600160a01b03811660608401529192916080840191600160a01b90910460ff1690811115611b2857611b286152cd565b6003811115611b3957611b396152cd565b8152505081526020019060010190611ab3565b505050915250909392505050565b611b6387613956565b6000878152600e6020526040902060018101546001600160a01b03163314611bdd5760405162461bcd60e51b815260206004820152602760248201527fe99d9ee8aebee5a487e68c81e69c89e4babaefbc8ce697a0e6b395e4bfaee694604482015266b9e4bfa1e681af60c81b6064820152608401610730565b60048101611beb8882615ddf565b5060058101611bfa8782615ddf565b5060068101611c098682615ddf565b5060078101611c188582615ddf565b5060098101929092556008909101555050505050565b606061066360176000846001600160a01b03166001600160a01b03168152602001908152602001600020805480602002602001604051908101604052809291908181526020018280548015611ca257602002820191906000526020600020905b815481526020019060010190808311611c8e575b5050505050614318565b611cb4615158565b611cbd826143ce565b600060156000848152602001908152602001600020604051806101200160405290816000820154815260200160018201548152602001600282018054611d0290615d23565b80601f0160208091040260200160405190810160405280929190818152602001828054611d2e90615d23565b8015611d7b5780601f10611d5057610100808354040283529160200191611d7b565b820191906000526020600020905b815481529060010190602001808311611d5e57829003601f168201915b50505050508152602001600382018054611d9490615d23565b80601f0160208091040260200160405190810160405280929190818152602001828054611dc090615d23565b8015611e0d5780601f10611de257610100808354040283529160200191611e0d565b820191906000526020600020905b815481529060010190602001808311611df057829003601f168201915b505050918352505060048201546001600160a01b03908116602080840191909152600584015490911660408084019190915280516080808201835260068601548252600786015482850152600886015482840152600986015460ff90811615156060848101919091528087019390935283518083018552600a880180548252600b89015496820196909652600c88015494810194909452600d870154919095019492939291840191166002811115611ec757611ec76152cd565b6002811115611ed857611ed86152cd565b90525081526040805160c081018252600e8401548152600f840154602082810191909152601085015492820192909252601184015460608201526012840154608082015260139093015460a084015201529392505050565b600060156000838152602001908152602001600020604051806101200160405290816000820154815260200160018201548152602001600282018054611f7590615d23565b80601f0160208091040260200160405190810160405280929190818152602001828054611fa190615d23565b8015611fee5780601f10611fc357610100808354040283529160200191611fee565b820191906000526020600020905b815481529060010190602001808311611fd157829003601f168201915b5050505050815260200160038201805461200790615d23565b80601f016020809104026020016040519081016040528092919081815260200182805461203390615d23565b80156120805780601f1061205557610100808354040283529160200191612080565b820191906000526020600020905b81548152906001019060200180831161206357829003601f168201915b505050918352505060048201546001600160a01b03908116602080840191909152600584015490911660408084019190915280516080808201835260068601548252600786015482850152600886015482840152600986015460ff90811615156060848101919091528087019390935283518083018552600a880180548252600b89015496820196909652600c88015494810194909452600d87015491909501949293929184019116600281111561213a5761213a6152cd565b600281111561214b5761214b6152cd565b815250508152602001600e82016040518060c001604052908160008201548152602001600182015481526020016002820154815260200160038201548152602001600482015481526020016005820154815250508152505090508060a001516001600160a01b0316336001600160a01b0316146122145760405162461bcd60e51b815260206004820152602160248201527fe99d9ee8aebee5a487e7a79fe794a8e4babaefbc8ce697a0e6b395e588a0e9996044820152602960fa1b6064820152608401610730565b80610100015160a0015160000361226d5760405162461bcd60e51b815260206004820152601e60248201527fe59088e5908ce69caae5ae8ce68890efbc8ce697a0e6b395e588a0e999a400006044820152606401610730565b5050565b61226d8282612284816312cc0300615d10565b6003612e05565b610846338787878787876141c2565b6000601560008381526020019081526020016000206040518061012001604052908160008201548152602001600182015481526020016002820180546122df90615d23565b80601f016020809104026020016040519081016040528092919081815260200182805461230b90615d23565b80156123585780601f1061232d57610100808354040283529160200191612358565b820191906000526020600020905b81548152906001019060200180831161233b57829003601f168201915b5050505050815260200160038201805461237190615d23565b80601f016020809104026020016040519081016040528092919081815260200182805461239d90615d23565b80156123ea5780601f106123bf576101008083540402835291602001916123ea565b820191906000526020600020905b8154815290600101906020018083116123cd57829003601f168201915b505050918352505060048201546001600160a01b03908116602080840191909152600584015490911660408084019190915280516080808201835260068601548252600786015482850152600886015482840152600986015460ff90811615156060848101919091528087019390935283518083018552600a880180548252600b89015496820196909652600c88015494810194909452600d8701549190950194929392918401911660028111156124a4576124a46152cd565b60028111156124b5576124b56152cd565b815250508152602001600e82016040518060c0016040529081600082015481526020016001820154815260200160028201548152602001600382015481526020016004820154815260200160058201548152505081525050905080608001516001600160a01b0316336001600160a01b0316146122145760405162461bcd60e51b815260206004820152602160248201527fe99d9ee8aebee5a487e68c81e69c89e4babaefbc8ce697a0e6b395e588a0e9996044820152602960fa1b6064820152608401610730565b336000908152600760205260408120548211156125dd5760405162461bcd60e51b815260206004820152601860248201527fe682a8e79a84e8b4a6e58fb7e4bd99e9a29de4b88de8b6b300000000000000006044820152606401610730565b33600090815260076020526040812080548492906125fc908490615d6d565b90915550506001600160a01b03831660009081526007602052604081208054849290612629908490615d10565b90915550506040518281526001600160a01b0384169033907fddf252ad1be2c89b69c2b068fc378daa952ba7f163c4a11628f55a4df523b3ef906020015b60405180910390a350600192915050565b60006126838261442b565b905061115f8160a001518260c001516040015161257e565b60606126f46018805480602002602001604051908101604052809291908181526020018280548015611ca25760200282019190600052602060002090815481526020019060010190808311611c8e575050505050614318565b905090565b612707338686868686613777565b5050505050565b60606126f460128054806020026020016040519081016040528092919081815260200182805480156106595760200282019190600052602060002090815481526020019060010190808311610645575050505050612d43565b606061066360166000846001600160a01b03166001600160a01b03168152602001908152602001600020805480602002602001604051908101604052809291908181526020018280548015611ca25760200282019190600052602060002090815481526020019060010190808311611c8e575050505050614318565b61270733868686868661465d565b60006127fc826147a3565b905061226d816020015161496b565b60606128263360009081526001602052604090205460ff1690565b6128875760405162461bcd60e51b815260206004820152602c60248201527fe69d83e99990e4b88de8b6b32c20e697a0e6b395e88eb7e58f96e68980e69c8960448201526be794a8e688b7e4bfa1e681af60a01b6064820152608401610730565b600c546126f490600090610f2f565b60006128a182614a4c565b90506128b98160a001518260c0015160200151614020565b5060208082015160e0830151805192015161226d9290614c7e565b60006128df82614d07565b60c08101516040015160e082015160200151919250906000906129029042615d6d565b9050600a8360c00151604001518261291a9190615e9f565b6129249190615eb6565b61292e9083615d6d565b91506000821161293f576000612941565b815b91506127078360a001518460c001516040015161257e565b61296c8142612284816312cc0300615d10565b60408051818152600f918101919091526ee5b7b2e586bbe7bb93e8aebee5a48760881b6060820152602081018290527f91712bb43158cec3e423c7324d4cbb41da429d5dd6e3d490a74cceff80cc3c05906080016106da565b3360009081526001602052604090205460ff16612a395760405162461bcd60e51b815260206004820152602c60248201527fe69d83e99990e4b88de8b6b32c20e697a0e6b395e4bfaee694b9e585b6e4bb9660448201526be794a8e688b7e4bfa1e681af60a01b6064820152608401610730565b61084686868686868661465d565b612a5081613956565b6000818152600e6020526040902060018101546001600160a01b03163314612aca5760405162461bcd60e51b815260206004820152602760248201527fe99d9ee8aebee5a487e68c81e69c89e4babaefbc8ce697a0e6b395e588a0e999604482015266a4e8aebee5a48760c81b6064820152608401610730565b600d81015415612b315760405162461bcd60e51b815260206004820152602c60248201527fe8aebee5a487e587bae7a79f2fe7bbb4e4bfae2fe586bbe7bb93e4b8adefbc8c60448201526b392e237963ebf962283a666960a21b6064820152608401610730565b336000908152600f602052604090819020905163f3c0d27560e01b815260048101919091526024810183905273__$18908729d89f7e51dc8fcaf14992035bde$__9063f3c0d2759060440160006040518083038186803b158015612b9457600080fd5b505af4158015612ba8573d6000803e3d6000fd5b505060405163f3c0d27560e01b8152601260048201526024810185905273__$18908729d89f7e51dc8fcaf14992035bde$__925063f3c0d275915060440160006040518083038186803b158015612bfe57600080fd5b505af4158015610846573d6000803e3d6000fd5b6002805460038054919291612c2690615d23565b80601f0160208091040260200160405190810160405280929190818152602001828054612c5290615d23565b8015612c9f5780601f10612c7457610100808354040283529160200191612c9f565b820191906000526020600020905b815481529060010190602001808311612c8257829003601f168201915b505050505090806002018054612cb490615d23565b80601f0160208091040260200160405190810160405280929190818152602001828054612ce090615d23565b8015612d2d5780601f10612d0257610100808354040283529160200191612d2d565b820191906000526020600020905b815481529060010190602001808311612d1057829003601f168201915b5050505050908060030154908060040154905085565b6060815167ffffffffffffffff811115612d5f57612d5f6154e5565b604051908082528060200260200182016040528015612d9857816020015b612d856150ca565b815260200190600190039081612d7d5790505b50905060005b8251811015612dff576000838281518110612dbb57612dbb615d57565b60200260200101519050612dce81611798565b838381518110612de057612de0615d57565b6020026020010181905250508080612df790615d80565b915050612d9e565b50919050565b612e0e84613956565b336000908152601160209081526040808320878452909152812090826003811115612e3b57612e3b6152cd565b6003811115612e4c57612e4c6152cd565b815260200190815260200160002054600014612ebf5760405162461bcd60e51b815260206004820152602c60248201527fe8afb7e58bbfe9878de5a48de587bae7a79f2fe7bbb4e4bfae2fe586bbe7bb9360448201526be5bd93e5898de8aebee5a48760a01b6064820152608401610730565b6002816003811115612ed357612ed36152cd565b03612f50576000848152600e60205260409020600101546001600160a01b03163314612f4b5760405162461bcd60e51b815260206004820152602160248201527fe4bb85e8aebee5a487e68c81e69c89e4babae58fafe7bbb4e4bfaee8aebee5a46044820152608760f81b6064820152608401610730565b612fd2565b6003816003811115612f6457612f646152cd565b03612fd2573360009081526001602052604090205460ff16612fd25760405162461bcd60e51b815260206004820152602160248201527fe4bb85e8aebee5a487e7aea1e79086e59198e58fafe586bbe7bb93e8aebee5a46044820152608760f81b6064820152608401610730565b6000848152600e6020526040812090600d820190612ff187878761084e565b60148054919250829190600061300683615d80565b90915550506014543360009081526011602090815260408083208c845290915281209087600381111561303b5761303b6152cd565b600381111561304c5761304c6152cd565b81526020019081526020016000208190555060006040518060a001604052806014548152602001898152602001888152602001336001600160a01b031681526020018760038111156130a0576130a06152cd565b90528454600181810187556000878152602090819020845160049094020192835583015190820155604082015160028201556060820151600380830180546001600160a01b039093166001600160a01b0319841681178255608086015195965086959391926001600160a81b03199092161790600160a01b90849081111561312a5761312a6152cd565b0217905550839150505b845461314290600190615d6d565b8110156132235784818154811061315b5761315b615d57565b9060005260206000209060040201858260016131779190615d10565b8154811061318757613187615d57565b60009182526020909120825460049092020190815560018083015490820155600280830154908201556003808301805482840180546001600160a01b031981166001600160a01b039093169283178255925460ff600160a01b91829004169491936001600160a81b03191690921791908490811115613208576132086152cd565b0217905550905050808061321b90615d80565b915050613134565b508084838154811061323757613237615d57565b60009182526020918290208351600490920201908155908201516001820155604082015160028201556060820151600380830180546001600160a01b039093166001600160a01b031984168117825560808601519391926001600160a81b03199092161790600160a01b9084908111156132b3576132b36152cd565b0217905550600191506132c39050565b8660038111156132d5576132d56152cd565b036132f657600a850180549060006132ec83615d80565b9190505550613361565b600286600381111561330a5761330a6152cd565b0361332157600b850180549060006132ec83615d80565b6003866003811115613335576133356152cd565b0361336157600c8501805490600061334c83615d80565b909155505060038501805460ff191660011790555b505050505050505050565b61337582613956565b3360009081526011602090815260408083208584529091528120818360038111156133a2576133a26152cd565b60038111156133b3576133b36152cd565b815260208082019290925260409081016000908120543382526011845282822087835290935290812091925090818460038111156133f3576133f36152cd565b6003811115613404576134046152cd565b815260200190815260200160002081905550806000036134755760405162461bcd60e51b815260206004820152602660248201527fe69caae9a284e7baa62fe7bbb4e4bfae2fe586bbe7bb93efbc8ce697a0e99c806044820152653a29e8fa666960d21b6064820152608401610730565b6002826003811115613489576134896152cd565b03613506576000838152600e60205260409020600101546001600160a01b031633146135015760405162461bcd60e51b815260206004820152602160248201527fe4bb85e8aebee5a487e68c81e69c89e4babae58fafe5ae8ce68890e7bbb4e4bf6044820152605760f91b6064820152608401610730565b613588565b600382600381111561351a5761351a6152cd565b03613588573360009081526001602052604090205460ff166135885760405162461bcd60e51b815260206004820152602160248201527fe4bb85e8aebee5a487e7aea1e79086e59198e58fafe8a7a3e586bbe8aebee5a46044820152608760f81b6064820152608401610730565b6000838152600e6020526040812090600d8201905b815481101561084657838282815481106135b9576135b9615d57565b9060005260206000209060040201600001540361376557805b82546135e090600190615d6d565b8110156136bf57826135f3826001615d10565b8154811061360357613603615d57565b906000526020600020906004020183828154811061362357613623615d57565b60009182526020909120825460049092020190815560018083015490820155600280830154908201556003808301805482840180546001600160a01b031981166001600160a01b039093169283178255925460ff600160a01b91829004169491936001600160a81b031916909217919084908111156136a4576136a46152cd565b021790555090505080806136b790615d80565b9150506135d2565b5060038282815481106136d4576136d4615d57565b906000526020600020906004020160030160149054906101000a900460ff166003811115613704576137046152cd565b036137165760038301805460ff191690555b8180548061372657613726615ed8565b60008281526020812060046000199093019283020181815560018101829055600281019190915560030180546001600160a81b03191690559055610846565b8061376f81615d80565b91505061359d565b6001600160a01b0386166000908152600b6020526040902054156137fc5760405162461bcd60e51b815260206004820152603660248201527fe8afa5e4bba5e5a4aae59d8ae59cb0e59d80e5b7b2e5ad98e59ca8e794a8e68860448201527505bf7de467457dbf2c5dff4c3c6f2d246f35bddf2c5560551b6064820152608401610730565b600d805490600061380c83615d80565b9091555050600d80546000908152600a6020908152604080832080546001600160a01b038c166001600160a01b03199182168117909255600c805460018181019092557fdf6966c971051c3d54ec59162606531493a51404a002842f56009d7e5cf4a8c7018054831684179055828652600b90945291909320918201805490911690921790915590548155426002820155600381016138ab8782615ddf565b50600481016138ba8682615ddf565b50600581016138c98582615ddf565b50600681016138d88482615ddf565b50600781016138e78382615ddf565b507f31288da5d3e9d68198b1b94ae2537ec67d1d0a344320131f5227a08fea969b04600d5460405161394591906040808252600f908201526ee5b7b2e6b7bbe58aa0e794a8e688b760881b6060820152602081019190915260800190565b60405180910390a150505050505050565b6000818152600e602052604081205490036139b35760405162461bcd60e51b815260206004820152601a60248201527fe8afb7e8be93e585a5e69c89e69588e79a84e8aebee5a48749440000000000006044820152606401610730565b50565b6139be615158565b601c80549060006139ce83615d80565b9091555050601c80546018805460018181019092557fb13d2d76d1f4b7be834882e410b3e3a8afaf69f83600ae24db354391d2378d2e0182905533600081815260166020908152604080832080548087018255908452828420019590955589810180516001600160a01b039081168452601783528684208854815480890183559186528486209091015596548084526015909252949091209081558851928101929092559151600482018054919094166001600160a01b03199182161790935560058101805490931690911790915560808501516002820190613ab19082615ddf565b5060608601516003820190613ac69082615ddf565b5061012085015160088201556101008501516006820155610e10613aea8585615d6d565b866101000151613afa9190615e9f565b613b049190615eb6565b6007820155600a8101849055600b810183905542600e820155601c546040517f3b053ad98a557ecda536a08edc3b0b945f9e8b5028a9b19f5e45680f2bce81fd91613b7a916040808252600f908201526e396decb96226f96eeeb96422396423608a1b6060820152602081019190915260800190565b60405180910390a180604051806101200160405290816000820154815260200160018201548152602001600282018054613bb390615d23565b80601f0160208091040260200160405190810160405280929190818152602001828054613bdf90615d23565b8015613c2c5780601f10613c0157610100808354040283529160200191613c2c565b820191906000526020600020905b815481529060010190602001808311613c0f57829003601f168201915b50505050508152602001600382018054613c4590615d23565b80601f0160208091040260200160405190810160405280929190818152602001828054613c7190615d23565b8015613cbe5780601f10613c9357610100808354040283529160200191613cbe565b820191906000526020600020905b815481529060010190602001808311613ca157829003601f168201915b505050918352505060048201546001600160a01b03908116602080840191909152600584015490911660408084019190915280516080808201835260068601548252600786015482850152600886015482840152600986015460ff90811615156060848101919091528087019390935283518083018552600a880180548252600b89015496820196909652600c88015494810194909452600d870154919095019492939291840191166002811115613d7857613d786152cd565b6002811115613d8957613d896152cd565b90525081526040805160c081018252600e8401548152600f840154602080830191909152601085015492820192909252601184015460608201526012840154608082015260139093015460a084015201529695505050505050565b613dec615158565b613df5826143ce565b600082815260156020526040902060058101546001600160a01b03163314613e695760405162461bcd60e51b815260206004820152602160248201527fe99d9ee7a79fe8b581e4babaefbc8ce6b2a1e69c89e58f96e6b688e69d83e9996044820152600960fc1b6064820152608401610730565b600e810154600003613ec95760405162461bcd60e51b8152602060048201526024808201527fe697a0e69588e79a84e7a79fe8b581e59088e5908cefbc8ce697a0e6b395e58f60448201526312dcd6d160e31b6064820152608401610730565b601081015415613f275760405162461bcd60e51b8152602060048201526024808201527fe7a79fe8b581e794b3e8afb7e5b7b2e9809ae8bf87efbc8ce697a0e6b395e58f60448201526312dcd6d160e31b6064820152608401610730565b601181015415613f855760405162461bcd60e51b8152602060048201526024808201527fe7a79fe8b581e794b3e8afb7e5b7b2e68b92e7bb9defbc8ce697a0e6b395e58f60448201526312dcd6d160e31b6064820152608401610730565b42600f8201556040517fa30b81acd7ed0623bdd70b853a9e9758ec399c41886b0b1e6cec4113efd4e7d390613fe79085906040808252600f908201526e396decb963e5b9ada2396422396423608a1b6060820152602081019190915260800190565b60405180910390a180604051806101200160405290816000820154815260200160018201548152602001600282018054611d0290615d23565b6001600160a01b038216600090815260086020908152604080832033845290915281205482111561408b5760405162461bcd60e51b8152602060048201526015602482015274e5b7b2e68e88e69d83e4bd99e9a29de4b88de8b6b360581b6044820152606401610730565b6001600160a01b0383166000908152600760205260409020548211156140f35760405162461bcd60e51b815260206004820152601860248201527fe68980e68f90e8b4a6e688b7e4bd99e9a29de4b88de8b6b300000000000000006044820152606401610730565b6001600160a01b038316600090815260086020908152604080832033845290915281208054849290614126908490615d6d565b90915550506001600160a01b03831660009081526007602052604081208054849290614153908490615d6d565b90915550506001600160a01b03831660009081526007602052604081208054849290614180908490615d10565b909155505060405182815233906001600160a01b038516907fddf252ad1be2c89b69c2b068fc378daa952ba7f163c4a11628f55a4df523b3ef90602001612667565b601380549060006141d283615d80565b90915550506001600160a01b0387166000818152600f6020908152604080832060138054825460018181018555938752858720015554601280548084019091557fbb8a6a4669ba250d26cd7a459eca9d215f8307e33aebe50379bc5a3617ec344401819055808552600e909352922090815590810180546001600160a01b0319169092179091554260028201556004810161426d8882615ddf565b506005810161427c8782615ddf565b506006810161428b8682615ddf565b506007810161429a8582615ddf565b5060098101839055600881018290556013546040517f48de5ee750dcbeddea3134837e8d0af178257cd8a90a37bd400f6c6e3713a24391614306916040808252600f908201526ee5b7b2e6b7bbe58aa0e8aebee5a48760881b6060820152602081019190915260800190565b60405180910390a15050505050505050565b6060815167ffffffffffffffff811115614334576143346154e5565b60405190808252806020026020018201604052801561436d57816020015b61435a615158565b8152602001906001900390816143525790505b50905060005b8251811015612dff5761439e83828151811061439157614391615d57565b6020026020010151611cac565b8282815181106143b0576143b0615d57565b602002602001018190525080806143c690615d80565b915050614373565b60008181526015602052604081205490036139b35760405162461bcd60e51b815260206004820152601a60248201527fe8afb7e8be93e585a5e69c89e69588e79a84e4baa4e6989349440000000000006044820152606401610730565b614433615158565b61443c826143ce565b601a8054600181019091557f057c384a7d1c54f3a1b2e5e67b2617b8224fdfd1ea7234eea573a6ff665ff63e01829055600082815260156020526040902060048101546001600160a01b031633146144d65760405162461bcd60e51b815260206004820152601e60248201527fe99d9ee59088e7baa6e4b8bbe4babaefbc8ce697a0e6b395e68b92e7bb9d00006044820152606401610730565b600e81015460000361452e5760405162461bcd60e51b815260206004820152602d6024820152600080516020615f3683398151915260448201526c2579a2e4b9eee7796422396423609a1b6064820152608401610730565b6010810154156145965760405162461bcd60e51b815260206004820152602d60248201527fe6ada4e7a79fe8b581e59088e5908ce5b7b2e9809ae8bf87efbc8ce697a0e6b360448201526c2579a2e4b9eee7796422396423609a1b6064820152608401610730565b6011810154156145fe5760405162461bcd60e51b815260206004820152602d60248201527fe6ada4e7a79fe8b581e59088e5908ce5b7b2e68b92e7bb9defbc8ce8afb7e58b60448201526cbfe9878de5a48de68b92e7bb9d60981b6064820152608401610730565b42601182015560408051818152600f918101919091526ee59088e5908ce5b7b2e68b92e7bb9d60881b6060820152602081018490527f5909a798e5a0757a7abeda4054d82acd72c1a50609a6233b5f5e514e750f86a390608001613fe7565b6001600160a01b0386166000908152600b602052604081205490036146e35760405162461bcd60e51b815260206004820152603660248201527fe8afa5e4bba5e5a4aae59d8ae59cb0e59d80e69caae5889be5bbbae5b9b3e58f60448201527558745a5373445bf7de467457dbf2c2c472c44df2dddd60511b6064820152608401610730565b6001600160a01b0386166000908152600b60205260409020600381016147098782615ddf565b50600481016147188682615ddf565b50600581016147278582615ddf565b50600681016147368482615ddf565b50600781016147458382615ddf565b507f8c3600b5fd0168e13678b5101b7076382150bca83b9b3803d2fa29518591a84f600d5460405161394591906040808252600f908201526ee5b7b2e4bfaee694b9e794a8e688b760881b6060820152602081019190915260800190565b6147ab615158565b6147b4826143ce565b600082815260156020526040902060058101546001600160a01b031633146148285760405162461bcd60e51b815260206004820152602160248201527fe697a0e6b395e5bd92e8bf98efbc8ce99d9ee8aebee5a487e7a79fe8b581e8806044820152608560f81b6064820152608401610730565b600e8101546000036148805760405162461bcd60e51b815260206004820152602d6024820152600080516020615f3683398151915260448201526c95e58f91e8b5b7e7bb93e69d9f60981b6064820152608401610730565b60108101546000036148ea5760405162461bcd60e51b815260206004820152602d60248201527fe6ada4e7a79fe8b581e59088e5908ce69caae9809ae8bf87efbc8ce697a0e6b360448201526c95e58f91e8b5b7e7bb93e69d9f60981b6064820152608401610730565b60138101541561490c5760405162461bcd60e51b815260040161073090615eee565b42601282015560408051818152600f918101919091526e0e59088e5908ce5be85e5ae8ce6889608c1b6060820152602081018490527f1f14526ddd67e6268764bbad05e9e2c5ab3ab842567ddb8db3bb0ad6751e4b3b90608001613fe7565b61497681600161336c565b3360009081526010602052604090819020905163f3c0d27560e01b815260048101919091526024810182905273__$18908729d89f7e51dc8fcaf14992035bde$__9063f3c0d2759060440160006040518083038186803b1580156149d957600080fd5b505af41580156149ed573d6000803e3d6000fd5b505050507f81018ec03d734d80c5d83a19f8f55c74dda767070b930a6fde241f1762525e86816040516106da91906040808252600f908201526ee5b7b2e5bd92e8bf98e8aebee5a48760881b6060820152602081019190915260800190565b614a54615158565b614a5d826143ce565b60198054600181019091557f944998273e477b495144fb8794c914197f3ccb46be2900f4698fd0ef743c969501829055600082815260156020526040902060048101546001600160a01b03163314614af75760405162461bcd60e51b815260206004820152601e60248201527fe99d9ee59088e7baa6e4b8bbe4babaefbc8ce697a0e6b395e5908ce6848f00006044820152606401610730565b600e810154600003614b4f5760405162461bcd60e51b815260206004820152602d6024820152600080516020615f3683398151915260448201526c257a6026ba2fe1f96422396423609a1b6064820152608401610730565b601081015415614bb75760405162461bcd60e51b815260206004820152602d60248201527fe6ada4e7a79fe8b581e59088e5908ce5b7b2e9809ae8bf87efbc8ce8afb7e58b60448201526cbfe9878de5a48de9809ae8bf8760981b6064820152608401610730565b601181015415614c1f5760405162461bcd60e51b815260206004820152602d60248201527fe6ada4e7a79fe8b581e59088e5908ce5b7b2e68b92e7bb9defbc8ce697a0e6b360448201526c257a6026ba2fe1f96422396423609a1b6064820152608401610730565b42601082015560408051818152600f918101919091526ee59088e5908ce5b7b2e9809ae8bf8760881b6060820152602081018490527fb41ab994283aa50642f802b623fd6d05fffc9aec8b1bd9239904e9ecf22c9f5e90608001613fe7565b614c8b8383836001612e05565b3360009081526010602090815260408083208054600181018255908452928290209092018590558151828152600f928101929092526ee5b7b2e587bae7a79fe8aebee5a48760881b606083015281018490527fe07bf1f6eaac6e2d99a879d33fb62aea3a64d2a4cb0e7a9c71f75d5812199522906080016110b3565b614d0f615158565b614d18826143ce565b601b8054600181019091557f3ad8aa4f87544323a9d1e5dd902f40c356527a7955687113db5f9a85ad579dc101829055600082815260156020526040902060048101546001600160a01b03163314614dc25760405162461bcd60e51b815260206004820152602760248201527fe99d9ee8aebee5a487e68c81e69c89e4babaefbc8ce697a0e6b395e5ae8ce6886044820152664874d546734a5b60c91b6064820152608401610730565b600b810154421015614e0e5760405162461bcd60e51b8152602060048201526015602482015274e7a79fe8b581e697b6e997b4e69caae588b0e69c9f60581b6044820152606401610730565b600e810154600003614e665760405162461bcd60e51b815260206004820152602d6024820152600080516020615f3683398151915260448201526c25796ba339a224396422396423609a1b6064820152608401610730565b6010810154600003614ed95760405162461bcd60e51b815260206004820152603660248201527fe6ada4e7a79fe8b581e59088e5908ce8bf98e69caae5aea1e6a0b8e9809ae8bf60448201527521fbef2339a5e839ace5796ba339a22439642239642360521b6064820152608401610730565b601381015415614efb5760405162461bcd60e51b815260040161073090615eee565b4260138201556004808201546001600160a01b031660009081526017602052604090819020905163f3c0d27560e01b8152918201526024810184905273__$18908729d89f7e51dc8fcaf14992035bde$__9063f3c0d2759060440160006040518083038186803b158015614f6e57600080fd5b505af4158015614f82573d6000803e3d6000fd5b50505060058201546001600160a01b031660009081526016602052604090819020905163f3c0d27560e01b815273__$18908729d89f7e51dc8fcaf14992035bde$__925063f3c0d27591614fe3918790600401918252602082015260400190565b60006040518083038186803b158015614ffb57600080fd5b505af415801561500f573d6000803e3d6000fd5b505050507f63440b92d7e7d449e507be5abfc9f9cdfff236ba2de82dc481f75d7fa655a95683604051613fe791906040808252600f908201526e0e59088e5908ce5b7b2e5ae8ce6889608c1b6060820152602081019190915260800190565b6040518061014001604052806000815260200160006001600160a01b0316815260200160008152602001606081526020016060815260200160608152602001606081526020016060815260200160008152602001606081525090565b6040518061018001604052806000815260200160006001600160a01b031681526020016000815260200160001515815260200160608152602001606081526020016060815260200160608152602001600081526020016000815260200161514b60405180606001604052806000815260200160008152602001600081525090565b8152602001606081525090565b6040518061012001604052806000815260200160008152602001606081526020016060815260200160006001600160a01b0316815260200160006001600160a01b031681526020016151cd60405180608001604052806000815260200160008152602001600081526020016000151581525090565b81526020016151da61521d565b81526020016152186040518060c001604052806000815260200160008152602001600081526020016000815260200160008152602001600081525090565b905290565b604051806080016040528060008152602001600081526020016000815260200160006002811115615218576152186152cd565b80356001600160a01b038116811461526757600080fd5b919050565b60006020828403121561527e57600080fd5b610f2882615250565b6000815180845260005b818110156152ad57602081850181015186830182015201615291565b506000602082860101526020601f19601f83011685010191505092915050565b634e487b7160e01b600052602160045260246000fd5b600081518084526020808501945080840160005b83811015615356578151805188528381015184890152604080820151908901526060808201516001600160a01b0316908901526080908101519060048210615341576153416152cd565b88015260a090960195908201906001016152f7565b509495945050505050565b60006101c082518452602083015161538460208601826001600160a01b03169052565b506040830151604085015260608301516153a2606086018215159052565b5060808301518160808601526153ba82860182615287565b91505060a083015184820360a08601526153d48282615287565b91505060c083015184820360c08601526153ee8282615287565b91505060e083015184820360e08601526154088282615287565b610100858101519087015261012080860151908701526101408086015180518289015260208101516101608901526040810151610180890152919350915050506101608301518482036101a086015261546182826152e3565b95945050505050565b6000602080830181845280855180835260408601915060408160051b870101925083870160005b828110156154bf57603f198886030184526154ad858351615361565b94509285019290850190600101615491565b5092979650505050505050565b6000602082840312156154de57600080fd5b5035919050565b634e487b7160e01b600052604160045260246000fd5b600082601f83011261550c57600080fd5b813567ffffffffffffffff80821115615527576155276154e5565b604051601f8301601f19908116603f0116810190828211818310171561554f5761554f6154e5565b8160405283815286602085880101111561556857600080fd5b836020870160208301376000602085830101528094505050505092915050565b60008060008060008060c087890312156155a157600080fd5b6155aa87615250565b9550602087013567ffffffffffffffff808211156155c757600080fd5b6155d38a838b016154fb565b965060408901359150808211156155e957600080fd5b6155f58a838b016154fb565b9550606089013591508082111561560b57600080fd5b6156178a838b016154fb565b9450608089013591508082111561562d57600080fd5b6156398a838b016154fb565b935060a089013591508082111561564f57600080fd5b5061565c89828a016154fb565b9150509295509295509295565b60008060006060848603121561567e57600080fd5b505081359360208301359350604090920135919050565b600080604083850312156156a857600080fd5b50508035926020909101359150565b600081518084526020808501945080840160005b83811015615356578151875295820195908201906001016156cb565b600061014082518452602083015161570a60208601826001600160a01b03169052565b5060408301516040850152606083015181606086015261572c82860182615287565b915050608083015184820360808601526157468282615287565b91505060a083015184820360a08601526157608282615287565b91505060c083015184820360c086015261577a8282615287565b91505060e083015184820360e08601526157948282615287565b91505061010080840151818601525061012080840151858303828701526157bb83826156b7565b9695505050505050565b6000602080830181845280855180835260408601915060408160051b870101925083870160005b828110156154bf57603f198886030184526158088583516156e7565b945092850192908501906001016157ec565b600080600080600080600060e0888a03121561583557600080fd5b61583e88615250565b9650602088013567ffffffffffffffff8082111561585b57600080fd5b6158678b838c016154fb565b975060408a013591508082111561587d57600080fd5b6158898b838c016154fb565b965060608a013591508082111561589f57600080fd5b6158ab8b838c016154fb565b955060808a01359150808211156158c157600080fd5b506158ce8a828b016154fb565b93505060a0880135915060c0880135905092959891949750929550565b602081526000610f2860208301846156e7565b602081526000610f286020830184615361565b600080600080600080600060e0888a03121561592c57600080fd5b87359650602088013567ffffffffffffffff8082111561585b57600080fd5b805182526020810151602083015260408101516040830152606081015160038110615978576159786152cd565b806060840152505050565b6000610280825184526020830151602085015260408301518160408601526159ad82860182615287565b915050606083015184820360608601526159c78282615287565b91505060808301516159e460808601826001600160a01b03169052565b5060a08301516159ff60a08601826001600160a01b03169052565b5060c0830151615a3560c08601828051825260208101516020830152604081015160408301526060810151151560608301525050565b5060e0830151615a4961014086018261594b565b5061010083015180516101c086015260208101516101e086015260408101516102008601526060810151610220860152608081015161024086015260a0810151610260860152509392505050565b6000602080830181845280855180835260408601915060408160051b870101925083870160005b828110156154bf57603f19888603018452615ada858351615983565b94509285019290850190600101615abe565b602081526000610f286020830184615983565b60008060008060008060c08789031215615b1857600080fd5b863567ffffffffffffffff80821115615b3057600080fd5b615b3c8a838b016154fb565b97506020890135915080821115615b5257600080fd5b615b5e8a838b016154fb565b96506040890135915080821115615b7457600080fd5b615b808a838b016154fb565b95506060890135915080821115615b9657600080fd5b50615ba389828a016154fb565b9350506080870135915060a087013590509295509295509295565b60008060408385031215615bd157600080fd5b615bda83615250565b946020939093013593505050565b600080600080600060a08688031215615c0057600080fd5b853567ffffffffffffffff80821115615c1857600080fd5b615c2489838a016154fb565b96506020880135915080821115615c3a57600080fd5b615c4689838a016154fb565b95506040880135915080821115615c5c57600080fd5b615c6889838a016154fb565b94506060880135915080821115615c7e57600080fd5b615c8a89838a016154fb565b93506080880135915080821115615ca057600080fd5b50615cad888289016154fb565b9150509295509295909350565b85815260a060208201526000615cd360a0830187615287565b8281036040840152615ce58187615287565b60608401959095525050608001529392505050565b634e487b7160e01b600052601160045260246000fd5b8082018082111561066357610663615cfa565b600181811c90821680615d3757607f821691505b602082108103612dff57634e487b7160e01b600052602260045260246000fd5b634e487b7160e01b600052603260045260246000fd5b8181038181111561066357610663615cfa565b600060018201615d9257615d92615cfa565b5060010190565b601f82111561115f57600081815260208120601f850160051c81016020861015615dc05750805b601f850160051c820191505b8181101561084657828155600101615dcc565b815167ffffffffffffffff811115615df957615df96154e5565b615e0d81615e078454615d23565b84615d99565b602080601f831160018114615e425760008415615e2a5750858301515b600019600386901b1c1916600185901b178555610846565b600085815260208120601f198616915b82811015615e7157888601518255948401946001909101908401615e52565b5085821015615e8f5787850151600019600388901b60f8161c191681555b5050505050600190811b01905550565b808202811582820484141761066357610663615cfa565b600082615ed357634e487b7160e01b600052601260045260246000fd5b500490565b634e487b7160e01b600052603160045260246000fd5b60208082526027908201527fe5bd92e8bf98e99499e8afafefbc8ce6ada4e7a79fe8b581e59088e5908ce5b76040820152660b2e5ae8ce688960cc1b60608201526080019056fee6ada4e4b8bae697a0e69588e7a79fe8b581e59088e5908cefbc8ce697a0e6b3a26469706673582212202571731810e7dc4e1782fb9f152724aebd0df9a26dc3c6088fa878ac116ac79a64736f6c63430008120033",
			"opcodes": "PUSH1 0x80 PUSH1 0x40 MSTORE PUSH2 0x2710 PUSH1 0xD SSTORE PUSH3 0x14FF0 PUSH1 0x13 SSTORE PUSH3 0x1EDE58 PUSH1 0x14 SSTORE PUSH3 0x1EDE59 PUSH1 0x1C SSTORE CALLVALUE DUP1 ISZERO PUSH3 0x2C JUMPI PUSH1 0x0 DUP1 REVERT JUMPDEST POP PUSH1 0x0 DUP1 SLOAD PUSH1 0x1 PUSH1 0x1 PUSH1 0xA0 SHL SUB NOT AND CALLER SWAP1 DUP2 OR DUP3 SSTORE DUP2 MSTORE PUSH1 0x1 PUSH1 0x20 DUP2 DUP2 MSTORE PUSH1 0x40 SWAP3 DUP4 SWAP1 KECCAK256 DUP1 SLOAD PUSH1 0xFF NOT AND SWAP1 SWAP3 OR SWAP1 SWAP2 SSTORE DUP2 MLOAD DUP1 DUP4 ADD SWAP1 SWAP3 MSTORE PUSH1 0x9 DUP3 MSTORE PUSH9 0xE8999AE68B9FE5B881 PUSH1 0xB8 SHL SWAP1 DUP3 ADD MSTORE PUSH1 0x3 SWAP1 PUSH3 0x88 SWAP1 DUP3 PUSH3 0x17D JUMP JUMPDEST POP PUSH1 0x40 DUP1 MLOAD DUP1 DUP3 ADD SWAP1 SWAP2 MSTORE PUSH1 0x3 DUP2 MSTORE PUSH3 0xEFBFA5 PUSH1 0xE8 SHL PUSH1 0x20 DUP3 ADD MSTORE PUSH1 0x4 SWAP1 PUSH3 0xB2 SWAP1 DUP3 PUSH3 0x17D JUMP JUMPDEST POP PUSH2 0x2710 PUSH1 0x5 SSTORE PUSH3 0x186A0 PUSH1 0x6 DUP2 SWAP1 SSTORE CALLER PUSH1 0x0 SWAP1 DUP2 MSTORE PUSH1 0x7 PUSH1 0x20 MSTORE PUSH1 0x40 SWAP1 KECCAK256 SSTORE PUSH3 0x249 JUMP JUMPDEST PUSH4 0x4E487B71 PUSH1 0xE0 SHL PUSH1 0x0 MSTORE PUSH1 0x41 PUSH1 0x4 MSTORE PUSH1 0x24 PUSH1 0x0 REVERT JUMPDEST PUSH1 0x1 DUP2 DUP2 SHR SWAP1 DUP3 AND DUP1 PUSH3 0x103 JUMPI PUSH1 0x7F DUP3 AND SWAP2 POP JUMPDEST PUSH1 0x20 DUP3 LT DUP2 SUB PUSH3 0x124 JUMPI PUSH4 0x4E487B71 PUSH1 0xE0 SHL PUSH1 0x0 MSTORE PUSH1 0x22 PUSH1 0x4 MSTORE PUSH1 0x24 PUSH1 0x0 REVERT JUMPDEST POP SWAP2 SWAP1 POP JUMP JUMPDEST PUSH1 0x1F DUP3 GT ISZERO PUSH3 0x178 JUMPI PUSH1 0x0 DUP2 DUP2 MSTORE PUSH1 0x20 DUP2 KECCAK256 PUSH1 0x1F DUP6 ADD PUSH1 0x5 SHR DUP2 ADD PUSH1 0x20 DUP7 LT ISZERO PUSH3 0x153 JUMPI POP DUP1 JUMPDEST PUSH1 0x1F DUP6 ADD PUSH1 0x5 SHR DUP3 ADD SWAP2 POP JUMPDEST DUP2 DUP2 LT ISZERO PUSH3 0x174 JUMPI DUP3 DUP2 SSTORE PUSH1 0x1 ADD PUSH3 0x15F JUMP JUMPDEST POP POP POP JUMPDEST POP POP POP JUMP JUMPDEST DUP2 MLOAD PUSH1 0x1 PUSH1 0x1 PUSH1 0x40 SHL SUB DUP2 GT ISZERO PUSH3 0x199 JUMPI PUSH3 0x199 PUSH3 0xD8 JUMP JUMPDEST PUSH3 0x1B1 DUP2 PUSH3 0x1AA DUP5 SLOAD PUSH3 0xEE JUMP JUMPDEST DUP5 PUSH3 0x12A JUMP JUMPDEST PUSH1 0x20 DUP1 PUSH1 0x1F DUP4 GT PUSH1 0x1 DUP2 EQ PUSH3 0x1E9 JUMPI PUSH1 0x0 DUP5 ISZERO PUSH3 0x1D0 JUMPI POP DUP6 DUP4 ADD MLOAD JUMPDEST PUSH1 0x0 NOT PUSH1 0x3 DUP7 SWAP1 SHL SHR NOT AND PUSH1 0x1 DUP6 SWAP1 SHL OR DUP6 SSTORE PUSH3 0x174 JUMP JUMPDEST PUSH1 0x0 DUP6 DUP2 MSTORE PUSH1 0x20 DUP2 KECCAK256 PUSH1 0x1F NOT DUP7 AND SWAP2 JUMPDEST DUP3 DUP2 LT ISZERO PUSH3 0x21A JUMPI DUP9 DUP7 ADD MLOAD DUP3 SSTORE SWAP5 DUP5 ADD SWAP5 PUSH1 0x1 SWAP1 SWAP2 ADD SWAP1 DUP5 ADD PUSH3 0x1F9 JUMP JUMPDEST POP DUP6 DUP3 LT ISZERO PUSH3 0x239 JUMPI DUP8 DUP6 ADD MLOAD PUSH1 0x0 NOT PUSH1 0x3 DUP9 SWAP1 SHL PUSH1 0xF8 AND SHR NOT AND DUP2 SSTORE JUMPDEST POP POP POP POP POP PUSH1 0x1 SWAP1 DUP2 SHL ADD SWAP1 SSTORE POP JUMP JUMPDEST PUSH2 0x5F8B DUP1 PUSH3 0x259 PUSH1 0x0 CODECOPY PUSH1 0x0 RETURN INVALID PUSH1 0x80 PUSH1 0x40 MSTORE CALLVALUE DUP1 ISZERO PUSH2 0x10 JUMPI PUSH1 0x0 DUP1 REVERT JUMPDEST POP PUSH1 0x4 CALLDATASIZE LT PUSH2 0x253 JUMPI PUSH1 0x0 CALLDATALOAD PUSH1 0xE0 SHR DUP1 PUSH4 0x889D6F2A GT PUSH2 0x146 JUMPI DUP1 PUSH4 0xBCAD91D0 GT PUSH2 0xC3 JUMPI DUP1 PUSH4 0xE08AB940 GT PUSH2 0x87 JUMPI DUP1 PUSH4 0xE08AB940 EQ PUSH2 0x56D JUMPI DUP1 PUSH4 0xE142E6AE EQ PUSH2 0x580 JUMPI DUP1 PUSH4 0xE97C75A2 EQ PUSH2 0x593 JUMPI DUP1 PUSH4 0xF00BD3D3 EQ PUSH2 0x5A6 JUMPI DUP1 PUSH4 0xF8966C4F EQ PUSH2 0x5B9 JUMPI DUP1 PUSH4 0xFC0C546A EQ PUSH2 0x5CC JUMPI PUSH1 0x0 DUP1 REVERT JUMPDEST DUP1 PUSH4 0xBCAD91D0 EQ PUSH2 0x524 JUMPI DUP1 PUSH4 0xBD5C4730 EQ PUSH2 0x52C JUMPI DUP1 PUSH4 0xBFCECC51 EQ PUSH2 0x53F JUMPI DUP1 PUSH4 0xDA61776D EQ PUSH2 0x552 JUMPI DUP1 PUSH4 0xDB76E5D4 EQ PUSH2 0x565 JUMPI PUSH1 0x0 DUP1 REVERT JUMPDEST DUP1 PUSH4 0xA2FB993F GT PUSH2 0x10A JUMPI DUP1 PUSH4 0xA2FB993F EQ PUSH2 0x4D0 JUMPI DUP1 PUSH4 0xA9059CBB EQ PUSH2 0x4E3 JUMPI DUP1 PUSH4 0xAB5AC52B EQ PUSH2 0x4F6 JUMPI DUP1 PUSH4 0xB3349AAB EQ PUSH2 0x509 JUMPI DUP1 PUSH4 0xB37A3D82 EQ PUSH2 0x511 JUMPI PUSH1 0x0 DUP1 REVERT JUMPDEST DUP1 PUSH4 0x889D6F2A EQ PUSH2 0x457 JUMPI DUP1 PUSH4 0x8DAC3C4B EQ PUSH2 0x477 JUMPI DUP1 PUSH4 0x8DC9A8C2 EQ PUSH2 0x497 JUMPI DUP1 PUSH4 0x90701E24 EQ PUSH2 0x4AA JUMPI DUP1 PUSH4 0x93F0B012 EQ PUSH2 0x4BD JUMPI PUSH1 0x0 DUP1 REVERT JUMPDEST DUP1 PUSH4 0x42CDCA6E GT PUSH2 0x1D4 JUMPI DUP1 PUSH4 0x70480275 GT PUSH2 0x198 JUMPI DUP1 PUSH4 0x70480275 EQ PUSH2 0x3D5 JUMPI DUP1 PUSH4 0x70A08231 EQ PUSH2 0x3E8 JUMPI DUP1 PUSH4 0x75A1B542 EQ PUSH2 0x411 JUMPI DUP1 PUSH4 0x81DD2FA0 EQ PUSH2 0x424 JUMPI DUP1 PUSH4 0x86F83E8E EQ PUSH2 0x444 JUMPI PUSH1 0x0 DUP1 REVERT JUMPDEST DUP1 PUSH4 0x42CDCA6E EQ PUSH2 0x369 JUMPI DUP1 PUSH4 0x5AAE2CC6 EQ PUSH2 0x37C JUMPI DUP1 PUSH4 0x62AEE4EE EQ PUSH2 0x38F JUMPI DUP1 PUSH4 0x6D3B5F18 EQ PUSH2 0x3A2 JUMPI DUP1 PUSH4 0x6F77926B EQ PUSH2 0x3C2 JUMPI PUSH1 0x0 DUP1 REVERT JUMPDEST DUP1 PUSH4 0x25415753 GT PUSH2 0x21B JUMPI DUP1 PUSH4 0x25415753 EQ PUSH2 0x2CF JUMPI DUP1 PUSH4 0x2BBD5924 EQ PUSH2 0x302 JUMPI DUP1 PUSH4 0x2BD7D688 EQ PUSH2 0x323 JUMPI DUP1 PUSH4 0x3737A7BC EQ PUSH2 0x343 JUMPI DUP1 PUSH4 0x3C952FC7 EQ PUSH2 0x356 JUMPI PUSH1 0x0 DUP1 REVERT JUMPDEST DUP1 PUSH4 0x8643487 EQ PUSH2 0x258 JUMPI DUP1 PUSH4 0xD506293 EQ PUSH2 0x281 JUMPI DUP1 PUSH4 0x1785F53C EQ PUSH2 0x296 JUMPI DUP1 PUSH4 0x1869F316 EQ PUSH2 0x2A9 JUMPI DUP1 PUSH4 0x1A702AA0 EQ PUSH2 0x2BC JUMPI JUMPDEST PUSH1 0x0 DUP1 REVERT JUMPDEST PUSH2 0x26B PUSH2 0x266 CALLDATASIZE PUSH1 0x4 PUSH2 0x526C JUMP JUMPDEST PUSH2 0x5E5 JUMP JUMPDEST PUSH1 0x40 MLOAD PUSH2 0x278 SWAP2 SWAP1 PUSH2 0x546A JUMP JUMPDEST PUSH1 0x40 MLOAD DUP1 SWAP2 SUB SWAP1 RETURN JUMPDEST PUSH2 0x294 PUSH2 0x28F CALLDATASIZE PUSH1 0x4 PUSH2 0x54CC JUMP JUMPDEST PUSH2 0x669 JUMP JUMPDEST STOP JUMPDEST PUSH2 0x294 PUSH2 0x2A4 CALLDATASIZE PUSH1 0x4 PUSH2 0x526C JUMP JUMPDEST PUSH2 0x6E5 JUMP JUMPDEST PUSH2 0x294 PUSH2 0x2B7 CALLDATASIZE PUSH1 0x4 PUSH2 0x54CC JUMP JUMPDEST PUSH2 0x75A JUMP JUMPDEST PUSH2 0x294 PUSH2 0x2CA CALLDATASIZE PUSH1 0x4 PUSH2 0x5588 JUMP JUMPDEST PUSH2 0x7C1 JUMP JUMPDEST PUSH2 0x2F2 PUSH2 0x2DD CALLDATASIZE PUSH1 0x4 PUSH2 0x526C JUMP JUMPDEST PUSH1 0x9 PUSH1 0x20 MSTORE PUSH1 0x0 SWAP1 DUP2 MSTORE PUSH1 0x40 SWAP1 KECCAK256 SLOAD PUSH1 0xFF AND DUP2 JUMP JUMPDEST PUSH1 0x40 MLOAD SWAP1 ISZERO ISZERO DUP2 MSTORE PUSH1 0x20 ADD PUSH2 0x278 JUMP JUMPDEST PUSH2 0x315 PUSH2 0x310 CALLDATASIZE PUSH1 0x4 PUSH2 0x5669 JUMP JUMPDEST PUSH2 0x84E JUMP JUMPDEST PUSH1 0x40 MLOAD SWAP1 DUP2 MSTORE PUSH1 0x20 ADD PUSH2 0x278 JUMP JUMPDEST PUSH2 0x336 PUSH2 0x331 CALLDATASIZE PUSH1 0x4 PUSH2 0x5695 JUMP JUMPDEST PUSH2 0xF2F JUMP JUMPDEST PUSH1 0x40 MLOAD PUSH2 0x278 SWAP2 SWAP1 PUSH2 0x57C5 JUMP JUMPDEST PUSH2 0x294 PUSH2 0x351 CALLDATASIZE PUSH1 0x4 PUSH2 0x5669 JUMP JUMPDEST PUSH2 0xFF9 JUMP JUMPDEST PUSH2 0x294 PUSH2 0x364 CALLDATASIZE PUSH1 0x4 PUSH2 0x5669 JUMP JUMPDEST PUSH2 0x104E JUMP JUMPDEST PUSH2 0x26B PUSH2 0x377 CALLDATASIZE PUSH1 0x4 PUSH2 0x526C JUMP JUMPDEST PUSH2 0x10C0 JUMP JUMPDEST PUSH2 0x294 PUSH2 0x38A CALLDATASIZE PUSH1 0x4 PUSH2 0x54CC JUMP JUMPDEST PUSH2 0x113C JUMP JUMPDEST PUSH2 0x294 PUSH2 0x39D CALLDATASIZE PUSH1 0x4 PUSH2 0x581A JUMP JUMPDEST PUSH2 0x1164 JUMP JUMPDEST PUSH2 0x3B5 PUSH2 0x3B0 CALLDATASIZE PUSH1 0x4 PUSH2 0x54CC JUMP JUMPDEST PUSH2 0x11CD JUMP JUMPDEST PUSH1 0x40 MLOAD PUSH2 0x278 SWAP2 SWAP1 PUSH2 0x58EB JUMP JUMPDEST PUSH2 0x3B5 PUSH2 0x3D0 CALLDATASIZE PUSH1 0x4 PUSH2 0x526C JUMP JUMPDEST PUSH2 0x15DC JUMP JUMPDEST PUSH2 0x294 PUSH2 0x3E3 CALLDATASIZE PUSH1 0x4 PUSH2 0x526C JUMP JUMPDEST PUSH2 0x16C1 JUMP JUMPDEST PUSH2 0x315 PUSH2 0x3F6 CALLDATASIZE PUSH1 0x4 PUSH2 0x526C JUMP JUMPDEST PUSH1 0x1 PUSH1 0x1 PUSH1 0xA0 SHL SUB AND PUSH1 0x0 SWAP1 DUP2 MSTORE PUSH1 0x7 PUSH1 0x20 MSTORE PUSH1 0x40 SWAP1 KECCAK256 SLOAD SWAP1 JUMP JUMPDEST PUSH2 0x294 PUSH2 0x41F CALLDATASIZE PUSH1 0x4 PUSH2 0x54CC JUMP JUMPDEST PUSH2 0x1737 JUMP JUMPDEST PUSH2 0x437 PUSH2 0x432 CALLDATASIZE PUSH1 0x4 PUSH2 0x54CC JUMP JUMPDEST PUSH2 0x1798 JUMP JUMPDEST PUSH1 0x40 MLOAD PUSH2 0x278 SWAP2 SWAP1 PUSH2 0x58FE JUMP JUMPDEST PUSH2 0x294 PUSH2 0x452 CALLDATASIZE PUSH1 0x4 PUSH2 0x5911 JUMP JUMPDEST PUSH2 0x1B5A JUMP JUMPDEST PUSH2 0x46A PUSH2 0x465 CALLDATASIZE PUSH1 0x4 PUSH2 0x526C JUMP JUMPDEST PUSH2 0x1C2E JUMP JUMPDEST PUSH1 0x40 MLOAD PUSH2 0x278 SWAP2 SWAP1 PUSH2 0x5A97 JUMP JUMPDEST PUSH2 0x48A PUSH2 0x485 CALLDATASIZE PUSH1 0x4 PUSH2 0x54CC JUMP JUMPDEST PUSH2 0x1CAC JUMP JUMPDEST PUSH1 0x40 MLOAD PUSH2 0x278 SWAP2 SWAP1 PUSH2 0x5AEC JUMP JUMPDEST PUSH2 0x294 PUSH2 0x4A5 CALLDATASIZE PUSH1 0x4 PUSH2 0x54CC JUMP JUMPDEST PUSH2 0x1F30 JUMP JUMPDEST PUSH2 0x294 PUSH2 0x4B8 CALLDATASIZE PUSH1 0x4 PUSH2 0x5695 JUMP JUMPDEST PUSH2 0x2271 JUMP JUMPDEST PUSH2 0x294 PUSH2 0x4CB CALLDATASIZE PUSH1 0x4 PUSH2 0x5AFF JUMP JUMPDEST PUSH2 0x228B JUMP JUMPDEST PUSH2 0x294 PUSH2 0x4DE CALLDATASIZE PUSH1 0x4 PUSH2 0x54CC JUMP JUMPDEST PUSH2 0x229A JUMP JUMPDEST PUSH2 0x2F2 PUSH2 0x4F1 CALLDATASIZE PUSH1 0x4 PUSH2 0x5BBE JUMP JUMPDEST PUSH2 0x257E JUMP JUMPDEST PUSH2 0x294 PUSH2 0x504 CALLDATASIZE PUSH1 0x4 PUSH2 0x54CC JUMP JUMPDEST PUSH2 0x2678 JUMP JUMPDEST PUSH2 0x46A PUSH2 0x269B JUMP JUMPDEST PUSH2 0x294 PUSH2 0x51F CALLDATASIZE PUSH1 0x4 PUSH2 0x5BE8 JUMP JUMPDEST PUSH2 0x26F9 JUMP JUMPDEST PUSH2 0x26B PUSH2 0x270E JUMP JUMPDEST PUSH2 0x46A PUSH2 0x53A CALLDATASIZE PUSH1 0x4 PUSH2 0x526C JUMP JUMPDEST PUSH2 0x2767 JUMP JUMPDEST PUSH2 0x294 PUSH2 0x54D CALLDATASIZE PUSH1 0x4 PUSH2 0x5BE8 JUMP JUMPDEST PUSH2 0x27E3 JUMP JUMPDEST PUSH2 0x294 PUSH2 0x560 CALLDATASIZE PUSH1 0x4 PUSH2 0x54CC JUMP JUMPDEST PUSH2 0x27F1 JUMP JUMPDEST PUSH2 0x336 PUSH2 0x280B JUMP JUMPDEST PUSH2 0x294 PUSH2 0x57B CALLDATASIZE PUSH1 0x4 PUSH2 0x54CC JUMP JUMPDEST PUSH2 0x2896 JUMP JUMPDEST PUSH2 0x294 PUSH2 0x58E CALLDATASIZE PUSH1 0x4 PUSH2 0x54CC JUMP JUMPDEST PUSH2 0x28D4 JUMP JUMPDEST PUSH2 0x294 PUSH2 0x5A1 CALLDATASIZE PUSH1 0x4 PUSH2 0x54CC JUMP JUMPDEST PUSH2 0x2959 JUMP JUMPDEST PUSH2 0x294 PUSH2 0x5B4 CALLDATASIZE PUSH1 0x4 PUSH2 0x5588 JUMP JUMPDEST PUSH2 0x29C5 JUMP JUMPDEST PUSH2 0x294 PUSH2 0x5C7 CALLDATASIZE PUSH1 0x4 PUSH2 0x54CC JUMP JUMPDEST PUSH2 0x2A47 JUMP JUMPDEST PUSH2 0x5D4 PUSH2 0x2C12 JUMP JUMPDEST PUSH1 0x40 MLOAD PUSH2 0x278 SWAP6 SWAP5 SWAP4 SWAP3 SWAP2 SWAP1 PUSH2 0x5CBA JUMP JUMPDEST PUSH1 0x60 PUSH2 0x663 PUSH1 0x10 PUSH1 0x0 DUP5 PUSH1 0x1 PUSH1 0x1 PUSH1 0xA0 SHL SUB AND PUSH1 0x1 PUSH1 0x1 PUSH1 0xA0 SHL SUB AND DUP2 MSTORE PUSH1 0x20 ADD SWAP1 DUP2 MSTORE PUSH1 0x20 ADD PUSH1 0x0 KECCAK256 DUP1 SLOAD DUP1 PUSH1 0x20 MUL PUSH1 0x20 ADD PUSH1 0x40 MLOAD SWAP1 DUP2 ADD PUSH1 0x40 MSTORE DUP1 SWAP3 SWAP2 SWAP1 DUP2 DUP2 MSTORE PUSH1 0x20 ADD DUP3 DUP1 SLOAD DUP1 ISZERO PUSH2 0x659 JUMPI PUSH1 0x20 MUL DUP3 ADD SWAP2 SWAP1 PUSH1 0x0 MSTORE PUSH1 0x20 PUSH1 0x0 KECCAK256 SWAP1 JUMPDEST DUP2 SLOAD DUP2 MSTORE PUSH1 0x20 ADD SWAP1 PUSH1 0x1 ADD SWAP1 DUP1 DUP4 GT PUSH2 0x645 JUMPI JUMPDEST POP POP POP POP POP PUSH2 0x2D43 JUMP JUMPDEST SWAP3 SWAP2 POP POP JUMP JUMPDEST PUSH2 0x682 DUP2 TIMESTAMP PUSH2 0x67B DUP2 PUSH3 0x15180 PUSH2 0x5D10 JUMP JUMPDEST PUSH1 0x2 PUSH2 0x2E05 JUMP JUMPDEST PUSH1 0x40 DUP1 MLOAD DUP2 DUP2 MSTORE PUSH1 0x12 SWAP2 DUP2 ADD SWAP2 SWAP1 SWAP2 MSTORE PUSH18 0xE6ADA3E59CA8E7BBB4E4BFAEE8AEBEE5A487 PUSH1 0x70 SHL PUSH1 0x60 DUP3 ADD MSTORE PUSH1 0x20 DUP2 ADD DUP3 SWAP1 MSTORE PUSH32 0xC61DE813928BE656A9F684AD4BE76B148EB74630D92A4FEF360A2E90365BBD17 SWAP1 PUSH1 0x80 ADD JUMPDEST PUSH1 0x40 MLOAD DUP1 SWAP2 SUB SWAP1 LOG1 POP JUMP JUMPDEST PUSH1 0x0 SLOAD PUSH1 0x1 PUSH1 0x1 PUSH1 0xA0 SHL SUB AND CALLER EQ PUSH2 0x739 JUMPI PUSH1 0x40 MLOAD PUSH3 0x461BCD PUSH1 0xE5 SHL DUP2 MSTORE PUSH1 0x20 PUSH1 0x4 DUP3 ADD MSTORE PUSH1 0x12 PUSH1 0x24 DUP3 ADD MSTORE PUSH18 0xE99D9EE59088E7BAA6E68BA5E69C89E88085 PUSH1 0x70 SHL PUSH1 0x44 DUP3 ADD MSTORE PUSH1 0x64 ADD JUMPDEST PUSH1 0x40 MLOAD DUP1 SWAP2 SUB SWAP1 REVERT JUMPDEST PUSH1 0x1 PUSH1 0x1 PUSH1 0xA0 SHL SUB AND PUSH1 0x0 SWAP1 DUP2 MSTORE PUSH1 0x1 PUSH1 0x20 MSTORE PUSH1 0x40 SWAP1 KECCAK256 DUP1 SLOAD PUSH1 0xFF NOT AND SWAP1 SSTORE JUMP JUMPDEST PUSH2 0x765 DUP2 PUSH1 0x3 PUSH2 0x336C JUMP JUMPDEST PUSH1 0x40 DUP1 MLOAD DUP2 DUP2 MSTORE PUSH1 0x12 SWAP2 DUP2 ADD SWAP2 SWAP1 SWAP2 MSTORE PUSH18 0xE8AEBEE5A487E8A7A3E999A4E586BBE7BB93 PUSH1 0x70 SHL PUSH1 0x60 DUP3 ADD MSTORE PUSH1 0x20 DUP2 ADD DUP3 SWAP1 MSTORE PUSH32 0xD19D6567393FFA30740300B9D0BE4881F25E8418D621A82317E779B3C967B41 SWAP1 PUSH1 0x80 ADD PUSH2 0x6DA JUMP JUMPDEST CALLER PUSH1 0x0 SWAP1 DUP2 MSTORE PUSH1 0x1 PUSH1 0x20 MSTORE PUSH1 0x40 SWAP1 KECCAK256 SLOAD PUSH1 0xFF AND PUSH2 0x838 JUMPI PUSH1 0x40 MLOAD PUSH3 0x461BCD PUSH1 0xE5 SHL DUP2 MSTORE PUSH1 0x20 PUSH1 0x4 DUP3 ADD MSTORE PUSH1 0x2F PUSH1 0x24 DUP3 ADD MSTORE PUSH32 0xE69D83E99990E4B88DE8B6B32C20E697A0E6B395E4B8BAE4BB96E4BABAE59CB0 PUSH1 0x44 DUP3 ADD MSTORE PUSH15 0xE59D80E5889BE5BBBAE794A8E688B7 PUSH1 0x88 SHL PUSH1 0x64 DUP3 ADD MSTORE PUSH1 0x84 ADD PUSH2 0x730 JUMP JUMPDEST PUSH2 0x846 DUP7 DUP7 DUP7 DUP7 DUP7 DUP7 PUSH2 0x3777 JUMP JUMPDEST POP POP POP POP POP POP JUMP JUMPDEST PUSH1 0x0 PUSH2 0x859 DUP5 PUSH2 0x3956 JUMP JUMPDEST PUSH1 0x0 DUP5 DUP2 MSTORE PUSH1 0xE PUSH1 0x20 SWAP1 DUP2 MSTORE PUSH1 0x40 DUP1 DUP4 KECCAK256 DUP2 MLOAD PUSH2 0x180 DUP2 ADD DUP4 MSTORE DUP2 SLOAD DUP2 MSTORE PUSH1 0x1 DUP3 ADD SLOAD PUSH1 0x1 PUSH1 0x1 PUSH1 0xA0 SHL SUB AND SWAP4 DUP2 ADD SWAP4 SWAP1 SWAP4 MSTORE PUSH1 0x2 DUP2 ADD SLOAD SWAP2 DUP4 ADD SWAP2 SWAP1 SWAP2 MSTORE PUSH1 0x3 DUP2 ADD SLOAD PUSH1 0xFF AND ISZERO ISZERO PUSH1 0x60 DUP4 ADD MSTORE PUSH1 0x4 DUP2 ADD DUP1 SLOAD PUSH1 0x80 DUP5 ADD SWAP2 SWAP1 PUSH2 0x8BC SWAP1 PUSH2 0x5D23 JUMP JUMPDEST DUP1 PUSH1 0x1F ADD PUSH1 0x20 DUP1 SWAP2 DIV MUL PUSH1 0x20 ADD PUSH1 0x40 MLOAD SWAP1 DUP2 ADD PUSH1 0x40 MSTORE DUP1 SWAP3 SWAP2 SWAP1 DUP2 DUP2 MSTORE PUSH1 0x20 ADD DUP3 DUP1 SLOAD PUSH2 0x8E8 SWAP1 PUSH2 0x5D23 JUMP JUMPDEST DUP1 ISZERO PUSH2 0x935 JUMPI DUP1 PUSH1 0x1F LT PUSH2 0x90A JUMPI PUSH2 0x100 DUP1 DUP4 SLOAD DIV MUL DUP4 MSTORE SWAP2 PUSH1 0x20 ADD SWAP2 PUSH2 0x935 JUMP JUMPDEST DUP3 ADD SWAP2 SWAP1 PUSH1 0x0 MSTORE PUSH1 0x20 PUSH1 0x0 KECCAK256 SWAP1 JUMPDEST DUP2 SLOAD DUP2 MSTORE SWAP1 PUSH1 0x1 ADD SWAP1 PUSH1 0x20 ADD DUP1 DUP4 GT PUSH2 0x918 JUMPI DUP3 SWAP1 SUB PUSH1 0x1F AND DUP3 ADD SWAP2 JUMPDEST POP POP POP POP POP DUP2 MSTORE PUSH1 0x20 ADD PUSH1 0x5 DUP3 ADD DUP1 SLOAD PUSH2 0x94E SWAP1 PUSH2 0x5D23 JUMP JUMPDEST DUP1 PUSH1 0x1F ADD PUSH1 0x20 DUP1 SWAP2 DIV MUL PUSH1 0x20 ADD PUSH1 0x40 MLOAD SWAP1 DUP2 ADD PUSH1 0x40 MSTORE DUP1 SWAP3 SWAP2 SWAP1 DUP2 DUP2 MSTORE PUSH1 0x20 ADD DUP3 DUP1 SLOAD PUSH2 0x97A SWAP1 PUSH2 0x5D23 JUMP JUMPDEST DUP1 ISZERO PUSH2 0x9C7 JUMPI DUP1 PUSH1 0x1F LT PUSH2 0x99C JUMPI PUSH2 0x100 DUP1 DUP4 SLOAD DIV MUL DUP4 MSTORE SWAP2 PUSH1 0x20 ADD SWAP2 PUSH2 0x9C7 JUMP JUMPDEST DUP3 ADD SWAP2 SWAP1 PUSH1 0x0 MSTORE PUSH1 0x20 PUSH1 0x0 KECCAK256 SWAP1 JUMPDEST DUP2 SLOAD DUP2 MSTORE SWAP1 PUSH1 0x1 ADD SWAP1 PUSH1 0x20 ADD DUP1 DUP4 GT PUSH2 0x9AA JUMPI DUP3 SWAP1 SUB PUSH1 0x1F AND DUP3 ADD SWAP2 JUMPDEST POP POP POP POP POP DUP2 MSTORE PUSH1 0x20 ADD PUSH1 0x6 DUP3 ADD DUP1 SLOAD PUSH2 0x9E0 SWAP1 PUSH2 0x5D23 JUMP JUMPDEST DUP1 PUSH1 0x1F ADD PUSH1 0x20 DUP1 SWAP2 DIV MUL PUSH1 0x20 ADD PUSH1 0x40 MLOAD SWAP1 DUP2 ADD PUSH1 0x40 MSTORE DUP1 SWAP3 SWAP2 SWAP1 DUP2 DUP2 MSTORE PUSH1 0x20 ADD DUP3 DUP1 SLOAD PUSH2 0xA0C SWAP1 PUSH2 0x5D23 JUMP JUMPDEST DUP1 ISZERO PUSH2 0xA59 JUMPI DUP1 PUSH1 0x1F LT PUSH2 0xA2E JUMPI PUSH2 0x100 DUP1 DUP4 SLOAD DIV MUL DUP4 MSTORE SWAP2 PUSH1 0x20 ADD SWAP2 PUSH2 0xA59 JUMP JUMPDEST DUP3 ADD SWAP2 SWAP1 PUSH1 0x0 MSTORE PUSH1 0x20 PUSH1 0x0 KECCAK256 SWAP1 JUMPDEST DUP2 SLOAD DUP2 MSTORE SWAP1 PUSH1 0x1 ADD SWAP1 PUSH1 0x20 ADD DUP1 DUP4 GT PUSH2 0xA3C JUMPI DUP3 SWAP1 SUB PUSH1 0x1F AND DUP3 ADD SWAP2 JUMPDEST POP POP POP POP POP DUP2 MSTORE PUSH1 0x20 ADD PUSH1 0x7 DUP3 ADD DUP1 SLOAD PUSH2 0xA72 SWAP1 PUSH2 0x5D23 JUMP JUMPDEST DUP1 PUSH1 0x1F ADD PUSH1 0x20 DUP1 SWAP2 DIV MUL PUSH1 0x20 ADD PUSH1 0x40 MLOAD SWAP1 DUP2 ADD PUSH1 0x40 MSTORE DUP1 SWAP3 SWAP2 SWAP1 DUP2 DUP2 MSTORE PUSH1 0x20 ADD DUP3 DUP1 SLOAD PUSH2 0xA9E SWAP1 PUSH2 0x5D23 JUMP JUMPDEST DUP1 ISZERO PUSH2 0xAEB JUMPI DUP1 PUSH1 0x1F LT PUSH2 0xAC0 JUMPI PUSH2 0x100 DUP1 DUP4 SLOAD DIV MUL DUP4 MSTORE SWAP2 PUSH1 0x20 ADD SWAP2 PUSH2 0xAEB JUMP JUMPDEST DUP3 ADD SWAP2 SWAP1 PUSH1 0x0 MSTORE PUSH1 0x20 PUSH1 0x0 KECCAK256 SWAP1 JUMPDEST DUP2 SLOAD DUP2 MSTORE SWAP1 PUSH1 0x1 ADD SWAP1 PUSH1 0x20 ADD DUP1 DUP4 GT PUSH2 0xACE JUMPI DUP3 SWAP1 SUB PUSH1 0x1F AND DUP3 ADD SWAP2 JUMPDEST POP POP POP POP POP DUP2 MSTORE PUSH1 0x20 ADD PUSH1 0x8 DUP3 ADD SLOAD DUP2 MSTORE PUSH1 0x20 ADD PUSH1 0x9 DUP3 ADD SLOAD DUP2 MSTORE PUSH1 0x20 ADD PUSH1 0xA DUP3 ADD PUSH1 0x40 MLOAD DUP1 PUSH1 0x60 ADD PUSH1 0x40 MSTORE SWAP1 DUP2 PUSH1 0x0 DUP3 ADD SLOAD DUP2 MSTORE PUSH1 0x20 ADD PUSH1 0x1 DUP3 ADD SLOAD DUP2 MSTORE PUSH1 0x20 ADD PUSH1 0x2 DUP3 ADD SLOAD DUP2 MSTORE POP POP DUP2 MSTORE PUSH1 0x20 ADD PUSH1 0xD DUP3 ADD DUP1 SLOAD DUP1 PUSH1 0x20 MUL PUSH1 0x20 ADD PUSH1 0x40 MLOAD SWAP1 DUP2 ADD PUSH1 0x40 MSTORE DUP1 SWAP3 SWAP2 SWAP1 DUP2 DUP2 MSTORE PUSH1 0x20 ADD PUSH1 0x0 SWAP1 JUMPDEST DUP3 DUP3 LT ISZERO PUSH2 0xBF8 JUMPI PUSH1 0x0 DUP5 DUP2 MSTORE PUSH1 0x20 SWAP1 DUP2 SWAP1 KECCAK256 PUSH1 0x40 DUP1 MLOAD PUSH1 0xA0 DUP2 ADD DUP3 MSTORE PUSH1 0x4 DUP7 MUL SWAP1 SWAP3 ADD DUP1 SLOAD DUP4 MSTORE PUSH1 0x1 DUP2 ADD SLOAD SWAP4 DUP4 ADD SWAP4 SWAP1 SWAP4 MSTORE PUSH1 0x2 DUP4 ADD SLOAD SWAP1 DUP3 ADD MSTORE PUSH1 0x3 DUP1 DUP4 ADD SLOAD PUSH1 0x1 PUSH1 0x1 PUSH1 0xA0 SHL SUB DUP2 AND PUSH1 0x60 DUP5 ADD MSTORE SWAP2 SWAP3 SWAP2 PUSH1 0x80 DUP5 ADD SWAP2 PUSH1 0x1 PUSH1 0xA0 SHL SWAP1 SWAP2 DIV PUSH1 0xFF AND SWAP1 DUP2 GT ISZERO PUSH2 0xBD4 JUMPI PUSH2 0xBD4 PUSH2 0x52CD JUMP JUMPDEST PUSH1 0x3 DUP2 GT ISZERO PUSH2 0xBE5 JUMPI PUSH2 0xBE5 PUSH2 0x52CD JUMP JUMPDEST DUP2 MSTORE POP POP DUP2 MSTORE PUSH1 0x20 ADD SWAP1 PUSH1 0x1 ADD SWAP1 PUSH2 0xB5F JUMP JUMPDEST POP POP POP POP DUP2 MSTORE POP POP SWAP1 POP DUP4 DUP4 LT ISZERO PUSH2 0xC5C JUMPI PUSH1 0x40 MLOAD PUSH3 0x461BCD PUSH1 0xE5 SHL DUP2 MSTORE PUSH1 0x20 PUSH1 0x4 DUP3 ADD MSTORE PUSH1 0x21 PUSH1 0x24 DUP3 ADD MSTORE PUSH32 0xE5BC80E5A78BE697B6E997B4E99C80E697A9E4BA8EE7BB93E69D9FE697B6E997 PUSH1 0x44 DUP3 ADD MSTORE PUSH1 0x2D PUSH1 0xFA SHL PUSH1 0x64 DUP3 ADD MSTORE PUSH1 0x84 ADD PUSH2 0x730 JUMP JUMPDEST PUSH2 0x160 DUP2 ADD MLOAD DUP1 MLOAD PUSH1 0x0 SUB PUSH2 0xC76 JUMPI PUSH1 0x0 SWAP3 POP POP POP PUSH2 0xF28 JUMP JUMPDEST DUP1 PUSH1 0x0 DUP2 MLOAD DUP2 LT PUSH2 0xC89 JUMPI PUSH2 0xC89 PUSH2 0x5D57 JUMP JUMPDEST PUSH1 0x20 MUL PUSH1 0x20 ADD ADD MLOAD PUSH1 0x20 ADD MLOAD DUP5 LT ISZERO PUSH2 0xCA7 JUMPI PUSH1 0x0 SWAP3 POP POP POP PUSH2 0xF28 JUMP JUMPDEST DUP5 DUP2 PUSH1 0x1 DUP4 MLOAD PUSH2 0xCB7 SWAP2 SWAP1 PUSH2 0x5D6D JUMP JUMPDEST DUP2 MLOAD DUP2 LT PUSH2 0xCC7 JUMPI PUSH2 0xCC7 PUSH2 0x5D57 JUMP JUMPDEST PUSH1 0x20 MUL PUSH1 0x20 ADD ADD MLOAD PUSH1 0x40 ADD MLOAD LT ISZERO PUSH2 0xCE3 JUMPI MLOAD SWAP2 POP PUSH2 0xF28 SWAP1 POP JUMP JUMPDEST PUSH1 0x0 JUMPDEST PUSH1 0x1 DUP3 MLOAD PUSH2 0xCF4 SWAP2 SWAP1 PUSH2 0x5D6D JUMP JUMPDEST DUP2 LT ISZERO PUSH2 0xD8A JUMPI PUSH1 0x0 DUP7 DUP4 DUP4 DUP2 MLOAD DUP2 LT PUSH2 0xD10 JUMPI PUSH2 0xD10 PUSH2 0x5D57 JUMP JUMPDEST PUSH1 0x20 MUL PUSH1 0x20 ADD ADD MLOAD PUSH1 0x40 ADD MLOAD LT SWAP1 POP PUSH1 0x0 DUP4 DUP4 PUSH1 0x1 PUSH2 0xD2F SWAP2 SWAP1 PUSH2 0x5D10 JUMP JUMPDEST DUP2 MLOAD DUP2 LT PUSH2 0xD3F JUMPI PUSH2 0xD3F PUSH2 0x5D57 JUMP JUMPDEST PUSH1 0x20 MUL PUSH1 0x20 ADD ADD MLOAD PUSH1 0x20 ADD MLOAD DUP8 LT SWAP1 POP DUP2 DUP1 ISZERO PUSH2 0xD59 JUMPI POP DUP1 JUMPDEST ISZERO PUSH2 0xD75 JUMPI PUSH2 0xD69 DUP4 PUSH1 0x1 PUSH2 0x5D10 JUMP JUMPDEST SWAP6 POP POP POP POP POP POP PUSH2 0xF28 JUMP JUMPDEST POP POP DUP1 DUP1 PUSH2 0xD82 SWAP1 PUSH2 0x5D80 JUMP JUMPDEST SWAP2 POP POP PUSH2 0xCE6 JUMP JUMPDEST POP PUSH1 0x3 DUP2 PUSH1 0x0 DUP2 MLOAD DUP2 LT PUSH2 0xDA0 JUMPI PUSH2 0xDA0 PUSH2 0x5D57 JUMP JUMPDEST PUSH1 0x20 MUL PUSH1 0x20 ADD ADD MLOAD PUSH1 0x80 ADD MLOAD PUSH1 0x3 DUP2 GT ISZERO PUSH2 0xDBD JUMPI PUSH2 0xDBD PUSH2 0x52CD JUMP JUMPDEST SUB PUSH2 0xE29 JUMPI PUSH1 0x40 MLOAD PUSH3 0x461BCD PUSH1 0xE5 SHL DUP2 MSTORE PUSH1 0x20 PUSH1 0x4 DUP3 ADD MSTORE PUSH1 0x36 PUSH1 0x24 DUP3 ADD MSTORE PUSH32 0xE8AFA5E8AEBEE5A487E5A484E4BA8EE586BBE7BB93E78AB6E68081EFBC8CE8AF PUSH1 0x44 DUP3 ADD MSTORE PUSH22 0xB7E88194E7B3BBE7AEA1E79086E59198E8A7A3E586BB PUSH1 0x50 SHL PUSH1 0x64 DUP3 ADD MSTORE PUSH1 0x84 ADD PUSH2 0x730 JUMP JUMPDEST PUSH1 0x2 DUP2 PUSH1 0x0 DUP2 MLOAD DUP2 LT PUSH2 0xE3E JUMPI PUSH2 0xE3E PUSH2 0x5D57 JUMP JUMPDEST PUSH1 0x20 MUL PUSH1 0x20 ADD ADD MLOAD PUSH1 0x80 ADD MLOAD PUSH1 0x3 DUP2 GT ISZERO PUSH2 0xE5B JUMPI PUSH2 0xE5B PUSH2 0x52CD JUMP JUMPDEST SUB PUSH2 0xEC7 JUMPI PUSH1 0x40 MLOAD PUSH3 0x461BCD PUSH1 0xE5 SHL DUP2 MSTORE PUSH1 0x20 PUSH1 0x4 DUP3 ADD MSTORE PUSH1 0x36 PUSH1 0x24 DUP3 ADD MSTORE PUSH32 0xE8AFA5E8AEBEE5A487E5A484E4BA8EE7BBB4E4BFAEE78AB6E68081EFBC8CE8AF PUSH1 0x44 DUP3 ADD MSTORE PUSH22 0x5BF440CA73D9DDF4575F72D243F34640F34E44F25D5D PUSH1 0x51 SHL PUSH1 0x64 DUP3 ADD MSTORE PUSH1 0x84 ADD PUSH2 0x730 JUMP JUMPDEST PUSH1 0x40 MLOAD PUSH3 0x461BCD PUSH1 0xE5 SHL DUP2 MSTORE PUSH1 0x20 PUSH1 0x4 DUP3 ADD MSTORE PUSH1 0x30 PUSH1 0x24 DUP3 ADD MSTORE PUSH32 0xE8AFA5E8AEBEE5A487E59CA8E68C87E5AE9AE697B6E6AEB5E5B7B2E8A2ABE58D PUSH1 0x44 DUP3 ADD MSTORE PUSH16 0x5073CA5477DE4674CECF73D4DD74CBD9 PUSH1 0x81 SHL PUSH1 0x64 DUP3 ADD MSTORE PUSH1 0x84 ADD PUSH2 0x730 JUMP JUMPDEST SWAP4 SWAP3 POP POP POP JUMP JUMPDEST PUSH1 0x60 DUP2 PUSH8 0xFFFFFFFFFFFFFFFF DUP2 GT ISZERO PUSH2 0xF4A JUMPI PUSH2 0xF4A PUSH2 0x54E5 JUMP JUMPDEST PUSH1 0x40 MLOAD SWAP1 DUP1 DUP3 MSTORE DUP1 PUSH1 0x20 MUL PUSH1 0x20 ADD DUP3 ADD PUSH1 0x40 MSTORE DUP1 ISZERO PUSH2 0xF83 JUMPI DUP2 PUSH1 0x20 ADD JUMPDEST PUSH2 0xF70 PUSH2 0x506E JUMP JUMPDEST DUP2 MSTORE PUSH1 0x20 ADD SWAP1 PUSH1 0x1 SWAP1 SUB SWAP1 DUP2 PUSH2 0xF68 JUMPI SWAP1 POP JUMPDEST POP SWAP1 POP DUP3 JUMPDEST PUSH1 0xC SLOAD DUP2 LT ISZERO PUSH2 0xFF2 JUMPI PUSH2 0xFC2 PUSH1 0xC DUP3 DUP2 SLOAD DUP2 LT PUSH2 0xFA8 JUMPI PUSH2 0xFA8 PUSH2 0x5D57 JUMP JUMPDEST PUSH1 0x0 SWAP2 DUP3 MSTORE PUSH1 0x20 SWAP1 SWAP2 KECCAK256 ADD SLOAD PUSH1 0x1 PUSH1 0x1 PUSH1 0xA0 SHL SUB AND PUSH2 0x15DC JUMP JUMPDEST DUP3 DUP3 DUP2 MLOAD DUP2 LT PUSH2 0xFD4 JUMPI PUSH2 0xFD4 PUSH2 0x5D57 JUMP JUMPDEST PUSH1 0x20 MUL PUSH1 0x20 ADD ADD DUP2 SWAP1 MSTORE POP DUP1 DUP1 PUSH2 0xFEA SWAP1 PUSH2 0x5D80 JUMP JUMPDEST SWAP2 POP POP PUSH2 0xF88 JUMP JUMPDEST POP SWAP3 SWAP2 POP POP JUMP JUMPDEST PUSH2 0x1004 DUP4 DUP4 DUP4 PUSH2 0x84E JUMP JUMPDEST POP PUSH1 0x0 PUSH2 0x1010 CALLER PUSH2 0x15DC JUMP JUMPDEST SWAP1 POP PUSH1 0x0 PUSH2 0x101D DUP6 PUSH2 0x1798 JUMP JUMPDEST SWAP1 POP PUSH1 0x0 PUSH2 0x102D DUP4 DUP4 DUP8 DUP8 PUSH2 0x39B6 JUMP JUMPDEST SWAP1 POP PUSH2 0x1045 DUP2 PUSH1 0x80 ADD MLOAD DUP3 PUSH1 0xC0 ADD MLOAD PUSH1 0x40 ADD MLOAD PUSH2 0x257E JUMP JUMPDEST POP POP POP POP POP POP POP JUMP JUMPDEST PUSH2 0x105B DUP4 DUP4 DUP4 PUSH1 0x2 PUSH2 0x2E05 JUMP JUMPDEST PUSH1 0x40 DUP1 MLOAD DUP2 DUP2 MSTORE PUSH1 0x12 SWAP2 DUP2 ADD SWAP2 SWAP1 SWAP2 MSTORE PUSH18 0xE6ADA3E59CA8E7BBB4E4BFAEE8AEBEE5A487 PUSH1 0x70 SHL PUSH1 0x60 DUP3 ADD MSTORE PUSH1 0x20 DUP2 ADD DUP5 SWAP1 MSTORE PUSH32 0xC61DE813928BE656A9F684AD4BE76B148EB74630D92A4FEF360A2E90365BBD17 SWAP1 PUSH1 0x80 ADD JUMPDEST PUSH1 0x40 MLOAD DUP1 SWAP2 SUB SWAP1 LOG1 POP POP POP JUMP JUMPDEST PUSH1 0x60 PUSH2 0x663 PUSH1 0xF PUSH1 0x0 DUP5 PUSH1 0x1 PUSH1 0x1 PUSH1 0xA0 SHL SUB AND PUSH1 0x1 PUSH1 0x1 PUSH1 0xA0 SHL SUB AND DUP2 MSTORE PUSH1 0x20 ADD SWAP1 DUP2 MSTORE PUSH1 0x20 ADD PUSH1 0x0 KECCAK256 DUP1 SLOAD DUP1 PUSH1 0x20 MUL PUSH1 0x20 ADD PUSH1 0x40 MLOAD SWAP1 DUP2 ADD PUSH1 0x40 MSTORE DUP1 SWAP3 SWAP2 SWAP1 DUP2 DUP2 MSTORE PUSH1 0x20 ADD DUP3 DUP1 SLOAD DUP1 ISZERO PUSH2 0x659 JUMPI PUSH1 0x20 MUL DUP3 ADD SWAP2 SWAP1 PUSH1 0x0 MSTORE PUSH1 0x20 PUSH1 0x0 KECCAK256 SWAP1 DUP2 SLOAD DUP2 MSTORE PUSH1 0x20 ADD SWAP1 PUSH1 0x1 ADD SWAP1 DUP1 DUP4 GT PUSH2 0x645 JUMPI POP POP POP POP POP PUSH2 0x2D43 JUMP JUMPDEST PUSH1 0x0 PUSH2 0x1147 DUP3 PUSH2 0x3DE4 JUMP JUMPDEST SWAP1 POP PUSH2 0x115F DUP2 PUSH1 0x80 ADD MLOAD DUP3 PUSH1 0xC0 ADD MLOAD PUSH1 0x40 ADD MLOAD PUSH2 0x4020 JUMP JUMPDEST POP POP POP JUMP JUMPDEST CALLER PUSH1 0x0 SWAP1 DUP2 MSTORE PUSH1 0x1 PUSH1 0x20 DUP2 SWAP1 MSTORE PUSH1 0x40 SWAP1 SWAP2 KECCAK256 SLOAD PUSH1 0xFF AND ISZERO ISZERO EQ PUSH2 0x11BE JUMPI PUSH1 0x40 MLOAD PUSH3 0x461BCD PUSH1 0xE5 SHL DUP2 MSTORE PUSH1 0x20 PUSH1 0x4 DUP3 ADD MSTORE PUSH1 0x12 PUSH1 0x24 DUP3 ADD MSTORE PUSH18 0xE697A0E7AEA1E79086E59198E69D83E9999 PUSH1 0x74 SHL PUSH1 0x44 DUP3 ADD MSTORE PUSH1 0x64 ADD PUSH2 0x730 JUMP JUMPDEST PUSH2 0x1045 DUP8 DUP8 DUP8 DUP8 DUP8 DUP8 DUP8 PUSH2 0x41C2 JUMP JUMPDEST PUSH2 0x11D5 PUSH2 0x506E JUMP JUMPDEST PUSH1 0x0 DUP3 DUP2 MSTORE PUSH1 0xA PUSH1 0x20 SWAP1 DUP2 MSTORE PUSH1 0x40 DUP1 DUP4 KECCAK256 SLOAD PUSH1 0x1 PUSH1 0x1 PUSH1 0xA0 SHL SUB AND DUP4 MSTORE PUSH1 0xB SWAP1 SWAP2 MSTORE DUP2 KECCAK256 SLOAD SWAP1 SUB PUSH2 0x1248 JUMPI PUSH1 0x40 MLOAD PUSH3 0x461BCD PUSH1 0xE5 SHL DUP2 MSTORE PUSH1 0x20 PUSH1 0x4 DUP3 ADD MSTORE PUSH1 0x1A PUSH1 0x24 DUP3 ADD MSTORE PUSH32 0xE8AFB7E8BE93E585A5E69C89E69588E79A84E794A8E688B74944000000000000 PUSH1 0x44 DUP3 ADD MSTORE PUSH1 0x64 ADD PUSH2 0x730 JUMP JUMPDEST PUSH1 0x0 DUP3 DUP2 MSTORE PUSH1 0xA PUSH1 0x20 SWAP1 DUP2 MSTORE PUSH1 0x40 DUP1 DUP4 KECCAK256 SLOAD PUSH1 0x1 PUSH1 0x1 PUSH1 0xA0 SHL SUB SWAP1 DUP2 AND DUP5 MSTORE PUSH1 0xB DUP4 MSTORE SWAP3 DUP2 SWAP1 KECCAK256 DUP2 MLOAD PUSH2 0x140 DUP2 ADD DUP4 MSTORE DUP2 SLOAD DUP2 MSTORE PUSH1 0x1 DUP3 ADD SLOAD SWAP1 SWAP5 AND SWAP3 DUP5 ADD SWAP3 SWAP1 SWAP3 MSTORE PUSH1 0x2 DUP3 ADD SLOAD SWAP1 DUP4 ADD MSTORE PUSH1 0x3 DUP2 ADD DUP1 SLOAD PUSH1 0x60 DUP5 ADD SWAP2 SWAP1 PUSH2 0x12A9 SWAP1 PUSH2 0x5D23 JUMP JUMPDEST DUP1 PUSH1 0x1F ADD PUSH1 0x20 DUP1 SWAP2 DIV MUL PUSH1 0x20 ADD PUSH1 0x40 MLOAD SWAP1 DUP2 ADD PUSH1 0x40 MSTORE DUP1 SWAP3 SWAP2 SWAP1 DUP2 DUP2 MSTORE PUSH1 0x20 ADD DUP3 DUP1 SLOAD PUSH2 0x12D5 SWAP1 PUSH2 0x5D23 JUMP JUMPDEST DUP1 ISZERO PUSH2 0x1322 JUMPI DUP1 PUSH1 0x1F LT PUSH2 0x12F7 JUMPI PUSH2 0x100 DUP1 DUP4 SLOAD DIV MUL DUP4 MSTORE SWAP2 PUSH1 0x20 ADD SWAP2 PUSH2 0x1322 JUMP JUMPDEST DUP3 ADD SWAP2 SWAP1 PUSH1 0x0 MSTORE PUSH1 0x20 PUSH1 0x0 KECCAK256 SWAP1 JUMPDEST DUP2 SLOAD DUP2 MSTORE SWAP1 PUSH1 0x1 ADD SWAP1 PUSH1 0x20 ADD DUP1 DUP4 GT PUSH2 0x1305 JUMPI DUP3 SWAP1 SUB PUSH1 0x1F AND DUP3 ADD SWAP2 JUMPDEST POP POP POP POP POP DUP2 MSTORE PUSH1 0x20 ADD PUSH1 0x4 DUP3 ADD DUP1 SLOAD PUSH2 0x133B SWAP1 PUSH2 0x5D23 JUMP JUMPDEST DUP1 PUSH1 0x1F ADD PUSH1 0x20 DUP1 SWAP2 DIV MUL PUSH1 0x20 ADD PUSH1 0x40 MLOAD SWAP1 DUP2 ADD PUSH1 0x40 MSTORE DUP1 SWAP3 SWAP2 SWAP1 DUP2 DUP2 MSTORE PUSH1 0x20 ADD DUP3 DUP1 SLOAD PUSH2 0x1367 SWAP1 PUSH2 0x5D23 JUMP JUMPDEST DUP1 ISZERO PUSH2 0x13B4 JUMPI DUP1 PUSH1 0x1F LT PUSH2 0x1389 JUMPI PUSH2 0x100 DUP1 DUP4 SLOAD DIV MUL DUP4 MSTORE SWAP2 PUSH1 0x20 ADD SWAP2 PUSH2 0x13B4 JUMP JUMPDEST DUP3 ADD SWAP2 SWAP1 PUSH1 0x0 MSTORE PUSH1 0x20 PUSH1 0x0 KECCAK256 SWAP1 JUMPDEST DUP2 SLOAD DUP2 MSTORE SWAP1 PUSH1 0x1 ADD SWAP1 PUSH1 0x20 ADD DUP1 DUP4 GT PUSH2 0x1397 JUMPI DUP3 SWAP1 SUB PUSH1 0x1F AND DUP3 ADD SWAP2 JUMPDEST POP POP POP POP POP DUP2 MSTORE PUSH1 0x20 ADD PUSH1 0x5 DUP3 ADD DUP1 SLOAD PUSH2 0x13CD SWAP1 PUSH2 0x5D23 JUMP JUMPDEST DUP1 PUSH1 0x1F ADD PUSH1 0x20 DUP1 SWAP2 DIV MUL PUSH1 0x20 ADD PUSH1 0x40 MLOAD SWAP1 DUP2 ADD PUSH1 0x40 MSTORE DUP1 SWAP3 SWAP2 SWAP1 DUP2 DUP2 MSTORE PUSH1 0x20 ADD DUP3 DUP1 SLOAD PUSH2 0x13F9 SWAP1 PUSH2 0x5D23 JUMP JUMPDEST DUP1 ISZERO PUSH2 0x1446 JUMPI DUP1 PUSH1 0x1F LT PUSH2 0x141B JUMPI PUSH2 0x100 DUP1 DUP4 SLOAD DIV MUL DUP4 MSTORE SWAP2 PUSH1 0x20 ADD SWAP2 PUSH2 0x1446 JUMP JUMPDEST DUP3 ADD SWAP2 SWAP1 PUSH1 0x0 MSTORE PUSH1 0x20 PUSH1 0x0 KECCAK256 SWAP1 JUMPDEST DUP2 SLOAD DUP2 MSTORE SWAP1 PUSH1 0x1 ADD SWAP1 PUSH1 0x20 ADD DUP1 DUP4 GT PUSH2 0x1429 JUMPI DUP3 SWAP1 SUB PUSH1 0x1F AND DUP3 ADD SWAP2 JUMPDEST POP POP POP POP POP DUP2 MSTORE PUSH1 0x20 ADD PUSH1 0x6 DUP3 ADD DUP1 SLOAD PUSH2 0x145F SWAP1 PUSH2 0x5D23 JUMP JUMPDEST DUP1 PUSH1 0x1F ADD PUSH1 0x20 DUP1 SWAP2 DIV MUL PUSH1 0x20 ADD PUSH1 0x40 MLOAD SWAP1 DUP2 ADD PUSH1 0x40 MSTORE DUP1 SWAP3 SWAP2 SWAP1 DUP2 DUP2 MSTORE PUSH1 0x20 ADD DUP3 DUP1 SLOAD PUSH2 0x148B SWAP1 PUSH2 0x5D23 JUMP JUMPDEST DUP1 ISZERO PUSH2 0x14D8 JUMPI DUP1 PUSH1 0x1F LT PUSH2 0x14AD JUMPI PUSH2 0x100 DUP1 DUP4 SLOAD DIV MUL DUP4 MSTORE SWAP2 PUSH1 0x20 ADD SWAP2 PUSH2 0x14D8 JUMP JUMPDEST DUP3 ADD SWAP2 SWAP1 PUSH1 0x0 MSTORE PUSH1 0x20 PUSH1 0x0 KECCAK256 SWAP1 JUMPDEST DUP2 SLOAD DUP2 MSTORE SWAP1 PUSH1 0x1 ADD SWAP1 PUSH1 0x20 ADD DUP1 DUP4 GT PUSH2 0x14BB JUMPI DUP3 SWAP1 SUB PUSH1 0x1F AND DUP3 ADD SWAP2 JUMPDEST POP POP POP POP POP DUP2 MSTORE PUSH1 0x20 ADD PUSH1 0x7 DUP3 ADD DUP1 SLOAD PUSH2 0x14F1 SWAP1 PUSH2 0x5D23 JUMP JUMPDEST DUP1 PUSH1 0x1F ADD PUSH1 0x20 DUP1 SWAP2 DIV MUL PUSH1 0x20 ADD PUSH1 0x40 MLOAD SWAP1 DUP2 ADD PUSH1 0x40 MSTORE DUP1 SWAP3 SWAP2 SWAP1 DUP2 DUP2 MSTORE PUSH1 0x20 ADD DUP3 DUP1 SLOAD PUSH2 0x151D SWAP1 PUSH2 0x5D23 JUMP JUMPDEST DUP1 ISZERO PUSH2 0x156A JUMPI DUP1 PUSH1 0x1F LT PUSH2 0x153F JUMPI PUSH2 0x100 DUP1 DUP4 SLOAD DIV MUL DUP4 MSTORE SWAP2 PUSH1 0x20 ADD SWAP2 PUSH2 0x156A JUMP JUMPDEST DUP3 ADD SWAP2 SWAP1 PUSH1 0x0 MSTORE PUSH1 0x20 PUSH1 0x0 KECCAK256 SWAP1 JUMPDEST DUP2 SLOAD DUP2 MSTORE SWAP1 PUSH1 0x1 ADD SWAP1 PUSH1 0x20 ADD DUP1 DUP4 GT PUSH2 0x154D JUMPI DUP3 SWAP1 SUB PUSH1 0x1F AND DUP3 ADD SWAP2 JUMPDEST POP POP POP POP POP DUP2 MSTORE PUSH1 0x20 ADD PUSH1 0x8 DUP3 ADD SLOAD DUP2 MSTORE PUSH1 0x20 ADD PUSH1 0x9 DUP3 ADD DUP1 SLOAD DUP1 PUSH1 0x20 MUL PUSH1 0x20 ADD PUSH1 0x40 MLOAD SWAP1 DUP2 ADD PUSH1 0x40 MSTORE DUP1 SWAP3 SWAP2 SWAP1 DUP2 DUP2 MSTORE PUSH1 0x20 ADD DUP3 DUP1 SLOAD DUP1 ISZERO PUSH2 0x15CC JUMPI PUSH1 0x20 MUL DUP3 ADD SWAP2 SWAP1 PUSH1 0x0 MSTORE PUSH1 0x20 PUSH1 0x0 KECCAK256 SWAP1 JUMPDEST DUP2 SLOAD DUP2 MSTORE PUSH1 0x20 ADD SWAP1 PUSH1 0x1 ADD SWAP1 DUP1 DUP4 GT PUSH2 0x15B8 JUMPI JUMPDEST POP POP POP POP POP DUP2 MSTORE POP POP SWAP1 POP SWAP2 SWAP1 POP JUMP JUMPDEST PUSH2 0x15E4 PUSH2 0x506E JUMP JUMPDEST PUSH1 0x1 PUSH1 0x1 PUSH1 0xA0 SHL SUB DUP3 AND PUSH1 0x0 SWAP1 DUP2 MSTORE PUSH1 0xB PUSH1 0x20 MSTORE PUSH1 0x40 DUP2 KECCAK256 SLOAD SWAP1 SUB PUSH2 0x1667 JUMPI PUSH1 0x40 MLOAD PUSH3 0x461BCD PUSH1 0xE5 SHL DUP2 MSTORE PUSH1 0x20 PUSH1 0x4 DUP3 ADD MSTORE PUSH1 0x33 PUSH1 0x24 DUP3 ADD MSTORE PUSH32 0xE8AFA5E4BBA5E5A4AAE59D8AE59CB0E59D80E79A84E794A8E688B7E4B8BAE7A9 PUSH1 0x44 DUP3 ADD MSTORE PUSH19 0xBAEFBC8CE8AFB7E5889BE5BBBAE794A8E688B7 PUSH1 0x68 SHL PUSH1 0x64 DUP3 ADD MSTORE PUSH1 0x84 ADD PUSH2 0x730 JUMP JUMPDEST PUSH1 0x1 PUSH1 0x1 PUSH1 0xA0 SHL SUB DUP1 DUP4 AND PUSH1 0x0 SWAP1 DUP2 MSTORE PUSH1 0xB PUSH1 0x20 SWAP1 DUP2 MSTORE PUSH1 0x40 SWAP2 DUP3 SWAP1 KECCAK256 DUP3 MLOAD PUSH2 0x140 DUP2 ADD DUP5 MSTORE DUP2 SLOAD DUP2 MSTORE PUSH1 0x1 DUP3 ADD SLOAD SWAP1 SWAP5 AND SWAP2 DUP5 ADD SWAP2 SWAP1 SWAP2 MSTORE PUSH1 0x2 DUP2 ADD SLOAD SWAP2 DUP4 ADD SWAP2 SWAP1 SWAP2 MSTORE PUSH1 0x3 DUP2 ADD DUP1 SLOAD PUSH1 0x60 DUP5 ADD SWAP2 SWAP1 PUSH2 0x12A9 SWAP1 PUSH2 0x5D23 JUMP JUMPDEST PUSH1 0x0 SLOAD PUSH1 0x1 PUSH1 0x1 PUSH1 0xA0 SHL SUB AND CALLER EQ PUSH2 0x1710 JUMPI PUSH1 0x40 MLOAD PUSH3 0x461BCD PUSH1 0xE5 SHL DUP2 MSTORE PUSH1 0x20 PUSH1 0x4 DUP3 ADD MSTORE PUSH1 0x12 PUSH1 0x24 DUP3 ADD MSTORE PUSH18 0xE99D9EE59088E7BAA6E68BA5E69C89E88085 PUSH1 0x70 SHL PUSH1 0x44 DUP3 ADD MSTORE PUSH1 0x64 ADD PUSH2 0x730 JUMP JUMPDEST PUSH1 0x1 PUSH1 0x1 PUSH1 0xA0 SHL SUB AND PUSH1 0x0 SWAP1 DUP2 MSTORE PUSH1 0x1 PUSH1 0x20 DUP2 SWAP1 MSTORE PUSH1 0x40 SWAP1 SWAP2 KECCAK256 DUP1 SLOAD PUSH1 0xFF NOT AND SWAP1 SWAP2 OR SWAP1 SSTORE JUMP JUMPDEST PUSH2 0x1742 DUP2 PUSH1 0x2 PUSH2 0x336C JUMP JUMPDEST PUSH1 0x40 DUP1 MLOAD DUP2 DUP2 MSTORE PUSH1 0xC SWAP2 DUP2 ADD SWAP2 SWAP1 SWAP2 MSTORE PUSH12 0x72D74673444873DDDA725FD7 PUSH1 0xA1 SHL PUSH1 0x60 DUP3 ADD MSTORE PUSH1 0x20 DUP2 ADD DUP3 SWAP1 MSTORE PUSH32 0xC75A39CE594D07B358D77D5639B50F5989551BD62799A7852CE9E48C6443E5EC SWAP1 PUSH1 0x80 ADD PUSH2 0x6DA JUMP JUMPDEST PUSH2 0x17A0 PUSH2 0x50CA JUMP JUMPDEST PUSH2 0x17A9 DUP3 PUSH2 0x3956 JUMP JUMPDEST PUSH1 0x0 DUP3 DUP2 MSTORE PUSH1 0xE PUSH1 0x20 SWAP1 DUP2 MSTORE PUSH1 0x40 SWAP2 DUP3 SWAP1 KECCAK256 DUP3 MLOAD PUSH2 0x180 DUP2 ADD DUP5 MSTORE DUP2 SLOAD DUP2 MSTORE PUSH1 0x1 DUP3 ADD SLOAD PUSH1 0x1 PUSH1 0x1 PUSH1 0xA0 SHL SUB AND SWAP3 DUP2 ADD SWAP3 SWAP1 SWAP3 MSTORE PUSH1 0x2 DUP2 ADD SLOAD SWAP3 DUP3 ADD SWAP3 SWAP1 SWAP3 MSTORE PUSH1 0x3 DUP3 ADD SLOAD PUSH1 0xFF AND ISZERO ISZERO PUSH1 0x60 DUP3 ADD MSTORE PUSH1 0x4 DUP3 ADD DUP1 SLOAD SWAP2 SWAP3 SWAP2 PUSH1 0x80 DUP5 ADD SWAP2 SWAP1 PUSH2 0x1810 SWAP1 PUSH2 0x5D23 JUMP JUMPDEST DUP1 PUSH1 0x1F ADD PUSH1 0x20 DUP1 SWAP2 DIV MUL PUSH1 0x20 ADD PUSH1 0x40 MLOAD SWAP1 DUP2 ADD PUSH1 0x40 MSTORE DUP1 SWAP3 SWAP2 SWAP1 DUP2 DUP2 MSTORE PUSH1 0x20 ADD DUP3 DUP1 SLOAD PUSH2 0x183C SWAP1 PUSH2 0x5D23 JUMP JUMPDEST DUP1 ISZERO PUSH2 0x1889 JUMPI DUP1 PUSH1 0x1F LT PUSH2 0x185E JUMPI PUSH2 0x100 DUP1 DUP4 SLOAD DIV MUL DUP4 MSTORE SWAP2 PUSH1 0x20 ADD SWAP2 PUSH2 0x1889 JUMP JUMPDEST DUP3 ADD SWAP2 SWAP1 PUSH1 0x0 MSTORE PUSH1 0x20 PUSH1 0x0 KECCAK256 SWAP1 JUMPDEST DUP2 SLOAD DUP2 MSTORE SWAP1 PUSH1 0x1 ADD SWAP1 PUSH1 0x20 ADD DUP1 DUP4 GT PUSH2 0x186C JUMPI DUP3 SWAP1 SUB PUSH1 0x1F AND DUP3 ADD SWAP2 JUMPDEST POP POP POP POP POP DUP2 MSTORE PUSH1 0x20 ADD PUSH1 0x5 DUP3 ADD DUP1 SLOAD PUSH2 0x18A2 SWAP1 PUSH2 0x5D23 JUMP JUMPDEST DUP1 PUSH1 0x1F ADD PUSH1 0x20 DUP1 SWAP2 DIV MUL PUSH1 0x20 ADD PUSH1 0x40 MLOAD SWAP1 DUP2 ADD PUSH1 0x40 MSTORE DUP1 SWAP3 SWAP2 SWAP1 DUP2 DUP2 MSTORE PUSH1 0x20 ADD DUP3 DUP1 SLOAD PUSH2 0x18CE SWAP1 PUSH2 0x5D23 JUMP JUMPDEST DUP1 ISZERO PUSH2 0x191B JUMPI DUP1 PUSH1 0x1F LT PUSH2 0x18F0 JUMPI PUSH2 0x100 DUP1 DUP4 SLOAD DIV MUL DUP4 MSTORE SWAP2 PUSH1 0x20 ADD SWAP2 PUSH2 0x191B JUMP JUMPDEST DUP3 ADD SWAP2 SWAP1 PUSH1 0x0 MSTORE PUSH1 0x20 PUSH1 0x0 KECCAK256 SWAP1 JUMPDEST DUP2 SLOAD DUP2 MSTORE SWAP1 PUSH1 0x1 ADD SWAP1 PUSH1 0x20 ADD DUP1 DUP4 GT PUSH2 0x18FE JUMPI DUP3 SWAP1 SUB PUSH1 0x1F AND DUP3 ADD SWAP2 JUMPDEST POP POP POP POP POP DUP2 MSTORE PUSH1 0x20 ADD PUSH1 0x6 DUP3 ADD DUP1 SLOAD PUSH2 0x1934 SWAP1 PUSH2 0x5D23 JUMP JUMPDEST DUP1 PUSH1 0x1F ADD PUSH1 0x20 DUP1 SWAP2 DIV MUL PUSH1 0x20 ADD PUSH1 0x40 MLOAD SWAP1 DUP2 ADD PUSH1 0x40 MSTORE DUP1 SWAP3 SWAP2 SWAP1 DUP2 DUP2 MSTORE PUSH1 0x20 ADD DUP3 DUP1 SLOAD PUSH2 0x1960 SWAP1 PUSH2 0x5D23 JUMP JUMPDEST DUP1 ISZERO PUSH2 0x19AD JUMPI DUP1 PUSH1 0x1F LT PUSH2 0x1982 JUMPI PUSH2 0x100 DUP1 DUP4 SLOAD DIV MUL DUP4 MSTORE SWAP2 PUSH1 0x20 ADD SWAP2 PUSH2 0x19AD JUMP JUMPDEST DUP3 ADD SWAP2 SWAP1 PUSH1 0x0 MSTORE PUSH1 0x20 PUSH1 0x0 KECCAK256 SWAP1 JUMPDEST DUP2 SLOAD DUP2 MSTORE SWAP1 PUSH1 0x1 ADD SWAP1 PUSH1 0x20 ADD DUP1 DUP4 GT PUSH2 0x1990 JUMPI DUP3 SWAP1 SUB PUSH1 0x1F AND DUP3 ADD SWAP2 JUMPDEST POP POP POP POP POP DUP2 MSTORE PUSH1 0x20 ADD PUSH1 0x7 DUP3 ADD DUP1 SLOAD PUSH2 0x19C6 SWAP1 PUSH2 0x5D23 JUMP JUMPDEST DUP1 PUSH1 0x1F ADD PUSH1 0x20 DUP1 SWAP2 DIV MUL PUSH1 0x20 ADD PUSH1 0x40 MLOAD SWAP1 DUP2 ADD PUSH1 0x40 MSTORE DUP1 SWAP3 SWAP2 SWAP1 DUP2 DUP2 MSTORE PUSH1 0x20 ADD DUP3 DUP1 SLOAD PUSH2 0x19F2 SWAP1 PUSH2 0x5D23 JUMP JUMPDEST DUP1 ISZERO PUSH2 0x1A3F JUMPI DUP1 PUSH1 0x1F LT PUSH2 0x1A14 JUMPI PUSH2 0x100 DUP1 DUP4 SLOAD DIV MUL DUP4 MSTORE SWAP2 PUSH1 0x20 ADD SWAP2 PUSH2 0x1A3F JUMP JUMPDEST DUP3 ADD SWAP2 SWAP1 PUSH1 0x0 MSTORE PUSH1 0x20 PUSH1 0x0 KECCAK256 SWAP1 JUMPDEST DUP2 SLOAD DUP2 MSTORE SWAP1 PUSH1 0x1 ADD SWAP1 PUSH1 0x20 ADD DUP1 DUP4 GT PUSH2 0x1A22 JUMPI DUP3 SWAP1 SUB PUSH1 0x1F AND DUP3 ADD SWAP2 JUMPDEST POP POP POP POP POP DUP2 MSTORE PUSH1 0x20 ADD PUSH1 0x8 DUP3 ADD SLOAD DUP2 MSTORE PUSH1 0x20 ADD PUSH1 0x9 DUP3 ADD SLOAD DUP2 MSTORE PUSH1 0x20 ADD PUSH1 0xA DUP3 ADD PUSH1 0x40 MLOAD DUP1 PUSH1 0x60 ADD PUSH1 0x40 MSTORE SWAP1 DUP2 PUSH1 0x0 DUP3 ADD SLOAD DUP2 MSTORE PUSH1 0x20 ADD PUSH1 0x1 DUP3 ADD SLOAD DUP2 MSTORE PUSH1 0x20 ADD PUSH1 0x2 DUP3 ADD SLOAD DUP2 MSTORE POP POP DUP2 MSTORE PUSH1 0x20 ADD PUSH1 0xD DUP3 ADD DUP1 SLOAD DUP1 PUSH1 0x20 MUL PUSH1 0x20 ADD PUSH1 0x40 MLOAD SWAP1 DUP2 ADD PUSH1 0x40 MSTORE DUP1 SWAP3 SWAP2 SWAP1 DUP2 DUP2 MSTORE PUSH1 0x20 ADD PUSH1 0x0 SWAP1 JUMPDEST DUP3 DUP3 LT ISZERO PUSH2 0x1B4C JUMPI PUSH1 0x0 DUP5 DUP2 MSTORE PUSH1 0x20 SWAP1 DUP2 SWAP1 KECCAK256 PUSH1 0x40 DUP1 MLOAD PUSH1 0xA0 DUP2 ADD DUP3 MSTORE PUSH1 0x4 DUP7 MUL SWAP1 SWAP3 ADD DUP1 SLOAD DUP4 MSTORE PUSH1 0x1 DUP2 ADD SLOAD SWAP4 DUP4 ADD SWAP4 SWAP1 SWAP4 MSTORE PUSH1 0x2 DUP4 ADD SLOAD SWAP1 DUP3 ADD MSTORE PUSH1 0x3 DUP1 DUP4 ADD SLOAD PUSH1 0x1 PUSH1 0x1 PUSH1 0xA0 SHL SUB DUP2 AND PUSH1 0x60 DUP5 ADD MSTORE SWAP2 SWAP3 SWAP2 PUSH1 0x80 DUP5 ADD SWAP2 PUSH1 0x1 PUSH1 0xA0 SHL SWAP1 SWAP2 DIV PUSH1 0xFF AND SWAP1 DUP2 GT ISZERO PUSH2 0x1B28 JUMPI PUSH2 0x1B28 PUSH2 0x52CD JUMP JUMPDEST PUSH1 0x3 DUP2 GT ISZERO PUSH2 0x1B39 JUMPI PUSH2 0x1B39 PUSH2 0x52CD JUMP JUMPDEST DUP2 MSTORE POP POP DUP2 MSTORE PUSH1 0x20 ADD SWAP1 PUSH1 0x1 ADD SWAP1 PUSH2 0x1AB3 JUMP JUMPDEST POP POP POP SWAP2 MSTORE POP SWAP1 SWAP4 SWAP3 POP POP POP JUMP JUMPDEST PUSH2 0x1B63 DUP8 PUSH2 0x3956 JUMP JUMPDEST PUSH1 0x0 DUP8 DUP2 MSTORE PUSH1 0xE PUSH1 0x20 MSTORE PUSH1 0x40 SWAP1 KECCAK256 PUSH1 0x1 DUP2 ADD SLOAD PUSH1 0x1 PUSH1 0x1 PUSH1 0xA0 SHL SUB AND CALLER EQ PUSH2 0x1BDD JUMPI PUSH1 0x40 MLOAD PUSH3 0x461BCD PUSH1 0xE5 SHL DUP2 MSTORE PUSH1 0x20 PUSH1 0x4 DUP3 ADD MSTORE PUSH1 0x27 PUSH1 0x24 DUP3 ADD MSTORE PUSH32 0xE99D9EE8AEBEE5A487E68C81E69C89E4BABAEFBC8CE697A0E6B395E4BFAEE694 PUSH1 0x44 DUP3 ADD MSTORE PUSH7 0xB9E4BFA1E681AF PUSH1 0xC8 SHL PUSH1 0x64 DUP3 ADD MSTORE PUSH1 0x84 ADD PUSH2 0x730 JUMP JUMPDEST PUSH1 0x4 DUP2 ADD PUSH2 0x1BEB DUP9 DUP3 PUSH2 0x5DDF JUMP JUMPDEST POP PUSH1 0x5 DUP2 ADD PUSH2 0x1BFA DUP8 DUP3 PUSH2 0x5DDF JUMP JUMPDEST POP PUSH1 0x6 DUP2 ADD PUSH2 0x1C09 DUP7 DUP3 PUSH2 0x5DDF JUMP JUMPDEST POP PUSH1 0x7 DUP2 ADD PUSH2 0x1C18 DUP6 DUP3 PUSH2 0x5DDF JUMP JUMPDEST POP PUSH1 0x9 DUP2 ADD SWAP3 SWAP1 SWAP3 SSTORE PUSH1 0x8 SWAP1 SWAP2 ADD SSTORE POP POP POP POP POP JUMP JUMPDEST PUSH1 0x60 PUSH2 0x663 PUSH1 0x17 PUSH1 0x0 DUP5 PUSH1 0x1 PUSH1 0x1 PUSH1 0xA0 SHL SUB AND PUSH1 0x1 PUSH1 0x1 PUSH1 0xA0 SHL SUB AND DUP2 MSTORE PUSH1 0x20 ADD SWAP1 DUP2 MSTORE PUSH1 0x20 ADD PUSH1 0x0 KECCAK256 DUP1 SLOAD DUP1 PUSH1 0x20 MUL PUSH1 0x20 ADD PUSH1 0x40 MLOAD SWAP1 DUP2 ADD PUSH1 0x40 MSTORE DUP1 SWAP3 SWAP2 SWAP1 DUP2 DUP2 MSTORE PUSH1 0x20 ADD DUP3 DUP1 SLOAD DUP1 ISZERO PUSH2 0x1CA2 JUMPI PUSH1 0x20 MUL DUP3 ADD SWAP2 SWAP1 PUSH1 0x0 MSTORE PUSH1 0x20 PUSH1 0x0 KECCAK256 SWAP1 JUMPDEST DUP2 SLOAD DUP2 MSTORE PUSH1 0x20 ADD SWAP1 PUSH1 0x1 ADD SWAP1 DUP1 DUP4 GT PUSH2 0x1C8E JUMPI JUMPDEST POP POP POP POP POP PUSH2 0x4318 JUMP JUMPDEST PUSH2 0x1CB4 PUSH2 0x5158 JUMP JUMPDEST PUSH2 0x1CBD DUP3 PUSH2 0x43CE JUMP JUMPDEST PUSH1 0x0 PUSH1 0x15 PUSH1 0x0 DUP5 DUP2 MSTORE PUSH1 0x20 ADD SWAP1 DUP2 MSTORE PUSH1 0x20 ADD PUSH1 0x0 KECCAK256 PUSH1 0x40 MLOAD DUP1 PUSH2 0x120 ADD PUSH1 0x40 MSTORE SWAP1 DUP2 PUSH1 0x0 DUP3 ADD SLOAD DUP2 MSTORE PUSH1 0x20 ADD PUSH1 0x1 DUP3 ADD SLOAD DUP2 MSTORE PUSH1 0x20 ADD PUSH1 0x2 DUP3 ADD DUP1 SLOAD PUSH2 0x1D02 SWAP1 PUSH2 0x5D23 JUMP JUMPDEST DUP1 PUSH1 0x1F ADD PUSH1 0x20 DUP1 SWAP2 DIV MUL PUSH1 0x20 ADD PUSH1 0x40 MLOAD SWAP1 DUP2 ADD PUSH1 0x40 MSTORE DUP1 SWAP3 SWAP2 SWAP1 DUP2 DUP2 MSTORE PUSH1 0x20 ADD DUP3 DUP1 SLOAD PUSH2 0x1D2E SWAP1 PUSH2 0x5D23 JUMP JUMPDEST DUP1 ISZERO PUSH2 0x1D7B JUMPI DUP1 PUSH1 0x1F LT PUSH2 0x1D50 JUMPI PUSH2 0x100 DUP1 DUP4 SLOAD DIV MUL DUP4 MSTORE SWAP2 PUSH1 0x20 ADD SWAP2 PUSH2 0x1D7B JUMP JUMPDEST DUP3 ADD SWAP2 SWAP1 PUSH1 0x0 MSTORE PUSH1 0x20 PUSH1 0x0 KECCAK256 SWAP1 JUMPDEST DUP2 SLOAD DUP2 MSTORE SWAP1 PUSH1 0x1 ADD SWAP1 PUSH1 0x20 ADD DUP1 DUP4 GT PUSH2 0x1D5E JUMPI DUP3 SWAP1 SUB PUSH1 0x1F AND DUP3 ADD SWAP2 JUMPDEST POP POP POP POP POP DUP2 MSTORE PUSH1 0x20 ADD PUSH1 0x3 DUP3 ADD DUP1 SLOAD PUSH2 0x1D94 SWAP1 PUSH2 0x5D23 JUMP JUMPDEST DUP1 PUSH1 0x1F ADD PUSH1 0x20 DUP1 SWAP2 DIV MUL PUSH1 0x20 ADD PUSH1 0x40 MLOAD SWAP1 DUP2 ADD PUSH1 0x40 MSTORE DUP1 SWAP3 SWAP2 SWAP1 DUP2 DUP2 MSTORE PUSH1 0x20 ADD DUP3 DUP1 SLOAD PUSH2 0x1DC0 SWAP1 PUSH2 0x5D23 JUMP JUMPDEST DUP1 ISZERO PUSH2 0x1E0D JUMPI DUP1 PUSH1 0x1F LT PUSH2 0x1DE2 JUMPI PUSH2 0x100 DUP1 DUP4 SLOAD DIV MUL DUP4 MSTORE SWAP2 PUSH1 0x20 ADD SWAP2 PUSH2 0x1E0D JUMP JUMPDEST DUP3 ADD SWAP2 SWAP1 PUSH1 0x0 MSTORE PUSH1 0x20 PUSH1 0x0 KECCAK256 SWAP1 JUMPDEST DUP2 SLOAD DUP2 MSTORE SWAP1 PUSH1 0x1 ADD SWAP1 PUSH1 0x20 ADD DUP1 DUP4 GT PUSH2 0x1DF0 JUMPI DUP3 SWAP1 SUB PUSH1 0x1F AND DUP3 ADD SWAP2 JUMPDEST POP POP POP SWAP2 DUP4 MSTORE POP POP PUSH1 0x4 DUP3 ADD SLOAD PUSH1 0x1 PUSH1 0x1 PUSH1 0xA0 SHL SUB SWAP1 DUP2 AND PUSH1 0x20 DUP1 DUP5 ADD SWAP2 SWAP1 SWAP2 MSTORE PUSH1 0x5 DUP5 ADD SLOAD SWAP1 SWAP2 AND PUSH1 0x40 DUP1 DUP5 ADD SWAP2 SWAP1 SWAP2 MSTORE DUP1 MLOAD PUSH1 0x80 DUP1 DUP3 ADD DUP4 MSTORE PUSH1 0x6 DUP7 ADD SLOAD DUP3 MSTORE PUSH1 0x7 DUP7 ADD SLOAD DUP3 DUP6 ADD MSTORE PUSH1 0x8 DUP7 ADD SLOAD DUP3 DUP5 ADD MSTORE PUSH1 0x9 DUP7 ADD SLOAD PUSH1 0xFF SWAP1 DUP2 AND ISZERO ISZERO PUSH1 0x60 DUP5 DUP2 ADD SWAP2 SWAP1 SWAP2 MSTORE DUP1 DUP8 ADD SWAP4 SWAP1 SWAP4 MSTORE DUP4 MLOAD DUP1 DUP4 ADD DUP6 MSTORE PUSH1 0xA DUP9 ADD DUP1 SLOAD DUP3 MSTORE PUSH1 0xB DUP10 ADD SLOAD SWAP7 DUP3 ADD SWAP7 SWAP1 SWAP7 MSTORE PUSH1 0xC DUP9 ADD SLOAD SWAP5 DUP2 ADD SWAP5 SWAP1 SWAP5 MSTORE PUSH1 0xD DUP8 ADD SLOAD SWAP2 SWAP1 SWAP6 ADD SWAP5 SWAP3 SWAP4 SWAP3 SWAP2 DUP5 ADD SWAP2 AND PUSH1 0x2 DUP2 GT ISZERO PUSH2 0x1EC7 JUMPI PUSH2 0x1EC7 PUSH2 0x52CD JUMP JUMPDEST PUSH1 0x2 DUP2 GT ISZERO PUSH2 0x1ED8 JUMPI PUSH2 0x1ED8 PUSH2 0x52CD JUMP JUMPDEST SWAP1 MSTORE POP DUP2 MSTORE PUSH1 0x40 DUP1 MLOAD PUSH1 0xC0 DUP2 ADD DUP3 MSTORE PUSH1 0xE DUP5 ADD SLOAD DUP2 MSTORE PUSH1 0xF DUP5 ADD SLOAD PUSH1 0x20 DUP3 DUP2 ADD SWAP2 SWAP1 SWAP2 MSTORE PUSH1 0x10 DUP6 ADD SLOAD SWAP3 DUP3 ADD SWAP3 SWAP1 SWAP3 MSTORE PUSH1 0x11 DUP5 ADD SLOAD PUSH1 0x60 DUP3 ADD MSTORE PUSH1 0x12 DUP5 ADD SLOAD PUSH1 0x80 DUP3 ADD MSTORE PUSH1 0x13 SWAP1 SWAP4 ADD SLOAD PUSH1 0xA0 DUP5 ADD MSTORE ADD MSTORE SWAP4 SWAP3 POP POP POP JUMP JUMPDEST PUSH1 0x0 PUSH1 0x15 PUSH1 0x0 DUP4 DUP2 MSTORE PUSH1 0x20 ADD SWAP1 DUP2 MSTORE PUSH1 0x20 ADD PUSH1 0x0 KECCAK256 PUSH1 0x40 MLOAD DUP1 PUSH2 0x120 ADD PUSH1 0x40 MSTORE SWAP1 DUP2 PUSH1 0x0 DUP3 ADD SLOAD DUP2 MSTORE PUSH1 0x20 ADD PUSH1 0x1 DUP3 ADD SLOAD DUP2 MSTORE PUSH1 0x20 ADD PUSH1 0x2 DUP3 ADD DUP1 SLOAD PUSH2 0x1F75 SWAP1 PUSH2 0x5D23 JUMP JUMPDEST DUP1 PUSH1 0x1F ADD PUSH1 0x20 DUP1 SWAP2 DIV MUL PUSH1 0x20 ADD PUSH1 0x40 MLOAD SWAP1 DUP2 ADD PUSH1 0x40 MSTORE DUP1 SWAP3 SWAP2 SWAP1 DUP2 DUP2 MSTORE PUSH1 0x20 ADD DUP3 DUP1 SLOAD PUSH2 0x1FA1 SWAP1 PUSH2 0x5D23 JUMP JUMPDEST DUP1 ISZERO PUSH2 0x1FEE JUMPI DUP1 PUSH1 0x1F LT PUSH2 0x1FC3 JUMPI PUSH2 0x100 DUP1 DUP4 SLOAD DIV MUL DUP4 MSTORE SWAP2 PUSH1 0x20 ADD SWAP2 PUSH2 0x1FEE JUMP JUMPDEST DUP3 ADD SWAP2 SWAP1 PUSH1 0x0 MSTORE PUSH1 0x20 PUSH1 0x0 KECCAK256 SWAP1 JUMPDEST DUP2 SLOAD DUP2 MSTORE SWAP1 PUSH1 0x1 ADD SWAP1 PUSH1 0x20 ADD DUP1 DUP4 GT PUSH2 0x1FD1 JUMPI DUP3 SWAP1 SUB PUSH1 0x1F AND DUP3 ADD SWAP2 JUMPDEST POP POP POP POP POP DUP2 MSTORE PUSH1 0x20 ADD PUSH1 0x3 DUP3 ADD DUP1 SLOAD PUSH2 0x2007 SWAP1 PUSH2 0x5D23 JUMP JUMPDEST DUP1 PUSH1 0x1F ADD PUSH1 0x20 DUP1 SWAP2 DIV MUL PUSH1 0x20 ADD PUSH1 0x40 MLOAD SWAP1 DUP2 ADD PUSH1 0x40 MSTORE DUP1 SWAP3 SWAP2 SWAP1 DUP2 DUP2 MSTORE PUSH1 0x20 ADD DUP3 DUP1 SLOAD PUSH2 0x2033 SWAP1 PUSH2 0x5D23 JUMP JUMPDEST DUP1 ISZERO PUSH2 0x2080 JUMPI DUP1 PUSH1 0x1F LT PUSH2 0x2055 JUMPI PUSH2 0x100 DUP1 DUP4 SLOAD DIV MUL DUP4 MSTORE SWAP2 PUSH1 0x20 ADD SWAP2 PUSH2 0x2080 JUMP JUMPDEST DUP3 ADD SWAP2 SWAP1 PUSH1 0x0 MSTORE PUSH1 0x20 PUSH1 0x0 KECCAK256 SWAP1 JUMPDEST DUP2 SLOAD DUP2 MSTORE SWAP1 PUSH1 0x1 ADD SWAP1 PUSH1 0x20 ADD DUP1 DUP4 GT PUSH2 0x2063 JUMPI DUP3 SWAP1 SUB PUSH1 0x1F AND DUP3 ADD SWAP2 JUMPDEST POP POP POP SWAP2 DUP4 MSTORE POP POP PUSH1 0x4 DUP3 ADD SLOAD PUSH1 0x1 PUSH1 0x1 PUSH1 0xA0 SHL SUB SWAP1 DUP2 AND PUSH1 0x20 DUP1 DUP5 ADD SWAP2 SWAP1 SWAP2 MSTORE PUSH1 0x5 DUP5 ADD SLOAD SWAP1 SWAP2 AND PUSH1 0x40 DUP1 DUP5 ADD SWAP2 SWAP1 SWAP2 MSTORE DUP1 MLOAD PUSH1 0x80 DUP1 DUP3 ADD DUP4 MSTORE PUSH1 0x6 DUP7 ADD SLOAD DUP3 MSTORE PUSH1 0x7 DUP7 ADD SLOAD DUP3 DUP6 ADD MSTORE PUSH1 0x8 DUP7 ADD SLOAD DUP3 DUP5 ADD MSTORE PUSH1 0x9 DUP7 ADD SLOAD PUSH1 0xFF SWAP1 DUP2 AND ISZERO ISZERO PUSH1 0x60 DUP5 DUP2 ADD SWAP2 SWAP1 SWAP2 MSTORE DUP1 DUP8 ADD SWAP4 SWAP1 SWAP4 MSTORE DUP4 MLOAD DUP1 DUP4 ADD DUP6 MSTORE PUSH1 0xA DUP9 ADD DUP1 SLOAD DUP3 MSTORE PUSH1 0xB DUP10 ADD SLOAD SWAP7 DUP3 ADD SWAP7 SWAP1 SWAP7 MSTORE PUSH1 0xC DUP9 ADD SLOAD SWAP5 DUP2 ADD SWAP5 SWAP1 SWAP5 MSTORE PUSH1 0xD DUP8 ADD SLOAD SWAP2 SWAP1 SWAP6 ADD SWAP5 SWAP3 SWAP4 SWAP3 SWAP2 DUP5 ADD SWAP2 AND PUSH1 0x2 DUP2 GT ISZERO PUSH2 0x213A JUMPI PUSH2 0x213A PUSH2 0x52CD JUMP JUMPDEST PUSH1 0x2 DUP2 GT ISZERO PUSH2 0x214B JUMPI PUSH2 0x214B PUSH2 0x52CD JUMP JUMPDEST DUP2 MSTORE POP POP DUP2 MSTORE PUSH1 0x20 ADD PUSH1 0xE DUP3 ADD PUSH1 0x40 MLOAD DUP1 PUSH1 0xC0 ADD PUSH1 0x40 MSTORE SWAP1 DUP2 PUSH1 0x0 DUP3 ADD SLOAD DUP2 MSTORE PUSH1 0x20 ADD PUSH1 0x1 DUP3 ADD SLOAD DUP2 MSTORE PUSH1 0x20 ADD PUSH1 0x2 DUP3 ADD SLOAD DUP2 MSTORE PUSH1 0x20 ADD PUSH1 0x3 DUP3 ADD SLOAD DUP2 MSTORE PUSH1 0x20 ADD PUSH1 0x4 DUP3 ADD SLOAD DUP2 MSTORE PUSH1 0x20 ADD PUSH1 0x5 DUP3 ADD SLOAD DUP2 MSTORE POP POP DUP2 MSTORE POP POP SWAP1 POP DUP1 PUSH1 0xA0 ADD MLOAD PUSH1 0x1 PUSH1 0x1 PUSH1 0xA0 SHL SUB AND CALLER PUSH1 0x1 PUSH1 0x1 PUSH1 0xA0 SHL SUB AND EQ PUSH2 0x2214 JUMPI PUSH1 0x40 MLOAD PUSH3 0x461BCD PUSH1 0xE5 SHL DUP2 MSTORE PUSH1 0x20 PUSH1 0x4 DUP3 ADD MSTORE PUSH1 0x21 PUSH1 0x24 DUP3 ADD MSTORE PUSH32 0xE99D9EE8AEBEE5A487E7A79FE794A8E4BABAEFBC8CE697A0E6B395E588A0E999 PUSH1 0x44 DUP3 ADD MSTORE PUSH1 0x29 PUSH1 0xFA SHL PUSH1 0x64 DUP3 ADD MSTORE PUSH1 0x84 ADD PUSH2 0x730 JUMP JUMPDEST DUP1 PUSH2 0x100 ADD MLOAD PUSH1 0xA0 ADD MLOAD PUSH1 0x0 SUB PUSH2 0x226D JUMPI PUSH1 0x40 MLOAD PUSH3 0x461BCD PUSH1 0xE5 SHL DUP2 MSTORE PUSH1 0x20 PUSH1 0x4 DUP3 ADD MSTORE PUSH1 0x1E PUSH1 0x24 DUP3 ADD MSTORE PUSH32 0xE59088E5908CE69CAAE5AE8CE68890EFBC8CE697A0E6B395E588A0E999A40000 PUSH1 0x44 DUP3 ADD MSTORE PUSH1 0x64 ADD PUSH2 0x730 JUMP JUMPDEST POP POP JUMP JUMPDEST PUSH2 0x226D DUP3 DUP3 PUSH2 0x2284 DUP2 PUSH4 0x12CC0300 PUSH2 0x5D10 JUMP JUMPDEST PUSH1 0x3 PUSH2 0x2E05 JUMP JUMPDEST PUSH2 0x846 CALLER DUP8 DUP8 DUP8 DUP8 DUP8 DUP8 PUSH2 0x41C2 JUMP JUMPDEST PUSH1 0x0 PUSH1 0x15 PUSH1 0x0 DUP4 DUP2 MSTORE PUSH1 0x20 ADD SWAP1 DUP2 MSTORE PUSH1 0x20 ADD PUSH1 0x0 KECCAK256 PUSH1 0x40 MLOAD DUP1 PUSH2 0x120 ADD PUSH1 0x40 MSTORE SWAP1 DUP2 PUSH1 0x0 DUP3 ADD SLOAD DUP2 MSTORE PUSH1 0x20 ADD PUSH1 0x1 DUP3 ADD SLOAD DUP2 MSTORE PUSH1 0x20 ADD PUSH1 0x2 DUP3 ADD DUP1 SLOAD PUSH2 0x22DF SWAP1 PUSH2 0x5D23 JUMP JUMPDEST DUP1 PUSH1 0x1F ADD PUSH1 0x20 DUP1 SWAP2 DIV MUL PUSH1 0x20 ADD PUSH1 0x40 MLOAD SWAP1 DUP2 ADD PUSH1 0x40 MSTORE DUP1 SWAP3 SWAP2 SWAP1 DUP2 DUP2 MSTORE PUSH1 0x20 ADD DUP3 DUP1 SLOAD PUSH2 0x230B SWAP1 PUSH2 0x5D23 JUMP JUMPDEST DUP1 ISZERO PUSH2 0x2358 JUMPI DUP1 PUSH1 0x1F LT PUSH2 0x232D JUMPI PUSH2 0x100 DUP1 DUP4 SLOAD DIV MUL DUP4 MSTORE SWAP2 PUSH1 0x20 ADD SWAP2 PUSH2 0x2358 JUMP JUMPDEST DUP3 ADD SWAP2 SWAP1 PUSH1 0x0 MSTORE PUSH1 0x20 PUSH1 0x0 KECCAK256 SWAP1 JUMPDEST DUP2 SLOAD DUP2 MSTORE SWAP1 PUSH1 0x1 ADD SWAP1 PUSH1 0x20 ADD DUP1 DUP4 GT PUSH2 0x233B JUMPI DUP3 SWAP1 SUB PUSH1 0x1F AND DUP3 ADD SWAP2 JUMPDEST POP POP POP POP POP DUP2 MSTORE PUSH1 0x20 ADD PUSH1 0x3 DUP3 ADD DUP1 SLOAD PUSH2 0x2371 SWAP1 PUSH2 0x5D23 JUMP JUMPDEST DUP1 PUSH1 0x1F ADD PUSH1 0x20 DUP1 SWAP2 DIV MUL PUSH1 0x20 ADD PUSH1 0x40 MLOAD SWAP1 DUP2 ADD PUSH1 0x40 MSTORE DUP1 SWAP3 SWAP2 SWAP1 DUP2 DUP2 MSTORE PUSH1 0x20 ADD DUP3 DUP1 SLOAD PUSH2 0x239D SWAP1 PUSH2 0x5D23 JUMP JUMPDEST DUP1 ISZERO PUSH2 0x23EA JUMPI DUP1 PUSH1 0x1F LT PUSH2 0x23BF JUMPI PUSH2 0x100 DUP1 DUP4 SLOAD DIV MUL DUP4 MSTORE SWAP2 PUSH1 0x20 ADD SWAP2 PUSH2 0x23EA JUMP JUMPDEST DUP3 ADD SWAP2 SWAP1 PUSH1 0x0 MSTORE PUSH1 0x20 PUSH1 0x0 KECCAK256 SWAP1 JUMPDEST DUP2 SLOAD DUP2 MSTORE SWAP1 PUSH1 0x1 ADD SWAP1 PUSH1 0x20 ADD DUP1 DUP4 GT PUSH2 0x23CD JUMPI DUP3 SWAP1 SUB PUSH1 0x1F AND DUP3 ADD SWAP2 JUMPDEST POP POP POP SWAP2 DUP4 MSTORE POP POP PUSH1 0x4 DUP3 ADD SLOAD PUSH1 0x1 PUSH1 0x1 PUSH1 0xA0 SHL SUB SWAP1 DUP2 AND PUSH1 0x20 DUP1 DUP5 ADD SWAP2 SWAP1 SWAP2 MSTORE PUSH1 0x5 DUP5 ADD SLOAD SWAP1 SWAP2 AND PUSH1 0x40 DUP1 DUP5 ADD SWAP2 SWAP1 SWAP2 MSTORE DUP1 MLOAD PUSH1 0x80 DUP1 DUP3 ADD DUP4 MSTORE PUSH1 0x6 DUP7 ADD SLOAD DUP3 MSTORE PUSH1 0x7 DUP7 ADD SLOAD DUP3 DUP6 ADD MSTORE PUSH1 0x8 DUP7 ADD SLOAD DUP3 DUP5 ADD MSTORE PUSH1 0x9 DUP7 ADD SLOAD PUSH1 0xFF SWAP1 DUP2 AND ISZERO ISZERO PUSH1 0x60 DUP5 DUP2 ADD SWAP2 SWAP1 SWAP2 MSTORE DUP1 DUP8 ADD SWAP4 SWAP1 SWAP4 MSTORE DUP4 MLOAD DUP1 DUP4 ADD DUP6 MSTORE PUSH1 0xA DUP9 ADD DUP1 SLOAD DUP3 MSTORE PUSH1 0xB DUP10 ADD SLOAD SWAP7 DUP3 ADD SWAP7 SWAP1 SWAP7 MSTORE PUSH1 0xC DUP9 ADD SLOAD SWAP5 DUP2 ADD SWAP5 SWAP1 SWAP5 MSTORE PUSH1 0xD DUP8 ADD SLOAD SWAP2 SWAP1 SWAP6 ADD SWAP5 SWAP3 SWAP4 SWAP3 SWAP2 DUP5 ADD SWAP2 AND PUSH1 0x2 DUP2 GT ISZERO PUSH2 0x24A4 JUMPI PUSH2 0x24A4 PUSH2 0x52CD JUMP JUMPDEST PUSH1 0x2 DUP2 GT ISZERO PUSH2 0x24B5 JUMPI PUSH2 0x24B5 PUSH2 0x52CD JUMP JUMPDEST DUP2 MSTORE POP POP DUP2 MSTORE PUSH1 0x20 ADD PUSH1 0xE DUP3 ADD PUSH1 0x40 MLOAD DUP1 PUSH1 0xC0 ADD PUSH1 0x40 MSTORE SWAP1 DUP2 PUSH1 0x0 DUP3 ADD SLOAD DUP2 MSTORE PUSH1 0x20 ADD PUSH1 0x1 DUP3 ADD SLOAD DUP2 MSTORE PUSH1 0x20 ADD PUSH1 0x2 DUP3 ADD SLOAD DUP2 MSTORE PUSH1 0x20 ADD PUSH1 0x3 DUP3 ADD SLOAD DUP2 MSTORE PUSH1 0x20 ADD PUSH1 0x4 DUP3 ADD SLOAD DUP2 MSTORE PUSH1 0x20 ADD PUSH1 0x5 DUP3 ADD SLOAD DUP2 MSTORE POP POP DUP2 MSTORE POP POP SWAP1 POP DUP1 PUSH1 0x80 ADD MLOAD PUSH1 0x1 PUSH1 0x1 PUSH1 0xA0 SHL SUB AND CALLER PUSH1 0x1 PUSH1 0x1 PUSH1 0xA0 SHL SUB AND EQ PUSH2 0x2214 JUMPI PUSH1 0x40 MLOAD PUSH3 0x461BCD PUSH1 0xE5 SHL DUP2 MSTORE PUSH1 0x20 PUSH1 0x4 DUP3 ADD MSTORE PUSH1 0x21 PUSH1 0x24 DUP3 ADD MSTORE PUSH32 0xE99D9EE8AEBEE5A487E68C81E69C89E4BABAEFBC8CE697A0E6B395E588A0E999 PUSH1 0x44 DUP3 ADD MSTORE PUSH1 0x29 PUSH1 0xFA SHL PUSH1 0x64 DUP3 ADD MSTORE PUSH1 0x84 ADD PUSH2 0x730 JUMP JUMPDEST CALLER PUSH1 0x0 SWAP1 DUP2 MSTORE PUSH1 0x7 PUSH1 0x20 MSTORE PUSH1 0x40 DUP2 KECCAK256 SLOAD DUP3 GT ISZERO PUSH2 0x25DD JUMPI PUSH1 0x40 MLOAD PUSH3 0x461BCD PUSH1 0xE5 SHL DUP2 MSTORE PUSH1 0x20 PUSH1 0x4 DUP3 ADD MSTORE PUSH1 0x18 PUSH1 0x24 DUP3 ADD MSTORE PUSH32 0xE682A8E79A84E8B4A6E58FB7E4BD99E9A29DE4B88DE8B6B30000000000000000 PUSH1 0x44 DUP3 ADD MSTORE PUSH1 0x64 ADD PUSH2 0x730 JUMP JUMPDEST CALLER PUSH1 0x0 SWAP1 DUP2 MSTORE PUSH1 0x7 PUSH1 0x20 MSTORE PUSH1 0x40 DUP2 KECCAK256 DUP1 SLOAD DUP5 SWAP3 SWAP1 PUSH2 0x25FC SWAP1 DUP5 SWAP1 PUSH2 0x5D6D JUMP JUMPDEST SWAP1 SWAP2 SSTORE POP POP PUSH1 0x1 PUSH1 0x1 PUSH1 0xA0 SHL SUB DUP4 AND PUSH1 0x0 SWAP1 DUP2 MSTORE PUSH1 0x7 PUSH1 0x20 MSTORE PUSH1 0x40 DUP2 KECCAK256 DUP1 SLOAD DUP5 SWAP3 SWAP1 PUSH2 0x2629 SWAP1 DUP5 SWAP1 PUSH2 0x5D10 JUMP JUMPDEST SWAP1 SWAP2 SSTORE POP POP PUSH1 0x40 MLOAD DUP3 DUP2 MSTORE PUSH1 0x1 PUSH1 0x1 PUSH1 0xA0 SHL SUB DUP5 AND SWAP1 CALLER SWAP1 PUSH32 0xDDF252AD1BE2C89B69C2B068FC378DAA952BA7F163C4A11628F55A4DF523B3EF SWAP1 PUSH1 0x20 ADD JUMPDEST PUSH1 0x40 MLOAD DUP1 SWAP2 SUB SWAP1 LOG3 POP PUSH1 0x1 SWAP3 SWAP2 POP POP JUMP JUMPDEST PUSH1 0x0 PUSH2 0x2683 DUP3 PUSH2 0x442B JUMP JUMPDEST SWAP1 POP PUSH2 0x115F DUP2 PUSH1 0xA0 ADD MLOAD DUP3 PUSH1 0xC0 ADD MLOAD PUSH1 0x40 ADD MLOAD PUSH2 0x257E JUMP JUMPDEST PUSH1 0x60 PUSH2 0x26F4 PUSH1 0x18 DUP1 SLOAD DUP1 PUSH1 0x20 MUL PUSH1 0x20 ADD PUSH1 0x40 MLOAD SWAP1 DUP2 ADD PUSH1 0x40 MSTORE DUP1 SWAP3 SWAP2 SWAP1 DUP2 DUP2 MSTORE PUSH1 0x20 ADD DUP3 DUP1 SLOAD DUP1 ISZERO PUSH2 0x1CA2 JUMPI PUSH1 0x20 MUL DUP3 ADD SWAP2 SWAP1 PUSH1 0x0 MSTORE PUSH1 0x20 PUSH1 0x0 KECCAK256 SWAP1 DUP2 SLOAD DUP2 MSTORE PUSH1 0x20 ADD SWAP1 PUSH1 0x1 ADD SWAP1 DUP1 DUP4 GT PUSH2 0x1C8E JUMPI POP POP POP POP POP PUSH2 0x4318 JUMP JUMPDEST SWAP1 POP SWAP1 JUMP JUMPDEST PUSH2 0x2707 CALLER DUP7 DUP7 DUP7 DUP7 DUP7 PUSH2 0x3777 JUMP JUMPDEST POP POP POP POP POP JUMP JUMPDEST PUSH1 0x60 PUSH2 0x26F4 PUSH1 0x12 DUP1 SLOAD DUP1 PUSH1 0x20 MUL PUSH1 0x20 ADD PUSH1 0x40 MLOAD SWAP1 DUP2 ADD PUSH1 0x40 MSTORE DUP1 SWAP3 SWAP2 SWAP1 DUP2 DUP2 MSTORE PUSH1 0x20 ADD DUP3 DUP1 SLOAD DUP1 ISZERO PUSH2 0x659 JUMPI PUSH1 0x20 MUL DUP3 ADD SWAP2 SWAP1 PUSH1 0x0 MSTORE PUSH1 0x20 PUSH1 0x0 KECCAK256 SWAP1 DUP2 SLOAD DUP2 MSTORE PUSH1 0x20 ADD SWAP1 PUSH1 0x1 ADD SWAP1 DUP1 DUP4 GT PUSH2 0x645 JUMPI POP POP POP POP POP PUSH2 0x2D43 JUMP JUMPDEST PUSH1 0x60 PUSH2 0x663 PUSH1 0x16 PUSH1 0x0 DUP5 PUSH1 0x1 PUSH1 0x1 PUSH1 0xA0 SHL SUB AND PUSH1 0x1 PUSH1 0x1 PUSH1 0xA0 SHL SUB AND DUP2 MSTORE PUSH1 0x20 ADD SWAP1 DUP2 MSTORE PUSH1 0x20 ADD PUSH1 0x0 KECCAK256 DUP1 SLOAD DUP1 PUSH1 0x20 MUL PUSH1 0x20 ADD PUSH1 0x40 MLOAD SWAP1 DUP2 ADD PUSH1 0x40 MSTORE DUP1 SWAP3 SWAP2 SWAP1 DUP2 DUP2 MSTORE PUSH1 0x20 ADD DUP3 DUP1 SLOAD DUP1 ISZERO PUSH2 0x1CA2 JUMPI PUSH1 0x20 MUL DUP3 ADD SWAP2 SWAP1 PUSH1 0x0 MSTORE PUSH1 0x20 PUSH1 0x0 KECCAK256 SWAP1 DUP2 SLOAD DUP2 MSTORE PUSH1 0x20 ADD SWAP1 PUSH1 0x1 ADD SWAP1 DUP1 DUP4 GT PUSH2 0x1C8E JUMPI POP POP POP POP POP PUSH2 0x4318 JUMP JUMPDEST PUSH2 0x2707 CALLER DUP7 DUP7 DUP7 DUP7 DUP7 PUSH2 0x465D JUMP JUMPDEST PUSH1 0x0 PUSH2 0x27FC DUP3 PUSH2 0x47A3 JUMP JUMPDEST SWAP1 POP PUSH2 0x226D DUP2 PUSH1 0x20 ADD MLOAD PUSH2 0x496B JUMP JUMPDEST PUSH1 0x60 PUSH2 0x2826 CALLER PUSH1 0x0 SWAP1 DUP2 MSTORE PUSH1 0x1 PUSH1 0x20 MSTORE PUSH1 0x40 SWAP1 KECCAK256 SLOAD PUSH1 0xFF AND SWAP1 JUMP JUMPDEST PUSH2 0x2887 JUMPI PUSH1 0x40 MLOAD PUSH3 0x461BCD PUSH1 0xE5 SHL DUP2 MSTORE PUSH1 0x20 PUSH1 0x4 DUP3 ADD MSTORE PUSH1 0x2C PUSH1 0x24 DUP3 ADD MSTORE PUSH32 0xE69D83E99990E4B88DE8B6B32C20E697A0E6B395E88EB7E58F96E68980E69C89 PUSH1 0x44 DUP3 ADD MSTORE PUSH12 0xE794A8E688B7E4BFA1E681AF PUSH1 0xA0 SHL PUSH1 0x64 DUP3 ADD MSTORE PUSH1 0x84 ADD PUSH2 0x730 JUMP JUMPDEST PUSH1 0xC SLOAD PUSH2 0x26F4 SWAP1 PUSH1 0x0 SWAP1 PUSH2 0xF2F JUMP JUMPDEST PUSH1 0x0 PUSH2 0x28A1 DUP3 PUSH2 0x4A4C JUMP JUMPDEST SWAP1 POP PUSH2 0x28B9 DUP2 PUSH1 0xA0 ADD MLOAD DUP3 PUSH1 0xC0 ADD MLOAD PUSH1 0x20 ADD MLOAD PUSH2 0x4020 JUMP JUMPDEST POP PUSH1 0x20 DUP1 DUP3 ADD MLOAD PUSH1 0xE0 DUP4 ADD MLOAD DUP1 MLOAD SWAP3 ADD MLOAD PUSH2 0x226D SWAP3 SWAP1 PUSH2 0x4C7E JUMP JUMPDEST PUSH1 0x0 PUSH2 0x28DF DUP3 PUSH2 0x4D07 JUMP JUMPDEST PUSH1 0xC0 DUP2 ADD MLOAD PUSH1 0x40 ADD MLOAD PUSH1 0xE0 DUP3 ADD MLOAD PUSH1 0x20 ADD MLOAD SWAP2 SWAP3 POP SWAP1 PUSH1 0x0 SWAP1 PUSH2 0x2902 SWAP1 TIMESTAMP PUSH2 0x5D6D JUMP JUMPDEST SWAP1 POP PUSH1 0xA DUP4 PUSH1 0xC0 ADD MLOAD PUSH1 0x40 ADD MLOAD DUP3 PUSH2 0x291A SWAP2 SWAP1 PUSH2 0x5E9F JUMP JUMPDEST PUSH2 0x2924 SWAP2 SWAP1 PUSH2 0x5EB6 JUMP JUMPDEST PUSH2 0x292E SWAP1 DUP4 PUSH2 0x5D6D JUMP JUMPDEST SWAP2 POP PUSH1 0x0 DUP3 GT PUSH2 0x293F JUMPI PUSH1 0x0 PUSH2 0x2941 JUMP JUMPDEST DUP2 JUMPDEST SWAP2 POP PUSH2 0x2707 DUP4 PUSH1 0xA0 ADD MLOAD DUP5 PUSH1 0xC0 ADD MLOAD PUSH1 0x40 ADD MLOAD PUSH2 0x257E JUMP JUMPDEST PUSH2 0x296C DUP2 TIMESTAMP PUSH2 0x2284 DUP2 PUSH4 0x12CC0300 PUSH2 0x5D10 JUMP JUMPDEST PUSH1 0x40 DUP1 MLOAD DUP2 DUP2 MSTORE PUSH1 0xF SWAP2 DUP2 ADD SWAP2 SWAP1 SWAP2 MSTORE PUSH15 0xE5B7B2E586BBE7BB93E8AEBEE5A487 PUSH1 0x88 SHL PUSH1 0x60 DUP3 ADD MSTORE PUSH1 0x20 DUP2 ADD DUP3 SWAP1 MSTORE PUSH32 0x91712BB43158CEC3E423C7324D4CBB41DA429D5DD6E3D490A74CCEFF80CC3C05 SWAP1 PUSH1 0x80 ADD PUSH2 0x6DA JUMP JUMPDEST CALLER PUSH1 0x0 SWAP1 DUP2 MSTORE PUSH1 0x1 PUSH1 0x20 MSTORE PUSH1 0x40 SWAP1 KECCAK256 SLOAD PUSH1 0xFF AND PUSH2 0x2A39 JUMPI PUSH1 0x40 MLOAD PUSH3 0x461BCD PUSH1 0xE5 SHL DUP2 MSTORE PUSH1 0x20 PUSH1 0x4 DUP3 ADD MSTORE PUSH1 0x2C PUSH1 0x24 DUP3 ADD MSTORE PUSH32 0xE69D83E99990E4B88DE8B6B32C20E697A0E6B395E4BFAEE694B9E585B6E4BB96 PUSH1 0x44 DUP3 ADD MSTORE PUSH12 0xE794A8E688B7E4BFA1E681AF PUSH1 0xA0 SHL PUSH1 0x64 DUP3 ADD MSTORE PUSH1 0x84 ADD PUSH2 0x730 JUMP JUMPDEST PUSH2 0x846 DUP7 DUP7 DUP7 DUP7 DUP7 DUP7 PUSH2 0x465D JUMP JUMPDEST PUSH2 0x2A50 DUP2 PUSH2 0x3956 JUMP JUMPDEST PUSH1 0x0 DUP2 DUP2 MSTORE PUSH1 0xE PUSH1 0x20 MSTORE PUSH1 0x40 SWAP1 KECCAK256 PUSH1 0x1 DUP2 ADD SLOAD PUSH1 0x1 PUSH1 0x1 PUSH1 0xA0 SHL SUB AND CALLER EQ PUSH2 0x2ACA JUMPI PUSH1 0x40 MLOAD PUSH3 0x461BCD PUSH1 0xE5 SHL DUP2 MSTORE PUSH1 0x20 PUSH1 0x4 DUP3 ADD MSTORE PUSH1 0x27 PUSH1 0x24 DUP3 ADD MSTORE PUSH32 0xE99D9EE8AEBEE5A487E68C81E69C89E4BABAEFBC8CE697A0E6B395E588A0E999 PUSH1 0x44 DUP3 ADD MSTORE PUSH7 0xA4E8AEBEE5A487 PUSH1 0xC8 SHL PUSH1 0x64 DUP3 ADD MSTORE PUSH1 0x84 ADD PUSH2 0x730 JUMP JUMPDEST PUSH1 0xD DUP2 ADD SLOAD ISZERO PUSH2 0x2B31 JUMPI PUSH1 0x40 MLOAD PUSH3 0x461BCD PUSH1 0xE5 SHL DUP2 MSTORE PUSH1 0x20 PUSH1 0x4 DUP3 ADD MSTORE PUSH1 0x2C PUSH1 0x24 DUP3 ADD MSTORE PUSH32 0xE8AEBEE5A487E587BAE7A79F2FE7BBB4E4BFAE2FE586BBE7BB93E4B8ADEFBC8C PUSH1 0x44 DUP3 ADD MSTORE PUSH12 0x392E237963EBF962283A6669 PUSH1 0xA2 SHL PUSH1 0x64 DUP3 ADD MSTORE PUSH1 0x84 ADD PUSH2 0x730 JUMP JUMPDEST CALLER PUSH1 0x0 SWAP1 DUP2 MSTORE PUSH1 0xF PUSH1 0x20 MSTORE PUSH1 0x40 SWAP1 DUP2 SWAP1 KECCAK256 SWAP1 MLOAD PUSH4 0xF3C0D275 PUSH1 0xE0 SHL DUP2 MSTORE PUSH1 0x4 DUP2 ADD SWAP2 SWAP1 SWAP2 MSTORE PUSH1 0x24 DUP2 ADD DUP4 SWAP1 MSTORE PUSH20 0x0 SWAP1 PUSH4 0xF3C0D275 SWAP1 PUSH1 0x44 ADD PUSH1 0x0 PUSH1 0x40 MLOAD DUP1 DUP4 SUB DUP2 DUP7 DUP1 EXTCODESIZE ISZERO DUP1 ISZERO PUSH2 0x2B94 JUMPI PUSH1 0x0 DUP1 REVERT JUMPDEST POP GAS DELEGATECALL ISZERO DUP1 ISZERO PUSH2 0x2BA8 JUMPI RETURNDATASIZE PUSH1 0x0 DUP1 RETURNDATACOPY RETURNDATASIZE PUSH1 0x0 REVERT JUMPDEST POP POP PUSH1 0x40 MLOAD PUSH4 0xF3C0D275 PUSH1 0xE0 SHL DUP2 MSTORE PUSH1 0x12 PUSH1 0x4 DUP3 ADD MSTORE PUSH1 0x24 DUP2 ADD DUP6 SWAP1 MSTORE PUSH20 0x0 SWAP3 POP PUSH4 0xF3C0D275 SWAP2 POP PUSH1 0x44 ADD PUSH1 0x0 PUSH1 0x40 MLOAD DUP1 DUP4 SUB DUP2 DUP7 DUP1 EXTCODESIZE ISZERO DUP1 ISZERO PUSH2 0x2BFE JUMPI PUSH1 0x0 DUP1 REVERT JUMPDEST POP GAS DELEGATECALL ISZERO DUP1 ISZERO PUSH2 0x846 JUMPI RETURNDATASIZE PUSH1 0x0 DUP1 RETURNDATACOPY RETURNDATASIZE PUSH1 0x0 REVERT JUMPDEST PUSH1 0x2 DUP1 SLOAD PUSH1 0x3 DUP1 SLOAD SWAP2 SWAP3 SWAP2 PUSH2 0x2C26 SWAP1 PUSH2 0x5D23 JUMP JUMPDEST DUP1 PUSH1 0x1F ADD PUSH1 0x20 DUP1 SWAP2 DIV MUL PUSH1 0x20 ADD PUSH1 0x40 MLOAD SWAP1 DUP2 ADD PUSH1 0x40 MSTORE DUP1 SWAP3 SWAP2 SWAP1 DUP2 DUP2 MSTORE PUSH1 0x20 ADD DUP3 DUP1 SLOAD PUSH2 0x2C52 SWAP1 PUSH2 0x5D23 JUMP JUMPDEST DUP1 ISZERO PUSH2 0x2C9F JUMPI DUP1 PUSH1 0x1F LT PUSH2 0x2C74 JUMPI PUSH2 0x100 DUP1 DUP4 SLOAD DIV MUL DUP4 MSTORE SWAP2 PUSH1 0x20 ADD SWAP2 PUSH2 0x2C9F JUMP JUMPDEST DUP3 ADD SWAP2 SWAP1 PUSH1 0x0 MSTORE PUSH1 0x20 PUSH1 0x0 KECCAK256 SWAP1 JUMPDEST DUP2 SLOAD DUP2 MSTORE SWAP1 PUSH1 0x1 ADD SWAP1 PUSH1 0x20 ADD DUP1 DUP4 GT PUSH2 0x2C82 JUMPI DUP3 SWAP1 SUB PUSH1 0x1F AND DUP3 ADD SWAP2 JUMPDEST POP POP POP POP POP SWAP1 DUP1 PUSH1 0x2 ADD DUP1 SLOAD PUSH2 0x2CB4 SWAP1 PUSH2 0x5D23 JUMP JUMPDEST DUP1 PUSH1 0x1F ADD PUSH1 0x20 DUP1 SWAP2 DIV MUL PUSH1 0x20 ADD PUSH1 0x40 MLOAD SWAP1 DUP2 ADD PUSH1 0x40 MSTORE DUP1 SWAP3 SWAP2 SWAP1 DUP2 DUP2 MSTORE PUSH1 0x20 ADD DUP3 DUP1 SLOAD PUSH2 0x2CE0 SWAP1 PUSH2 0x5D23 JUMP JUMPDEST DUP1 ISZERO PUSH2 0x2D2D JUMPI DUP1 PUSH1 0x1F LT PUSH2 0x2D02 JUMPI PUSH2 0x100 DUP1 DUP4 SLOAD DIV MUL DUP4 MSTORE SWAP2 PUSH1 0x20 ADD SWAP2 PUSH2 0x2D2D JUMP JUMPDEST DUP3 ADD SWAP2 SWAP1 PUSH1 0x0 MSTORE PUSH1 0x20 PUSH1 0x0 KECCAK256 SWAP1 JUMPDEST DUP2 SLOAD DUP2 MSTORE SWAP1 PUSH1 0x1 ADD SWAP1 PUSH1 0x20 ADD DUP1 DUP4 GT PUSH2 0x2D10 JUMPI DUP3 SWAP1 SUB PUSH1 0x1F AND DUP3 ADD SWAP2 JUMPDEST POP POP POP POP POP SWAP1 DUP1 PUSH1 0x3 ADD SLOAD SWAP1 DUP1 PUSH1 0x4 ADD SLOAD SWAP1 POP DUP6 JUMP JUMPDEST PUSH1 0x60 DUP2 MLOAD PUSH8 0xFFFFFFFFFFFFFFFF DUP2 GT ISZERO PUSH2 0x2D5F JUMPI PUSH2 0x2D5F PUSH2 0x54E5 JUMP JUMPDEST PUSH1 0x40 MLOAD SWAP1 DUP1 DUP3 MSTORE DUP1 PUSH1 0x20 MUL PUSH1 0x20 ADD DUP3 ADD PUSH1 0x40 MSTORE DUP1 ISZERO PUSH2 0x2D98 JUMPI DUP2 PUSH1 0x20 ADD JUMPDEST PUSH2 0x2D85 PUSH2 0x50CA JUMP JUMPDEST DUP2 MSTORE PUSH1 0x20 ADD SWAP1 PUSH1 0x1 SWAP1 SUB SWAP1 DUP2 PUSH2 0x2D7D JUMPI SWAP1 POP JUMPDEST POP SWAP1 POP PUSH1 0x0 JUMPDEST DUP3 MLOAD DUP2 LT ISZERO PUSH2 0x2DFF JUMPI PUSH1 0x0 DUP4 DUP3 DUP2 MLOAD DUP2 LT PUSH2 0x2DBB JUMPI PUSH2 0x2DBB PUSH2 0x5D57 JUMP JUMPDEST PUSH1 0x20 MUL PUSH1 0x20 ADD ADD MLOAD SWAP1 POP PUSH2 0x2DCE DUP2 PUSH2 0x1798 JUMP JUMPDEST DUP4 DUP4 DUP2 MLOAD DUP2 LT PUSH2 0x2DE0 JUMPI PUSH2 0x2DE0 PUSH2 0x5D57 JUMP JUMPDEST PUSH1 0x20 MUL PUSH1 0x20 ADD ADD DUP2 SWAP1 MSTORE POP POP DUP1 DUP1 PUSH2 0x2DF7 SWAP1 PUSH2 0x5D80 JUMP JUMPDEST SWAP2 POP POP PUSH2 0x2D9E JUMP JUMPDEST POP SWAP2 SWAP1 POP JUMP JUMPDEST PUSH2 0x2E0E DUP5 PUSH2 0x3956 JUMP JUMPDEST CALLER PUSH1 0x0 SWAP1 DUP2 MSTORE PUSH1 0x11 PUSH1 0x20 SWAP1 DUP2 MSTORE PUSH1 0x40 DUP1 DUP4 KECCAK256 DUP8 DUP5 MSTORE SWAP1 SWAP2 MSTORE DUP2 KECCAK256 SWAP1 DUP3 PUSH1 0x3 DUP2 GT ISZERO PUSH2 0x2E3B JUMPI PUSH2 0x2E3B PUSH2 0x52CD JUMP JUMPDEST PUSH1 0x3 DUP2 GT ISZERO PUSH2 0x2E4C JUMPI PUSH2 0x2E4C PUSH2 0x52CD JUMP JUMPDEST DUP2 MSTORE PUSH1 0x20 ADD SWAP1 DUP2 MSTORE PUSH1 0x20 ADD PUSH1 0x0 KECCAK256 SLOAD PUSH1 0x0 EQ PUSH2 0x2EBF JUMPI PUSH1 0x40 MLOAD PUSH3 0x461BCD PUSH1 0xE5 SHL DUP2 MSTORE PUSH1 0x20 PUSH1 0x4 DUP3 ADD MSTORE PUSH1 0x2C PUSH1 0x24 DUP3 ADD MSTORE PUSH32 0xE8AFB7E58BBFE9878DE5A48DE587BAE7A79F2FE7BBB4E4BFAE2FE586BBE7BB93 PUSH1 0x44 DUP3 ADD MSTORE PUSH12 0xE5BD93E5898DE8AEBEE5A487 PUSH1 0xA0 SHL PUSH1 0x64 DUP3 ADD MSTORE PUSH1 0x84 ADD PUSH2 0x730 JUMP JUMPDEST PUSH1 0x2 DUP2 PUSH1 0x3 DUP2 GT ISZERO PUSH2 0x2ED3 JUMPI PUSH2 0x2ED3 PUSH2 0x52CD JUMP JUMPDEST SUB PUSH2 0x2F50 JUMPI PUSH1 0x0 DUP5 DUP2 MSTORE PUSH1 0xE PUSH1 0x20 MSTORE PUSH1 0x40 SWAP1 KECCAK256 PUSH1 0x1 ADD SLOAD PUSH1 0x1 PUSH1 0x1 PUSH1 0xA0 SHL SUB AND CALLER EQ PUSH2 0x2F4B JUMPI PUSH1 0x40 MLOAD PUSH3 0x461BCD PUSH1 0xE5 SHL DUP2 MSTORE PUSH1 0x20 PUSH1 0x4 DUP3 ADD MSTORE PUSH1 0x21 PUSH1 0x24 DUP3 ADD MSTORE PUSH32 0xE4BB85E8AEBEE5A487E68C81E69C89E4BABAE58FAFE7BBB4E4BFAEE8AEBEE5A4 PUSH1 0x44 DUP3 ADD MSTORE PUSH1 0x87 PUSH1 0xF8 SHL PUSH1 0x64 DUP3 ADD MSTORE PUSH1 0x84 ADD PUSH2 0x730 JUMP JUMPDEST PUSH2 0x2FD2 JUMP JUMPDEST PUSH1 0x3 DUP2 PUSH1 0x3 DUP2 GT ISZERO PUSH2 0x2F64 JUMPI PUSH2 0x2F64 PUSH2 0x52CD JUMP JUMPDEST SUB PUSH2 0x2FD2 JUMPI CALLER PUSH1 0x0 SWAP1 DUP2 MSTORE PUSH1 0x1 PUSH1 0x20 MSTORE PUSH1 0x40 SWAP1 KECCAK256 SLOAD PUSH1 0xFF AND PUSH2 0x2FD2 JUMPI PUSH1 0x40 MLOAD PUSH3 0x461BCD PUSH1 0xE5 SHL DUP2 MSTORE PUSH1 0x20 PUSH1 0x4 DUP3 ADD MSTORE PUSH1 0x21 PUSH1 0x24 DUP3 ADD MSTORE PUSH32 0xE4BB85E8AEBEE5A487E7AEA1E79086E59198E58FAFE586BBE7BB93E8AEBEE5A4 PUSH1 0x44 DUP3 ADD MSTORE PUSH1 0x87 PUSH1 0xF8 SHL PUSH1 0x64 DUP3 ADD MSTORE PUSH1 0x84 ADD PUSH2 0x730 JUMP JUMPDEST PUSH1 0x0 DUP5 DUP2 MSTORE PUSH1 0xE PUSH1 0x20 MSTORE PUSH1 0x40 DUP2 KECCAK256 SWAP1 PUSH1 0xD DUP3 ADD SWAP1 PUSH2 0x2FF1 DUP8 DUP8 DUP8 PUSH2 0x84E JUMP JUMPDEST PUSH1 0x14 DUP1 SLOAD SWAP2 SWAP3 POP DUP3 SWAP2 SWAP1 PUSH1 0x0 PUSH2 0x3006 DUP4 PUSH2 0x5D80 JUMP JUMPDEST SWAP1 SWAP2 SSTORE POP POP PUSH1 0x14 SLOAD CALLER PUSH1 0x0 SWAP1 DUP2 MSTORE PUSH1 0x11 PUSH1 0x20 SWAP1 DUP2 MSTORE PUSH1 0x40 DUP1 DUP4 KECCAK256 DUP13 DUP5 MSTORE SWAP1 SWAP2 MSTORE DUP2 KECCAK256 SWAP1 DUP8 PUSH1 0x3 DUP2 GT ISZERO PUSH2 0x303B JUMPI PUSH2 0x303B PUSH2 0x52CD JUMP JUMPDEST PUSH1 0x3 DUP2 GT ISZERO PUSH2 0x304C JUMPI PUSH2 0x304C PUSH2 0x52CD JUMP JUMPDEST DUP2 MSTORE PUSH1 0x20 ADD SWAP1 DUP2 MSTORE PUSH1 0x20 ADD PUSH1 0x0 KECCAK256 DUP2 SWAP1 SSTORE POP PUSH1 0x0 PUSH1 0x40 MLOAD DUP1 PUSH1 0xA0 ADD PUSH1 0x40 MSTORE DUP1 PUSH1 0x14 SLOAD DUP2 MSTORE PUSH1 0x20 ADD DUP10 DUP2 MSTORE PUSH1 0x20 ADD DUP9 DUP2 MSTORE PUSH1 0x20 ADD CALLER PUSH1 0x1 PUSH1 0x1 PUSH1 0xA0 SHL SUB AND DUP2 MSTORE PUSH1 0x20 ADD DUP8 PUSH1 0x3 DUP2 GT ISZERO PUSH2 0x30A0 JUMPI PUSH2 0x30A0 PUSH2 0x52CD JUMP JUMPDEST SWAP1 MSTORE DUP5 SLOAD PUSH1 0x1 DUP2 DUP2 ADD DUP8 SSTORE PUSH1 0x0 DUP8 DUP2 MSTORE PUSH1 0x20 SWAP1 DUP2 SWAP1 KECCAK256 DUP5 MLOAD PUSH1 0x4 SWAP1 SWAP5 MUL ADD SWAP3 DUP4 SSTORE DUP4 ADD MLOAD SWAP1 DUP3 ADD SSTORE PUSH1 0x40 DUP3 ADD MLOAD PUSH1 0x2 DUP3 ADD SSTORE PUSH1 0x60 DUP3 ADD MLOAD PUSH1 0x3 DUP1 DUP4 ADD DUP1 SLOAD PUSH1 0x1 PUSH1 0x1 PUSH1 0xA0 SHL SUB SWAP1 SWAP4 AND PUSH1 0x1 PUSH1 0x1 PUSH1 0xA0 SHL SUB NOT DUP5 AND DUP2 OR DUP3 SSTORE PUSH1 0x80 DUP7 ADD MLOAD SWAP6 SWAP7 POP DUP7 SWAP6 SWAP4 SWAP2 SWAP3 PUSH1 0x1 PUSH1 0x1 PUSH1 0xA8 SHL SUB NOT SWAP1 SWAP3 AND OR SWAP1 PUSH1 0x1 PUSH1 0xA0 SHL SWAP1 DUP5 SWAP1 DUP2 GT ISZERO PUSH2 0x312A JUMPI PUSH2 0x312A PUSH2 0x52CD JUMP JUMPDEST MUL OR SWAP1 SSTORE POP DUP4 SWAP2 POP POP JUMPDEST DUP5 SLOAD PUSH2 0x3142 SWAP1 PUSH1 0x1 SWAP1 PUSH2 0x5D6D JUMP JUMPDEST DUP2 LT ISZERO PUSH2 0x3223 JUMPI DUP5 DUP2 DUP2 SLOAD DUP2 LT PUSH2 0x315B JUMPI PUSH2 0x315B PUSH2 0x5D57 JUMP JUMPDEST SWAP1 PUSH1 0x0 MSTORE PUSH1 0x20 PUSH1 0x0 KECCAK256 SWAP1 PUSH1 0x4 MUL ADD DUP6 DUP3 PUSH1 0x1 PUSH2 0x3177 SWAP2 SWAP1 PUSH2 0x5D10 JUMP JUMPDEST DUP2 SLOAD DUP2 LT PUSH2 0x3187 JUMPI PUSH2 0x3187 PUSH2 0x5D57 JUMP JUMPDEST PUSH1 0x0 SWAP2 DUP3 MSTORE PUSH1 0x20 SWAP1 SWAP2 KECCAK256 DUP3 SLOAD PUSH1 0x4 SWAP1 SWAP3 MUL ADD SWAP1 DUP2 SSTORE PUSH1 0x1 DUP1 DUP4 ADD SLOAD SWAP1 DUP3 ADD SSTORE PUSH1 0x2 DUP1 DUP4 ADD SLOAD SWAP1 DUP3 ADD SSTORE PUSH1 0x3 DUP1 DUP4 ADD DUP1 SLOAD DUP3 DUP5 ADD DUP1 SLOAD PUSH1 0x1 PUSH1 0x1 PUSH1 0xA0 SHL SUB NOT DUP2 AND PUSH1 0x1 PUSH1 0x1 PUSH1 0xA0 SHL SUB SWAP1 SWAP4 AND SWAP3 DUP4 OR DUP3 SSTORE SWAP3 SLOAD PUSH1 0xFF PUSH1 0x1 PUSH1 0xA0 SHL SWAP2 DUP3 SWAP1 DIV AND SWAP5 SWAP2 SWAP4 PUSH1 0x1 PUSH1 0x1 PUSH1 0xA8 SHL SUB NOT AND SWAP1 SWAP3 OR SWAP2 SWAP1 DUP5 SWAP1 DUP2 GT ISZERO PUSH2 0x3208 JUMPI PUSH2 0x3208 PUSH2 0x52CD JUMP JUMPDEST MUL OR SWAP1 SSTORE POP SWAP1 POP POP DUP1 DUP1 PUSH2 0x321B SWAP1 PUSH2 0x5D80 JUMP JUMPDEST SWAP2 POP POP PUSH2 0x3134 JUMP JUMPDEST POP DUP1 DUP5 DUP4 DUP2 SLOAD DUP2 LT PUSH2 0x3237 JUMPI PUSH2 0x3237 PUSH2 0x5D57 JUMP JUMPDEST PUSH1 0x0 SWAP2 DUP3 MSTORE PUSH1 0x20 SWAP2 DUP3 SWAP1 KECCAK256 DUP4 MLOAD PUSH1 0x4 SWAP1 SWAP3 MUL ADD SWAP1 DUP2 SSTORE SWAP1 DUP3 ADD MLOAD PUSH1 0x1 DUP3 ADD SSTORE PUSH1 0x40 DUP3 ADD MLOAD PUSH1 0x2 DUP3 ADD SSTORE PUSH1 0x60 DUP3 ADD MLOAD PUSH1 0x3 DUP1 DUP4 ADD DUP1 SLOAD PUSH1 0x1 PUSH1 0x1 PUSH1 0xA0 SHL SUB SWAP1 SWAP4 AND PUSH1 0x1 PUSH1 0x1 PUSH1 0xA0 SHL SUB NOT DUP5 AND DUP2 OR DUP3 SSTORE PUSH1 0x80 DUP7 ADD MLOAD SWAP4 SWAP2 SWAP3 PUSH1 0x1 PUSH1 0x1 PUSH1 0xA8 SHL SUB NOT SWAP1 SWAP3 AND OR SWAP1 PUSH1 0x1 PUSH1 0xA0 SHL SWAP1 DUP5 SWAP1 DUP2 GT ISZERO PUSH2 0x32B3 JUMPI PUSH2 0x32B3 PUSH2 0x52CD JUMP JUMPDEST MUL OR SWAP1 SSTORE POP PUSH1 0x1 SWAP2 POP PUSH2 0x32C3 SWAP1 POP JUMP JUMPDEST DUP7 PUSH1 0x3 DUP2 GT ISZERO PUSH2 0x32D5 JUMPI PUSH2 0x32D5 PUSH2 0x52CD JUMP JUMPDEST SUB PUSH2 0x32F6 JUMPI PUSH1 0xA DUP6 ADD DUP1 SLOAD SWAP1 PUSH1 0x0 PUSH2 0x32EC DUP4 PUSH2 0x5D80 JUMP JUMPDEST SWAP2 SWAP1 POP SSTORE POP PUSH2 0x3361 JUMP JUMPDEST PUSH1 0x2 DUP7 PUSH1 0x3 DUP2 GT ISZERO PUSH2 0x330A JUMPI PUSH2 0x330A PUSH2 0x52CD JUMP JUMPDEST SUB PUSH2 0x3321 JUMPI PUSH1 0xB DUP6 ADD DUP1 SLOAD SWAP1 PUSH1 0x0 PUSH2 0x32EC DUP4 PUSH2 0x5D80 JUMP JUMPDEST PUSH1 0x3 DUP7 PUSH1 0x3 DUP2 GT ISZERO PUSH2 0x3335 JUMPI PUSH2 0x3335 PUSH2 0x52CD JUMP JUMPDEST SUB PUSH2 0x3361 JUMPI PUSH1 0xC DUP6 ADD DUP1 SLOAD SWAP1 PUSH1 0x0 PUSH2 0x334C DUP4 PUSH2 0x5D80 JUMP JUMPDEST SWAP1 SWAP2 SSTORE POP POP PUSH1 0x3 DUP6 ADD DUP1 SLOAD PUSH1 0xFF NOT AND PUSH1 0x1 OR SWAP1 SSTORE JUMPDEST POP POP POP POP POP POP POP POP POP JUMP JUMPDEST PUSH2 0x3375 DUP3 PUSH2 0x3956 JUMP JUMPDEST CALLER PUSH1 0x0 SWAP1 DUP2 MSTORE PUSH1 0x11 PUSH1 0x20 SWAP1 DUP2 MSTORE PUSH1 0x40 DUP1 DUP4 KECCAK256 DUP6 DUP5 MSTORE SWAP1 SWAP2 MSTORE DUP2 KECCAK256 DUP2 DUP4 PUSH1 0x3 DUP2 GT ISZERO PUSH2 0x33A2 JUMPI PUSH2 0x33A2 PUSH2 0x52CD JUMP JUMPDEST PUSH1 0x3 DUP2 GT ISZERO PUSH2 0x33B3 JUMPI PUSH2 0x33B3 PUSH2 0x52CD JUMP JUMPDEST DUP2 MSTORE PUSH1 0x20 DUP1 DUP3 ADD SWAP3 SWAP1 SWAP3 MSTORE PUSH1 0x40 SWAP1 DUP2 ADD PUSH1 0x0 SWAP1 DUP2 KECCAK256 SLOAD CALLER DUP3 MSTORE PUSH1 0x11 DUP5 MSTORE DUP3 DUP3 KECCAK256 DUP8 DUP4 MSTORE SWAP1 SWAP4 MSTORE SWAP1 DUP2 KECCAK256 SWAP2 SWAP3 POP SWAP1 DUP2 DUP5 PUSH1 0x3 DUP2 GT ISZERO PUSH2 0x33F3 JUMPI PUSH2 0x33F3 PUSH2 0x52CD JUMP JUMPDEST PUSH1 0x3 DUP2 GT ISZERO PUSH2 0x3404 JUMPI PUSH2 0x3404 PUSH2 0x52CD JUMP JUMPDEST DUP2 MSTORE PUSH1 0x20 ADD SWAP1 DUP2 MSTORE PUSH1 0x20 ADD PUSH1 0x0 KECCAK256 DUP2 SWAP1 SSTORE POP DUP1 PUSH1 0x0 SUB PUSH2 0x3475 JUMPI PUSH1 0x40 MLOAD PUSH3 0x461BCD PUSH1 0xE5 SHL DUP2 MSTORE PUSH1 0x20 PUSH1 0x4 DUP3 ADD MSTORE PUSH1 0x26 PUSH1 0x24 DUP3 ADD MSTORE PUSH32 0xE69CAAE9A284E7BAA62FE7BBB4E4BFAE2FE586BBE7BB93EFBC8CE697A0E99C80 PUSH1 0x44 DUP3 ADD MSTORE PUSH6 0x3A29E8FA6669 PUSH1 0xD2 SHL PUSH1 0x64 DUP3 ADD MSTORE PUSH1 0x84 ADD PUSH2 0x730 JUMP JUMPDEST PUSH1 0x2 DUP3 PUSH1 0x3 DUP2 GT ISZERO PUSH2 0x3489 JUMPI PUSH2 0x3489 PUSH2 0x52CD JUMP JUMPDEST SUB PUSH2 0x3506 JUMPI PUSH1 0x0 DUP4 DUP2 MSTORE PUSH1 0xE PUSH1 0x20 MSTORE PUSH1 0x40 SWAP1 KECCAK256 PUSH1 0x1 ADD SLOAD PUSH1 0x1 PUSH1 0x1 PUSH1 0xA0 SHL SUB AND CALLER EQ PUSH2 0x3501 JUMPI PUSH1 0x40 MLOAD PUSH3 0x461BCD PUSH1 0xE5 SHL DUP2 MSTORE PUSH1 0x20 PUSH1 0x4 DUP3 ADD MSTORE PUSH1 0x21 PUSH1 0x24 DUP3 ADD MSTORE PUSH32 0xE4BB85E8AEBEE5A487E68C81E69C89E4BABAE58FAFE5AE8CE68890E7BBB4E4BF PUSH1 0x44 DUP3 ADD MSTORE PUSH1 0x57 PUSH1 0xF9 SHL PUSH1 0x64 DUP3 ADD MSTORE PUSH1 0x84 ADD PUSH2 0x730 JUMP JUMPDEST PUSH2 0x3588 JUMP JUMPDEST PUSH1 0x3 DUP3 PUSH1 0x3 DUP2 GT ISZERO PUSH2 0x351A JUMPI PUSH2 0x351A PUSH2 0x52CD JUMP JUMPDEST SUB PUSH2 0x3588 JUMPI CALLER PUSH1 0x0 SWAP1 DUP2 MSTORE PUSH1 0x1 PUSH1 0x20 MSTORE PUSH1 0x40 SWAP1 KECCAK256 SLOAD PUSH1 0xFF AND PUSH2 0x3588 JUMPI PUSH1 0x40 MLOAD PUSH3 0x461BCD PUSH1 0xE5 SHL DUP2 MSTORE PUSH1 0x20 PUSH1 0x4 DUP3 ADD MSTORE PUSH1 0x21 PUSH1 0x24 DUP3 ADD MSTORE PUSH32 0xE4BB85E8AEBEE5A487E7AEA1E79086E59198E58FAFE8A7A3E586BBE8AEBEE5A4 PUSH1 0x44 DUP3 ADD MSTORE PUSH1 0x87 PUSH1 0xF8 SHL PUSH1 0x64 DUP3 ADD MSTORE PUSH1 0x84 ADD PUSH2 0x730 JUMP JUMPDEST PUSH1 0x0 DUP4 DUP2 MSTORE PUSH1 0xE PUSH1 0x20 MSTORE PUSH1 0x40 DUP2 KECCAK256 SWAP1 PUSH1 0xD DUP3 ADD SWAP1 JUMPDEST DUP2 SLOAD DUP2 LT ISZERO PUSH2 0x846 JUMPI DUP4 DUP3 DUP3 DUP2 SLOAD DUP2 LT PUSH2 0x35B9 JUMPI PUSH2 0x35B9 PUSH2 0x5D57 JUMP JUMPDEST SWAP1 PUSH1 0x0 MSTORE PUSH1 0x20 PUSH1 0x0 KECCAK256 SWAP1 PUSH1 0x4 MUL ADD PUSH1 0x0 ADD SLOAD SUB PUSH2 0x3765 JUMPI DUP1 JUMPDEST DUP3 SLOAD PUSH2 0x35E0 SWAP1 PUSH1 0x1 SWAP1 PUSH2 0x5D6D JUMP JUMPDEST DUP2 LT ISZERO PUSH2 0x36BF JUMPI DUP3 PUSH2 0x35F3 DUP3 PUSH1 0x1 PUSH2 0x5D10 JUMP JUMPDEST DUP2 SLOAD DUP2 LT PUSH2 0x3603 JUMPI PUSH2 0x3603 PUSH2 0x5D57 JUMP JUMPDEST SWAP1 PUSH1 0x0 MSTORE PUSH1 0x20 PUSH1 0x0 KECCAK256 SWAP1 PUSH1 0x4 MUL ADD DUP4 DUP3 DUP2 SLOAD DUP2 LT PUSH2 0x3623 JUMPI PUSH2 0x3623 PUSH2 0x5D57 JUMP JUMPDEST PUSH1 0x0 SWAP2 DUP3 MSTORE PUSH1 0x20 SWAP1 SWAP2 KECCAK256 DUP3 SLOAD PUSH1 0x4 SWAP1 SWAP3 MUL ADD SWAP1 DUP2 SSTORE PUSH1 0x1 DUP1 DUP4 ADD SLOAD SWAP1 DUP3 ADD SSTORE PUSH1 0x2 DUP1 DUP4 ADD SLOAD SWAP1 DUP3 ADD SSTORE PUSH1 0x3 DUP1 DUP4 ADD DUP1 SLOAD DUP3 DUP5 ADD DUP1 SLOAD PUSH1 0x1 PUSH1 0x1 PUSH1 0xA0 SHL SUB NOT DUP2 AND PUSH1 0x1 PUSH1 0x1 PUSH1 0xA0 SHL SUB SWAP1 SWAP4 AND SWAP3 DUP4 OR DUP3 SSTORE SWAP3 SLOAD PUSH1 0xFF PUSH1 0x1 PUSH1 0xA0 SHL SWAP2 DUP3 SWAP1 DIV AND SWAP5 SWAP2 SWAP4 PUSH1 0x1 PUSH1 0x1 PUSH1 0xA8 SHL SUB NOT AND SWAP1 SWAP3 OR SWAP2 SWAP1 DUP5 SWAP1 DUP2 GT ISZERO PUSH2 0x36A4 JUMPI PUSH2 0x36A4 PUSH2 0x52CD JUMP JUMPDEST MUL OR SWAP1 SSTORE POP SWAP1 POP POP DUP1 DUP1 PUSH2 0x36B7 SWAP1 PUSH2 0x5D80 JUMP JUMPDEST SWAP2 POP POP PUSH2 0x35D2 JUMP JUMPDEST POP PUSH1 0x3 DUP3 DUP3 DUP2 SLOAD DUP2 LT PUSH2 0x36D4 JUMPI PUSH2 0x36D4 PUSH2 0x5D57 JUMP JUMPDEST SWAP1 PUSH1 0x0 MSTORE PUSH1 0x20 PUSH1 0x0 KECCAK256 SWAP1 PUSH1 0x4 MUL ADD PUSH1 0x3 ADD PUSH1 0x14 SWAP1 SLOAD SWAP1 PUSH2 0x100 EXP SWAP1 DIV PUSH1 0xFF AND PUSH1 0x3 DUP2 GT ISZERO PUSH2 0x3704 JUMPI PUSH2 0x3704 PUSH2 0x52CD JUMP JUMPDEST SUB PUSH2 0x3716 JUMPI PUSH1 0x3 DUP4 ADD DUP1 SLOAD PUSH1 0xFF NOT AND SWAP1 SSTORE JUMPDEST DUP2 DUP1 SLOAD DUP1 PUSH2 0x3726 JUMPI PUSH2 0x3726 PUSH2 0x5ED8 JUMP JUMPDEST PUSH1 0x0 DUP3 DUP2 MSTORE PUSH1 0x20 DUP2 KECCAK256 PUSH1 0x4 PUSH1 0x0 NOT SWAP1 SWAP4 ADD SWAP3 DUP4 MUL ADD DUP2 DUP2 SSTORE PUSH1 0x1 DUP2 ADD DUP3 SWAP1 SSTORE PUSH1 0x2 DUP2 ADD SWAP2 SWAP1 SWAP2 SSTORE PUSH1 0x3 ADD DUP1 SLOAD PUSH1 0x1 PUSH1 0x1 PUSH1 0xA8 SHL SUB NOT AND SWAP1 SSTORE SWAP1 SSTORE PUSH2 0x846 JUMP JUMPDEST DUP1 PUSH2 0x376F DUP2 PUSH2 0x5D80 JUMP JUMPDEST SWAP2 POP POP PUSH2 0x359D JUMP JUMPDEST PUSH1 0x1 PUSH1 0x1 PUSH1 0xA0 SHL SUB DUP7 AND PUSH1 0x0 SWAP1 DUP2 MSTORE PUSH1 0xB PUSH1 0x20 MSTORE PUSH1 0x40 SWAP1 KECCAK256 SLOAD ISZERO PUSH2 0x37FC JUMPI PUSH1 0x40 MLOAD PUSH3 0x461BCD PUSH1 0xE5 SHL DUP2 MSTORE PUSH1 0x20 PUSH1 0x4 DUP3 ADD MSTORE PUSH1 0x36 PUSH1 0x24 DUP3 ADD MSTORE PUSH32 0xE8AFA5E4BBA5E5A4AAE59D8AE59CB0E59D80E5B7B2E5AD98E59CA8E794A8E688 PUSH1 0x44 DUP3 ADD MSTORE PUSH22 0x5BF7DE467457DBF2C5DFF4C3C6F2D246F35BDDF2C55 PUSH1 0x55 SHL PUSH1 0x64 DUP3 ADD MSTORE PUSH1 0x84 ADD PUSH2 0x730 JUMP JUMPDEST PUSH1 0xD DUP1 SLOAD SWAP1 PUSH1 0x0 PUSH2 0x380C DUP4 PUSH2 0x5D80 JUMP JUMPDEST SWAP1 SWAP2 SSTORE POP POP PUSH1 0xD DUP1 SLOAD PUSH1 0x0 SWAP1 DUP2 MSTORE PUSH1 0xA PUSH1 0x20 SWAP1 DUP2 MSTORE PUSH1 0x40 DUP1 DUP4 KECCAK256 DUP1 SLOAD PUSH1 0x1 PUSH1 0x1 PUSH1 0xA0 SHL SUB DUP13 AND PUSH1 0x1 PUSH1 0x1 PUSH1 0xA0 SHL SUB NOT SWAP2 DUP3 AND DUP2 OR SWAP1 SWAP3 SSTORE PUSH1 0xC DUP1 SLOAD PUSH1 0x1 DUP2 DUP2 ADD SWAP1 SWAP3 SSTORE PUSH32 0xDF6966C971051C3D54EC59162606531493A51404A002842F56009D7E5CF4A8C7 ADD DUP1 SLOAD DUP4 AND DUP5 OR SWAP1 SSTORE DUP3 DUP7 MSTORE PUSH1 0xB SWAP1 SWAP5 MSTORE SWAP2 SWAP1 SWAP4 KECCAK256 SWAP2 DUP3 ADD DUP1 SLOAD SWAP1 SWAP2 AND SWAP1 SWAP3 OR SWAP1 SWAP2 SSTORE SWAP1 SLOAD DUP2 SSTORE TIMESTAMP PUSH1 0x2 DUP3 ADD SSTORE PUSH1 0x3 DUP2 ADD PUSH2 0x38AB DUP8 DUP3 PUSH2 0x5DDF JUMP JUMPDEST POP PUSH1 0x4 DUP2 ADD PUSH2 0x38BA DUP7 DUP3 PUSH2 0x5DDF JUMP JUMPDEST POP PUSH1 0x5 DUP2 ADD PUSH2 0x38C9 DUP6 DUP3 PUSH2 0x5DDF JUMP JUMPDEST POP PUSH1 0x6 DUP2 ADD PUSH2 0x38D8 DUP5 DUP3 PUSH2 0x5DDF JUMP JUMPDEST POP PUSH1 0x7 DUP2 ADD PUSH2 0x38E7 DUP4 DUP3 PUSH2 0x5DDF JUMP JUMPDEST POP PUSH32 0x31288DA5D3E9D68198B1B94AE2537EC67D1D0A344320131F5227A08FEA969B04 PUSH1 0xD SLOAD PUSH1 0x40 MLOAD PUSH2 0x3945 SWAP2 SWAP1 PUSH1 0x40 DUP1 DUP3 MSTORE PUSH1 0xF SWAP1 DUP3 ADD MSTORE PUSH15 0xE5B7B2E6B7BBE58AA0E794A8E688B7 PUSH1 0x88 SHL PUSH1 0x60 DUP3 ADD MSTORE PUSH1 0x20 DUP2 ADD SWAP2 SWAP1 SWAP2 MSTORE PUSH1 0x80 ADD SWAP1 JUMP JUMPDEST PUSH1 0x40 MLOAD DUP1 SWAP2 SUB SWAP1 LOG1 POP POP POP POP POP POP POP JUMP JUMPDEST PUSH1 0x0 DUP2 DUP2 MSTORE PUSH1 0xE PUSH1 0x20 MSTORE PUSH1 0x40 DUP2 KECCAK256 SLOAD SWAP1 SUB PUSH2 0x39B3 JUMPI PUSH1 0x40 MLOAD PUSH3 0x461BCD PUSH1 0xE5 SHL DUP2 MSTORE PUSH1 0x20 PUSH1 0x4 DUP3 ADD MSTORE PUSH1 0x1A PUSH1 0x24 DUP3 ADD MSTORE PUSH32 0xE8AFB7E8BE93E585A5E69C89E69588E79A84E8AEBEE5A4874944000000000000 PUSH1 0x44 DUP3 ADD MSTORE PUSH1 0x64 ADD PUSH2 0x730 JUMP JUMPDEST POP JUMP JUMPDEST PUSH2 0x39BE PUSH2 0x5158 JUMP JUMPDEST PUSH1 0x1C DUP1 SLOAD SWAP1 PUSH1 0x0 PUSH2 0x39CE DUP4 PUSH2 0x5D80 JUMP JUMPDEST SWAP1 SWAP2 SSTORE POP POP PUSH1 0x1C DUP1 SLOAD PUSH1 0x18 DUP1 SLOAD PUSH1 0x1 DUP2 DUP2 ADD SWAP1 SWAP3 SSTORE PUSH32 0xB13D2D76D1F4B7BE834882E410B3E3A8AFAF69F83600AE24DB354391D2378D2E ADD DUP3 SWAP1 SSTORE CALLER PUSH1 0x0 DUP2 DUP2 MSTORE PUSH1 0x16 PUSH1 0x20 SWAP1 DUP2 MSTORE PUSH1 0x40 DUP1 DUP4 KECCAK256 DUP1 SLOAD DUP1 DUP8 ADD DUP3 SSTORE SWAP1 DUP5 MSTORE DUP3 DUP5 KECCAK256 ADD SWAP6 SWAP1 SWAP6 SSTORE DUP10 DUP2 ADD DUP1 MLOAD PUSH1 0x1 PUSH1 0x1 PUSH1 0xA0 SHL SUB SWAP1 DUP2 AND DUP5 MSTORE PUSH1 0x17 DUP4 MSTORE DUP7 DUP5 KECCAK256 DUP9 SLOAD DUP2 SLOAD DUP1 DUP10 ADD DUP4 SSTORE SWAP2 DUP7 MSTORE DUP5 DUP7 KECCAK256 SWAP1 SWAP2 ADD SSTORE SWAP7 SLOAD DUP1 DUP5 MSTORE PUSH1 0x15 SWAP1 SWAP3 MSTORE SWAP5 SWAP1 SWAP2 KECCAK256 SWAP1 DUP2 SSTORE DUP9 MLOAD SWAP3 DUP2 ADD SWAP3 SWAP1 SWAP3 SSTORE SWAP2 MLOAD PUSH1 0x4 DUP3 ADD DUP1 SLOAD SWAP2 SWAP1 SWAP5 AND PUSH1 0x1 PUSH1 0x1 PUSH1 0xA0 SHL SUB NOT SWAP2 DUP3 AND OR SWAP1 SWAP4 SSTORE PUSH1 0x5 DUP2 ADD DUP1 SLOAD SWAP1 SWAP4 AND SWAP1 SWAP2 OR SWAP1 SWAP2 SSTORE PUSH1 0x80 DUP6 ADD MLOAD PUSH1 0x2 DUP3 ADD SWAP1 PUSH2 0x3AB1 SWAP1 DUP3 PUSH2 0x5DDF JUMP JUMPDEST POP PUSH1 0x60 DUP7 ADD MLOAD PUSH1 0x3 DUP3 ADD SWAP1 PUSH2 0x3AC6 SWAP1 DUP3 PUSH2 0x5DDF JUMP JUMPDEST POP PUSH2 0x120 DUP6 ADD MLOAD PUSH1 0x8 DUP3 ADD SSTORE PUSH2 0x100 DUP6 ADD MLOAD PUSH1 0x6 DUP3 ADD SSTORE PUSH2 0xE10 PUSH2 0x3AEA DUP6 DUP6 PUSH2 0x5D6D JUMP JUMPDEST DUP7 PUSH2 0x100 ADD MLOAD PUSH2 0x3AFA SWAP2 SWAP1 PUSH2 0x5E9F JUMP JUMPDEST PUSH2 0x3B04 SWAP2 SWAP1 PUSH2 0x5EB6 JUMP JUMPDEST PUSH1 0x7 DUP3 ADD SSTORE PUSH1 0xA DUP2 ADD DUP5 SWAP1 SSTORE PUSH1 0xB DUP2 ADD DUP4 SWAP1 SSTORE TIMESTAMP PUSH1 0xE DUP3 ADD SSTORE PUSH1 0x1C SLOAD PUSH1 0x40 MLOAD PUSH32 0x3B053AD98A557ECDA536A08EDC3B0B945F9E8B5028A9B19F5E45680F2BCE81FD SWAP2 PUSH2 0x3B7A SWAP2 PUSH1 0x40 DUP1 DUP3 MSTORE PUSH1 0xF SWAP1 DUP3 ADD MSTORE PUSH15 0x396DECB96226F96EEEB96422396423 PUSH1 0x8A SHL PUSH1 0x60 DUP3 ADD MSTORE PUSH1 0x20 DUP2 ADD SWAP2 SWAP1 SWAP2 MSTORE PUSH1 0x80 ADD SWAP1 JUMP JUMPDEST PUSH1 0x40 MLOAD DUP1 SWAP2 SUB SWAP1 LOG1 DUP1 PUSH1 0x40 MLOAD DUP1 PUSH2 0x120 ADD PUSH1 0x40 MSTORE SWAP1 DUP2 PUSH1 0x0 DUP3 ADD SLOAD DUP2 MSTORE PUSH1 0x20 ADD PUSH1 0x1 DUP3 ADD SLOAD DUP2 MSTORE PUSH1 0x20 ADD PUSH1 0x2 DUP3 ADD DUP1 SLOAD PUSH2 0x3BB3 SWAP1 PUSH2 0x5D23 JUMP JUMPDEST DUP1 PUSH1 0x1F ADD PUSH1 0x20 DUP1 SWAP2 DIV MUL PUSH1 0x20 ADD PUSH1 0x40 MLOAD SWAP1 DUP2 ADD PUSH1 0x40 MSTORE DUP1 SWAP3 SWAP2 SWAP1 DUP2 DUP2 MSTORE PUSH1 0x20 ADD DUP3 DUP1 SLOAD PUSH2 0x3BDF SWAP1 PUSH2 0x5D23 JUMP JUMPDEST DUP1 ISZERO PUSH2 0x3C2C JUMPI DUP1 PUSH1 0x1F LT PUSH2 0x3C01 JUMPI PUSH2 0x100 DUP1 DUP4 SLOAD DIV MUL DUP4 MSTORE SWAP2 PUSH1 0x20 ADD SWAP2 PUSH2 0x3C2C JUMP JUMPDEST DUP3 ADD SWAP2 SWAP1 PUSH1 0x0 MSTORE PUSH1 0x20 PUSH1 0x0 KECCAK256 SWAP1 JUMPDEST DUP2 SLOAD DUP2 MSTORE SWAP1 PUSH1 0x1 ADD SWAP1 PUSH1 0x20 ADD DUP1 DUP4 GT PUSH2 0x3C0F JUMPI DUP3 SWAP1 SUB PUSH1 0x1F AND DUP3 ADD SWAP2 JUMPDEST POP POP POP POP POP DUP2 MSTORE PUSH1 0x20 ADD PUSH1 0x3 DUP3 ADD DUP1 SLOAD PUSH2 0x3C45 SWAP1 PUSH2 0x5D23 JUMP JUMPDEST DUP1 PUSH1 0x1F ADD PUSH1 0x20 DUP1 SWAP2 DIV MUL PUSH1 0x20 ADD PUSH1 0x40 MLOAD SWAP1 DUP2 ADD PUSH1 0x40 MSTORE DUP1 SWAP3 SWAP2 SWAP1 DUP2 DUP2 MSTORE PUSH1 0x20 ADD DUP3 DUP1 SLOAD PUSH2 0x3C71 SWAP1 PUSH2 0x5D23 JUMP JUMPDEST DUP1 ISZERO PUSH2 0x3CBE JUMPI DUP1 PUSH1 0x1F LT PUSH2 0x3C93 JUMPI PUSH2 0x100 DUP1 DUP4 SLOAD DIV MUL DUP4 MSTORE SWAP2 PUSH1 0x20 ADD SWAP2 PUSH2 0x3CBE JUMP JUMPDEST DUP3 ADD SWAP2 SWAP1 PUSH1 0x0 MSTORE PUSH1 0x20 PUSH1 0x0 KECCAK256 SWAP1 JUMPDEST DUP2 SLOAD DUP2 MSTORE SWAP1 PUSH1 0x1 ADD SWAP1 PUSH1 0x20 ADD DUP1 DUP4 GT PUSH2 0x3CA1 JUMPI DUP3 SWAP1 SUB PUSH1 0x1F AND DUP3 ADD SWAP2 JUMPDEST POP POP POP SWAP2 DUP4 MSTORE POP POP PUSH1 0x4 DUP3 ADD SLOAD PUSH1 0x1 PUSH1 0x1 PUSH1 0xA0 SHL SUB SWAP1 DUP2 AND PUSH1 0x20 DUP1 DUP5 ADD SWAP2 SWAP1 SWAP2 MSTORE PUSH1 0x5 DUP5 ADD SLOAD SWAP1 SWAP2 AND PUSH1 0x40 DUP1 DUP5 ADD SWAP2 SWAP1 SWAP2 MSTORE DUP1 MLOAD PUSH1 0x80 DUP1 DUP3 ADD DUP4 MSTORE PUSH1 0x6 DUP7 ADD SLOAD DUP3 MSTORE PUSH1 0x7 DUP7 ADD SLOAD DUP3 DUP6 ADD MSTORE PUSH1 0x8 DUP7 ADD SLOAD DUP3 DUP5 ADD MSTORE PUSH1 0x9 DUP7 ADD SLOAD PUSH1 0xFF SWAP1 DUP2 AND ISZERO ISZERO PUSH1 0x60 DUP5 DUP2 ADD SWAP2 SWAP1 SWAP2 MSTORE DUP1 DUP8 ADD SWAP4 SWAP1 SWAP4 MSTORE DUP4 MLOAD DUP1 DUP4 ADD DUP6 MSTORE PUSH1 0xA DUP9 ADD DUP1 SLOAD DUP3 MSTORE PUSH1 0xB DUP10 ADD SLOAD SWAP7 DUP3 ADD SWAP7 SWAP1 SWAP7 MSTORE PUSH1 0xC DUP9 ADD SLOAD SWAP5 DUP2 ADD SWAP5 SWAP1 SWAP5 MSTORE PUSH1 0xD DUP8 ADD SLOAD SWAP2 SWAP1 SWAP6 ADD SWAP5 SWAP3 SWAP4 SWAP3 SWAP2 DUP5 ADD SWAP2 AND PUSH1 0x2 DUP2 GT ISZERO PUSH2 0x3D78 JUMPI PUSH2 0x3D78 PUSH2 0x52CD JUMP JUMPDEST PUSH1 0x2 DUP2 GT ISZERO PUSH2 0x3D89 JUMPI PUSH2 0x3D89 PUSH2 0x52CD JUMP JUMPDEST SWAP1 MSTORE POP DUP2 MSTORE PUSH1 0x40 DUP1 MLOAD PUSH1 0xC0 DUP2 ADD DUP3 MSTORE PUSH1 0xE DUP5 ADD SLOAD DUP2 MSTORE PUSH1 0xF DUP5 ADD SLOAD PUSH1 0x20 DUP1 DUP4 ADD SWAP2 SWAP1 SWAP2 MSTORE PUSH1 0x10 DUP6 ADD SLOAD SWAP3 DUP3 ADD SWAP3 SWAP1 SWAP3 MSTORE PUSH1 0x11 DUP5 ADD SLOAD PUSH1 0x60 DUP3 ADD MSTORE PUSH1 0x12 DUP5 ADD SLOAD PUSH1 0x80 DUP3 ADD MSTORE PUSH1 0x13 SWAP1 SWAP4 ADD SLOAD PUSH1 0xA0 DUP5 ADD MSTORE ADD MSTORE SWAP7 SWAP6 POP POP POP POP POP POP JUMP JUMPDEST PUSH2 0x3DEC PUSH2 0x5158 JUMP JUMPDEST PUSH2 0x3DF5 DUP3 PUSH2 0x43CE JUMP JUMPDEST PUSH1 0x0 DUP3 DUP2 MSTORE PUSH1 0x15 PUSH1 0x20 MSTORE PUSH1 0x40 SWAP1 KECCAK256 PUSH1 0x5 DUP2 ADD SLOAD PUSH1 0x1 PUSH1 0x1 PUSH1 0xA0 SHL SUB AND CALLER EQ PUSH2 0x3E69 JUMPI PUSH1 0x40 MLOAD PUSH3 0x461BCD PUSH1 0xE5 SHL DUP2 MSTORE PUSH1 0x20 PUSH1 0x4 DUP3 ADD MSTORE PUSH1 0x21 PUSH1 0x24 DUP3 ADD MSTORE PUSH32 0xE99D9EE7A79FE8B581E4BABAEFBC8CE6B2A1E69C89E58F96E6B688E69D83E999 PUSH1 0x44 DUP3 ADD MSTORE PUSH1 0x9 PUSH1 0xFC SHL PUSH1 0x64 DUP3 ADD MSTORE PUSH1 0x84 ADD PUSH2 0x730 JUMP JUMPDEST PUSH1 0xE DUP2 ADD SLOAD PUSH1 0x0 SUB PUSH2 0x3EC9 JUMPI PUSH1 0x40 MLOAD PUSH3 0x461BCD PUSH1 0xE5 SHL DUP2 MSTORE PUSH1 0x20 PUSH1 0x4 DUP3 ADD MSTORE PUSH1 0x24 DUP1 DUP3 ADD MSTORE PUSH32 0xE697A0E69588E79A84E7A79FE8B581E59088E5908CEFBC8CE697A0E6B395E58F PUSH1 0x44 DUP3 ADD MSTORE PUSH4 0x12DCD6D1 PUSH1 0xE3 SHL PUSH1 0x64 DUP3 ADD MSTORE PUSH1 0x84 ADD PUSH2 0x730 JUMP JUMPDEST PUSH1 0x10 DUP2 ADD SLOAD ISZERO PUSH2 0x3F27 JUMPI PUSH1 0x40 MLOAD PUSH3 0x461BCD PUSH1 0xE5 SHL DUP2 MSTORE PUSH1 0x20 PUSH1 0x4 DUP3 ADD MSTORE PUSH1 0x24 DUP1 DUP3 ADD MSTORE PUSH32 0xE7A79FE8B581E794B3E8AFB7E5B7B2E9809AE8BF87EFBC8CE697A0E6B395E58F PUSH1 0x44 DUP3 ADD MSTORE PUSH4 0x12DCD6D1 PUSH1 0xE3 SHL PUSH1 0x64 DUP3 ADD MSTORE PUSH1 0x84 ADD PUSH2 0x730 JUMP JUMPDEST PUSH1 0x11 DUP2 ADD SLOAD ISZERO PUSH2 0x3F85 JUMPI PUSH1 0x40 MLOAD PUSH3 0x461BCD PUSH1 0xE5 SHL DUP2 MSTORE PUSH1 0x20 PUSH1 0x4 DUP3 ADD MSTORE PUSH1 0x24 DUP1 DUP3 ADD MSTORE PUSH32 0xE7A79FE8B581E794B3E8AFB7E5B7B2E68B92E7BB9DEFBC8CE697A0E6B395E58F PUSH1 0x44 DUP3 ADD MSTORE PUSH4 0x12DCD6D1 PUSH1 0xE3 SHL PUSH1 0x64 DUP3 ADD MSTORE PUSH1 0x84 ADD PUSH2 0x730 JUMP JUMPDEST TIMESTAMP PUSH1 0xF DUP3 ADD SSTORE PUSH1 0x40 MLOAD PUSH32 0xA30B81ACD7ED0623BDD70B853A9E9758EC399C41886B0B1E6CEC4113EFD4E7D3 SWAP1 PUSH2 0x3FE7 SWAP1 DUP6 SWAP1 PUSH1 0x40 DUP1 DUP3 MSTORE PUSH1 0xF SWAP1 DUP3 ADD MSTORE PUSH15 0x396DECB963E5B9ADA2396422396423 PUSH1 0x8A SHL PUSH1 0x60 DUP3 ADD MSTORE PUSH1 0x20 DUP2 ADD SWAP2 SWAP1 SWAP2 MSTORE PUSH1 0x80 ADD SWAP1 JUMP JUMPDEST PUSH1 0x40 MLOAD DUP1 SWAP2 SUB SWAP1 LOG1 DUP1 PUSH1 0x40 MLOAD DUP1 PUSH2 0x120 ADD PUSH1 0x40 MSTORE SWAP1 DUP2 PUSH1 0x0 DUP3 ADD SLOAD DUP2 MSTORE PUSH1 0x20 ADD PUSH1 0x1 DUP3 ADD SLOAD DUP2 MSTORE PUSH1 0x20 ADD PUSH1 0x2 DUP3 ADD DUP1 SLOAD PUSH2 0x1D02 SWAP1 PUSH2 0x5D23 JUMP JUMPDEST PUSH1 0x1 PUSH1 0x1 PUSH1 0xA0 SHL SUB DUP3 AND PUSH1 0x0 SWAP1 DUP2 MSTORE PUSH1 0x8 PUSH1 0x20 SWAP1 DUP2 MSTORE PUSH1 0x40 DUP1 DUP4 KECCAK256 CALLER DUP5 MSTORE SWAP1 SWAP2 MSTORE DUP2 KECCAK256 SLOAD DUP3 GT ISZERO PUSH2 0x408B JUMPI PUSH1 0x40 MLOAD PUSH3 0x461BCD PUSH1 0xE5 SHL DUP2 MSTORE PUSH1 0x20 PUSH1 0x4 DUP3 ADD MSTORE PUSH1 0x15 PUSH1 0x24 DUP3 ADD MSTORE PUSH21 0xE5B7B2E68E88E69D83E4BD99E9A29DE4B88DE8B6B3 PUSH1 0x58 SHL PUSH1 0x44 DUP3 ADD MSTORE PUSH1 0x64 ADD PUSH2 0x730 JUMP JUMPDEST PUSH1 0x1 PUSH1 0x1 PUSH1 0xA0 SHL SUB DUP4 AND PUSH1 0x0 SWAP1 DUP2 MSTORE PUSH1 0x7 PUSH1 0x20 MSTORE PUSH1 0x40 SWAP1 KECCAK256 SLOAD DUP3 GT ISZERO PUSH2 0x40F3 JUMPI PUSH1 0x40 MLOAD PUSH3 0x461BCD PUSH1 0xE5 SHL DUP2 MSTORE PUSH1 0x20 PUSH1 0x4 DUP3 ADD MSTORE PUSH1 0x18 PUSH1 0x24 DUP3 ADD MSTORE PUSH32 0xE68980E68F90E8B4A6E688B7E4BD99E9A29DE4B88DE8B6B30000000000000000 PUSH1 0x44 DUP3 ADD MSTORE PUSH1 0x64 ADD PUSH2 0x730 JUMP JUMPDEST PUSH1 0x1 PUSH1 0x1 PUSH1 0xA0 SHL SUB DUP4 AND PUSH1 0x0 SWAP1 DUP2 MSTORE PUSH1 0x8 PUSH1 0x20 SWAP1 DUP2 MSTORE PUSH1 0x40 DUP1 DUP4 KECCAK256 CALLER DUP5 MSTORE SWAP1 SWAP2 MSTORE DUP2 KECCAK256 DUP1 SLOAD DUP5 SWAP3 SWAP1 PUSH2 0x4126 SWAP1 DUP5 SWAP1 PUSH2 0x5D6D JUMP JUMPDEST SWAP1 SWAP2 SSTORE POP POP PUSH1 0x1 PUSH1 0x1 PUSH1 0xA0 SHL SUB DUP4 AND PUSH1 0x0 SWAP1 DUP2 MSTORE PUSH1 0x7 PUSH1 0x20 MSTORE PUSH1 0x40 DUP2 KECCAK256 DUP1 SLOAD DUP5 SWAP3 SWAP1 PUSH2 0x4153 SWAP1 DUP5 SWAP1 PUSH2 0x5D6D JUMP JUMPDEST SWAP1 SWAP2 SSTORE POP POP PUSH1 0x1 PUSH1 0x1 PUSH1 0xA0 SHL SUB DUP4 AND PUSH1 0x0 SWAP1 DUP2 MSTORE PUSH1 0x7 PUSH1 0x20 MSTORE PUSH1 0x40 DUP2 KECCAK256 DUP1 SLOAD DUP5 SWAP3 SWAP1 PUSH2 0x4180 SWAP1 DUP5 SWAP1 PUSH2 0x5D10 JUMP JUMPDEST SWAP1 SWAP2 SSTORE POP POP PUSH1 0x40 MLOAD DUP3 DUP2 MSTORE CALLER SWAP1 PUSH1 0x1 PUSH1 0x1 PUSH1 0xA0 SHL SUB DUP6 AND SWAP1 PUSH32 0xDDF252AD1BE2C89B69C2B068FC378DAA952BA7F163C4A11628F55A4DF523B3EF SWAP1 PUSH1 0x20 ADD PUSH2 0x2667 JUMP JUMPDEST PUSH1 0x13 DUP1 SLOAD SWAP1 PUSH1 0x0 PUSH2 0x41D2 DUP4 PUSH2 0x5D80 JUMP JUMPDEST SWAP1 SWAP2 SSTORE POP POP PUSH1 0x1 PUSH1 0x1 PUSH1 0xA0 SHL SUB DUP8 AND PUSH1 0x0 DUP2 DUP2 MSTORE PUSH1 0xF PUSH1 0x20 SWAP1 DUP2 MSTORE PUSH1 0x40 DUP1 DUP4 KECCAK256 PUSH1 0x13 DUP1 SLOAD DUP3 SLOAD PUSH1 0x1 DUP2 DUP2 ADD DUP6 SSTORE SWAP4 DUP8 MSTORE DUP6 DUP8 KECCAK256 ADD SSTORE SLOAD PUSH1 0x12 DUP1 SLOAD DUP1 DUP5 ADD SWAP1 SWAP2 SSTORE PUSH32 0xBB8A6A4669BA250D26CD7A459ECA9D215F8307E33AEBE50379BC5A3617EC3444 ADD DUP2 SWAP1 SSTORE DUP1 DUP6 MSTORE PUSH1 0xE SWAP1 SWAP4 MSTORE SWAP3 KECCAK256 SWAP1 DUP2 SSTORE SWAP1 DUP2 ADD DUP1 SLOAD PUSH1 0x1 PUSH1 0x1 PUSH1 0xA0 SHL SUB NOT AND SWAP1 SWAP3 OR SWAP1 SWAP2 SSTORE TIMESTAMP PUSH1 0x2 DUP3 ADD SSTORE PUSH1 0x4 DUP2 ADD PUSH2 0x426D DUP9 DUP3 PUSH2 0x5DDF JUMP JUMPDEST POP PUSH1 0x5 DUP2 ADD PUSH2 0x427C DUP8 DUP3 PUSH2 0x5DDF JUMP JUMPDEST POP PUSH1 0x6 DUP2 ADD PUSH2 0x428B DUP7 DUP3 PUSH2 0x5DDF JUMP JUMPDEST POP PUSH1 0x7 DUP2 ADD PUSH2 0x429A DUP6 DUP3 PUSH2 0x5DDF JUMP JUMPDEST POP PUSH1 0x9 DUP2 ADD DUP4 SWAP1 SSTORE PUSH1 0x8 DUP2 ADD DUP3 SWAP1 SSTORE PUSH1 0x13 SLOAD PUSH1 0x40 MLOAD PUSH32 0x48DE5EE750DCBEDDEA3134837E8D0AF178257CD8A90A37BD400F6C6E3713A243 SWAP2 PUSH2 0x4306 SWAP2 PUSH1 0x40 DUP1 DUP3 MSTORE PUSH1 0xF SWAP1 DUP3 ADD MSTORE PUSH15 0xE5B7B2E6B7BBE58AA0E8AEBEE5A487 PUSH1 0x88 SHL PUSH1 0x60 DUP3 ADD MSTORE PUSH1 0x20 DUP2 ADD SWAP2 SWAP1 SWAP2 MSTORE PUSH1 0x80 ADD SWAP1 JUMP JUMPDEST PUSH1 0x40 MLOAD DUP1 SWAP2 SUB SWAP1 LOG1 POP POP POP POP POP POP POP POP JUMP JUMPDEST PUSH1 0x60 DUP2 MLOAD PUSH8 0xFFFFFFFFFFFFFFFF DUP2 GT ISZERO PUSH2 0x4334 JUMPI PUSH2 0x4334 PUSH2 0x54E5 JUMP JUMPDEST PUSH1 0x40 MLOAD SWAP1 DUP1 DUP3 MSTORE DUP1 PUSH1 0x20 MUL PUSH1 0x20 ADD DUP3 ADD PUSH1 0x40 MSTORE DUP1 ISZERO PUSH2 0x436D JUMPI DUP2 PUSH1 0x20 ADD JUMPDEST PUSH2 0x435A PUSH2 0x5158 JUMP JUMPDEST DUP2 MSTORE PUSH1 0x20 ADD SWAP1 PUSH1 0x1 SWAP1 SUB SWAP1 DUP2 PUSH2 0x4352 JUMPI SWAP1 POP JUMPDEST POP SWAP1 POP PUSH1 0x0 JUMPDEST DUP3 MLOAD DUP2 LT ISZERO PUSH2 0x2DFF JUMPI PUSH2 0x439E DUP4 DUP3 DUP2 MLOAD DUP2 LT PUSH2 0x4391 JUMPI PUSH2 0x4391 PUSH2 0x5D57 JUMP JUMPDEST PUSH1 0x20 MUL PUSH1 0x20 ADD ADD MLOAD PUSH2 0x1CAC JUMP JUMPDEST DUP3 DUP3 DUP2 MLOAD DUP2 LT PUSH2 0x43B0 JUMPI PUSH2 0x43B0 PUSH2 0x5D57 JUMP JUMPDEST PUSH1 0x20 MUL PUSH1 0x20 ADD ADD DUP2 SWAP1 MSTORE POP DUP1 DUP1 PUSH2 0x43C6 SWAP1 PUSH2 0x5D80 JUMP JUMPDEST SWAP2 POP POP PUSH2 0x4373 JUMP JUMPDEST PUSH1 0x0 DUP2 DUP2 MSTORE PUSH1 0x15 PUSH1 0x20 MSTORE PUSH1 0x40 DUP2 KECCAK256 SLOAD SWAP1 SUB PUSH2 0x39B3 JUMPI PUSH1 0x40 MLOAD PUSH3 0x461BCD PUSH1 0xE5 SHL DUP2 MSTORE PUSH1 0x20 PUSH1 0x4 DUP3 ADD MSTORE PUSH1 0x1A PUSH1 0x24 DUP3 ADD MSTORE PUSH32 0xE8AFB7E8BE93E585A5E69C89E69588E79A84E4BAA4E698934944000000000000 PUSH1 0x44 DUP3 ADD MSTORE PUSH1 0x64 ADD PUSH2 0x730 JUMP JUMPDEST PUSH2 0x4433 PUSH2 0x5158 JUMP JUMPDEST PUSH2 0x443C DUP3 PUSH2 0x43CE JUMP JUMPDEST PUSH1 0x1A DUP1 SLOAD PUSH1 0x1 DUP2 ADD SWAP1 SWAP2 SSTORE PUSH32 0x57C384A7D1C54F3A1B2E5E67B2617B8224FDFD1EA7234EEA573A6FF665FF63E ADD DUP3 SWAP1 SSTORE PUSH1 0x0 DUP3 DUP2 MSTORE PUSH1 0x15 PUSH1 0x20 MSTORE PUSH1 0x40 SWAP1 KECCAK256 PUSH1 0x4 DUP2 ADD SLOAD PUSH1 0x1 PUSH1 0x1 PUSH1 0xA0 SHL SUB AND CALLER EQ PUSH2 0x44D6 JUMPI PUSH1 0x40 MLOAD PUSH3 0x461BCD PUSH1 0xE5 SHL DUP2 MSTORE PUSH1 0x20 PUSH1 0x4 DUP3 ADD MSTORE PUSH1 0x1E PUSH1 0x24 DUP3 ADD MSTORE PUSH32 0xE99D9EE59088E7BAA6E4B8BBE4BABAEFBC8CE697A0E6B395E68B92E7BB9D0000 PUSH1 0x44 DUP3 ADD MSTORE PUSH1 0x64 ADD PUSH2 0x730 JUMP JUMPDEST PUSH1 0xE DUP2 ADD SLOAD PUSH1 0x0 SUB PUSH2 0x452E JUMPI PUSH1 0x40 MLOAD PUSH3 0x461BCD PUSH1 0xE5 SHL DUP2 MSTORE PUSH1 0x20 PUSH1 0x4 DUP3 ADD MSTORE PUSH1 0x2D PUSH1 0x24 DUP3 ADD MSTORE PUSH1 0x0 DUP1 MLOAD PUSH1 0x20 PUSH2 0x5F36 DUP4 CODECOPY DUP2 MLOAD SWAP2 MSTORE PUSH1 0x44 DUP3 ADD MSTORE PUSH13 0x2579A2E4B9EEE7796422396423 PUSH1 0x9A SHL PUSH1 0x64 DUP3 ADD MSTORE PUSH1 0x84 ADD PUSH2 0x730 JUMP JUMPDEST PUSH1 0x10 DUP2 ADD SLOAD ISZERO PUSH2 0x4596 JUMPI PUSH1 0x40 MLOAD PUSH3 0x461BCD PUSH1 0xE5 SHL DUP2 MSTORE PUSH1 0x20 PUSH1 0x4 DUP3 ADD MSTORE PUSH1 0x2D PUSH1 0x24 DUP3 ADD MSTORE PUSH32 0xE6ADA4E7A79FE8B581E59088E5908CE5B7B2E9809AE8BF87EFBC8CE697A0E6B3 PUSH1 0x44 DUP3 ADD MSTORE PUSH13 0x2579A2E4B9EEE7796422396423 PUSH1 0x9A SHL PUSH1 0x64 DUP3 ADD MSTORE PUSH1 0x84 ADD PUSH2 0x730 JUMP JUMPDEST PUSH1 0x11 DUP2 ADD SLOAD ISZERO PUSH2 0x45FE JUMPI PUSH1 0x40 MLOAD PUSH3 0x461BCD PUSH1 0xE5 SHL DUP2 MSTORE PUSH1 0x20 PUSH1 0x4 DUP3 ADD MSTORE PUSH1 0x2D PUSH1 0x24 DUP3 ADD MSTORE PUSH32 0xE6ADA4E7A79FE8B581E59088E5908CE5B7B2E68B92E7BB9DEFBC8CE8AFB7E58B PUSH1 0x44 DUP3 ADD MSTORE PUSH13 0xBFE9878DE5A48DE68B92E7BB9D PUSH1 0x98 SHL PUSH1 0x64 DUP3 ADD MSTORE PUSH1 0x84 ADD PUSH2 0x730 JUMP JUMPDEST TIMESTAMP PUSH1 0x11 DUP3 ADD SSTORE PUSH1 0x40 DUP1 MLOAD DUP2 DUP2 MSTORE PUSH1 0xF SWAP2 DUP2 ADD SWAP2 SWAP1 SWAP2 MSTORE PUSH15 0xE59088E5908CE5B7B2E68B92E7BB9D PUSH1 0x88 SHL PUSH1 0x60 DUP3 ADD MSTORE PUSH1 0x20 DUP2 ADD DUP5 SWAP1 MSTORE PUSH32 0x5909A798E5A0757A7ABEDA4054D82ACD72C1A50609A6233B5F5E514E750F86A3 SWAP1 PUSH1 0x80 ADD PUSH2 0x3FE7 JUMP JUMPDEST PUSH1 0x1 PUSH1 0x1 PUSH1 0xA0 SHL SUB DUP7 AND PUSH1 0x0 SWAP1 DUP2 MSTORE PUSH1 0xB PUSH1 0x20 MSTORE PUSH1 0x40 DUP2 KECCAK256 SLOAD SWAP1 SUB PUSH2 0x46E3 JUMPI PUSH1 0x40 MLOAD PUSH3 0x461BCD PUSH1 0xE5 SHL DUP2 MSTORE PUSH1 0x20 PUSH1 0x4 DUP3 ADD MSTORE PUSH1 0x36 PUSH1 0x24 DUP3 ADD MSTORE PUSH32 0xE8AFA5E4BBA5E5A4AAE59D8AE59CB0E59D80E69CAAE5889BE5BBBAE5B9B3E58F PUSH1 0x44 DUP3 ADD MSTORE PUSH22 0x58745A5373445BF7DE467457DBF2C2C472C44DF2DDDD PUSH1 0x51 SHL PUSH1 0x64 DUP3 ADD MSTORE PUSH1 0x84 ADD PUSH2 0x730 JUMP JUMPDEST PUSH1 0x1 PUSH1 0x1 PUSH1 0xA0 SHL SUB DUP7 AND PUSH1 0x0 SWAP1 DUP2 MSTORE PUSH1 0xB PUSH1 0x20 MSTORE PUSH1 0x40 SWAP1 KECCAK256 PUSH1 0x3 DUP2 ADD PUSH2 0x4709 DUP8 DUP3 PUSH2 0x5DDF JUMP JUMPDEST POP PUSH1 0x4 DUP2 ADD PUSH2 0x4718 DUP7 DUP3 PUSH2 0x5DDF JUMP JUMPDEST POP PUSH1 0x5 DUP2 ADD PUSH2 0x4727 DUP6 DUP3 PUSH2 0x5DDF JUMP JUMPDEST POP PUSH1 0x6 DUP2 ADD PUSH2 0x4736 DUP5 DUP3 PUSH2 0x5DDF JUMP JUMPDEST POP PUSH1 0x7 DUP2 ADD PUSH2 0x4745 DUP4 DUP3 PUSH2 0x5DDF JUMP JUMPDEST POP PUSH32 0x8C3600B5FD0168E13678B5101B7076382150BCA83B9B3803D2FA29518591A84F PUSH1 0xD SLOAD PUSH1 0x40 MLOAD PUSH2 0x3945 SWAP2 SWAP1 PUSH1 0x40 DUP1 DUP3 MSTORE PUSH1 0xF SWAP1 DUP3 ADD MSTORE PUSH15 0xE5B7B2E4BFAEE694B9E794A8E688B7 PUSH1 0x88 SHL PUSH1 0x60 DUP3 ADD MSTORE PUSH1 0x20 DUP2 ADD SWAP2 SWAP1 SWAP2 MSTORE PUSH1 0x80 ADD SWAP1 JUMP JUMPDEST PUSH2 0x47AB PUSH2 0x5158 JUMP JUMPDEST PUSH2 0x47B4 DUP3 PUSH2 0x43CE JUMP JUMPDEST PUSH1 0x0 DUP3 DUP2 MSTORE PUSH1 0x15 PUSH1 0x20 MSTORE PUSH1 0x40 SWAP1 KECCAK256 PUSH1 0x5 DUP2 ADD SLOAD PUSH1 0x1 PUSH1 0x1 PUSH1 0xA0 SHL SUB AND CALLER EQ PUSH2 0x4828 JUMPI PUSH1 0x40 MLOAD PUSH3 0x461BCD PUSH1 0xE5 SHL DUP2 MSTORE PUSH1 0x20 PUSH1 0x4 DUP3 ADD MSTORE PUSH1 0x21 PUSH1 0x24 DUP3 ADD MSTORE PUSH32 0xE697A0E6B395E5BD92E8BF98EFBC8CE99D9EE8AEBEE5A487E7A79FE8B581E880 PUSH1 0x44 DUP3 ADD MSTORE PUSH1 0x85 PUSH1 0xF8 SHL PUSH1 0x64 DUP3 ADD MSTORE PUSH1 0x84 ADD PUSH2 0x730 JUMP JUMPDEST PUSH1 0xE DUP2 ADD SLOAD PUSH1 0x0 SUB PUSH2 0x4880 JUMPI PUSH1 0x40 MLOAD PUSH3 0x461BCD PUSH1 0xE5 SHL DUP2 MSTORE PUSH1 0x20 PUSH1 0x4 DUP3 ADD MSTORE PUSH1 0x2D PUSH1 0x24 DUP3 ADD MSTORE PUSH1 0x0 DUP1 MLOAD PUSH1 0x20 PUSH2 0x5F36 DUP4 CODECOPY DUP2 MLOAD SWAP2 MSTORE PUSH1 0x44 DUP3 ADD MSTORE PUSH13 0x95E58F91E8B5B7E7BB93E69D9F PUSH1 0x98 SHL PUSH1 0x64 DUP3 ADD MSTORE PUSH1 0x84 ADD PUSH2 0x730 JUMP JUMPDEST PUSH1 0x10 DUP2 ADD SLOAD PUSH1 0x0 SUB PUSH2 0x48EA JUMPI PUSH1 0x40 MLOAD PUSH3 0x461BCD PUSH1 0xE5 SHL DUP2 MSTORE PUSH1 0x20 PUSH1 0x4 DUP3 ADD MSTORE PUSH1 0x2D PUSH1 0x24 DUP3 ADD MSTORE PUSH32 0xE6ADA4E7A79FE8B581E59088E5908CE69CAAE9809AE8BF87EFBC8CE697A0E6B3 PUSH1 0x44 DUP3 ADD MSTORE PUSH13 0x95E58F91E8B5B7E7BB93E69D9F PUSH1 0x98 SHL PUSH1 0x64 DUP3 ADD MSTORE PUSH1 0x84 ADD PUSH2 0x730 JUMP JUMPDEST PUSH1 0x13 DUP2 ADD SLOAD ISZERO PUSH2 0x490C JUMPI PUSH1 0x40 MLOAD PUSH3 0x461BCD PUSH1 0xE5 SHL DUP2 MSTORE PUSH1 0x4 ADD PUSH2 0x730 SWAP1 PUSH2 0x5EEE JUMP JUMPDEST TIMESTAMP PUSH1 0x12 DUP3 ADD SSTORE PUSH1 0x40 DUP1 MLOAD DUP2 DUP2 MSTORE PUSH1 0xF SWAP2 DUP2 ADD SWAP2 SWAP1 SWAP2 MSTORE PUSH15 0xE59088E5908CE5BE85E5AE8CE6889 PUSH1 0x8C SHL PUSH1 0x60 DUP3 ADD MSTORE PUSH1 0x20 DUP2 ADD DUP5 SWAP1 MSTORE PUSH32 0x1F14526DDD67E6268764BBAD05E9E2C5AB3AB842567DDB8DB3BB0AD6751E4B3B SWAP1 PUSH1 0x80 ADD PUSH2 0x3FE7 JUMP JUMPDEST PUSH2 0x4976 DUP2 PUSH1 0x1 PUSH2 0x336C JUMP JUMPDEST CALLER PUSH1 0x0 SWAP1 DUP2 MSTORE PUSH1 0x10 PUSH1 0x20 MSTORE PUSH1 0x40 SWAP1 DUP2 SWAP1 KECCAK256 SWAP1 MLOAD PUSH4 0xF3C0D275 PUSH1 0xE0 SHL DUP2 MSTORE PUSH1 0x4 DUP2 ADD SWAP2 SWAP1 SWAP2 MSTORE PUSH1 0x24 DUP2 ADD DUP3 SWAP1 MSTORE PUSH20 0x0 SWAP1 PUSH4 0xF3C0D275 SWAP1 PUSH1 0x44 ADD PUSH1 0x0 PUSH1 0x40 MLOAD DUP1 DUP4 SUB DUP2 DUP7 DUP1 EXTCODESIZE ISZERO DUP1 ISZERO PUSH2 0x49D9 JUMPI PUSH1 0x0 DUP1 REVERT JUMPDEST POP GAS DELEGATECALL ISZERO DUP1 ISZERO PUSH2 0x49ED JUMPI RETURNDATASIZE PUSH1 0x0 DUP1 RETURNDATACOPY RETURNDATASIZE PUSH1 0x0 REVERT JUMPDEST POP POP POP POP PUSH32 0x81018EC03D734D80C5D83A19F8F55C74DDA767070B930A6FDE241F1762525E86 DUP2 PUSH1 0x40 MLOAD PUSH2 0x6DA SWAP2 SWAP1 PUSH1 0x40 DUP1 DUP3 MSTORE PUSH1 0xF SWAP1 DUP3 ADD MSTORE PUSH15 0xE5B7B2E5BD92E8BF98E8AEBEE5A487 PUSH1 0x88 SHL PUSH1 0x60 DUP3 ADD MSTORE PUSH1 0x20 DUP2 ADD SWAP2 SWAP1 SWAP2 MSTORE PUSH1 0x80 ADD SWAP1 JUMP JUMPDEST PUSH2 0x4A54 PUSH2 0x5158 JUMP JUMPDEST PUSH2 0x4A5D DUP3 PUSH2 0x43CE JUMP JUMPDEST PUSH1 0x19 DUP1 SLOAD PUSH1 0x1 DUP2 ADD SWAP1 SWAP2 SSTORE PUSH32 0x944998273E477B495144FB8794C914197F3CCB46BE2900F4698FD0EF743C9695 ADD DUP3 SWAP1 SSTORE PUSH1 0x0 DUP3 DUP2 MSTORE PUSH1 0x15 PUSH1 0x20 MSTORE PUSH1 0x40 SWAP1 KECCAK256 PUSH1 0x4 DUP2 ADD SLOAD PUSH1 0x1 PUSH1 0x1 PUSH1 0xA0 SHL SUB AND CALLER EQ PUSH2 0x4AF7 JUMPI PUSH1 0x40 MLOAD PUSH3 0x461BCD PUSH1 0xE5 SHL DUP2 MSTORE PUSH1 0x20 PUSH1 0x4 DUP3 ADD MSTORE PUSH1 0x1E PUSH1 0x24 DUP3 ADD MSTORE PUSH32 0xE99D9EE59088E7BAA6E4B8BBE4BABAEFBC8CE697A0E6B395E5908CE6848F0000 PUSH1 0x44 DUP3 ADD MSTORE PUSH1 0x64 ADD PUSH2 0x730 JUMP JUMPDEST PUSH1 0xE DUP2 ADD SLOAD PUSH1 0x0 SUB PUSH2 0x4B4F JUMPI PUSH1 0x40 MLOAD PUSH3 0x461BCD PUSH1 0xE5 SHL DUP2 MSTORE PUSH1 0x20 PUSH1 0x4 DUP3 ADD MSTORE PUSH1 0x2D PUSH1 0x24 DUP3 ADD MSTORE PUSH1 0x0 DUP1 MLOAD PUSH1 0x20 PUSH2 0x5F36 DUP4 CODECOPY DUP2 MLOAD SWAP2 MSTORE PUSH1 0x44 DUP3 ADD MSTORE PUSH13 0x257A6026BA2FE1F96422396423 PUSH1 0x9A SHL PUSH1 0x64 DUP3 ADD MSTORE PUSH1 0x84 ADD PUSH2 0x730 JUMP JUMPDEST PUSH1 0x10 DUP2 ADD SLOAD ISZERO PUSH2 0x4BB7 JUMPI PUSH1 0x40 MLOAD PUSH3 0x461BCD PUSH1 0xE5 SHL DUP2 MSTORE PUSH1 0x20 PUSH1 0x4 DUP3 ADD MSTORE PUSH1 0x2D PUSH1 0x24 DUP3 ADD MSTORE PUSH32 0xE6ADA4E7A79FE8B581E59088E5908CE5B7B2E9809AE8BF87EFBC8CE8AFB7E58B PUSH1 0x44 DUP3 ADD MSTORE PUSH13 0xBFE9878DE5A48DE9809AE8BF87 PUSH1 0x98 SHL PUSH1 0x64 DUP3 ADD MSTORE PUSH1 0x84 ADD PUSH2 0x730 JUMP JUMPDEST PUSH1 0x11 DUP2 ADD SLOAD ISZERO PUSH2 0x4C1F JUMPI PUSH1 0x40 MLOAD PUSH3 0x461BCD PUSH1 0xE5 SHL DUP2 MSTORE PUSH1 0x20 PUSH1 0x4 DUP3 ADD MSTORE PUSH1 0x2D PUSH1 0x24 DUP3 ADD MSTORE PUSH32 0xE6ADA4E7A79FE8B581E59088E5908CE5B7B2E68B92E7BB9DEFBC8CE697A0E6B3 PUSH1 0x44 DUP3 ADD MSTORE PUSH13 0x257A6026BA2FE1F96422396423 PUSH1 0x9A SHL PUSH1 0x64 DUP3 ADD MSTORE PUSH1 0x84 ADD PUSH2 0x730 JUMP JUMPDEST TIMESTAMP PUSH1 0x10 DUP3 ADD SSTORE PUSH1 0x40 DUP1 MLOAD DUP2 DUP2 MSTORE PUSH1 0xF SWAP2 DUP2 ADD SWAP2 SWAP1 SWAP2 MSTORE PUSH15 0xE59088E5908CE5B7B2E9809AE8BF87 PUSH1 0x88 SHL PUSH1 0x60 DUP3 ADD MSTORE PUSH1 0x20 DUP2 ADD DUP5 SWAP1 MSTORE PUSH32 0xB41AB994283AA50642F802B623FD6D05FFFC9AEC8B1BD9239904E9ECF22C9F5E SWAP1 PUSH1 0x80 ADD PUSH2 0x3FE7 JUMP JUMPDEST PUSH2 0x4C8B DUP4 DUP4 DUP4 PUSH1 0x1 PUSH2 0x2E05 JUMP JUMPDEST CALLER PUSH1 0x0 SWAP1 DUP2 MSTORE PUSH1 0x10 PUSH1 0x20 SWAP1 DUP2 MSTORE PUSH1 0x40 DUP1 DUP4 KECCAK256 DUP1 SLOAD PUSH1 0x1 DUP2 ADD DUP3 SSTORE SWAP1 DUP5 MSTORE SWAP3 DUP3 SWAP1 KECCAK256 SWAP1 SWAP3 ADD DUP6 SWAP1 SSTORE DUP2 MLOAD DUP3 DUP2 MSTORE PUSH1 0xF SWAP3 DUP2 ADD SWAP3 SWAP1 SWAP3 MSTORE PUSH15 0xE5B7B2E587BAE7A79FE8AEBEE5A487 PUSH1 0x88 SHL PUSH1 0x60 DUP4 ADD MSTORE DUP2 ADD DUP5 SWAP1 MSTORE PUSH32 0xE07BF1F6EAAC6E2D99A879D33FB62AEA3A64D2A4CB0E7A9C71F75D5812199522 SWAP1 PUSH1 0x80 ADD PUSH2 0x10B3 JUMP JUMPDEST PUSH2 0x4D0F PUSH2 0x5158 JUMP JUMPDEST PUSH2 0x4D18 DUP3 PUSH2 0x43CE JUMP JUMPDEST PUSH1 0x1B DUP1 SLOAD PUSH1 0x1 DUP2 ADD SWAP1 SWAP2 SSTORE PUSH32 0x3AD8AA4F87544323A9D1E5DD902F40C356527A7955687113DB5F9A85AD579DC1 ADD DUP3 SWAP1 SSTORE PUSH1 0x0 DUP3 DUP2 MSTORE PUSH1 0x15 PUSH1 0x20 MSTORE PUSH1 0x40 SWAP1 KECCAK256 PUSH1 0x4 DUP2 ADD SLOAD PUSH1 0x1 PUSH1 0x1 PUSH1 0xA0 SHL SUB AND CALLER EQ PUSH2 0x4DC2 JUMPI PUSH1 0x40 MLOAD PUSH3 0x461BCD PUSH1 0xE5 SHL DUP2 MSTORE PUSH1 0x20 PUSH1 0x4 DUP3 ADD MSTORE PUSH1 0x27 PUSH1 0x24 DUP3 ADD MSTORE PUSH32 0xE99D9EE8AEBEE5A487E68C81E69C89E4BABAEFBC8CE697A0E6B395E5AE8CE688 PUSH1 0x44 DUP3 ADD MSTORE PUSH7 0x4874D546734A5B PUSH1 0xC9 SHL PUSH1 0x64 DUP3 ADD MSTORE PUSH1 0x84 ADD PUSH2 0x730 JUMP JUMPDEST PUSH1 0xB DUP2 ADD SLOAD TIMESTAMP LT ISZERO PUSH2 0x4E0E JUMPI PUSH1 0x40 MLOAD PUSH3 0x461BCD PUSH1 0xE5 SHL DUP2 MSTORE PUSH1 0x20 PUSH1 0x4 DUP3 ADD MSTORE PUSH1 0x15 PUSH1 0x24 DUP3 ADD MSTORE PUSH21 0xE7A79FE8B581E697B6E997B4E69CAAE588B0E69C9F PUSH1 0x58 SHL PUSH1 0x44 DUP3 ADD MSTORE PUSH1 0x64 ADD PUSH2 0x730 JUMP JUMPDEST PUSH1 0xE DUP2 ADD SLOAD PUSH1 0x0 SUB PUSH2 0x4E66 JUMPI PUSH1 0x40 MLOAD PUSH3 0x461BCD PUSH1 0xE5 SHL DUP2 MSTORE PUSH1 0x20 PUSH1 0x4 DUP3 ADD MSTORE PUSH1 0x2D PUSH1 0x24 DUP3 ADD MSTORE PUSH1 0x0 DUP1 MLOAD PUSH1 0x20 PUSH2 0x5F36 DUP4 CODECOPY DUP2 MLOAD SWAP2 MSTORE PUSH1 0x44 DUP3 ADD MSTORE PUSH13 0x25796BA339A224396422396423 PUSH1 0x9A SHL PUSH1 0x64 DUP3 ADD MSTORE PUSH1 0x84 ADD PUSH2 0x730 JUMP JUMPDEST PUSH1 0x10 DUP2 ADD SLOAD PUSH1 0x0 SUB PUSH2 0x4ED9 JUMPI PUSH1 0x40 MLOAD PUSH3 0x461BCD PUSH1 0xE5 SHL DUP2 MSTORE PUSH1 0x20 PUSH1 0x4 DUP3 ADD MSTORE PUSH1 0x36 PUSH1 0x24 DUP3 ADD MSTORE PUSH32 0xE6ADA4E7A79FE8B581E59088E5908CE8BF98E69CAAE5AEA1E6A0B8E9809AE8BF PUSH1 0x44 DUP3 ADD MSTORE PUSH22 0x21FBEF2339A5E839ACE5796BA339A224396422396423 PUSH1 0x52 SHL PUSH1 0x64 DUP3 ADD MSTORE PUSH1 0x84 ADD PUSH2 0x730 JUMP JUMPDEST PUSH1 0x13 DUP2 ADD SLOAD ISZERO PUSH2 0x4EFB JUMPI PUSH1 0x40 MLOAD PUSH3 0x461BCD PUSH1 0xE5 SHL DUP2 MSTORE PUSH1 0x4 ADD PUSH2 0x730 SWAP1 PUSH2 0x5EEE JUMP JUMPDEST TIMESTAMP PUSH1 0x13 DUP3 ADD SSTORE PUSH1 0x4 DUP1 DUP3 ADD SLOAD PUSH1 0x1 PUSH1 0x1 PUSH1 0xA0 SHL SUB AND PUSH1 0x0 SWAP1 DUP2 MSTORE PUSH1 0x17 PUSH1 0x20 MSTORE PUSH1 0x40 SWAP1 DUP2 SWAP1 KECCAK256 SWAP1 MLOAD PUSH4 0xF3C0D275 PUSH1 0xE0 SHL DUP2 MSTORE SWAP2 DUP3 ADD MSTORE PUSH1 0x24 DUP2 ADD DUP5 SWAP1 MSTORE PUSH20 0x0 SWAP1 PUSH4 0xF3C0D275 SWAP1 PUSH1 0x44 ADD PUSH1 0x0 PUSH1 0x40 MLOAD DUP1 DUP4 SUB DUP2 DUP7 DUP1 EXTCODESIZE ISZERO DUP1 ISZERO PUSH2 0x4F6E JUMPI PUSH1 0x0 DUP1 REVERT JUMPDEST POP GAS DELEGATECALL ISZERO DUP1 ISZERO PUSH2 0x4F82 JUMPI RETURNDATASIZE PUSH1 0x0 DUP1 RETURNDATACOPY RETURNDATASIZE PUSH1 0x0 REVERT JUMPDEST POP POP POP PUSH1 0x5 DUP3 ADD SLOAD PUSH1 0x1 PUSH1 0x1 PUSH1 0xA0 SHL SUB AND PUSH1 0x0 SWAP1 DUP2 MSTORE PUSH1 0x16 PUSH1 0x20 MSTORE PUSH1 0x40 SWAP1 DUP2 SWAP1 KECCAK256 SWAP1 MLOAD PUSH4 0xF3C0D275 PUSH1 0xE0 SHL DUP2 MSTORE PUSH20 0x0 SWAP3 POP PUSH4 0xF3C0D275 SWAP2 PUSH2 0x4FE3 SWAP2 DUP8 SWAP1 PUSH1 0x4 ADD SWAP2 DUP3 MSTORE PUSH1 0x20 DUP3 ADD MSTORE PUSH1 0x40 ADD SWAP1 JUMP JUMPDEST PUSH1 0x0 PUSH1 0x40 MLOAD DUP1 DUP4 SUB DUP2 DUP7 DUP1 EXTCODESIZE ISZERO DUP1 ISZERO PUSH2 0x4FFB JUMPI PUSH1 0x0 DUP1 REVERT JUMPDEST POP GAS DELEGATECALL ISZERO DUP1 ISZERO PUSH2 0x500F JUMPI RETURNDATASIZE PUSH1 0x0 DUP1 RETURNDATACOPY RETURNDATASIZE PUSH1 0x0 REVERT JUMPDEST POP POP POP POP PUSH32 0x63440B92D7E7D449E507BE5ABFC9F9CDFFF236BA2DE82DC481F75D7FA655A956 DUP4 PUSH1 0x40 MLOAD PUSH2 0x3FE7 SWAP2 SWAP1 PUSH1 0x40 DUP1 DUP3 MSTORE PUSH1 0xF SWAP1 DUP3 ADD MSTORE PUSH15 0xE59088E5908CE5B7B2E5AE8CE6889 PUSH1 0x8C SHL PUSH1 0x60 DUP3 ADD MSTORE PUSH1 0x20 DUP2 ADD SWAP2 SWAP1 SWAP2 MSTORE PUSH1 0x80 ADD SWAP1 JUMP JUMPDEST PUSH1 0x40 MLOAD DUP1 PUSH2 0x140 ADD PUSH1 0x40 MSTORE DUP1 PUSH1 0x0 DUP2 MSTORE PUSH1 0x20 ADD PUSH1 0x0 PUSH1 0x1 PUSH1 0x1 PUSH1 0xA0 SHL SUB AND DUP2 MSTORE PUSH1 0x20 ADD PUSH1 0x0 DUP2 MSTORE PUSH1 0x20 ADD PUSH1 0x60 DUP2 MSTORE PUSH1 0x20 ADD PUSH1 0x60 DUP2 MSTORE PUSH1 0x20 ADD PUSH1 0x60 DUP2 MSTORE PUSH1 0x20 ADD PUSH1 0x60 DUP2 MSTORE PUSH1 0x20 ADD PUSH1 0x60 DUP2 MSTORE PUSH1 0x20 ADD PUSH1 0x0 DUP2 MSTORE PUSH1 0x20 ADD PUSH1 0x60 DUP2 MSTORE POP SWAP1 JUMP JUMPDEST PUSH1 0x40 MLOAD DUP1 PUSH2 0x180 ADD PUSH1 0x40 MSTORE DUP1 PUSH1 0x0 DUP2 MSTORE PUSH1 0x20 ADD PUSH1 0x0 PUSH1 0x1 PUSH1 0x1 PUSH1 0xA0 SHL SUB AND DUP2 MSTORE PUSH1 0x20 ADD PUSH1 0x0 DUP2 MSTORE PUSH1 0x20 ADD PUSH1 0x0 ISZERO ISZERO DUP2 MSTORE PUSH1 0x20 ADD PUSH1 0x60 DUP2 MSTORE PUSH1 0x20 ADD PUSH1 0x60 DUP2 MSTORE PUSH1 0x20 ADD PUSH1 0x60 DUP2 MSTORE PUSH1 0x20 ADD PUSH1 0x60 DUP2 MSTORE PUSH1 0x20 ADD PUSH1 0x0 DUP2 MSTORE PUSH1 0x20 ADD PUSH1 0x0 DUP2 MSTORE PUSH1 0x20 ADD PUSH2 0x514B PUSH1 0x40 MLOAD DUP1 PUSH1 0x60 ADD PUSH1 0x40 MSTORE DUP1 PUSH1 0x0 DUP2 MSTORE PUSH1 0x20 ADD PUSH1 0x0 DUP2 MSTORE PUSH1 0x20 ADD PUSH1 0x0 DUP2 MSTORE POP SWAP1 JUMP JUMPDEST DUP2 MSTORE PUSH1 0x20 ADD PUSH1 0x60 DUP2 MSTORE POP SWAP1 JUMP JUMPDEST PUSH1 0x40 MLOAD DUP1 PUSH2 0x120 ADD PUSH1 0x40 MSTORE DUP1 PUSH1 0x0 DUP2 MSTORE PUSH1 0x20 ADD PUSH1 0x0 DUP2 MSTORE PUSH1 0x20 ADD PUSH1 0x60 DUP2 MSTORE PUSH1 0x20 ADD PUSH1 0x60 DUP2 MSTORE PUSH1 0x20 ADD PUSH1 0x0 PUSH1 0x1 PUSH1 0x1 PUSH1 0xA0 SHL SUB AND DUP2 MSTORE PUSH1 0x20 ADD PUSH1 0x0 PUSH1 0x1 PUSH1 0x1 PUSH1 0xA0 SHL SUB AND DUP2 MSTORE PUSH1 0x20 ADD PUSH2 0x51CD PUSH1 0x40 MLOAD DUP1 PUSH1 0x80 ADD PUSH1 0x40 MSTORE DUP1 PUSH1 0x0 DUP2 MSTORE PUSH1 0x20 ADD PUSH1 0x0 DUP2 MSTORE PUSH1 0x20 ADD PUSH1 0x0 DUP2 MSTORE PUSH1 0x20 ADD PUSH1 0x0 ISZERO ISZERO DUP2 MSTORE POP SWAP1 JUMP JUMPDEST DUP2 MSTORE PUSH1 0x20 ADD PUSH2 0x51DA PUSH2 0x521D JUMP JUMPDEST DUP2 MSTORE PUSH1 0x20 ADD PUSH2 0x5218 PUSH1 0x40 MLOAD DUP1 PUSH1 0xC0 ADD PUSH1 0x40 MSTORE DUP1 PUSH1 0x0 DUP2 MSTORE PUSH1 0x20 ADD PUSH1 0x0 DUP2 MSTORE PUSH1 0x20 ADD PUSH1 0x0 DUP2 MSTORE PUSH1 0x20 ADD PUSH1 0x0 DUP2 MSTORE PUSH1 0x20 ADD PUSH1 0x0 DUP2 MSTORE PUSH1 0x20 ADD PUSH1 0x0 DUP2 MSTORE POP SWAP1 JUMP JUMPDEST SWAP1 MSTORE SWAP1 JUMP JUMPDEST PUSH1 0x40 MLOAD DUP1 PUSH1 0x80 ADD PUSH1 0x40 MSTORE DUP1 PUSH1 0x0 DUP2 MSTORE PUSH1 0x20 ADD PUSH1 0x0 DUP2 MSTORE PUSH1 0x20 ADD PUSH1 0x0 DUP2 MSTORE PUSH1 0x20 ADD PUSH1 0x0 PUSH1 0x2 DUP2 GT ISZERO PUSH2 0x5218 JUMPI PUSH2 0x5218 PUSH2 0x52CD JUMP JUMPDEST DUP1 CALLDATALOAD PUSH1 0x1 PUSH1 0x1 PUSH1 0xA0 SHL SUB DUP2 AND DUP2 EQ PUSH2 0x5267 JUMPI PUSH1 0x0 DUP1 REVERT JUMPDEST SWAP2 SWAP1 POP JUMP JUMPDEST PUSH1 0x0 PUSH1 0x20 DUP3 DUP5 SUB SLT ISZERO PUSH2 0x527E JUMPI PUSH1 0x0 DUP1 REVERT JUMPDEST PUSH2 0xF28 DUP3 PUSH2 0x5250 JUMP JUMPDEST PUSH1 0x0 DUP2 MLOAD DUP1 DUP5 MSTORE PUSH1 0x0 JUMPDEST DUP2 DUP2 LT ISZERO PUSH2 0x52AD JUMPI PUSH1 0x20 DUP2 DUP6 ADD DUP2 ADD MLOAD DUP7 DUP4 ADD DUP3 ADD MSTORE ADD PUSH2 0x5291 JUMP JUMPDEST POP PUSH1 0x0 PUSH1 0x20 DUP3 DUP7 ADD ADD MSTORE PUSH1 0x20 PUSH1 0x1F NOT PUSH1 0x1F DUP4 ADD AND DUP6 ADD ADD SWAP2 POP POP SWAP3 SWAP2 POP POP JUMP JUMPDEST PUSH4 0x4E487B71 PUSH1 0xE0 SHL PUSH1 0x0 MSTORE PUSH1 0x21 PUSH1 0x4 MSTORE PUSH1 0x24 PUSH1 0x0 REVERT JUMPDEST PUSH1 0x0 DUP2 MLOAD DUP1 DUP5 MSTORE PUSH1 0x20 DUP1 DUP6 ADD SWAP5 POP DUP1 DUP5 ADD PUSH1 0x0 JUMPDEST DUP4 DUP2 LT ISZERO PUSH2 0x5356 JUMPI DUP2 MLOAD DUP1 MLOAD DUP9 MSTORE DUP4 DUP2 ADD MLOAD DUP5 DUP10 ADD MSTORE PUSH1 0x40 DUP1 DUP3 ADD MLOAD SWAP1 DUP10 ADD MSTORE PUSH1 0x60 DUP1 DUP3 ADD MLOAD PUSH1 0x1 PUSH1 0x1 PUSH1 0xA0 SHL SUB AND SWAP1 DUP10 ADD MSTORE PUSH1 0x80 SWAP1 DUP2 ADD MLOAD SWAP1 PUSH1 0x4 DUP3 LT PUSH2 0x5341 JUMPI PUSH2 0x5341 PUSH2 0x52CD JUMP JUMPDEST DUP9 ADD MSTORE PUSH1 0xA0 SWAP1 SWAP7 ADD SWAP6 SWAP1 DUP3 ADD SWAP1 PUSH1 0x1 ADD PUSH2 0x52F7 JUMP JUMPDEST POP SWAP5 SWAP6 SWAP5 POP POP POP POP POP JUMP JUMPDEST PUSH1 0x0 PUSH2 0x1C0 DUP3 MLOAD DUP5 MSTORE PUSH1 0x20 DUP4 ADD MLOAD PUSH2 0x5384 PUSH1 0x20 DUP7 ADD DUP3 PUSH1 0x1 PUSH1 0x1 PUSH1 0xA0 SHL SUB AND SWAP1 MSTORE JUMP JUMPDEST POP PUSH1 0x40 DUP4 ADD MLOAD PUSH1 0x40 DUP6 ADD MSTORE PUSH1 0x60 DUP4 ADD MLOAD PUSH2 0x53A2 PUSH1 0x60 DUP7 ADD DUP3 ISZERO ISZERO SWAP1 MSTORE JUMP JUMPDEST POP PUSH1 0x80 DUP4 ADD MLOAD DUP2 PUSH1 0x80 DUP7 ADD MSTORE PUSH2 0x53BA DUP3 DUP7 ADD DUP3 PUSH2 0x5287 JUMP JUMPDEST SWAP2 POP POP PUSH1 0xA0 DUP4 ADD MLOAD DUP5 DUP3 SUB PUSH1 0xA0 DUP7 ADD MSTORE PUSH2 0x53D4 DUP3 DUP3 PUSH2 0x5287 JUMP JUMPDEST SWAP2 POP POP PUSH1 0xC0 DUP4 ADD MLOAD DUP5 DUP3 SUB PUSH1 0xC0 DUP7 ADD MSTORE PUSH2 0x53EE DUP3 DUP3 PUSH2 0x5287 JUMP JUMPDEST SWAP2 POP POP PUSH1 0xE0 DUP4 ADD MLOAD DUP5 DUP3 SUB PUSH1 0xE0 DUP7 ADD MSTORE PUSH2 0x5408 DUP3 DUP3 PUSH2 0x5287 JUMP JUMPDEST PUSH2 0x100 DUP6 DUP2 ADD MLOAD SWAP1 DUP8 ADD MSTORE PUSH2 0x120 DUP1 DUP7 ADD MLOAD SWAP1 DUP8 ADD MSTORE PUSH2 0x140 DUP1 DUP7 ADD MLOAD DUP1 MLOAD DUP3 DUP10 ADD MSTORE PUSH1 0x20 DUP2 ADD MLOAD PUSH2 0x160 DUP10 ADD MSTORE PUSH1 0x40 DUP2 ADD MLOAD PUSH2 0x180 DUP10 ADD MSTORE SWAP2 SWAP4 POP SWAP2 POP POP POP PUSH2 0x160 DUP4 ADD MLOAD DUP5 DUP3 SUB PUSH2 0x1A0 DUP7 ADD MSTORE PUSH2 0x5461 DUP3 DUP3 PUSH2 0x52E3 JUMP JUMPDEST SWAP6 SWAP5 POP POP POP POP POP JUMP JUMPDEST PUSH1 0x0 PUSH1 0x20 DUP1 DUP4 ADD DUP2 DUP5 MSTORE DUP1 DUP6 MLOAD DUP1 DUP4 MSTORE PUSH1 0x40 DUP7 ADD SWAP2 POP PUSH1 0x40 DUP2 PUSH1 0x5 SHL DUP8 ADD ADD SWAP3 POP DUP4 DUP8 ADD PUSH1 0x0 JUMPDEST DUP3 DUP2 LT ISZERO PUSH2 0x54BF JUMPI PUSH1 0x3F NOT DUP9 DUP7 SUB ADD DUP5 MSTORE PUSH2 0x54AD DUP6 DUP4 MLOAD PUSH2 0x5361 JUMP JUMPDEST SWAP5 POP SWAP3 DUP6 ADD SWAP3 SWAP1 DUP6 ADD SWAP1 PUSH1 0x1 ADD PUSH2 0x5491 JUMP JUMPDEST POP SWAP3 SWAP8 SWAP7 POP POP POP POP POP POP POP JUMP JUMPDEST PUSH1 0x0 PUSH1 0x20 DUP3 DUP5 SUB SLT ISZERO PUSH2 0x54DE JUMPI PUSH1 0x0 DUP1 REVERT JUMPDEST POP CALLDATALOAD SWAP2 SWAP1 POP JUMP JUMPDEST PUSH4 0x4E487B71 PUSH1 0xE0 SHL PUSH1 0x0 MSTORE PUSH1 0x41 PUSH1 0x4 MSTORE PUSH1 0x24 PUSH1 0x0 REVERT JUMPDEST PUSH1 0x0 DUP3 PUSH1 0x1F DUP4 ADD SLT PUSH2 0x550C JUMPI PUSH1 0x0 DUP1 REVERT JUMPDEST DUP2 CALLDATALOAD PUSH8 0xFFFFFFFFFFFFFFFF DUP1 DUP3 GT ISZERO PUSH2 0x5527 JUMPI PUSH2 0x5527 PUSH2 0x54E5 JUMP JUMPDEST PUSH1 0x40 MLOAD PUSH1 0x1F DUP4 ADD PUSH1 0x1F NOT SWAP1 DUP2 AND PUSH1 0x3F ADD AND DUP2 ADD SWAP1 DUP3 DUP3 GT DUP2 DUP4 LT OR ISZERO PUSH2 0x554F JUMPI PUSH2 0x554F PUSH2 0x54E5 JUMP JUMPDEST DUP2 PUSH1 0x40 MSTORE DUP4 DUP2 MSTORE DUP7 PUSH1 0x20 DUP6 DUP9 ADD ADD GT ISZERO PUSH2 0x5568 JUMPI PUSH1 0x0 DUP1 REVERT JUMPDEST DUP4 PUSH1 0x20 DUP8 ADD PUSH1 0x20 DUP4 ADD CALLDATACOPY PUSH1 0x0 PUSH1 0x20 DUP6 DUP4 ADD ADD MSTORE DUP1 SWAP5 POP POP POP POP POP SWAP3 SWAP2 POP POP JUMP JUMPDEST PUSH1 0x0 DUP1 PUSH1 0x0 DUP1 PUSH1 0x0 DUP1 PUSH1 0xC0 DUP8 DUP10 SUB SLT ISZERO PUSH2 0x55A1 JUMPI PUSH1 0x0 DUP1 REVERT JUMPDEST PUSH2 0x55AA DUP8 PUSH2 0x5250 JUMP JUMPDEST SWAP6 POP PUSH1 0x20 DUP8 ADD CALLDATALOAD PUSH8 0xFFFFFFFFFFFFFFFF DUP1 DUP3 GT ISZERO PUSH2 0x55C7 JUMPI PUSH1 0x0 DUP1 REVERT JUMPDEST PUSH2 0x55D3 DUP11 DUP4 DUP12 ADD PUSH2 0x54FB JUMP JUMPDEST SWAP7 POP PUSH1 0x40 DUP10 ADD CALLDATALOAD SWAP2 POP DUP1 DUP3 GT ISZERO PUSH2 0x55E9 JUMPI PUSH1 0x0 DUP1 REVERT JUMPDEST PUSH2 0x55F5 DUP11 DUP4 DUP12 ADD PUSH2 0x54FB JUMP JUMPDEST SWAP6 POP PUSH1 0x60 DUP10 ADD CALLDATALOAD SWAP2 POP DUP1 DUP3 GT ISZERO PUSH2 0x560B JUMPI PUSH1 0x0 DUP1 REVERT JUMPDEST PUSH2 0x5617 DUP11 DUP4 DUP12 ADD PUSH2 0x54FB JUMP JUMPDEST SWAP5 POP PUSH1 0x80 DUP10 ADD CALLDATALOAD SWAP2 POP DUP1 DUP3 GT ISZERO PUSH2 0x562D JUMPI PUSH1 0x0 DUP1 REVERT JUMPDEST PUSH2 0x5639 DUP11 DUP4 DUP12 ADD PUSH2 0x54FB JUMP JUMPDEST SWAP4 POP PUSH1 0xA0 DUP10 ADD CALLDATALOAD SWAP2 POP DUP1 DUP3 GT ISZERO PUSH2 0x564F JUMPI PUSH1 0x0 DUP1 REVERT JUMPDEST POP PUSH2 0x565C DUP10 DUP3 DUP11 ADD PUSH2 0x54FB JUMP JUMPDEST SWAP2 POP POP SWAP3 SWAP6 POP SWAP3 SWAP6 POP SWAP3 SWAP6 JUMP JUMPDEST PUSH1 0x0 DUP1 PUSH1 0x0 PUSH1 0x60 DUP5 DUP7 SUB SLT ISZERO PUSH2 0x567E JUMPI PUSH1 0x0 DUP1 REVERT JUMPDEST POP POP DUP2 CALLDATALOAD SWAP4 PUSH1 0x20 DUP4 ADD CALLDATALOAD SWAP4 POP PUSH1 0x40 SWAP1 SWAP3 ADD CALLDATALOAD SWAP2 SWAP1 POP JUMP JUMPDEST PUSH1 0x0 DUP1 PUSH1 0x40 DUP4 DUP6 SUB SLT ISZERO PUSH2 0x56A8 JUMPI PUSH1 0x0 DUP1 REVERT JUMPDEST POP POP DUP1 CALLDATALOAD SWAP3 PUSH1 0x20 SWAP1 SWAP2 ADD CALLDATALOAD SWAP2 POP JUMP JUMPDEST PUSH1 0x0 DUP2 MLOAD DUP1 DUP5 MSTORE PUSH1 0x20 DUP1 DUP6 ADD SWAP5 POP DUP1 DUP5 ADD PUSH1 0x0 JUMPDEST DUP4 DUP2 LT ISZERO PUSH2 0x5356 JUMPI DUP2 MLOAD DUP8 MSTORE SWAP6 DUP3 ADD SWAP6 SWAP1 DUP3 ADD SWAP1 PUSH1 0x1 ADD PUSH2 0x56CB JUMP JUMPDEST PUSH1 0x0 PUSH2 0x140 DUP3 MLOAD DUP5 MSTORE PUSH1 0x20 DUP4 ADD MLOAD PUSH2 0x570A PUSH1 0x20 DUP7 ADD DUP3 PUSH1 0x1 PUSH1 0x1 PUSH1 0xA0 SHL SUB AND SWAP1 MSTORE JUMP JUMPDEST POP PUSH1 0x40 DUP4 ADD MLOAD PUSH1 0x40 DUP6 ADD MSTORE PUSH1 0x60 DUP4 ADD MLOAD DUP2 PUSH1 0x60 DUP7 ADD MSTORE PUSH2 0x572C DUP3 DUP7 ADD DUP3 PUSH2 0x5287 JUMP JUMPDEST SWAP2 POP POP PUSH1 0x80 DUP4 ADD MLOAD DUP5 DUP3 SUB PUSH1 0x80 DUP7 ADD MSTORE PUSH2 0x5746 DUP3 DUP3 PUSH2 0x5287 JUMP JUMPDEST SWAP2 POP POP PUSH1 0xA0 DUP4 ADD MLOAD DUP5 DUP3 SUB PUSH1 0xA0 DUP7 ADD MSTORE PUSH2 0x5760 DUP3 DUP3 PUSH2 0x5287 JUMP JUMPDEST SWAP2 POP POP PUSH1 0xC0 DUP4 ADD MLOAD DUP5 DUP3 SUB PUSH1 0xC0 DUP7 ADD MSTORE PUSH2 0x577A DUP3 DUP3 PUSH2 0x5287 JUMP JUMPDEST SWAP2 POP POP PUSH1 0xE0 DUP4 ADD MLOAD DUP5 DUP3 SUB PUSH1 0xE0 DUP7 ADD MSTORE PUSH2 0x5794 DUP3 DUP3 PUSH2 0x5287 JUMP JUMPDEST SWAP2 POP POP PUSH2 0x100 DUP1 DUP5 ADD MLOAD DUP2 DUP7 ADD MSTORE POP PUSH2 0x120 DUP1 DUP5 ADD MLOAD DUP6 DUP4 SUB DUP3 DUP8 ADD MSTORE PUSH2 0x57BB DUP4 DUP3 PUSH2 0x56B7 JUMP JUMPDEST SWAP7 SWAP6 POP POP POP POP POP POP JUMP JUMPDEST PUSH1 0x0 PUSH1 0x20 DUP1 DUP4 ADD DUP2 DUP5 MSTORE DUP1 DUP6 MLOAD DUP1 DUP4 MSTORE PUSH1 0x40 DUP7 ADD SWAP2 POP PUSH1 0x40 DUP2 PUSH1 0x5 SHL DUP8 ADD ADD SWAP3 POP DUP4 DUP8 ADD PUSH1 0x0 JUMPDEST DUP3 DUP2 LT ISZERO PUSH2 0x54BF JUMPI PUSH1 0x3F NOT DUP9 DUP7 SUB ADD DUP5 MSTORE PUSH2 0x5808 DUP6 DUP4 MLOAD PUSH2 0x56E7 JUMP JUMPDEST SWAP5 POP SWAP3 DUP6 ADD SWAP3 SWAP1 DUP6 ADD SWAP1 PUSH1 0x1 ADD PUSH2 0x57EC JUMP JUMPDEST PUSH1 0x0 DUP1 PUSH1 0x0 DUP1 PUSH1 0x0 DUP1 PUSH1 0x0 PUSH1 0xE0 DUP9 DUP11 SUB SLT ISZERO PUSH2 0x5835 JUMPI PUSH1 0x0 DUP1 REVERT JUMPDEST PUSH2 0x583E DUP9 PUSH2 0x5250 JUMP JUMPDEST SWAP7 POP PUSH1 0x20 DUP9 ADD CALLDATALOAD PUSH8 0xFFFFFFFFFFFFFFFF DUP1 DUP3 GT ISZERO PUSH2 0x585B JUMPI PUSH1 0x0 DUP1 REVERT JUMPDEST PUSH2 0x5867 DUP12 DUP4 DUP13 ADD PUSH2 0x54FB JUMP JUMPDEST SWAP8 POP PUSH1 0x40 DUP11 ADD CALLDATALOAD SWAP2 POP DUP1 DUP3 GT ISZERO PUSH2 0x587D JUMPI PUSH1 0x0 DUP1 REVERT JUMPDEST PUSH2 0x5889 DUP12 DUP4 DUP13 ADD PUSH2 0x54FB JUMP JUMPDEST SWAP7 POP PUSH1 0x60 DUP11 ADD CALLDATALOAD SWAP2 POP DUP1 DUP3 GT ISZERO PUSH2 0x589F JUMPI PUSH1 0x0 DUP1 REVERT JUMPDEST PUSH2 0x58AB DUP12 DUP4 DUP13 ADD PUSH2 0x54FB JUMP JUMPDEST SWAP6 POP PUSH1 0x80 DUP11 ADD CALLDATALOAD SWAP2 POP DUP1 DUP3 GT ISZERO PUSH2 0x58C1 JUMPI PUSH1 0x0 DUP1 REVERT JUMPDEST POP PUSH2 0x58CE DUP11 DUP3 DUP12 ADD PUSH2 0x54FB JUMP JUMPDEST SWAP4 POP POP PUSH1 0xA0 DUP9 ADD CALLDATALOAD SWAP2 POP PUSH1 0xC0 DUP9 ADD CALLDATALOAD SWAP1 POP SWAP3 SWAP6 SWAP9 SWAP2 SWAP5 SWAP8 POP SWAP3 SWAP6 POP JUMP JUMPDEST PUSH1 0x20 DUP2 MSTORE PUSH1 0x0 PUSH2 0xF28 PUSH1 0x20 DUP4 ADD DUP5 PUSH2 0x56E7 JUMP JUMPDEST PUSH1 0x20 DUP2 MSTORE PUSH1 0x0 PUSH2 0xF28 PUSH1 0x20 DUP4 ADD DUP5 PUSH2 0x5361 JUMP JUMPDEST PUSH1 0x0 DUP1 PUSH1 0x0 DUP1 PUSH1 0x0 DUP1 PUSH1 0x0 PUSH1 0xE0 DUP9 DUP11 SUB SLT ISZERO PUSH2 0x592C JUMPI PUSH1 0x0 DUP1 REVERT JUMPDEST DUP8 CALLDATALOAD SWAP7 POP PUSH1 0x20 DUP9 ADD CALLDATALOAD PUSH8 0xFFFFFFFFFFFFFFFF DUP1 DUP3 GT ISZERO PUSH2 0x585B JUMPI PUSH1 0x0 DUP1 REVERT JUMPDEST DUP1 MLOAD DUP3 MSTORE PUSH1 0x20 DUP2 ADD MLOAD PUSH1 0x20 DUP4 ADD MSTORE PUSH1 0x40 DUP2 ADD MLOAD PUSH1 0x40 DUP4 ADD MSTORE PUSH1 0x60 DUP2 ADD MLOAD PUSH1 0x3 DUP2 LT PUSH2 0x5978 JUMPI PUSH2 0x5978 PUSH2 0x52CD JUMP JUMPDEST DUP1 PUSH1 0x60 DUP5 ADD MSTORE POP POP POP JUMP JUMPDEST PUSH1 0x0 PUSH2 0x280 DUP3 MLOAD DUP5 MSTORE PUSH1 0x20 DUP4 ADD MLOAD PUSH1 0x20 DUP6 ADD MSTORE PUSH1 0x40 DUP4 ADD MLOAD DUP2 PUSH1 0x40 DUP7 ADD MSTORE PUSH2 0x59AD DUP3 DUP7 ADD DUP3 PUSH2 0x5287 JUMP JUMPDEST SWAP2 POP POP PUSH1 0x60 DUP4 ADD MLOAD DUP5 DUP3 SUB PUSH1 0x60 DUP7 ADD MSTORE PUSH2 0x59C7 DUP3 DUP3 PUSH2 0x5287 JUMP JUMPDEST SWAP2 POP POP PUSH1 0x80 DUP4 ADD MLOAD PUSH2 0x59E4 PUSH1 0x80 DUP7 ADD DUP3 PUSH1 0x1 PUSH1 0x1 PUSH1 0xA0 SHL SUB AND SWAP1 MSTORE JUMP JUMPDEST POP PUSH1 0xA0 DUP4 ADD MLOAD PUSH2 0x59FF PUSH1 0xA0 DUP7 ADD DUP3 PUSH1 0x1 PUSH1 0x1 PUSH1 0xA0 SHL SUB AND SWAP1 MSTORE JUMP JUMPDEST POP PUSH1 0xC0 DUP4 ADD MLOAD PUSH2 0x5A35 PUSH1 0xC0 DUP7 ADD DUP3 DUP1 MLOAD DUP3 MSTORE PUSH1 0x20 DUP2 ADD MLOAD PUSH1 0x20 DUP4 ADD MSTORE PUSH1 0x40 DUP2 ADD MLOAD PUSH1 0x40 DUP4 ADD MSTORE PUSH1 0x60 DUP2 ADD MLOAD ISZERO ISZERO PUSH1 0x60 DUP4 ADD MSTORE POP POP JUMP JUMPDEST POP PUSH1 0xE0 DUP4 ADD MLOAD PUSH2 0x5A49 PUSH2 0x140 DUP7 ADD DUP3 PUSH2 0x594B JUMP JUMPDEST POP PUSH2 0x100 DUP4 ADD MLOAD DUP1 MLOAD PUSH2 0x1C0 DUP7 ADD MSTORE PUSH1 0x20 DUP2 ADD MLOAD PUSH2 0x1E0 DUP7 ADD MSTORE PUSH1 0x40 DUP2 ADD MLOAD PUSH2 0x200 DUP7 ADD MSTORE PUSH1 0x60 DUP2 ADD MLOAD PUSH2 0x220 DUP7 ADD MSTORE PUSH1 0x80 DUP2 ADD MLOAD PUSH2 0x240 DUP7 ADD MSTORE PUSH1 0xA0 DUP2 ADD MLOAD PUSH2 0x260 DUP7 ADD MSTORE POP SWAP4 SWAP3 POP POP POP JUMP JUMPDEST PUSH1 0x0 PUSH1 0x20 DUP1 DUP4 ADD DUP2 DUP5 MSTORE DUP1 DUP6 MLOAD DUP1 DUP4 MSTORE PUSH1 0x40 DUP7 ADD SWAP2 POP PUSH1 0x40 DUP2 PUSH1 0x5 SHL DUP8 ADD ADD SWAP3 POP DUP4 DUP8 ADD PUSH1 0x0 JUMPDEST DUP3 DUP2 LT ISZERO PUSH2 0x54BF JUMPI PUSH1 0x3F NOT DUP9 DUP7 SUB ADD DUP5 MSTORE PUSH2 0x5ADA DUP6 DUP4 MLOAD PUSH2 0x5983 JUMP JUMPDEST SWAP5 POP SWAP3 DUP6 ADD SWAP3 SWAP1 DUP6 ADD SWAP1 PUSH1 0x1 ADD PUSH2 0x5ABE JUMP JUMPDEST PUSH1 0x20 DUP2 MSTORE PUSH1 0x0 PUSH2 0xF28 PUSH1 0x20 DUP4 ADD DUP5 PUSH2 0x5983 JUMP JUMPDEST PUSH1 0x0 DUP1 PUSH1 0x0 DUP1 PUSH1 0x0 DUP1 PUSH1 0xC0 DUP8 DUP10 SUB SLT ISZERO PUSH2 0x5B18 JUMPI PUSH1 0x0 DUP1 REVERT JUMPDEST DUP7 CALLDATALOAD PUSH8 0xFFFFFFFFFFFFFFFF DUP1 DUP3 GT ISZERO PUSH2 0x5B30 JUMPI PUSH1 0x0 DUP1 REVERT JUMPDEST PUSH2 0x5B3C DUP11 DUP4 DUP12 ADD PUSH2 0x54FB JUMP JUMPDEST SWAP8 POP PUSH1 0x20 DUP10 ADD CALLDATALOAD SWAP2 POP DUP1 DUP3 GT ISZERO PUSH2 0x5B52 JUMPI PUSH1 0x0 DUP1 REVERT JUMPDEST PUSH2 0x5B5E DUP11 DUP4 DUP12 ADD PUSH2 0x54FB JUMP JUMPDEST SWAP7 POP PUSH1 0x40 DUP10 ADD CALLDATALOAD SWAP2 POP DUP1 DUP3 GT ISZERO PUSH2 0x5B74 JUMPI PUSH1 0x0 DUP1 REVERT JUMPDEST PUSH2 0x5B80 DUP11 DUP4 DUP12 ADD PUSH2 0x54FB JUMP JUMPDEST SWAP6 POP PUSH1 0x60 DUP10 ADD CALLDATALOAD SWAP2 POP DUP1 DUP3 GT ISZERO PUSH2 0x5B96 JUMPI PUSH1 0x0 DUP1 REVERT JUMPDEST POP PUSH2 0x5BA3 DUP10 DUP3 DUP11 ADD PUSH2 0x54FB JUMP JUMPDEST SWAP4 POP POP PUSH1 0x80 DUP8 ADD CALLDATALOAD SWAP2 POP PUSH1 0xA0 DUP8 ADD CALLDATALOAD SWAP1 POP SWAP3 SWAP6 POP SWAP3 SWAP6 POP SWAP3 SWAP6 JUMP JUMPDEST PUSH1 0x0 DUP1 PUSH1 0x40 DUP4 DUP6 SUB SLT ISZERO PUSH2 0x5BD1 JUMPI PUSH1 0x0 DUP1 REVERT JUMPDEST PUSH2 0x5BDA DUP4 PUSH2 0x5250 JUMP JUMPDEST SWAP5 PUSH1 0x20 SWAP4 SWAP1 SWAP4 ADD CALLDATALOAD SWAP4 POP POP POP JUMP JUMPDEST PUSH1 0x0 DUP1 PUSH1 0x0 DUP1 PUSH1 0x0 PUSH1 0xA0 DUP7 DUP9 SUB SLT ISZERO PUSH2 0x5C00 JUMPI PUSH1 0x0 DUP1 REVERT JUMPDEST DUP6 CALLDATALOAD PUSH8 0xFFFFFFFFFFFFFFFF DUP1 DUP3 GT ISZERO PUSH2 0x5C18 JUMPI PUSH1 0x0 DUP1 REVERT JUMPDEST PUSH2 0x5C24 DUP10 DUP4 DUP11 ADD PUSH2 0x54FB JUMP JUMPDEST SWAP7 POP PUSH1 0x20 DUP9 ADD CALLDATALOAD SWAP2 POP DUP1 DUP3 GT ISZERO PUSH2 0x5C3A JUMPI PUSH1 0x0 DUP1 REVERT JUMPDEST PUSH2 0x5C46 DUP10 DUP4 DUP11 ADD PUSH2 0x54FB JUMP JUMPDEST SWAP6 POP PUSH1 0x40 DUP9 ADD CALLDATALOAD SWAP2 POP DUP1 DUP3 GT ISZERO PUSH2 0x5C5C JUMPI PUSH1 0x0 DUP1 REVERT JUMPDEST PUSH2 0x5C68 DUP10 DUP4 DUP11 ADD PUSH2 0x54FB JUMP JUMPDEST SWAP5 POP PUSH1 0x60 DUP9 ADD CALLDATALOAD SWAP2 POP DUP1 DUP3 GT ISZERO PUSH2 0x5C7E JUMPI PUSH1 0x0 DUP1 REVERT JUMPDEST PUSH2 0x5C8A DUP10 DUP4 DUP11 ADD PUSH2 0x54FB JUMP JUMPDEST SWAP4 POP PUSH1 0x80 DUP9 ADD CALLDATALOAD SWAP2 POP DUP1 DUP3 GT ISZERO PUSH2 0x5CA0 JUMPI PUSH1 0x0 DUP1 REVERT JUMPDEST POP PUSH2 0x5CAD DUP9 DUP3 DUP10 ADD PUSH2 0x54FB JUMP JUMPDEST SWAP2 POP POP SWAP3 SWAP6 POP SWAP3 SWAP6 SWAP1 SWAP4 POP JUMP JUMPDEST DUP6 DUP2 MSTORE PUSH1 0xA0 PUSH1 0x20 DUP3 ADD MSTORE PUSH1 0x0 PUSH2 0x5CD3 PUSH1 0xA0 DUP4 ADD DUP8 PUSH2 0x5287 JUMP JUMPDEST DUP3 DUP2 SUB PUSH1 0x40 DUP5 ADD MSTORE PUSH2 0x5CE5 DUP2 DUP8 PUSH2 0x5287 JUMP JUMPDEST PUSH1 0x60 DUP5 ADD SWAP6 SWAP1 SWAP6 MSTORE POP POP PUSH1 0x80 ADD MSTORE SWAP4 SWAP3 POP POP POP JUMP JUMPDEST PUSH4 0x4E487B71 PUSH1 0xE0 SHL PUSH1 0x0 MSTORE PUSH1 0x11 PUSH1 0x4 MSTORE PUSH1 0x24 PUSH1 0x0 REVERT JUMPDEST DUP1 DUP3 ADD DUP1 DUP3 GT ISZERO PUSH2 0x663 JUMPI PUSH2 0x663 PUSH2 0x5CFA JUMP JUMPDEST PUSH1 0x1 DUP2 DUP2 SHR SWAP1 DUP3 AND DUP1 PUSH2 0x5D37 JUMPI PUSH1 0x7F DUP3 AND SWAP2 POP JUMPDEST PUSH1 0x20 DUP3 LT DUP2 SUB PUSH2 0x2DFF JUMPI PUSH4 0x4E487B71 PUSH1 0xE0 SHL PUSH1 0x0 MSTORE PUSH1 0x22 PUSH1 0x4 MSTORE PUSH1 0x24 PUSH1 0x0 REVERT JUMPDEST PUSH4 0x4E487B71 PUSH1 0xE0 SHL PUSH1 0x0 MSTORE PUSH1 0x32 PUSH1 0x4 MSTORE PUSH1 0x24 PUSH1 0x0 REVERT JUMPDEST DUP2 DUP2 SUB DUP2 DUP2 GT ISZERO PUSH2 0x663 JUMPI PUSH2 0x663 PUSH2 0x5CFA JUMP JUMPDEST PUSH1 0x0 PUSH1 0x1 DUP3 ADD PUSH2 0x5D92 JUMPI PUSH2 0x5D92 PUSH2 0x5CFA JUMP JUMPDEST POP PUSH1 0x1 ADD SWAP1 JUMP JUMPDEST PUSH1 0x1F DUP3 GT ISZERO PUSH2 0x115F JUMPI PUSH1 0x0 DUP2 DUP2 MSTORE PUSH1 0x20 DUP2 KECCAK256 PUSH1 0x1F DUP6 ADD PUSH1 0x5 SHR DUP2 ADD PUSH1 0x20 DUP7 LT ISZERO PUSH2 0x5DC0 JUMPI POP DUP1 JUMPDEST PUSH1 0x1F DUP6 ADD PUSH1 0x5 SHR DUP3 ADD SWAP2 POP JUMPDEST DUP2 DUP2 LT ISZERO PUSH2 0x846 JUMPI DUP3 DUP2 SSTORE PUSH1 0x1 ADD PUSH2 0x5DCC JUMP JUMPDEST DUP2 MLOAD PUSH8 0xFFFFFFFFFFFFFFFF DUP2 GT ISZERO PUSH2 0x5DF9 JUMPI PUSH2 0x5DF9 PUSH2 0x54E5 JUMP JUMPDEST PUSH2 0x5E0D DUP2 PUSH2 0x5E07 DUP5 SLOAD PUSH2 0x5D23 JUMP JUMPDEST DUP5 PUSH2 0x5D99 JUMP JUMPDEST PUSH1 0x20 DUP1 PUSH1 0x1F DUP4 GT PUSH1 0x1 DUP2 EQ PUSH2 0x5E42 JUMPI PUSH1 0x0 DUP5 ISZERO PUSH2 0x5E2A JUMPI POP DUP6 DUP4 ADD MLOAD JUMPDEST PUSH1 0x0 NOT PUSH1 0x3 DUP7 SWAP1 SHL SHR NOT AND PUSH1 0x1 DUP6 SWAP1 SHL OR DUP6 SSTORE PUSH2 0x846 JUMP JUMPDEST PUSH1 0x0 DUP6 DUP2 MSTORE PUSH1 0x20 DUP2 KECCAK256 PUSH1 0x1F NOT DUP7 AND SWAP2 JUMPDEST DUP3 DUP2 LT ISZERO PUSH2 0x5E71 JUMPI DUP9 DUP7 ADD MLOAD DUP3 SSTORE SWAP5 DUP5 ADD SWAP5 PUSH1 0x1 SWAP1 SWAP2 ADD SWAP1 DUP5 ADD PUSH2 0x5E52 JUMP JUMPDEST POP DUP6 DUP3 LT ISZERO PUSH2 0x5E8F JUMPI DUP8 DUP6 ADD MLOAD PUSH1 0x0 NOT PUSH1 0x3 DUP9 SWAP1 SHL PUSH1 0xF8 AND SHR NOT AND DUP2 SSTORE JUMPDEST POP POP POP POP POP PUSH1 0x1 SWAP1 DUP2 SHL ADD SWAP1 SSTORE POP JUMP JUMPDEST DUP1 DUP3 MUL DUP2 ISZERO DUP3 DUP3 DIV DUP5 EQ OR PUSH2 0x663 JUMPI PUSH2 0x663 PUSH2 0x5CFA JUMP JUMPDEST PUSH1 0x0 DUP3 PUSH2 0x5ED3 JUMPI PUSH4 0x4E487B71 PUSH1 0xE0 SHL PUSH1 0x0 MSTORE PUSH1 0x12 PUSH1 0x4 MSTORE PUSH1 0x24 PUSH1 0x0 REVERT JUMPDEST POP DIV SWAP1 JUMP JUMPDEST PUSH4 0x4E487B71 PUSH1 0xE0 SHL PUSH1 0x0 MSTORE PUSH1 0x31 PUSH1 0x4 MSTORE PUSH1 0x24 PUSH1 0x0 REVERT JUMPDEST PUSH1 0x20 DUP1 DUP3 MSTORE PUSH1 0x27 SWAP1 DUP3 ADD MSTORE PUSH32 0xE5BD92E8BF98E99499E8AFAFEFBC8CE6ADA4E7A79FE8B581E59088E5908CE5B7 PUSH1 0x40 DUP3 ADD MSTORE PUSH7 0xB2E5AE8CE6889 PUSH1 0xCC SHL PUSH1 0x60 DUP3 ADD MSTORE PUSH1 0x80 ADD SWAP1 JUMP INVALID 0xE6 0xAD LOG4 0xE4 0xB8 0xBA 0xE6 SWAP8 LOG0 0xE6 SWAP6 DUP9 0xE7 0xA7 SWAP16 0xE8 0xB5 DUP2 0xE5 SWAP1 DUP9 0xE5 SWAP1 DUP13 0xEF 0xBC DUP13 0xE6 SWAP8 LOG0 0xE6 0xB3 LOG2 PUSH5 0x6970667358 0x22 SLT KECCAK256 0x25 PUSH18 0x731810E7DC4E1782FB9F152724AEBD0DF9A2 PUSH14 0xC3C6088FA878AC116AC79A64736F PUSH13 0x63430008120033000000000000 "
		},
		"gasEstimates": {
			"creation": {
				"codeDepositCost": "4891800",
				"executionCost": "infinite",
				"totalCost": "infinite"
			},
			"external": {
				"addAdmin(address)": "26807",
				"addEquipment(address,string,string,string,string,uint256,uint256)": "infinite",
				"addEquipment(string,string,string,string,uint256,uint256)": "infinite",
				"addUser(address,string,string,string,string,string)": "infinite",
				"addUser(string,string,string,string,string)": "infinite",
				"balanceOf(address)": "2604",
				"deleteLeasePactOwned(uint256)": "infinite",
				"deleteLeasePactRented(uint256)": "infinite",
				"endMaintainEquipment(uint256)": "infinite",
				"freezeEquipment(uint256)": "infinite",
				"freezeEquipment(uint256,uint256)": "infinite",
				"getEquipment(uint256)": "infinite",
				"getEquipmentAll()": "infinite",
				"getEquipmentOwned(address)": "infinite",
				"getEquipmentRented(address)": "infinite",
				"getLeasePact(uint256)": "infinite",
				"getLeasePactAll()": "infinite",
				"getLeasePactOwned(address)": "infinite",
				"getLeasePactRented(address)": "infinite",
				"getUser(address)": "infinite",
				"getUserAll()": "infinite",
				"getUserBatch(uint256,uint256)": "infinite",
				"getUserByID(uint256)": "infinite",
				"haveGotEth(address)": "2577",
				"maintainEquipment(uint256)": "infinite",
				"maintainEquipment(uint256,uint256,uint256)": "infinite",
				"removeAdmin(address)": "26835",
				"removeEquipment(uint256)": "infinite",
				"requireEquipAvailable(uint256,uint256,uint256)": "infinite",
				"reserveApprove(uint256)": "infinite",
				"reserveCancel(uint256)": "infinite",
				"reserveComplete(uint256)": "infinite",
				"reserveEquipment(uint256,uint256,uint256)": "infinite",
				"reservePopose(uint256)": "infinite",
				"reserveReject(uint256)": "infinite",
				"token()": "infinite",
				"transfer(address,uint256)": "infinite",
				"unfreezeEquipment(uint256)": "infinite",
				"updateEquipment(uint256,string,string,string,string,uint256,uint256)": "infinite",
				"updateUser(address,string,string,string,string,string)": "infinite",
				"updateUser(string,string,string,string,string)": "infinite"
			}
		},
		"methodIdentifiers": {
			"addAdmin(address)": "70480275",
			"addEquipment(address,string,string,string,string,uint256,uint256)": "62aee4ee",
			"addEquipment(string,string,string,string,uint256,uint256)": "93f0b012",
			"addUser(address,string,string,string,string,string)": "1a702aa0",
			"addUser(string,string,string,string,string)": "b37a3d82",
			"balanceOf(address)": "70a08231",
			"deleteLeasePactOwned(uint256)": "a2fb993f",
			"deleteLeasePactRented(uint256)": "8dc9a8c2",
			"endMaintainEquipment(uint256)": "75a1b542",
			"freezeEquipment(uint256)": "e97c75a2",
			"freezeEquipment(uint256,uint256)": "90701e24",
			"getEquipment(uint256)": "81dd2fa0",
			"getEquipmentAll()": "bcad91d0",
			"getEquipmentOwned(address)": "42cdca6e",
			"getEquipmentRented(address)": "08643487",
			"getLeasePact(uint256)": "8dac3c4b",
			"getLeasePactAll()": "b3349aab",
			"getLeasePactOwned(address)": "889d6f2a",
			"getLeasePactRented(address)": "bd5c4730",
			"getUser(address)": "6f77926b",
			"getUserAll()": "db76e5d4",
			"getUserBatch(uint256,uint256)": "2bd7d688",
			"getUserByID(uint256)": "6d3b5f18",
			"haveGotEth(address)": "25415753",
			"maintainEquipment(uint256)": "0d506293",
			"maintainEquipment(uint256,uint256,uint256)": "3c952fc7",
			"removeAdmin(address)": "1785f53c",
			"removeEquipment(uint256)": "f8966c4f",
			"requireEquipAvailable(uint256,uint256,uint256)": "2bbd5924",
			"reserveApprove(uint256)": "e08ab940",
			"reserveCancel(uint256)": "5aae2cc6",
			"reserveComplete(uint256)": "e142e6ae",
			"reserveEquipment(uint256,uint256,uint256)": "3737a7bc",
			"reservePopose(uint256)": "da61776d",
			"reserveReject(uint256)": "ab5ac52b",
			"token()": "fc0c546a",
			"transfer(address,uint256)": "a9059cbb",
			"unfreezeEquipment(uint256)": "1869f316",
			"updateEquipment(uint256,string,string,string,string,uint256,uint256)": "86f83e8e",
			"updateUser(address,string,string,string,string,string)": "f00bd3d3",
			"updateUser(string,string,string,string,string)": "bfcecc51"
		}
	},
	"abi": [
		{
			"anonymous": false,
			"inputs": [
				{
					"indexed": true,
					"internalType": "address",
					"name": "owner",
					"type": "address"
				},
				{
					"indexed": true,
					"internalType": "address",
					"name": "spender",
					"type": "address"
				},
				{
					"indexed": false,
					"internalType": "uint256",
					"name": "value",
					"type": "uint256"
				}
			],
			"name": "Approval",
			"type": "event"
		},
		{
			"anonymous": false,
			"inputs": [
				{
					"indexed": true,
					"internalType": "address",
					"name": "from",
					"type": "address"
				},
				{
					"indexed": true,
					"internalType": "address",
					"name": "to",
					"type": "address"
				},
				{
					"indexed": false,
					"internalType": "uint256",
					"name": "value",
					"type": "uint256"
				}
			],
			"name": "Transfer",
			"type": "event"
		},
		{
			"anonymous": false,
			"inputs": [
				{
					"indexed": false,
					"internalType": "string",
					"name": "tips",
					"type": "string"
				},
				{
					"indexed": false,
					"internalType": "uint256",
					"name": "equipmentId",
					"type": "uint256"
				}
			],
			"name": "eventAddEquipment",
			"type": "event"
		},
		{
			"anonymous": false,
			"inputs": [
				{
					"indexed": false,
					"internalType": "string",
					"name": "tips",
					"type": "string"
				},
				{
					"indexed": false,
					"internalType": "uint256",
					"name": "userId",
					"type": "uint256"
				}
			],
			"name": "eventAddUser",
			"type": "event"
		},
		{
			"anonymous": false,
			"inputs": [
				{
					"indexed": false,
					"internalType": "string",
					"name": "tips",
					"type": "string"
				},
				{
					"indexed": false,
					"internalType": "uint256",
					"name": "leaseId",
					"type": "uint256"
				}
			],
			"name": "eventApproveLease",
			"type": "event"
		},
		{
			"anonymous": false,
			"inputs": [
				{
					"indexed": false,
					"internalType": "string",
					"name": "tips",
					"type": "string"
				},
				{
					"indexed": false,
					"internalType": "uint256",
					"name": "leaseId",
					"type": "uint256"
				}
			],
			"name": "eventCancelLease",
			"type": "event"
		},
		{
			"anonymous": false,
			"inputs": [
				{
					"indexed": false,
					"internalType": "string",
					"name": "tips",
					"type": "string"
				},
				{
					"indexed": false,
					"internalType": "uint256",
					"name": "leaseId",
					"type": "uint256"
				}
			],
			"name": "eventCompleteLease",
			"type": "event"
		},
		{
			"anonymous": false,
			"inputs": [
				{
					"indexed": false,
					"internalType": "string",
					"name": "tips",
					"type": "string"
				},
				{
					"indexed": false,
					"internalType": "uint256",
					"name": "leaseId",
					"type": "uint256"
				}
			],
			"name": "eventCreateLease",
			"type": "event"
		},
		{
			"anonymous": false,
			"inputs": [
				{
					"indexed": false,
					"internalType": "string",
					"name": "tips",
					"type": "string"
				},
				{
					"indexed": false,
					"internalType": "uint256",
					"name": "equipmentId",
					"type": "uint256"
				}
			],
			"name": "eventFreezeEquipment",
			"type": "event"
		},
		{
			"anonymous": false,
			"inputs": [
				{
					"indexed": false,
					"internalType": "string",
					"name": "tips",
					"type": "string"
				},
				{
					"indexed": false,
					"internalType": "uint256",
					"name": "equipmentId",
					"type": "uint256"
				}
			],
			"name": "eventMaintainEquipment",
			"type": "event"
		},
		{
			"anonymous": false,
			"inputs": [
				{
					"indexed": false,
					"internalType": "string",
					"name": "tips",
					"type": "string"
				},
				{
					"indexed": false,
					"internalType": "uint256",
					"name": "leaseId",
					"type": "uint256"
				}
			],
			"name": "eventProposeLease",
			"type": "event"
		},
		{
			"anonymous": false,
			"inputs": [
				{
					"indexed": false,
					"internalType": "string",
					"name": "tips",
					"type": "string"
				},
				{
					"indexed": false,
					"internalType": "uint256",
					"name": "leaseId",
					"type": "uint256"
				}
			],
			"name": "eventRejectLease",
			"type": "event"
		},
		{
			"anonymous": false,
			"inputs": [
				{
					"indexed": false,
					"internalType": "string",
					"name": "tips",
					"type": "string"
				},
				{
					"indexed": false,
					"internalType": "uint256",
					"name": "equipmentId",
					"type": "uint256"
				}
			],
			"name": "eventRentEquipment",
			"type": "event"
		},
		{
			"anonymous": false,
			"inputs": [
				{
					"indexed": false,
					"internalType": "string",
					"name": "tips",
					"type": "string"
				},
				{
					"indexed": false,
					"internalType": "uint256",
					"name": "equipmentId",
					"type": "uint256"
				}
			],
			"name": "eventReturnEquipment",
			"type": "event"
		},
		{
			"anonymous": false,
			"inputs": [
				{
					"indexed": false,
					"internalType": "string",
					"name": "tips",
					"type": "string"
				},
				{
					"indexed": false,
					"internalType": "uint256",
					"name": "equipmentId",
					"type": "uint256"
				}
			],
			"name": "eventUnFreezeEquipment",
			"type": "event"
		},
		{
			"anonymous": false,
			"inputs": [
				{
					"indexed": false,
					"internalType": "string",
					"name": "tips",
					"type": "string"
				},
				{
					"indexed": false,
					"internalType": "uint256",
					"name": "equipmentId",
					"type": "uint256"
				}
			],
			"name": "eventUnMaintainEquipment",
			"type": "event"
		},
		{
			"anonymous": false,
			"inputs": [
				{
					"indexed": false,
					"internalType": "string",
					"name": "tips",
					"type": "string"
				},
				{
					"indexed": false,
					"internalType": "uint256",
					"name": "equipmentId",
					"type": "uint256"
				}
			],
			"name": "eventUpdateEquipment",
			"type": "event"
		},
		{
			"anonymous": false,
			"inputs": [
				{
					"indexed": false,
					"internalType": "string",
					"name": "tips",
					"type": "string"
				},
				{
					"indexed": false,
					"internalType": "uint256",
					"name": "userId",
					"type": "uint256"
				}
			],
			"name": "eventUpdateUser",
			"type": "event"
		},
		{
			"inputs": [
				{
					"internalType": "address",
					"name": "addrs",
					"type": "address"
				}
			],
			"name": "addAdmin",
			"outputs": [],
			"stateMutability": "nonpayable",
			"type": "function"
		},
		{
			"inputs": [
				{
					"internalType": "address",
					"name": "addres",
					"type": "address"
				},
				{
					"internalType": "string",
					"name": "name",
					"type": "string"
				},
				{
					"internalType": "string",
					"name": "category",
					"type": "string"
				},
				{
					"internalType": "string",
					"name": "descLink",
					"type": "string"
				},
				{
					"internalType": "string",
					"name": "imagesLink",
					"type": "string"
				},
				{
					"internalType": "uint256",
					"name": "deposit",
					"type": "uint256"
				},
				{
					"internalType": "uint256",
					"name": "unitPrice",
					"type": "uint256"
				}
			],
			"name": "addEquipment",
			"outputs": [],
			"stateMutability": "nonpayable",
			"type": "function"
		},
		{
			"inputs": [
				{
					"internalType": "string",
					"name": "name",
					"type": "string"
				},
				{
					"internalType": "string",
					"name": "category",
					"type": "string"
				},
				{
					"internalType": "string",
					"name": "descLink",
					"type": "string"
				},
				{
					"internalType": "string",
					"name": "imagesLink",
					"type": "string"
				},
				{
					"internalType": "uint256",
					"name": "deposit",
					"type": "uint256"
				},
				{
					"internalType": "uint256",
					"name": "unitPrice",
					"type": "uint256"
				}
			],
			"name": "addEquipment",
			"outputs": [],
			"stateMutability": "nonpayable",
			"type": "function"
		},
		{
			"inputs": [
				{
					"internalType": "address",
					"name": "addrs",
					"type": "address"
				},
				{
					"internalType": "string",
					"name": "name",
					"type": "string"
				},
				{
					"internalType": "string",
					"name": "avatar",
					"type": "string"
				},
				{
					"internalType": "string",
					"name": "email",
					"type": "string"
				},
				{
					"internalType": "string",
					"name": "tellphone",
					"type": "string"
				},
				{
					"internalType": "string",
					"name": "organization",
					"type": "string"
				}
			],
			"name": "addUser",
			"outputs": [],
			"stateMutability": "nonpayable",
			"type": "function"
		},
		{
			"inputs": [
				{
					"internalType": "string",
					"name": "name",
					"type": "string"
				},
				{
					"internalType": "string",
					"name": "avatar",
					"type": "string"
				},
				{
					"internalType": "string",
					"name": "email",
					"type": "string"
				},
				{
					"internalType": "string",
					"name": "tellphone",
					"type": "string"
				},
				{
					"internalType": "string",
					"name": "organization",
					"type": "string"
				}
			],
			"name": "addUser",
			"outputs": [],
			"stateMutability": "nonpayable",
			"type": "function"
		},
		{
			"inputs": [
				{
					"internalType": "address",
					"name": "account",
					"type": "address"
				}
			],
			"name": "balanceOf",
			"outputs": [
				{
					"internalType": "uint256",
					"name": "",
					"type": "uint256"
				}
			],
			"stateMutability": "view",
			"type": "function"
		},
		{
			"inputs": [
				{
					"internalType": "uint256",
					"name": "leaseId",
					"type": "uint256"
				}
			],
			"name": "deleteLeasePactOwned",
			"outputs": [],
			"stateMutability": "view",
			"type": "function"
		},
		{
			"inputs": [
				{
					"internalType": "uint256",
					"name": "leaseId",
					"type": "uint256"
				}
			],
			"name": "deleteLeasePactRented",
			"outputs": [],
			"stateMutability": "view",
			"type": "function"
		},
		{
			"inputs": [
				{
					"internalType": "uint256",
					"name": "equipmentId",
					"type": "uint256"
				}
			],
			"name": "endMaintainEquipment",
			"outputs": [],
			"stateMutability": "nonpayable",
			"type": "function"
		},
		{
			"inputs": [
				{
					"internalType": "uint256",
					"name": "equipmentId",
					"type": "uint256"
				},
				{
					"internalType": "uint256",
					"name": "startTime",
					"type": "uint256"
				}
			],
			"name": "freezeEquipment",
			"outputs": [],
			"stateMutability": "nonpayable",
			"type": "function"
		},
		{
			"inputs": [
				{
					"internalType": "uint256",
					"name": "equipmentId",
					"type": "uint256"
				}
			],
			"name": "freezeEquipment",
			"outputs": [],
			"stateMutability": "nonpayable",
			"type": "function"
		},
		{
			"inputs": [
				{
					"internalType": "uint256",
					"name": "equipmentId",
					"type": "uint256"
				}
			],
			"name": "getEquipment",
			"outputs": [
				{
					"components": [
						{
							"internalType": "uint256",
							"name": "id",
							"type": "uint256"
						},
						{
							"internalType": "address",
							"name": "owner",
							"type": "address"
						},
						{
							"internalType": "uint256",
							"name": "createdTime",
							"type": "uint256"
						},
						{
							"internalType": "bool",
							"name": "isFrozen",
							"type": "bool"
						},
						{
							"internalType": "string",
							"name": "name",
							"type": "string"
						},
						{
							"internalType": "string",
							"name": "category",
							"type": "string"
						},
						{
							"internalType": "string",
							"name": "descLink",
							"type": "string"
						},
						{
							"internalType": "string",
							"name": "imagesLink",
							"type": "string"
						},
						{
							"internalType": "uint256",
							"name": "unitPrice",
							"type": "uint256"
						},
						{
							"internalType": "uint256",
							"name": "deposit",
							"type": "uint256"
						},
						{
							"components": [
								{
									"internalType": "uint256",
									"name": "lent",
									"type": "uint256"
								},
								{
									"internalType": "uint256",
									"name": "maintain",
									"type": "uint256"
								},
								{
									"internalType": "uint256",
									"name": "frozen",
									"type": "uint256"
								}
							],
							"internalType": "struct UseCnt",
							"name": "useCnt",
							"type": "tuple"
						},
						{
							"components": [
								{
									"internalType": "uint256",
									"name": "id",
									"type": "uint256"
								},
								{
									"internalType": "uint256",
									"name": "startTime",
									"type": "uint256"
								},
								{
									"internalType": "uint256",
									"name": "endTime",
									"type": "uint256"
								},
								{
									"internalType": "address",
									"name": "occupier",
									"type": "address"
								},
								{
									"internalType": "enum OccupyType",
									"name": "occupyType",
									"type": "uint8"
								}
							],
							"internalType": "struct OccupyPeriod[]",
							"name": "occupyPeriod",
							"type": "tuple[]"
						}
					],
					"internalType": "struct Equipment",
					"name": "",
					"type": "tuple"
				}
			],
			"stateMutability": "view",
			"type": "function"
		},
		{
			"inputs": [],
			"name": "getEquipmentAll",
			"outputs": [
				{
					"components": [
						{
							"internalType": "uint256",
							"name": "id",
							"type": "uint256"
						},
						{
							"internalType": "address",
							"name": "owner",
							"type": "address"
						},
						{
							"internalType": "uint256",
							"name": "createdTime",
							"type": "uint256"
						},
						{
							"internalType": "bool",
							"name": "isFrozen",
							"type": "bool"
						},
						{
							"internalType": "string",
							"name": "name",
							"type": "string"
						},
						{
							"internalType": "string",
							"name": "category",
							"type": "string"
						},
						{
							"internalType": "string",
							"name": "descLink",
							"type": "string"
						},
						{
							"internalType": "string",
							"name": "imagesLink",
							"type": "string"
						},
						{
							"internalType": "uint256",
							"name": "unitPrice",
							"type": "uint256"
						},
						{
							"internalType": "uint256",
							"name": "deposit",
							"type": "uint256"
						},
						{
							"components": [
								{
									"internalType": "uint256",
									"name": "lent",
									"type": "uint256"
								},
								{
									"internalType": "uint256",
									"name": "maintain",
									"type": "uint256"
								},
								{
									"internalType": "uint256",
									"name": "frozen",
									"type": "uint256"
								}
							],
							"internalType": "struct UseCnt",
							"name": "useCnt",
							"type": "tuple"
						},
						{
							"components": [
								{
									"internalType": "uint256",
									"name": "id",
									"type": "uint256"
								},
								{
									"internalType": "uint256",
									"name": "startTime",
									"type": "uint256"
								},
								{
									"internalType": "uint256",
									"name": "endTime",
									"type": "uint256"
								},
								{
									"internalType": "address",
									"name": "occupier",
									"type": "address"
								},
								{
									"internalType": "enum OccupyType",
									"name": "occupyType",
									"type": "uint8"
								}
							],
							"internalType": "struct OccupyPeriod[]",
							"name": "occupyPeriod",
							"type": "tuple[]"
						}
					],
					"internalType": "struct Equipment[]",
					"name": "",
					"type": "tuple[]"
				}
			],
			"stateMutability": "view",
			"type": "function"
		},
		{
			"inputs": [
				{
					"internalType": "address",
					"name": "addr",
					"type": "address"
				}
			],
			"name": "getEquipmentOwned",
			"outputs": [
				{
					"components": [
						{
							"internalType": "uint256",
							"name": "id",
							"type": "uint256"
						},
						{
							"internalType": "address",
							"name": "owner",
							"type": "address"
						},
						{
							"internalType": "uint256",
							"name": "createdTime",
							"type": "uint256"
						},
						{
							"internalType": "bool",
							"name": "isFrozen",
							"type": "bool"
						},
						{
							"internalType": "string",
							"name": "name",
							"type": "string"
						},
						{
							"internalType": "string",
							"name": "category",
							"type": "string"
						},
						{
							"internalType": "string",
							"name": "descLink",
							"type": "string"
						},
						{
							"internalType": "string",
							"name": "imagesLink",
							"type": "string"
						},
						{
							"internalType": "uint256",
							"name": "unitPrice",
							"type": "uint256"
						},
						{
							"internalType": "uint256",
							"name": "deposit",
							"type": "uint256"
						},
						{
							"components": [
								{
									"internalType": "uint256",
									"name": "lent",
									"type": "uint256"
								},
								{
									"internalType": "uint256",
									"name": "maintain",
									"type": "uint256"
								},
								{
									"internalType": "uint256",
									"name": "frozen",
									"type": "uint256"
								}
							],
							"internalType": "struct UseCnt",
							"name": "useCnt",
							"type": "tuple"
						},
						{
							"components": [
								{
									"internalType": "uint256",
									"name": "id",
									"type": "uint256"
								},
								{
									"internalType": "uint256",
									"name": "startTime",
									"type": "uint256"
								},
								{
									"internalType": "uint256",
									"name": "endTime",
									"type": "uint256"
								},
								{
									"internalType": "address",
									"name": "occupier",
									"type": "address"
								},
								{
									"internalType": "enum OccupyType",
									"name": "occupyType",
									"type": "uint8"
								}
							],
							"internalType": "struct OccupyPeriod[]",
							"name": "occupyPeriod",
							"type": "tuple[]"
						}
					],
					"internalType": "struct Equipment[]",
					"name": "",
					"type": "tuple[]"
				}
			],
			"stateMutability": "view",
			"type": "function"
		},
		{
			"inputs": [
				{
					"internalType": "address",
					"name": "addr",
					"type": "address"
				}
			],
			"name": "getEquipmentRented",
			"outputs": [
				{
					"components": [
						{
							"internalType": "uint256",
							"name": "id",
							"type": "uint256"
						},
						{
							"internalType": "address",
							"name": "owner",
							"type": "address"
						},
						{
							"internalType": "uint256",
							"name": "createdTime",
							"type": "uint256"
						},
						{
							"internalType": "bool",
							"name": "isFrozen",
							"type": "bool"
						},
						{
							"internalType": "string",
							"name": "name",
							"type": "string"
						},
						{
							"internalType": "string",
							"name": "category",
							"type": "string"
						},
						{
							"internalType": "string",
							"name": "descLink",
							"type": "string"
						},
						{
							"internalType": "string",
							"name": "imagesLink",
							"type": "string"
						},
						{
							"internalType": "uint256",
							"name": "unitPrice",
							"type": "uint256"
						},
						{
							"internalType": "uint256",
							"name": "deposit",
							"type": "uint256"
						},
						{
							"components": [
								{
									"internalType": "uint256",
									"name": "lent",
									"type": "uint256"
								},
								{
									"internalType": "uint256",
									"name": "maintain",
									"type": "uint256"
								},
								{
									"internalType": "uint256",
									"name": "frozen",
									"type": "uint256"
								}
							],
							"internalType": "struct UseCnt",
							"name": "useCnt",
							"type": "tuple"
						},
						{
							"components": [
								{
									"internalType": "uint256",
									"name": "id",
									"type": "uint256"
								},
								{
									"internalType": "uint256",
									"name": "startTime",
									"type": "uint256"
								},
								{
									"internalType": "uint256",
									"name": "endTime",
									"type": "uint256"
								},
								{
									"internalType": "address",
									"name": "occupier",
									"type": "address"
								},
								{
									"internalType": "enum OccupyType",
									"name": "occupyType",
									"type": "uint8"
								}
							],
							"internalType": "struct OccupyPeriod[]",
							"name": "occupyPeriod",
							"type": "tuple[]"
						}
					],
					"internalType": "struct Equipment[]",
					"name": "",
					"type": "tuple[]"
				}
			],
			"stateMutability": "view",
			"type": "function"
		},
		{
			"inputs": [
				{
					"internalType": "uint256",
					"name": "leaseId",
					"type": "uint256"
				}
			],
			"name": "getLeasePact",
			"outputs": [
				{
					"components": [
						{
							"internalType": "uint256",
							"name": "id",
							"type": "uint256"
						},
						{
							"internalType": "uint256",
							"name": "equipmentId",
							"type": "uint256"
						},
						{
							"internalType": "string",
							"name": "equipmentName",
							"type": "string"
						},
						{
							"internalType": "string",
							"name": "renterName",
							"type": "string"
						},
						{
							"internalType": "address",
							"name": "owner",
							"type": "address"
						},
						{
							"internalType": "address",
							"name": "renter",
							"type": "address"
						},
						{
							"components": [
								{
									"internalType": "uint256",
									"name": "unitPrice",
									"type": "uint256"
								},
								{
									"internalType": "uint256",
									"name": "totalPrice",
									"type": "uint256"
								},
								{
									"internalType": "uint256",
									"name": "deposit",
									"type": "uint256"
								},
								{
									"internalType": "bool",
									"name": "isPaid",
									"type": "bool"
								}
							],
							"internalType": "struct Price",
							"name": "price",
							"type": "tuple"
						},
						{
							"components": [
								{
									"internalType": "uint256",
									"name": "startTime",
									"type": "uint256"
								},
								{
									"internalType": "uint256",
									"name": "endTime",
									"type": "uint256"
								},
								{
									"internalType": "uint256",
									"name": "userid",
									"type": "uint256"
								},
								{
									"internalType": "enum OccupyType",
									"name": "occupyType",
									"type": "uint8"
								}
							],
							"internalType": "struct Period",
							"name": "period",
							"type": "tuple"
						},
						{
							"components": [
								{
									"internalType": "uint256",
									"name": "CREATED",
									"type": "uint256"
								},
								{
									"internalType": "uint256",
									"name": "CANCELED",
									"type": "uint256"
								},
								{
									"internalType": "uint256",
									"name": "APPROVED",
									"type": "uint256"
								},
								{
									"internalType": "uint256",
									"name": "REJECTED",
									"type": "uint256"
								},
								{
									"internalType": "uint256",
									"name": "RETURNED",
									"type": "uint256"
								},
								{
									"internalType": "uint256",
									"name": "COMPLETED",
									"type": "uint256"
								}
							],
							"internalType": "struct StepsStatus",
							"name": "steps",
							"type": "tuple"
						}
					],
					"internalType": "struct LeasePact",
					"name": "",
					"type": "tuple"
				}
			],
			"stateMutability": "view",
			"type": "function"
		},
		{
			"inputs": [],
			"name": "getLeasePactAll",
			"outputs": [
				{
					"components": [
						{
							"internalType": "uint256",
							"name": "id",
							"type": "uint256"
						},
						{
							"internalType": "uint256",
							"name": "equipmentId",
							"type": "uint256"
						},
						{
							"internalType": "string",
							"name": "equipmentName",
							"type": "string"
						},
						{
							"internalType": "string",
							"name": "renterName",
							"type": "string"
						},
						{
							"internalType": "address",
							"name": "owner",
							"type": "address"
						},
						{
							"internalType": "address",
							"name": "renter",
							"type": "address"
						},
						{
							"components": [
								{
									"internalType": "uint256",
									"name": "unitPrice",
									"type": "uint256"
								},
								{
									"internalType": "uint256",
									"name": "totalPrice",
									"type": "uint256"
								},
								{
									"internalType": "uint256",
									"name": "deposit",
									"type": "uint256"
								},
								{
									"internalType": "bool",
									"name": "isPaid",
									"type": "bool"
								}
							],
							"internalType": "struct Price",
							"name": "price",
							"type": "tuple"
						},
						{
							"components": [
								{
									"internalType": "uint256",
									"name": "startTime",
									"type": "uint256"
								},
								{
									"internalType": "uint256",
									"name": "endTime",
									"type": "uint256"
								},
								{
									"internalType": "uint256",
									"name": "userid",
									"type": "uint256"
								},
								{
									"internalType": "enum OccupyType",
									"name": "occupyType",
									"type": "uint8"
								}
							],
							"internalType": "struct Period",
							"name": "period",
							"type": "tuple"
						},
						{
							"components": [
								{
									"internalType": "uint256",
									"name": "CREATED",
									"type": "uint256"
								},
								{
									"internalType": "uint256",
									"name": "CANCELED",
									"type": "uint256"
								},
								{
									"internalType": "uint256",
									"name": "APPROVED",
									"type": "uint256"
								},
								{
									"internalType": "uint256",
									"name": "REJECTED",
									"type": "uint256"
								},
								{
									"internalType": "uint256",
									"name": "RETURNED",
									"type": "uint256"
								},
								{
									"internalType": "uint256",
									"name": "COMPLETED",
									"type": "uint256"
								}
							],
							"internalType": "struct StepsStatus",
							"name": "steps",
							"type": "tuple"
						}
					],
					"internalType": "struct LeasePact[]",
					"name": "",
					"type": "tuple[]"
				}
			],
			"stateMutability": "view",
			"type": "function"
		},
		{
			"inputs": [
				{
					"internalType": "address",
					"name": "addr",
					"type": "address"
				}
			],
			"name": "getLeasePactOwned",
			"outputs": [
				{
					"components": [
						{
							"internalType": "uint256",
							"name": "id",
							"type": "uint256"
						},
						{
							"internalType": "uint256",
							"name": "equipmentId",
							"type": "uint256"
						},
						{
							"internalType": "string",
							"name": "equipmentName",
							"type": "string"
						},
						{
							"internalType": "string",
							"name": "renterName",
							"type": "string"
						},
						{
							"internalType": "address",
							"name": "owner",
							"type": "address"
						},
						{
							"internalType": "address",
							"name": "renter",
							"type": "address"
						},
						{
							"components": [
								{
									"internalType": "uint256",
									"name": "unitPrice",
									"type": "uint256"
								},
								{
									"internalType": "uint256",
									"name": "totalPrice",
									"type": "uint256"
								},
								{
									"internalType": "uint256",
									"name": "deposit",
									"type": "uint256"
								},
								{
									"internalType": "bool",
									"name": "isPaid",
									"type": "bool"
								}
							],
							"internalType": "struct Price",
							"name": "price",
							"type": "tuple"
						},
						{
							"components": [
								{
									"internalType": "uint256",
									"name": "startTime",
									"type": "uint256"
								},
								{
									"internalType": "uint256",
									"name": "endTime",
									"type": "uint256"
								},
								{
									"internalType": "uint256",
									"name": "userid",
									"type": "uint256"
								},
								{
									"internalType": "enum OccupyType",
									"name": "occupyType",
									"type": "uint8"
								}
							],
							"internalType": "struct Period",
							"name": "period",
							"type": "tuple"
						},
						{
							"components": [
								{
									"internalType": "uint256",
									"name": "CREATED",
									"type": "uint256"
								},
								{
									"internalType": "uint256",
									"name": "CANCELED",
									"type": "uint256"
								},
								{
									"internalType": "uint256",
									"name": "APPROVED",
									"type": "uint256"
								},
								{
									"internalType": "uint256",
									"name": "REJECTED",
									"type": "uint256"
								},
								{
									"internalType": "uint256",
									"name": "RETURNED",
									"type": "uint256"
								},
								{
									"internalType": "uint256",
									"name": "COMPLETED",
									"type": "uint256"
								}
							],
							"internalType": "struct StepsStatus",
							"name": "steps",
							"type": "tuple"
						}
					],
					"internalType": "struct LeasePact[]",
					"name": "",
					"type": "tuple[]"
				}
			],
			"stateMutability": "view",
			"type": "function"
		},
		{
			"inputs": [
				{
					"internalType": "address",
					"name": "addr",
					"type": "address"
				}
			],
			"name": "getLeasePactRented",
			"outputs": [
				{
					"components": [
						{
							"internalType": "uint256",
							"name": "id",
							"type": "uint256"
						},
						{
							"internalType": "uint256",
							"name": "equipmentId",
							"type": "uint256"
						},
						{
							"internalType": "string",
							"name": "equipmentName",
							"type": "string"
						},
						{
							"internalType": "string",
							"name": "renterName",
							"type": "string"
						},
						{
							"internalType": "address",
							"name": "owner",
							"type": "address"
						},
						{
							"internalType": "address",
							"name": "renter",
							"type": "address"
						},
						{
							"components": [
								{
									"internalType": "uint256",
									"name": "unitPrice",
									"type": "uint256"
								},
								{
									"internalType": "uint256",
									"name": "totalPrice",
									"type": "uint256"
								},
								{
									"internalType": "uint256",
									"name": "deposit",
									"type": "uint256"
								},
								{
									"internalType": "bool",
									"name": "isPaid",
									"type": "bool"
								}
							],
							"internalType": "struct Price",
							"name": "price",
							"type": "tuple"
						},
						{
							"components": [
								{
									"internalType": "uint256",
									"name": "startTime",
									"type": "uint256"
								},
								{
									"internalType": "uint256",
									"name": "endTime",
									"type": "uint256"
								},
								{
									"internalType": "uint256",
									"name": "userid",
									"type": "uint256"
								},
								{
									"internalType": "enum OccupyType",
									"name": "occupyType",
									"type": "uint8"
								}
							],
							"internalType": "struct Period",
							"name": "period",
							"type": "tuple"
						},
						{
							"components": [
								{
									"internalType": "uint256",
									"name": "CREATED",
									"type": "uint256"
								},
								{
									"internalType": "uint256",
									"name": "CANCELED",
									"type": "uint256"
								},
								{
									"internalType": "uint256",
									"name": "APPROVED",
									"type": "uint256"
								},
								{
									"internalType": "uint256",
									"name": "REJECTED",
									"type": "uint256"
								},
								{
									"internalType": "uint256",
									"name": "RETURNED",
									"type": "uint256"
								},
								{
									"internalType": "uint256",
									"name": "COMPLETED",
									"type": "uint256"
								}
							],
							"internalType": "struct StepsStatus",
							"name": "steps",
							"type": "tuple"
						}
					],
					"internalType": "struct LeasePact[]",
					"name": "",
					"type": "tuple[]"
				}
			],
			"stateMutability": "view",
			"type": "function"
		},
		{
			"inputs": [
				{
					"internalType": "address",
					"name": "addrs",
					"type": "address"
				}
			],
			"name": "getUser",
			"outputs": [
				{
					"components": [
						{
							"internalType": "uint256",
							"name": "id",
							"type": "uint256"
						},
						{
							"internalType": "address",
							"name": "addres",
							"type": "address"
						},
						{
							"internalType": "uint256",
							"name": "createTime",
							"type": "uint256"
						},
						{
							"internalType": "string",
							"name": "name",
							"type": "string"
						},
						{
							"internalType": "string",
							"name": "avatar",
							"type": "string"
						},
						{
							"internalType": "string",
							"name": "email",
							"type": "string"
						},
						{
							"internalType": "string",
							"name": "tellphone",
							"type": "string"
						},
						{
							"internalType": "string",
							"name": "organization",
							"type": "string"
						},
						{
							"internalType": "uint256",
							"name": "rating",
							"type": "uint256"
						},
						{
							"internalType": "uint256[]",
							"name": "permission",
							"type": "uint256[]"
						}
					],
					"internalType": "struct User",
					"name": "",
					"type": "tuple"
				}
			],
			"stateMutability": "view",
			"type": "function"
		},
		{
			"inputs": [],
			"name": "getUserAll",
			"outputs": [
				{
					"components": [
						{
							"internalType": "uint256",
							"name": "id",
							"type": "uint256"
						},
						{
							"internalType": "address",
							"name": "addres",
							"type": "address"
						},
						{
							"internalType": "uint256",
							"name": "createTime",
							"type": "uint256"
						},
						{
							"internalType": "string",
							"name": "name",
							"type": "string"
						},
						{
							"internalType": "string",
							"name": "avatar",
							"type": "string"
						},
						{
							"internalType": "string",
							"name": "email",
							"type": "string"
						},
						{
							"internalType": "string",
							"name": "tellphone",
							"type": "string"
						},
						{
							"internalType": "string",
							"name": "organization",
							"type": "string"
						},
						{
							"internalType": "uint256",
							"name": "rating",
							"type": "uint256"
						},
						{
							"internalType": "uint256[]",
							"name": "permission",
							"type": "uint256[]"
						}
					],
					"internalType": "struct User[]",
					"name": "_users",
					"type": "tuple[]"
				}
			],
			"stateMutability": "view",
			"type": "function"
		},
		{
			"inputs": [
				{
					"internalType": "uint256",
					"name": "startIndex",
					"type": "uint256"
				},
				{
					"internalType": "uint256",
					"name": "length",
					"type": "uint256"
				}
			],
			"name": "getUserBatch",
			"outputs": [
				{
					"components": [
						{
							"internalType": "uint256",
							"name": "id",
							"type": "uint256"
						},
						{
							"internalType": "address",
							"name": "addres",
							"type": "address"
						},
						{
							"internalType": "uint256",
							"name": "createTime",
							"type": "uint256"
						},
						{
							"internalType": "string",
							"name": "name",
							"type": "string"
						},
						{
							"internalType": "string",
							"name": "avatar",
							"type": "string"
						},
						{
							"internalType": "string",
							"name": "email",
							"type": "string"
						},
						{
							"internalType": "string",
							"name": "tellphone",
							"type": "string"
						},
						{
							"internalType": "string",
							"name": "organization",
							"type": "string"
						},
						{
							"internalType": "uint256",
							"name": "rating",
							"type": "uint256"
						},
						{
							"internalType": "uint256[]",
							"name": "permission",
							"type": "uint256[]"
						}
					],
					"internalType": "struct User[]",
					"name": "_users",
					"type": "tuple[]"
				}
			],
			"stateMutability": "view",
			"type": "function"
		},
		{
			"inputs": [
				{
					"internalType": "uint256",
					"name": "usrid",
					"type": "uint256"
				}
			],
			"name": "getUserByID",
			"outputs": [
				{
					"components": [
						{
							"internalType": "uint256",
							"name": "id",
							"type": "uint256"
						},
						{
							"internalType": "address",
							"name": "addres",
							"type": "address"
						},
						{
							"internalType": "uint256",
							"name": "createTime",
							"type": "uint256"
						},
						{
							"internalType": "string",
							"name": "name",
							"type": "string"
						},
						{
							"internalType": "string",
							"name": "avatar",
							"type": "string"
						},
						{
							"internalType": "string",
							"name": "email",
							"type": "string"
						},
						{
							"internalType": "string",
							"name": "tellphone",
							"type": "string"
						},
						{
							"internalType": "string",
							"name": "organization",
							"type": "string"
						},
						{
							"internalType": "uint256",
							"name": "rating",
							"type": "uint256"
						},
						{
							"internalType": "uint256[]",
							"name": "permission",
							"type": "uint256[]"
						}
					],
					"internalType": "struct User",
					"name": "",
					"type": "tuple"
				}
			],
			"stateMutability": "view",
			"type": "function"
		},
		{
			"inputs": [
				{
					"internalType": "address",
					"name": "",
					"type": "address"
				}
			],
			"name": "haveGotEth",
			"outputs": [
				{
					"internalType": "bool",
					"name": "",
					"type": "bool"
				}
			],
			"stateMutability": "view",
			"type": "function"
		},
		{
			"inputs": [
				{
					"internalType": "uint256",
					"name": "equipmentId",
					"type": "uint256"
				}
			],
			"name": "maintainEquipment",
			"outputs": [],
			"stateMutability": "nonpayable",
			"type": "function"
		},
		{
			"inputs": [
				{
					"internalType": "uint256",
					"name": "equipmentId",
					"type": "uint256"
				},
				{
					"internalType": "uint256",
					"name": "startTime",
					"type": "uint256"
				},
				{
					"internalType": "uint256",
					"name": "endTime",
					"type": "uint256"
				}
			],
			"name": "maintainEquipment",
			"outputs": [],
			"stateMutability": "nonpayable",
			"type": "function"
		},
		{
			"inputs": [
				{
					"internalType": "address",
					"name": "addrs",
					"type": "address"
				}
			],
			"name": "removeAdmin",
			"outputs": [],
			"stateMutability": "nonpayable",
			"type": "function"
		},
		{
			"inputs": [
				{
					"internalType": "uint256",
					"name": "equipmentId",
					"type": "uint256"
				}
			],
			"name": "removeEquipment",
			"outputs": [],
			"stateMutability": "nonpayable",
			"type": "function"
		},
		{
			"inputs": [
				{
					"internalType": "uint256",
					"name": "equipmentId",
					"type": "uint256"
				},
				{
					"internalType": "uint256",
					"name": "startTime",
					"type": "uint256"
				},
				{
					"internalType": "uint256",
					"name": "endTime",
					"type": "uint256"
				}
			],
			"name": "requireEquipAvailable",
			"outputs": [
				{
					"internalType": "int256",
					"name": "",
					"type": "int256"
				}
			],
			"stateMutability": "view",
			"type": "function"
		},
		{
			"inputs": [
				{
					"internalType": "uint256",
					"name": "leaseId",
					"type": "uint256"
				}
			],
			"name": "reserveApprove",
			"outputs": [],
			"stateMutability": "nonpayable",
			"type": "function"
		},
		{
			"inputs": [
				{
					"internalType": "uint256",
					"name": "leaseId",
					"type": "uint256"
				}
			],
			"name": "reserveCancel",
			"outputs": [],
			"stateMutability": "nonpayable",
			"type": "function"
		},
		{
			"inputs": [
				{
					"internalType": "uint256",
					"name": "leaseId",
					"type": "uint256"
				}
			],
			"name": "reserveComplete",
			"outputs": [],
			"stateMutability": "nonpayable",
			"type": "function"
		},
		{
			"inputs": [
				{
					"internalType": "uint256",
					"name": "equipmentId",
					"type": "uint256"
				},
				{
					"internalType": "uint256",
					"name": "startTime",
					"type": "uint256"
				},
				{
					"internalType": "uint256",
					"name": "endTime",
					"type": "uint256"
				}
			],
			"name": "reserveEquipment",
			"outputs": [],
			"stateMutability": "nonpayable",
			"type": "function"
		},
		{
			"inputs": [
				{
					"internalType": "uint256",
					"name": "leaseId",
					"type": "uint256"
				}
			],
			"name": "reservePopose",
			"outputs": [],
			"stateMutability": "nonpayable",
			"type": "function"
		},
		{
			"inputs": [
				{
					"internalType": "uint256",
					"name": "leaseId",
					"type": "uint256"
				}
			],
			"name": "reserveReject",
			"outputs": [],
			"stateMutability": "nonpayable",
			"type": "function"
		},
		{
			"inputs": [],
			"name": "token",
			"outputs": [
				{
					"internalType": "uint256",
					"name": "id",
					"type": "uint256"
				},
				{
					"internalType": "string",
					"name": "name",
					"type": "string"
				},
				{
					"internalType": "string",
					"name": "symbol",
					"type": "string"
				},
				{
					"internalType": "uint256",
					"name": "decimals",
					"type": "uint256"
				},
				{
					"internalType": "uint256",
					"name": "totalSupply",
					"type": "uint256"
				}
			],
			"stateMutability": "view",
			"type": "function"
		},
		{
			"inputs": [
				{
					"internalType": "address",
					"name": "to",
					"type": "address"
				},
				{
					"internalType": "uint256",
					"name": "amount",
					"type": "uint256"
				}
			],
			"name": "transfer",
			"outputs": [
				{
					"internalType": "bool",
					"name": "",
					"type": "bool"
				}
			],
			"stateMutability": "nonpayable",
			"type": "function"
		},
		{
			"inputs": [
				{
					"internalType": "uint256",
					"name": "equipmentId",
					"type": "uint256"
				}
			],
			"name": "unfreezeEquipment",
			"outputs": [],
			"stateMutability": "nonpayable",
			"type": "function"
		},
		{
			"inputs": [
				{
					"internalType": "uint256",
					"name": "equipmentId",
					"type": "uint256"
				},
				{
					"internalType": "string",
					"name": "name",
					"type": "string"
				},
				{
					"internalType": "string",
					"name": "category",
					"type": "string"
				},
				{
					"internalType": "string",
					"name": "descLink",
					"type": "string"
				},
				{
					"internalType": "string",
					"name": "imagesLink",
					"type": "string"
				},
				{
					"internalType": "uint256",
					"name": "deposit",
					"type": "uint256"
				},
				{
					"internalType": "uint256",
					"name": "unitPrice",
					"type": "uint256"
				}
			],
			"name": "updateEquipment",
			"outputs": [],
			"stateMutability": "nonpayable",
			"type": "function"
		},
		{
			"inputs": [
				{
					"internalType": "string",
					"name": "name",
					"type": "string"
				},
				{
					"internalType": "string",
					"name": "avatar",
					"type": "string"
				},
				{
					"internalType": "string",
					"name": "email",
					"type": "string"
				},
				{
					"internalType": "string",
					"name": "tellphone",
					"type": "string"
				},
				{
					"internalType": "string",
					"name": "organization",
					"type": "string"
				}
			],
			"name": "updateUser",
			"outputs": [],
			"stateMutability": "nonpayable",
			"type": "function"
		},
		{
			"inputs": [
				{
					"internalType": "address",
					"name": "addrs",
					"type": "address"
				},
				{
					"internalType": "string",
					"name": "name",
					"type": "string"
				},
				{
					"internalType": "string",
					"name": "avatar",
					"type": "string"
				},
				{
					"internalType": "string",
					"name": "email",
					"type": "string"
				},
				{
					"internalType": "string",
					"name": "tellphone",
					"type": "string"
				},
				{
					"internalType": "string",
					"name": "organization",
					"type": "string"
				}
			],
			"name": "updateUser",
			"outputs": [],
			"stateMutability": "nonpayable",
			"type": "function"
		}
	]
}